:100000000C9482000C94AC000C94AC000C94AC00EA
:100010000C94AC000C94AC000C94AC000C944E0C02
:100020000C94AC000C94AC000C94AC000C94AC00A0
:100030000C94AC000C94AC000C94AC000C94AC0090
:100040000C94AC000C94AC000C94180A0C94AC000A
:100050000C94EC0A0C94C20A0C94AC000C94AC0006
:100060000C94AC000C94AC000C94220B0C94AC00DF
:100070000C948C0A0C94620A0C94AC000C94AC00A6
:100080000C94AC000C94AC000C94AC00000021006B
:10009000240027002A0000002200250028002B0051
:1000A0000202020202020202040404040404040420
:1000B0000303030303030303010101010101010120
:1000C0000102040810204080010204081020408032
:1000D0000102040810204080010204081020408022
:1000E0000000000203000A0B0000000005040908DC
:1000F0000000000000000000000000000000000000
:10010000800C401011241FBECFEFD0E4DEBFCDBF66
:1001100024E1ACE1B2E001C01D92A93BB207E1F7D6
:1001200012E0A0E0B1E0ECE3FAE200E00BBF02C0B5
:1001300007900D92AC31B107D9F710E0C1E8D0E0DB
:1001400004C02197FE010E94CC11C038D107C9F725
:100150000E94EA0C0C9411150C9400009091371336
:1001600081E0913208F043C0809140138111FCCFAF
:100170008091361322E02093401321E020933F1317
:100180002FEF20933E1326E133E130933D1320936C
:100190003C1310923B1390933A13109239139091A1
:1001A0003913880F892B809339138091381381304C
:1001B00029F510923813809139138093BB008091F8
:1001C000BC0083FDF8CF85EC8093BC008091401388
:1001D0008230E1F380913E138F3F91F080913E1386
:1001E000803281F080913E13803371F084E0109270
:1001F00015131092371310921413089585EEE4CF5F
:1002000080E0F5CF82E0F3CF83E0F1CF90E0FC0116
:10021000E052FF4F2491FC01E054FF4F349180568F
:100220009F4FFC018491882359F12223C1F0225071
:100230002A30A8F4E22FF0E0E05EFE4F0C94CC11DF
:1002400059015D012A0141012F012F0145014B0197
:100250004F015501909180009F7790938000E82F87
:10026000F0E0EE0FFF1FEA56FF4FA591B4918FB754
:10027000F894EC91611124C030953E233C938FBFDC
:100280000895909180009F7DE8CF9091B0009F7776
:100290009093B000E4CF9091B0009F7DF9CF909102
:1002A00090009F7790939000DACF909190009F7D7F
:1002B000F9CF94B59F7794BDD2CF94B59F7DFBCFF6
:1002C0003E2BDCCFCF93DF9390E0FC01E054FF4F57
:1002D000249180569F4FFC0184918823D1F090E0B7
:1002E000880F991FFC01E457FF4FA591B491FC01C1
:1002F000EA56FF4FC591D49161110EC09FB7F89493
:100300008C91E22FE0958E238C932881E223E88361
:100310009FBFDF91CF9108958FB7F894EC91E22BB6
:10032000EC938FBFF6CF2FB7F894609110137091B4
:10033000111380911213909113132FBF0895AF9250
:10034000BF92CF92DF92EF92FF920F931F93CF93C2
:10035000DF936C017B018B01040F151FEB015E0124
:10036000AE18BF08C017D10759F06991D601ED91B9
:10037000FC910190F081E02DC6010995892B79F758
:10038000C501DF91CF911F910F91FF90EF90DF900A
:10039000CF90BF90AF900895FC01538D448D252FD1
:1003A00030E0842F90E0821B930B541710F0CF960F
:1003B000089501970895FC01918D828D981761F041
:1003C000A28DAE0FBF2FB11D5D968C91928D9F5F58
:1003D0009F73928F90E008958FEF9FEF0895FC0137
:1003E000918D828D981731F0828DE80FF11D858DEA
:1003F00090E008958FEF9FEF0895FC01918D228D7D
:10040000892F90E0805C9F4F821B91098F73992701
:10041000089583E693E10E94FD0121E0892B09F410
:1004200020E0822F089580E094E10E94FD0121E008
:10043000892B09F420E0822F0895FC01A48DA80FD8
:10044000B92FB11DA35ABF4F2C91848D90E0019616
:100450008F739927848FA689B7892C93A089B18936
:100460008C91837080648C93938D848D981306C0D7
:100470000288F389E02D80818F7D80830895EF923B
:10048000FF920F931F93CF93DF93EC0181E0888F4E
:100490009B8D8C8D98131AC0E889F989808185FF1E
:1004A00015C09FB7F894EE89FF896083E889F989C0
:1004B00080818370806480839FBF81E090E0DF91C2
:1004C000CF911F910F91FF90EF900895F62E0B8D15
:1004D00010E00F5F1F4F0F731127E02E8C8D8E11D0
:1004E0000CC00FB607FCFACFE889F989808185FF37
:1004F000F5CFCE010E941D02F1CFEB8DEC0FFD2F49
:10050000F11DE35AFF4FF0829FB7F8940B8FEA89F1
:10051000FB8980818062CFCF682F80E094E10C94CA
:100520003F02CF93DF93EC01888D8823B9F0AA892D
:10053000BB89E889F9898C9185FD03C0808186FD9E
:100540000DC00FB607FCF7CF8C9185FFF2CF8081ED
:1005500085FFEDCFCE010E941D02E9CFDF91CF9143
:10056000089580E090E0892B29F00E941302811108
:100570000E94000080E090E0892B29F00E9409028F
:1005800081110C940000089585ED8093BC0080914A
:10059000BC0084FDFCCF1092401308952091B60258
:1005A000260F3327331F21323105ECF420914013FD
:1005B000FC0190E080E0243069F082E00895A09191
:1005C000B6022191AC014A565D4FA40FB52FB11D63
:1005D0002C930196861798F38091B602680F60936A
:1005E000B60280E0089581E008950895E0914213F5
:1005F00080914113E81730F4F0E0ED5BFC4E808110
:1006000090E008958FEF9FEF0895909142138091AD
:1006100041132FEF3FEF981748F4E92FF0E0ED5B1F
:10062000FC4E208130E09F5F90934213C9010895F2
:100630008091411390914213891B990B0895CF9299
:10064000DF92EF92FF920F931F93CF93DF937C0182
:10065000CB018A0120911413222389F0EB016B0155
:10066000C40ED51ECC15DD0569F06991D701ED9159
:10067000FC910190F081E02DC7010995F3CF642F23
:100680000E94CE02C801DF91CF911F910F91FF9080
:10069000EF90DF90CF900895CF93DF931F92CDB767
:1006A000DEB76983209114132223F9F020913713C8
:1006B000203258F021E030E0FC013383228390E0C7
:1006C00080E00F90DF91CF91089580911513E82F6E
:1006D000F0E0EA5EFC4E998190838F5F8093151362
:1006E0008093371381E090E0ECCF61E0CE0101967A
:1006F0000E94CE02F7CF682F8DE994E10C944C0351
:1007000090E080E00895CF92DF92EF92FF920F93F6
:100710001F93CF93DF938C01EB01F894C09092026A
:10072000D0909302E0909402F09095026091840042
:100730007091850080919002909191027894681B4D
:10074000790B90E080E027E0660F771F881F991FE4
:100750002A95D1F720E137E240E050E00E94AA114B
:10076000243648F528838091880290918902A091CF
:100770008A02B0918B028C0D9D1DAE1DBF1D409154
:100780008C0250918D0260918E0270918F026C01EB
:100790007D01C41AD50AE60AF70AF801C082D1829F
:1007A000E282F382DF91CF911F910F91FF90EF9042
:1007B000DF90CF90089583E68883D5CF189B48C0FB
:1007C000209184003091850042981EBC0DB407FE34
:1007D000FDCF8EB51EBC0DB407FEFDCF9EB5429A6F
:1007E0008927982789278034910570F4880F991FED
:1007F000FC01EF57FD4E808191818F3F980741F1B9
:1008000001969183808308954091051350910613BA
:10081000483E5340A0F4E0910513F0910613EE0F0B
:10082000FF1FEF54F54F31832083E0910513F091C2
:100830000613EE0FFF1FEF51FD4F918380838091D0
:100840000513909106130196909306138093051358
:100850000895909140139111FCCF91E09093401333
:1008600090933F132FEF20933E1323E433E1309313
:100870003D1320933C1310923B132FEF260F209330
:100880003A139093391390913913880F892B8093E1
:100890003913809138138130E9F410923813809124
:1008A00039138093BB008091BC0083FDF8CF85ECA9
:1008B0008093BC00809140138130E1F380913B1321
:1008C000861710F460913B1310924213609341130A
:1008D000862F089585EEECCFFC0101900020E9F70A
:1008E0003197AF01481B590BBC0180E094E10C9497
:1008F0009F018F929F92AF92BF920F931F93CF93BE
:10090000DF93CDB7DEB7A1970FB6F894DEBF0FBE69
:10091000CDBF19A2423008F44AE08E010F5D1F4F8F
:10092000842E912CB12CA12CA50194010E94AA1116
:10093000E62FB901CA01EA30F4F4E05DD801EE9384
:100940008D01232B242B252B79F790E080E0109745
:1009500019F0CD010E946C04A1960FB6F894DEBF89
:100960000FBECDBFDF91CF911F910F91BF90AF9080
:100970009F908F900895E95CE1CFBC0190E080E00A
:100980004AE00C947904CF93DF9381E080931413B1
:100990008BE580933613109215131092371388E06D
:1009A00090E00E947B0390E080E00E947B030E9425
:1009B000AE0060E18BE50E942904D0E18DE994E16D
:1009C0000E940503C82F803118F480E30E948C0236
:1009D0006C2F70E090E080E040E10E947904D150FB
:1009E00069F7DF91CF910895CF93C82F8A3018F41B
:1009F00080E30E948C026C2F70E090E080E04AE07F
:100A0000CF910C94790486E391E00C946C040C94DF
:100A10006C04CF93DF930E946C04EC010E940305E9
:100A20008C0F9D1FDF91CF9108958F929F92AF926F
:100A3000BF92CF92DF92EF92FF92CF93DF936B0141
:100A40007C01AC019B010E94E812882371F089E3CC
:100A500091E0DF91CF91FF90EF90DF90CF90BF902A
:100A6000AF909F908F900C946C0446015701E894CE
:100A7000B7F82FEF3FEF4FE75FE7C501B4010E94E2
:100A8000E81281110DC02FEF3FEF4FE75FE7C5017F
:100A9000B4010E94481018161CF48DE391E0D9CFE0
:100AA0002FEF3FEF4FE75FE4C701B6010E94E3126B
:100AB00018161CF481E491E0CCCF2FEF3FEF4FE705
:100AC0005FECC701B6010E94481087FDF3CF20E01C
:100AD00030E0A901C701B6010E944810D0E0C0E093
:100AE00087FF08C08DE20E948C02EC01F7FAF094B7
:100AF000F7F8F0942DEC3CEC4CE45DE3C701B60153
:100B00000E94D6114B015C010E94B4126B017C0162
:100B10000E944D109B01AC01C501B4010E94D5118A
:100B20004B015C014AE0C701B6010E947904C80F7D
:100B3000D91F8EE20E948C02C80FD91F20E030E03E
:100B400040E251E4C501B4010E94AE100E94B4120B
:100B5000CB010E94BD048C0F9D1FDF91CF91FF90B0
:100B6000EF90DF90CF90BF90AF909F908F900895BF
:100B7000CF93DF93EC0188819981009711F00E9457
:100B80008913198218821D821C821B821A82DF91AE
:100B9000CF910895FC0180819181009711F00C9410
:100BA000891308950F931F93CF93DF93EC018881EE
:100BB0009981009759F02A813B812617370730F039
:100BC00081E0DF91CF911F910F9108958B016F5FAD
:100BD0007F4F0E941214009759F0998388831B83DA
:100BE0000A832C813D81232B59F7FC011082E8CF29
:100BF00080E0E7CFEF92FF920F931F93CF93DF93A5
:100C00006115710541F480E0DF91CF911F910F9143
:100C1000FF90EF90089541155105B1F07B01EC0173
:100C20000C811D81040F151FB8010E94D205882375
:100C300051F3288139818C819D81B701820F931FE7
:100C40000E94FC141D830C8381E0DECFEF92FF92A3
:100C50000F931F93CF93DF93EC017B0119821882CE
:100C60001B821A821D821C82FB0101900020E9F781
:100C700031978F01061B170BB8010E94D205811115
:100C800009C0CE01DF91CF911F910F91FF90EF909E
:100C90000C94B8051D830C83B70188819981DF917D
:100CA000CF911F910F91FF90EF900C94FC142F9215
:100CB0003F924F925F926F927F928F929F92AF92EC
:100CC000BF92CF92DF92EF92FF920F931F93CF9339
:100CD000DF93CDB7DEB7AF970FB6F894DEBF0FBE88
:100CE000CDBF9E01235F3F4F3AA329A3AE01475ECC
:100CF0005F4F5CA34BA383E693E10E94FD01892B28
:100D000009F49DC20E94DE0383E693E10E94DB01A9
:100D1000843231F48093240281E080932302EBCF6C
:100D2000E09123029FEF9E0F923608F085C2EE24D9
:100D3000E394EE0EE0922302F0E0EC5DFD4F808341
:100D40008A30C9F6EE2DF0E0EC5DFD4F108247E0F1
:100D500050E065E471E084E292E00E940315892B83
:100D600059F047E050E06DE471E084E292E00E94C7
:100D70000315892B09F060C28CE0A9A1BAA11D92CC
:100D80008A95E9F788E0EBA1FCA111928A95E9F731
:100D900004E212E0D12CF12CE0E040E0D8018D918A
:100DA0008D01CC24C394C40E8C3241F08D3031F0CF
:100DB000982F9F7D9A3011F0811117C04E1BB1E022
:100DC000FB1285C0463060F04B3008F04AE050E03E
:100DD0006E2F70E06C5D7D4FCE010D960E94F31476
:100DE000F394EC2D39E03F1518F04C2DEC14B0F6CF
:100DF00041E4D41207C08D85882321F081E0998DCC
:100E0000911101C080E05090220280932202882339
:100E100009F412C28D8580539AE02E852053922EBC
:100E2000899F900C11248F85805348894053899F56
:100E3000400D1124898980537A8850ED750E899F61
:100E4000700C1124898D80536A8C650E899F600C0B
:100E500011248B8D80538C8C850E899F800C1124DE
:100E60002D8D20538E8D8053299F800D1124E82FC6
:100E7000F0E0863408F447C0E459F84F02EB17E07D
:100E8000C12CD12C760120E931E094E6A92EB12CB9
:100E9000C801837099270E171F07E9F1892B31F4D8
:100EA000C801B5010E949611892B31F4C801B9011E
:100EB0000E949611892B51F58EE691E0A0E0B0E0FA
:100EC000C80ED91EEA1EFB1E0F5F1F4FE1CFF2E0D6
:100ED000FF1208C0442309F483CFF0E0EC5DFD4F1E
:100EE000D0807ECF29E0F2127BCF463008F478CF55
:100EF000F0E0EC5DFD4F86E0DE01599601900D9229
:100F00008A95E1F76DCFE053F84FB8CF8DE691E0C9
:100F1000A0E0B0E0D5CF2CE0E6E0F1E0DE011196F4
:100F200001900D922A95E1F7892B39F4C80164E606
:100F300070E00E949611892B39F4C80160E971E0D4
:100F40000E949611892BD9F49DE180E0A82DA15033
:100F5000BB0BBD01282F30E026173707A0F48130E6
:100F600081F0E1E0F0E0EC0FFD1F2E0F3F1FD901F3
:100F70002C91C20ED11CE11CF11C8F5FEBCF9CE1C8
:100F8000E4CF292FF6CFE091DC02F894292D30E050
:100F9000A0E1BEE00E9477114B015C01242F30E0FC
:100FA000ACE3B0E00E947711860E971EA81EB91E12
:100FB000870C911CA11CB11C262D2150330BC9019B
:100FC000A7019601280F391F411D511D60E871E5E9
:100FD00081E090E00E948611860E971EA81EB91E21
:100FE0008092880290928902A0928A02B0928B022B
:100FF0008091920290919302A0919402B0919502F7
:1010000080938C0290938D02A0938E02B0938F02F6
:1010100081E08093DC027894EE2311F051100CC132
:10102000F8944090920250909302609094027090D5
:1010300095028091880290918902A0918A02B091D4
:101040008B028DA39EA3AFA3B8A780918C02909131
:101050008D02A0918E02B0918F027894A30192012B
:10106000281B390B4A0B5B0B29A73AA74BA75CA798
:101070008DA09EA0AFA0B8A4820E931EA41EB51E84
:10108000C501B4012CE330E040E050E00E94AA1119
:101090006DA7CA01B9012CE330E040E050E00E94A6
:1010A000AA116EA7C501B40120E13EE040E050E086
:1010B0000E94AA11CA01B90128E130E040E050E0E5
:1010C0000E94AA116FA7C501B40120E831E541E0F3
:1010D00050E00E94AA1169017A0182EB282E87E074
:1010E000382E00E911E0E4E6F0E0910123703327A7
:1010F0002115310531F4C101BF010E949611892BE0
:1011000031F4C101B8010E949611892B89F48EE651
:1011100091E0B0E0A0E0C816D906EA06FB0658F058
:10112000C81AD90AEA0AFB0A3FEF231A330ADDCFAD
:101130008DE691E0EECF8CE0E6E0F1E0DE01119685
:1011400001900D928A95E1F7232B39F4C10164E6F1
:1011500070E00E949611892B41F4C10160E971E0B1
:101160000E9496112CE1892B09F42DE111E0822FC8
:10117000123021F0FE01E10FF11D808190E0B0E01E
:10118000A0E0C816D906EA06FB0630F0C81AD90A4C
:10119000EA0AFB0A1F5FEBCF85E591E00E94070595
:1011A0004AE0C301B2010E94790480ED91E00E94FF
:1011B00007054AE06DA17EA18FA198A50E94790440
:1011C00080ED91E00E9407054AE0C501B4010E944C
:1011D000790480ED91E00E9407054AE069A57AA5AF
:1011E0008BA59CA50E94790480ED91E00E940705E3
:1011F000C1010E94BD048DE20E948C02812F0E94D9
:10120000F4048DE20E948C0281E08C0D0E94F404B3
:1012100080E20E948C028FA50E94F4048AE30E945F
:101220008C028EA50E94F4048AE30E948C028DA594
:101230000E94F4040E940305109223025CCDAF9635
:101240000FB6F894DEBF0FBECDBFDF91CF911F91D7
:101250000F91FF90EF90DF90CF90BF90AF909F9055
:101260008F907F906F905F904F903F902F90089558
:10127000CF92DF92EF92FF920F931F93CF93DF9362
:1012800000D000D01F92CDB7DEB78091DC02811173
:1012900031C019821A821B821C821D8281E08093D8
:1012A000141385E48093361310921513109237139C
:1012B00064E28DE994E10E944C0360E08DE994E1E1
:1012C0000E944C030E94AE008111A4C00E949301B1
:1012D0006B017C010E9493016C197D098E099F09A5
:1012E0006F3071058105910568F40E94DE030E944C
:1012F0005706F0CFBE016B5F7F4FCE0101960E9473
:101300008303CCCF66E085E40E94290480914113D9
:1013100090914213891B990B06970CF47BC08DE9C1
:1013200094E10E940503182F8DE994E10E940503C2
:10133000E12CF12EE82AF92A8DE994E10E940503B7
:101340008DE994E10E940503182F8DE994E10E9434
:10135000050360E0712F8B01082B192B8DE994E1B7
:101360000E9405038CE591E00E9407058091DD0253
:101370009091DE020E94BD0480ED91E00E9407057D
:1013800069817A818B819C814AE00E9479048CEB8F
:1013900091E00E9407056D8170E090E080E04AE0F6
:1013A0000E94790480ED91E00E940705B70190E06A
:1013B00080E00E944D1020E03FEF4FE757E40E948D
:1013C000421220E030E04FE253E40E94AE1020E0F1
:1013D00030E044E352E40E94D5110E94150580EDEF
:1013E00091E00E940705B80190E080E00E944D1056
:1013F00020E03FEF4FE757E40E94421220E030E048
:1014000048EC52E40E94AE100E94150582E691E07D
:101410000E9409050F900F900F900F900F90DF9191
:10142000CF911F910F91FF90EF90DF90CF90089593
:101430001F920F920FB60F9211242F933F938F9309
:101440009F93AF93BF938091101390911113A0912C
:101450001213B091131330910F1326E0230F2D3781
:1014600068F129E8230F0396A11DB11D20930F13E6
:101470008093101390931113A0931213B09313132E
:1014800080910B1390910C13A0910D13B0910E133A
:101490000196A11DB11D80930B1390930C13A09383
:1014A0000D13B0930E13BF91AF919F918F913F9108
:1014B0002F910F900FBE0F901F9018950296A11DAF
:1014C000B11DD4CF1F920F920FB60F9211240BB6FD
:1014D0000F922F933F934F935F936F937F938F93CD
:1014E0009F93AF93BF93EF93FF9383E693E10E94A3
:1014F0001D02FF91EF91BF91AF919F918F917F91CD
:101500006F915F914F913F912F910F900BBE0F9074
:101510000FBE0F901F9018951F920F920FB60F924B
:1015200011240BB60F922F938F939F93EF93FF93FA
:10153000E0917313F09174138081E0917913F0912D
:101540007A1382FD1DC0908180917C138F5F8F7311
:1015500020917D13821741F0E0917C13F0E0ED596A
:10156000FC4E958F80937C13FF91EF919F918F910B
:101570002F910F900BBE0F900FBE0F901F901895DC
:101580008081F2CF1F920F920FB60F9211240BB6EB
:101590000F922F933F934F935F936F937F938F930C
:1015A0009F93AF93BF93EF93FF9380E094E10E94EA
:1015B0001D02FF91EF91BF91AF919F918F917F910C
:1015C0006F915F914F913F912F910F900BBE0F90B4
:1015D0000FBE0F901F9018951F920F920FB60F928B
:1015E00011240BB60F922F938F939F93EF93FF933A
:1015F000E0911014F09111148081E0911614F09193
:10160000171482FD1DC09081809119148F5F8F7314
:1016100020911A14821741F0E0911914F0E0E05083
:10162000FC4E958F80931914FF91EF919F918F91AC
:101630002F910F900BBE0F900FBE0F901F9018951B
:101640008081F2CF1F920F920FB60F9211240BB62A
:101650000F922F933F934F935F936F937F938F934B
:101660009F93AF93BF93EF93FF938091B900887FCF
:10167000803609F44DC008F040C0883209F4A7C094
:1016800028F5803109F49BC0C8F4882309F403C10C
:10169000883009F494C0FF91EF91BF91AF919F9171
:1016A0008F917F916F915F914F913F912F910F900B
:1016B0000BBE0F900FBE0F901F901895883109F444
:1016C00086C0803241F780933E1314C0803409F401
:1016D000A3C040F48033B9F38833E9F680933E1316
:1016E00085ECBAC0803509F487C0883509F49CC000
:1016F000883489F60E94C402CECF883909F492C09A
:1017000038F5883729F050F4883611F0803719F60B
:1017100083E0809340131092D80255C0883809F4B2
:1017200081C0803919F0803809F0B5CF8091D80296
:10173000803208F077C0E091D80281E08E0F80936C
:10174000D8028091BB00F0E0E854FD4F80833BC09D
:10175000803B39F0D0F4803A09F483C0883A09F02C
:101760009ACF84E0809340131092B7021092B60291
:10177000F0E0E0E009958091B60281110FC081E0B0
:101780008093B6021092960209C0803C09F4A8CF5B
:10179000883C09F4A5CF883B09F07DCFE091B702E2
:1017A00081E08E0F8093B702F0E0EA56FD4F808112
:1017B0008093BB009091B7028091B60231C08091B6
:1017C00039138093BB0085EC8093BC0064CF90916B
:1017D0003B1380913A139817B8F580913C13909180
:1017E0003D13E0913B1321E02E0F20933B13E80FB4
:1017F000F92FF11D8081E5CF20913C1330913D13ED
:10180000E0913B1381E08E0F80933B138091BB00EE
:10181000E20FF32FF11D808390913B1380913A13D7
:10182000981788F285E8D0CF20913C1330913D1372
:10183000E0913B1381E08E0F80933B138091BB00BE
:10184000E20FF32FF11D808380913F13811152CF5E
:1018500081E08093381384EA8093BC001092401397
:101860001ACF85EC8093BC00109240138091D8026F
:10187000803230F4E091D802F0E0E854FD4F10825D
:101880006091D80270E088EB92E0F0E0E0E009952A
:101890001092D80200CF10923E132CCF1F920F92BD
:1018A0000FB60F9211248F939F93AF93BF934C9BCE
:1018B00025C080918400909185009093910280933F
:1018C00090028091920290919302A0919402B09123
:1018D00095020196A11DB11D8093920290939302EF
:1018E000A0939402B0939502479ABF91AF919F91B4
:1018F0008F910F900FBE0F901F9018954798F5CFBE
:10190000E3E6F3E11382128288EE93E0A0E0B0E018
:1019100084839583A683B78326E131E031832083D6
:101920004DEC50E0558744874CEC50E05787468794
:1019300048EC50E0518B408B49EC50E0538B428B8C
:101940004AEC50E0558B448B4EEC50E0578B468B65
:10195000118E128E138E148EE0E0F4E11382128247
:1019600084839583A683B7833183208325EC30E07D
:101970003587248724EC30E03787268720EC30E059
:10198000318B208B21EC30E0338B228B22EC30E04A
:10199000358B248B26EC30E0378B268B118E128E04
:1019A000138E148EEDE9F4E1138212828483958301
:1019B000A683B78388E291E09183808363E771E037
:1019C0008FEA94E10E94260664EA71E089EA94E1D4
:1019D0000C942606CF93DF93CDB7DEB72C970FB6C6
:1019E000F894DEBF0FBECDBF789484B5836084BD0C
:1019F00085B5836085BD80916E00816080936E00A7
:101A000082E08093810090918100916090938100A9
:101A1000909180009160909380009091B1009460CB
:101A20009093B1009091B00091609093B00090912C
:101A300091009360909391009091900091609093A9
:101A4000900096E890937A001092C100E0911014F3
:101A5000F09111148083E0910C14F0910D14108218
:101A6000E0910E14F0910F1498E0908310921814E6
:101A7000E0911414F091151426E02083E0911214E3
:101A8000F0911314908198699083E0911214F09171
:101A9000131490819F7D9083E0917313F0917413E0
:101AA0008083E0916F13F09170131082E0917113B5
:101AB000F091721389E1808310927B13E091771388
:101AC000F09178132083E0917513F0917613808163
:101AD00088698083E0917513F091761380818F7D02
:101AE000808380E28093B8001FB7F8948091D90278
:101AF000811127C0E4EAF0E08491E4ECF0E09491F5
:101B0000E82FF0E0EE0FFF1FE457FF4FA591B491CF
:101B1000EC91E92321F461E084E00E94060161E098
:101B200084E00E9462018CB580618CBD8CB58064BC
:101B30008CBD61E087E00E94620161E085E00E9467
:101B400062018091D9028F5F8093D9021FBF81E526
:101B50008CBD1DBC1092800085E0809381001092A6
:101B600085001092840060E080E00E94620160E0E5
:101B70008CE00E94620161E082E10E94620161E00A
:101B80008FE00E94620161E085E10E94620161E0F4
:101B900086E10E94620161E087E10E94620161E0EA
:101BA0008FE00E94060161E082E10E9406018091BF
:101BB00068008860809368008091730080618093E2
:101BC000730085EB91E00E9409056EEB71E0CE0198
:101BD00001960E9426064091AD145091AE1460917A
:101BE000A9147091AA14CE0101960E94FA058111E0
:101BF00004C0CE0101960E94B80543E050E06EECAF
:101C000071E0CE0101960E94FA05811104C0CE0157
:101C100001960E94B8054091B3145091B41460919C
:101C2000AF147091B014CE0101960E94FA05811193
:101C300004C0CE0101960E94B80541E050E060ED7D
:101C400071E0CE0101960E94FA05811104C0CE0117
:101C500001960E94B80518861F821A8619861C866E
:101C60001B8609811A810115110569F0ED80FE803E
:101C7000B701CE0107960E94D20581113CC1CE0169
:101C800007960E94B805CE0101960E94CA054B85B1
:101C90005C856F81788580E094E10E949F010E94BD
:101CA000C3040E94030582ED91E00E9409058AEEBB
:101CB00091E00E9407050E94C30480ED91E00E941C
:101CC000070581E08093141383E580933613109207
:101CD00015131092371390E080E00E947B0390E090
:101CE00080E00E947B030E94AE0062E083E50E94D8
:101CF00029048DE994E10E940503182F8093DB02EB
:101D00008DE994E10E9405038093DA02103118F402
:101D100080E30E948C02612F70E090E080E040E15F
:101D20000E9479041091DA02103118F480E30E94C5
:101D30008C02612F70E090E080E040E10E94790425
:101D40000E9403058CEF91E00E9409050E9438096A
:101D500060E085E10E94060160E086E10E940601E4
:101D600060E087E10E940601E1E8F2E180E8DF013E
:101D70001D928A95E9F780ED97E0E1EBFAE0DF014B
:101D80009C011D9221503040E1F7E1EEF2E0DF01CD
:101D90009C011D9221503040E1F7109206131092E1
:101DA00005130E94930160930713709308138093A7
:101DB000091390930A130E94930160930113709387
:101DC00002138093031390930413809184009091E5
:101DD00085009093E0028093DF02CE0107960E9477
:101DE000CA0591E0292E93E1392E20ED822E27E0BD
:101DF000922E0E94DE030E9457060E9493012B013F
:101E00003C018091071390910813A0910913B091A0
:101E10000A13A3019201281B390B4A0B5B0BDA0151
:101E2000C90180319742A105B10540F480910513A5
:101E300090910613883E934008F4F4C04092071333
:101E4000509208136092091370920A1361E086E1C0
:101E50000E9406018091DC02811155C019821A820C
:101E60001B821C821F82F894A0908400B090850091
:101E7000C0900513D09006130091DF021091E0028C
:101E8000789485E092E00E9407058091DD029091B0
:101E9000DE020E94BD0480ED91E00E940705C801AA
:101EA0000E94BD040E94030510E000E0C016D106A8
:101EB00091F1083E53E0150771F10E94DE038DE0B9
:101EC00092E00E9407057801EE0CFF1CF701EF5429
:101ED000F54F808191810E94BD0480ED91E00E94C8
:101EE0000705F701EF51FD4F808191810E94BD04EC
:101EF0000F5F1F4FDBCFFC86EB86B8018F81988583
:101F00000E94FC14C0CEBE01695F7F4FCE010196D6
:101F10000E948303A8CF83E192E00E94070580918D
:101F2000DD029091DE020E94BD0480ED91E00E94EE
:101F3000070569817A818B819C814AE00E9479043E
:101F40008CEB91E00E9407056F8170E090E080E0EB
:101F50004AE00E94790480ED91E00E940705C501E6
:101F60000E94BD0480ED91E00E940705C6010E9419
:101F7000BD0401E812E10E94DE0380ED91E00E94C1
:101F80000705D8018D919D918D010E94BD042016F9
:101F9000310689F70E9403058091DD029091DE02EF
:101FA00001969093DE028093DD02E1E8F2E120E801
:101FB00011922A95E9F7A1EBBAE0F4011D9231974D
:101FC000E9F7A1EEB2E0F4011D923197E9F7109222
:101FD00006131092051380918400909185009093D0
:101FE000E0028093DF0261E08FE00E94060160E082
:101FF00082E10E9406010CB405FC36C01EBC000044
:102000000DB407FEFDCF8EB51EBC00000DB407FE5B
:10201000FDCF8EB561E082E10E94060160E086E1BD
:102020000E9406018091011390910213A091031365
:10203000B0910413A3019201281B390B4A0B5B0BCF
:10204000DA01C90180339547A105B10550F04092EE
:1020500001135092021360920313709204130E94B2
:1020600038090E94B102C5CE1EBC00000DB407FEA7
:10207000FDCF8EB51EBC00000DB407FEFDCFC9CF4D
:1020800089EA94E10E94CA058FEA94E10C94CA059A
:102090000E948A1008F481E00895E89409C097FB33
:1020A0003EF490958095709561957F4F8F4F9F4F2F
:1020B0009923A9F0F92F96E9BB279395F695879573
:1020C00077956795B795F111F8CFFAF4BB0F11F436
:1020D00060FF1BC06F5F7F4F8F4F9F4F16C08823DD
:1020E00011F096E911C0772321F09EE8872F762F13
:1020F00005C0662371F096E8862F70E060E02AF054
:102100009A95660F771F881FDAF7880F969587953F
:1021100097F90895990F0008550FAA0BE0E8FEEF14
:1021200016161706E807F907C0F012161306E4079B
:10213000F50798F0621B730B840B950B39F40A2694
:1021400061F0232B242B252B21F408950A2609F472
:10215000A140A6958FEF811D811D08950E94C11099
:102160000C9432110E94241138F00E942B1120F09F
:10217000952311F00C941B110C94211111240C9433
:1021800066110E94431170F3959FC1F3950F50E0C3
:10219000551F629FF001729FBB27F00DB11D639F19
:1021A000AA27F00DB11DAA1F649F6627B00DA11DBF
:1021B000661F829F2227B00DA11D621F739FB00D65
:1021C000A11D621F839FA00D611D221F749F3327D5
:1021D000A00D611D231F849F600D211D822F762F6E
:1021E0006A2F11249F5750409AF0F1F088234AF04B
:1021F000EE0FFF1FBB1F661F771F881F91505040B7
:10220000A9F79E3F510580F00C941B110C946611A8
:102210005F3FE4F3983ED4F3869577956795B7953D
:10222000F795E7959F5FC1F7FE2B880F911D969557
:10223000879597F9089597F99F6780E870E060E0C7
:1022400008959FEF80EC089500240A94161617064F
:1022500018060906089500240A9412161306140697
:1022600005060895092E0394000C11F4882352F0FA
:10227000BB0F40F4BF2B11F460FF04C06F5F7F4FB2
:102280008F4F9F4F089557FD9058440F551F59F099
:102290005F3F71F04795880F97FB991F61F09F3F53
:1022A00079F087950895121613061406551FF2CF7C
:1022B0004695F1DF08C0161617061806991FF1CFCC
:1022C00086957105610508940895E894BB276627F3
:1022D0007727CB0197F908950E947711A59F900D5C
:1022E000B49F900DA49F800D911D11240895A29F6D
:1022F000B001B39FC001A39F700D811D1124911DDA
:10230000B29F700D811D1124911D0895DB018F93E3
:102310009F930E946C11BF91AF91A29F800D911D60
:10232000A39F900DB29F900D11240895AA1BBB1B73
:1023300051E107C0AA1FBB1FA617B70710F0A61BC5
:10234000B70B881F991F5A95A9F780959095BC01E6
:10235000CD010895A1E21A2EAA1BBB1BFD010DC0E1
:10236000AA1FBB1FEE1FFF1FA217B307E407F50745
:1023700020F0A21BB30BE40BF50B661F771F881F21
:10238000991F1A9469F760957095809590959B01B7
:10239000AC01BD01CF010895EE0FFF1F0024001C0A
:1023A0000BBE0790F691E02D09945058BB27AA2741
:1023B0000E94ED110C9432110E94241138F00E94F9
:1023C0002B1120F039F49F3F19F426F40C942111BD
:1023D0000EF4E095E7FB0C941B11E92F0E944311CA
:1023E00058F3BA17620773078407950720F079F44A
:1023F000A6F50C9465110EF4E0950B2EBA2FA02DC6
:102400000B01B90190010C01CA01A0011124FF27A1
:10241000591B99F0593F50F4503E68F11A16F0409C
:10242000A22F232F342F4427585FF3CF469537959B
:102430002795A795F0405395C9F77EF41F16BA0B60
:10244000620B730B840BBAF09150A1F0FF0FBB1F0E
:10245000661F771F881FC2F70EC0BA0F621F731F57
:10246000841F48F4879577956795B795F7959E3FB4
:1024700008F0B0CF9395880F08F09927EE0F979545
:10248000879508950E9456120C9432110E942B11C8
:1024900058F00E94241140F029F45F3F29F00C9479
:1024A0001B1151110C9466110C9421110E944311BF
:1024B00068F39923B1F3552391F3951B550BBB2773
:1024C000AA2762177307840738F09F5F5F4F220FB8
:1024D000331F441FAA1FA9F335D00E2E3AF0E0E8AF
:1024E00032D091505040E695001CCAF72BD0FE2FF9
:1024F00029D0660F771F881FBB1F2617370748078D
:10250000AB07B0E809F0BB0B802DBF01FF27935844
:102510005F4F3AF09E3F510578F00C941B110C94DC
:1025200066115F3FE4F3983ED4F3869577956795FF
:10253000B795F7959F5FC9F7880F911D9695879579
:1025400097F90895E1E0660F771F881FBB1F621798
:1025500073078407BA0720F0621B730B840BBA0B56
:10256000EE1F88F7E09508950E944B1188F09F5761
:1025700098F0B92F9927B751B0F0E1F0660F771FA7
:10258000881F991F1AF0BA95C9F714C0B13091F09D
:102590000E946511B1E008950C946511672F782FA2
:1025A0008827B85F39F0B93FCCF386957795679562
:1025B000B395D9F73EF490958095709561957F4FCE
:1025C0008F4F9F4F08950E948A1008F48FEF08954F
:1025D0000E948A10880B990B08950F931F93CF9335
:1025E000DF938230910510F482E090E0E091B7141F
:1025F000F091B81430E020E0B0E0A0E0309799F41A
:102600002115310509F44AC0281B390B2430310546
:10261000D8F58A819B816115710589F1FB0193834E
:102620008283FE0111C040815181028113814817CC
:102630005907E0F04817590799F4109761F012967E
:102640000C93129713961C933296CF01DF91CF9182
:102650001F910F9108950093B7141093B814F4CFFD
:102660002115310551F04217530738F0A901DB015C
:102670009A01BD01DF01F801C1CFEF01F9CF9093BD
:10268000B8148093B714CDCFFE01E20FF31F8193EE
:1026900091932250310939832883D7CF2091B514E3
:1026A0003091B614232B41F42091020130910301A3
:1026B0003093B6142093B51420910001309101019C
:1026C0002115310541F42DB73EB7409104015091D9
:1026D0000501241B350BE091B514F091B614E217F7
:1026E000F307A0F42E1B3F0B2817390778F0AC0135
:1026F0004E5F5F4F2417350748F04E0F5F1F509312
:10270000B6144093B514819391939FCFF0E0E0E02D
:102710009CCFCF93DF930097E9F0FC0132971382AF
:102720001282A091B714B091B814ED0130E020E00E
:102730001097A1F420813181820F931F2091B5144D
:102740003091B6142817390709F061C0F093B61418
:10275000E093B514DF91CF910895EA01CE17DF071A
:10276000E8F54A815B819E0141155105B1F7E90108
:10277000FB83EA8349915991C40FD51FEC17FD07DC
:1027800061F4808191810296840F951FE9019983FC
:102790008883828193819B838A83F0E0E0E01296B4
:1027A0008D919C9113970097B9F52D913C911197BC
:1027B000CD010296820F931F2091B5143091B6146B
:1027C0002817390739F6309751F51092B81410923E
:1027D000B714B093B614A093B514BCCFD383C283FF
:1027E00040815181840F951FC817D90761F44E5F4E
:1027F0005F4F88819981480F591F518340838A8197
:102800009B81938382832115310509F0B0CFF0932A
:10281000B814E093B7149ECFFD01DC01C0CF138242
:102820001282D7CF4F925F926F927F928F929F9238
:10283000AF92BF92CF92DF92EF92FF920F931F93CE
:10284000CF93DF938C01009799F4CB01DF91CF9167
:102850001F910F91FF90EF90DF90CF90BF90AF90BE
:102860009F908F907F906F905F904F900C94ED129F
:10287000FC01E60FF71F9C0122503109E217F30714
:1028800008F4AEC0D901CD91DC911197C617D707D6
:1028900020F1C530D10578F0CE010497861797074F
:1028A00050F0C61BD70B2297C193D1936D937C93A5
:1028B000CF010E948913C801DF91CF911F910F9121
:1028C000FF90EF90DF90CF90BF90AF909F908F9050
:1028D0007F906F905F904F9008955B01AC1ABD0A96
:1028E0004C018C0E9D1EA091B714B091B814512CC0
:1028F000412CF12CE12C109731F58091B514909179
:10290000B6148815990509F05CC04616570608F0FC
:1029100058C08091000190910101009741F48DB75A
:102920009EB74091040150910501841B950BE81757
:10293000F90708F055C0F093B614E093B514F90107
:1029400071836083B8CF8D919C91119712966C9092
:10295000129713967C901397A815B90559F56C0139
:1029600042E0C40ED11CCA14DB0420F1AC014A19A8
:102970005B09DA011296159780F0628273825183A7
:102980004083D9016D937C93E114F10471F0D70178
:102990001396FC93EE9312978ECF22968C0F9D1F69
:1029A000F90191838083F301EFCFF093B814E093A2
:1029B000B71481CF4816590608F42C017D01D301C4
:1029C0009ACFCB010E94ED127C01009749F0AE0135
:1029D000B8010E94F314C8010E94891387016BCFCC
:1029E00010E000E068CFFB01DC0102C001900D9215
:1029F00041505040D8F70895FB01DC0101900D9241
:102A00000020E1F70895FB01DC014150504030F017
:102A10008D910190801919F40020B9F7881B990B4A
:102A2000089510E0C1E8D0E004C0FE010E94CC117E
:0C2A30002196C238D107C9F7F894FFCFF7
:102A3C000000B91480001F1C1F1E1F1E1F1F1E1F0D
:102A4C001E1F000000003F029F01CC019102FD01FE
:102A5C00DB01EF01000000004C031F038003F502B3
:102A6C0018030503F6020D0A006E616E00696E66AE
:102A7C00006F766600244750524D432C0024474E7D
:102A8C00524D432C002454494D452C0024454E56A0
:102A9C002C002C4E614E2C4E614E2C4E614E2C4E09
:102AAC00614E0030643537396461646433366631A5
:102ABC003562366465326430366431643138663080
:102ACC0032343837633038346638382C43494275E1
:102ADC00696C6400312E332E312D35342D4349422F
:102AEC0075696C6400234376616B2E2E2E00244492
:102AFC004F532C414952444F533033422C002C300D
:102B0C002C002444415441464F524D41542C5645BF
:102B1C005253494F4E5F322E3100244144432C55C1
:102B2C005354534950494E3033432C0023486D6D58
:102B3C006D2E2E2E002453544152542C000D0A2479
:0C2B4C00452C000D0A2453544F502C005F
:00000001FF
