:100000000C9482000C94AC000C94AC000C94AC00EA
:100010000C94AC000C94AC000C94AC000C94AC00B0
:100020000C94AC000C94AC000C94AC000C94AC00A0
:100030000C94AC000C94AC000C94AC000C94AC0090
:100040000C94AC000C94AC000C9434050C94AC00F3
:100050000C94A8050C947E050C94AC000C94AC0098
:100060000C94AC000C94AC000C94DE050C94AC0029
:100070000C94AC000C94AC000C94AC000C94AC0050
:100080000C94AC000C94AC000C94AC00000021006B
:10009000240027002A0000002200250028002B0051
:1000A0000202020202020202040404040404040420
:1000B0000303030303030303010101010101010120
:1000C0000102040810204080010204081020408032
:1000D0000102040810204080010204081020408022
:1000E0000000000203000A0B0000000005040908DC
:1000F0000000000000000000000000000000000000
:100100000A075D0911241FBECFEFD0E4DEBFCDBFCB
:100110002BE0ACEAB1E001C01D92A930B207E1F7D3
:1001200011E0A0E0B1E0E6E6F7E100E00BBF02C0BD
:1001300007900D92AC3AB107D9F710E0C1E8D0E0D2
:1001400004C02197FE010E948709C038D107C9F772
:100150000E944E070C94A60B0C94000000000000B7
:1001600083E290E00197F1F70895982F80914F0A6C
:100170008111FCCF81E080934F0A80934E0A2FEFCC
:1001800020934D0A27E23AE030934C0A20934B0A21
:1001900010924A0A2FEF260F2093490A8093480AAB
:1001A0008091480A990F982B9093480A8091470AAA
:1001B0008130C9F41092470A8091480A8093BB00AD
:1001C0008091BC0083FDF8CF85EC8093BC008091CA
:1001D0004F0A8130E1F380914A0A861710F460914A
:1001E0004A0A862F089585EEF0CF9091260A81E085
:1001F000913208F043C080914F0A8111FCCF809169
:10020000250A22E020934F0A21E020934E0A2FEF87
:1002100020934D0A25E03AE030934C0A20934B0A94
:1002200010924A0A9093490A1092480A9091480AFB
:10023000880F892B8093480A8091470A813029F5DD
:100240001092470A8091480A8093BB008091BC00BD
:1002500083FDF8CF85EC8093BC0080914F0A8230FB
:10026000E1F380914D0A8F3F91F080914D0A8032E9
:1002700081F080914D0A803371F084E01092040A7D
:100280001092260A1092030A089585EEE4CF80E0CA
:10029000F5CF82E0F3CF83E0F1CF90E0FC01E052B4
:1002A000FF4F2491FC01E054FF4F349180569F4F43
:1002B000FC018491882359F12223C1F022502A3075
:1002C000A8F4E22FF0E0E959FE4F0C948709A00151
:1002D000A40171018801760176018C0192019601D9
:1002E0009C01909180009F7790938000E82FF0E030
:1002F000EE0FFF1FEA56FF4FA591B4918FB7F89408
:10030000EC91611124C030953E233C938FBF08953A
:10031000909180009F7DE8CF9091B0009F7790935F
:10032000B000E4CF9091B0009F7DF9CF9091900004
:100330009F7790939000DACF909190009F7DF9CFB6
:1003400094B59F7794BDD2CF94B59F7DFBCF3E2BC4
:10035000DCCFCF93DF9390E0FC01E054FF4F24917A
:1003600080569F4FFC0184918823D1F090E0880F44
:10037000991FFC01E457FF4FA591B491FC01EA5687
:10038000FF4FC591D49161110EC09FB7F8948C9125
:10039000E22FE0958E238C932881E223E8839FBF90
:1003A000DF91CF9108958FB7F894EC91E22BEC9305
:1003B0008FBFF6CF3FB7F8948091FD099091FE0969
:1003C000A091FF09B091000A26B5A89B05C02F3F58
:1003D00019F00196A11DB11D3FBFBA2FA92F982F6B
:1003E0008827BC01CD01620F711D811D911D43E065
:1003F000660F771F881F991F4A95D1F708958F922E
:100400009F92AF92BF92CF92DF92EF92FF920E94A3
:10041000DA014B015C0184EFC82EDD24D394E12C7A
:10042000F12C0E94DA01681979098A099B09683E52
:10043000734081059105A8F321E0C21AD108E108B3
:10044000F10888EE880E83E0981EA11CB11CC1142F
:10045000D104E104F10429F7FF90EF90DF90CF90F1
:10046000BF90AF909F908F900895AF92BF92CF9220
:10047000DF92EF92FF920F931F93CF93DF936C0164
:100480007B018B01040F151FEB015E01AE18BF0845
:10049000C017D10759F06991D601ED91FC910190F7
:1004A000F081E02DC6010995892B79F7C501DF910F
:1004B000CF911F910F91FF90EF90DF90CF90BF9061
:1004C000AF900895FC01538D448D252F30E0842F8B
:1004D00090E0821B930B541710F0CF96089501976C
:1004E0000895FC01918D828D981761F0A28DAE0F59
:1004F000BF2FB11D5D968C91928D9F5F9F73928FE0
:1005000090E008958FEF9FEF0895FC01918D828D0B
:10051000981731F0828DE80FF11D858D90E00895D8
:100520008FEF9FEF0895FC01918D228D892F90E030
:10053000805C9F4F821B91098F739927089580E5F6
:100540009AE00E94930221E0892B09F420E0822F97
:100550000895FC01A48DA80FB92FB11DA35ABF4F58
:100560002C91848D90E001968F739927848FA689B2
:10057000B7892C93A089B1898C91837080648C9306
:10058000938D848D981306C00288F389E02D8081B5
:100590008F7D80830895EF92FF920F931F93CF93E7
:1005A000DF93EC0181E0888F9B8D8C8D98131AC0AE
:1005B000E889F989808185FF15C09FB7F894EE8995
:1005C000FF896083E889F9898081837080648083F2
:1005D0009FBF81E090E0DF91CF911F910F91FF903D
:1005E000EF900895F62E0B8D10E00F5F1F4F0F73E5
:1005F0001127E02E8C8D8E110CC00FB607FCFACFA0
:10060000E889F989808185FFF5CFCE010E94A90292
:10061000F1CFEB8DEC0FFD2FF11DE35AFF4FF08270
:100620009FB7F8940B8FEA89FB8980818062CFCFD6
:10063000CF93DF93EC01888D8823B9F0AA89BB8919
:10064000E889F9898C9185FD03C0808186FD0DC004
:100650000FB607FCF7CF8C9185FFF2CF808185FF25
:10066000EDCFCE010E94A902E9CFDF91CF9108958D
:1006700080E090E0892B29F00E949F0281110E9466
:10068000000080E090E0892B49F080E090E0892B29
:1006900029F00E94000081110C940000089585ED5E
:1006A0008093BC008091BC0084FDFCCF10924F0A67
:1006B00008952091D201260F3327331F21323105AF
:1006C000ECF420914F0AFC0190E080E0243069F0C6
:1006D00082E00895A091D2012191AC014E545E4F69
:1006E000A40FB52FB11D2C930196861798F3809116
:1006F000D201680F6093D20180E0089581E00895EF
:100700000895E091020A8091010AE81730F4F0E0C0
:10071000E95DF54F808190E008958FEF9FEF089598
:100720009091020A8091010A2FEF3FEF981748F449
:10073000E92FF0E0E95DF54F208130E09F5F909375
:10074000020AC90108958091010A9091020A891B49
:10075000990B0895CF92DF92EF92FF920F931F9320
:10076000CF93DF937C01CB018A012091030A2223DE
:1007700089F0EB016B01C40ED51ECC15DD0569F0C7
:100780006991D701ED91FC910190F081E02DC701B5
:100790000995F3CF642F0E945903C801DF91CF91CF
:1007A0001F910F91FF90EF90DF90CF900895CF931E
:1007B000DF931F92CDB7DEB769832091030A22230E
:1007C000F9F02091260A203258F021E030E0FC01B7
:1007D0003383228390E080E00F90DF91CF910895E2
:1007E0008091040AE82FF0E0EB5FF54F9981908348
:1007F0008F5F8093040A8093260A81E090E0ECCF1B
:1008000061E0CE0101960E945903F7CF682F8DEE6B
:100810009AE00C94D70390E080E00895FC010190E9
:100820000020E9F73197AF01481B590BBC0180E567
:100830009AE00C9435028F929F92AF92BF920F93E1
:100840001F93CF93DF93CDB7DEB7A1970FB6F89480
:10085000DEBF0FBECDBF19A2423008F44AE08E01C0
:100860000F5D1F4F842E912CB12CA12CA50194015A
:100870000E946509E62FB901CA01EA30F4F4E05D8F
:10088000D801EE938D01232B242B252B79F790E0B3
:1008900080E0109719F0CD010E940E04A1960FB6CA
:1008A000F894DEBF0FBECDBFDF91CF911F910F91A6
:1008B000BF90AF909F908F900895E95CE1CFCF9368
:1008C000DF9381E08093030A8BE58093250A1092E1
:1008D000040A1092260A88E090E00E94060490E044
:1008E00080E00E9406040E94F50060E18BE50E9412
:1008F000B5001092020A8093010AD0E18DEE9AE0D1
:100900000E949003C82F803120F48AE291E00E9477
:100910000E046C2F70E090E080E040E10E941B0428
:10092000D15061F7DF91CF910895CF93DF93EC0120
:1009300088819981009711F00E942C0A19821882EF
:100940001D821C821B821A82DF91CF910895FC01C7
:1009500080819181009711F00C942C0A08950F93D7
:100960001F93CF93DF93EC0188819981009759F011
:100970002A813B812617370730F081E0DF91CF9144
:100980001F910F9108958B016F5F7F4F0E94B50AF1
:10099000009759F0998388831B830A832C813D81BA
:1009A000232B59F7FC011082E8CF80E0E7CFEF92CC
:1009B000FF920F931F93CF93DF936115710541F45D
:1009C00080E0DF91CF911F910F91FF90EF900895FC
:1009D00041155105B1F07B01EC010C811D81040F23
:1009E000151FB8010E94AF04882351F32881398173
:1009F0008C819D81B701820F931F0E949F0B1D83E5
:100A00000C8381E0DECFEF92FF920F931F93CF9381
:100A1000DF93EC017B01198218821B821A821D82EE
:100A20001C82FB0101900020E9F731978F01061B22
:100A3000170BB8010E94AF04811109C0CE01DF91EC
:100A4000CF911F910F91FF90EF900C9495041D830F
:100A50000C83B70188819981DF91CF911F910F910C
:100A6000FF90EF900C949F0B1F920F920FB60F9276
:100A700011242F933F938F939F93AF93BF938091B4
:100A8000F9099091FA09A091FB09B091FC09309104
:100A9000F80926E0230F2D3768F129E8230F039684
:100AA000A11DB11D2093F8098093F9099093FA09CB
:100AB000A093FB09B093FC098091FD099091FE0978
:100AC000A091FF09B091000A0196A11DB11D80936C
:100AD000FD099093FE09A093FF09B093000ABF910E
:100AE000AF919F918F913F912F910F900FBE0F90DB
:100AF0001F9018950296A11DB11DD4CF1F920F9281
:100B00000FB60F9211240BB60F922F933F934F9372
:100B10005F936F937F938F939F93AF93BF93EF9365
:100B2000FF9380E59AE00E94A902FF91EF91BF91A7
:100B3000AF919F918F917F916F915F914F913F9175
:100B40002F910F900BBE0F900FBE0F901F90189516
:100B50001F920F920FB60F9211240BB60F922F9384
:100B60008F939F93EF93FF93E091600AF091610A56
:100B70008081E091660AF091670A82FD1DC0908134
:100B80008091690A8F5F8F7320916A0A821741F002
:100B9000E091690AF0E0E05BF54F958F8093690A78
:100BA000FF91EF919F918F912F910F900BBE0F901E
:100BB0000FBE0F901F9018958081F2CF1F920F9259
:100BC0000FB60F9211240BB60F922F933F934F93B2
:100BD0005F936F937F938F939F93AF93BF93EF93A5
:100BE000FF938091B900887F803609F44DC008F0EA
:100BF00040C0883209F4A7C028F5803109F49BC0B1
:100C0000C8F4882309F403C1883009F494C0FF9123
:100C1000EF91BF91AF919F918F917F916F915F9174
:100C20004F913F912F910F900BBE0F900FBE0F90E1
:100C30001F901895883109F486C0803241F780935F
:100C40004D0A14C0803409F4A3C040F48033B9F3D2
:100C50008833E9F680934D0A85ECBAC0803509F4F3
:100C600087C0883509F49CC0883489F60E944F03F8
:100C7000CECF883909F492C038F5883729F050F47E
:100C8000883611F0803719F683E080934F0A10926E
:100C9000F40155C0883809F481C0803919F08038D2
:100CA00009F0B5CF8091F401803208F077C0E0916F
:100CB000F40181E08E0F8093F4018091BB00F0E09D
:100CC000EC52FE4F80833BC0803B39F0D0F4803A39
:100CD00009F483C0883A09F09ACF84E080934F0AE0
:100CE0001092D3011092D201F0E0E0E009958091DA
:100CF000D20181110FC081E08093D2011092B20124
:100D000009C0803C09F4A8CF883C09F4A5CF883BF2
:100D100009F07DCFE091D30181E08E0F8093D30164
:100D2000F0E0EE54FE4F80818093BB009091D301A0
:100D30008091D20131C08091480A8093BB0085EC3C
:100D40008093BC0064CF90914A0A8091490A981719
:100D5000B8F580914B0A90914C0AE0914A0A21E043
:100D60002E0F20934A0AE80FF92FF11D8081E5CF5D
:100D700020914B0A30914C0AE0914A0A81E08E0F93
:100D800080934A0A8091BB00E20FF32FF11D80830C
:100D900090914A0A8091490A981788F285E8D0CF45
:100DA00020914B0A30914C0AE0914A0A81E08E0F63
:100DB00080934A0A8091BB00E20FF32FF11D8083DC
:100DC00080914E0A811152CF81E08093470A84EAD4
:100DD0008093BC0010924F0A1ACF85EC8093BC0020
:100DE00010924F0A8091F401803230F4E091F401C6
:100DF000F0E0EC52FE4F10826091F40170E084ED5F
:100E000091E0F0E0E0E009951092F40100CF10923B
:100E10004D0A2CCFE0E5FAE01382128288EE93E0CF
:100E2000A0E0B0E084839583A683B7832AE031E015
:100E30003183208325EC30E03587248724EC30E0B3
:100E40003787268720EC30E0318B208B21EC30E097
:100E5000338B228B22EC30E0358B248B26EC30E078
:100E6000378B268B118E128E138E148EEDEEFAE0D8
:100E70001382128284839583A683B7838CE191E0E9
:100E8000918380836CE271E08FEF9AE00E9403050A
:100E90006DE571E089EF9AE00C940305CF93DF9341
:100EA000CDB7DEB72C970FB6F894DEBF0FBECDBF1F
:100EB000789484B5836084BD85B5836085BD809159
:100EC0006E00816080936E0092E09093810080912B
:100ED0008100816080938100809180008160809397
:100EE00080008091B10084608093B1008091B00057
:100EF00081608093B0008091910083608093910025
:100F00008091900081608093900086E880937A00C1
:100F10001092C100E091600AF091610A9083E09123
:100F20005C0AF0915D0A1082E0915E0AF0915F0A1E
:100F300088E080831092680AE091640AF091650A63
:100F400086E08083E091620AF091630A808188697B
:100F50008083E091620AF091630A80818F7D8083B3
:100F600080E28093B8001FB7F8948091F501811159
:100F700027C0E4EAF0E08491E4ECF0E09491E82FFB
:100F8000F0E0EE0FFF1FE457FF4FA591B491EC91F5
:100F9000E92321F461E084E00E944D0161E084E0F6
:100FA0000E94A9018CB580618CBD8CB580648CBD1C
:100FB00061E087E00E94A90161E085E00E94A9014B
:100FC0008091F5018F5F8093F5011FBF80E58CBD97
:100FD00081E08DBD60E08BE10E94A90160E080E0CE
:100FE0000E94A90160E081E00E94A90161E082E124
:100FF0000E94A90161E08FE00E94A90161E085E102
:101000000E94A90161E086E10E94A90161E087E1F7
:101010000E94A90161E088E10E94A90161E089E1E3
:101020000E94A90161E08FE00E944D0161E082E130
:101030000E944D0161E088E10E944D0161E089E17B
:101040000E944D018EE691E00E940E0487E791E038
:101050000E940E046AE771E0CE0101960E9403052A
:101060004091FD0A5091FE0A6091F90A7091FA0AC6
:10107000CE0101960E94D704811104C0CE010196D1
:101080000E94950443E050E06AE871E0CE010196C9
:101090000E94D704811104C0CE0101960E949504DC
:1010A0004091030B5091040B6091FF0A7091000B6B
:1010B000CE0101960E94D704811104C0CE01019691
:1010C0000E94950441E050E06CE871E0CE01019689
:1010D0000E94D704811104C0CE0101960E9495049C
:1010E00018861F821A8619861C861B8609811A811A
:1010F0000115110569F0ED80FE80B701CE0107965C
:101100000E94AF048111D1C0CE0107960E949504C0
:10111000CE0101960E94A7044B855C856F8178857E
:1011200080E59AE00E9435020E945F048EE891E01B
:101130000E940E040E945F048CE891E00E940E045D
:1011400081E08093030A83E58093250A1092040AC4
:101150001092260A90E080E00E94060490E080E071
:101160000E9406040E94F50062E083E50E94B5003B
:101170001092020A8093010A8DEE9AE00E94900379
:10118000182F8093F7098DEE9AE00E9490038093C8
:10119000F609612F70E090E080E040E10E941B04BE
:1011A0006091F60970E090E080E040E10E941B044D
:1011B00087E791E00E940E0482EA91E00E940E040B
:1011C00087E791E00E940E0460E085E10E944D01F6
:1011D00060E086E10E944D0160E087E10E944D01E0
:1011E00061E085E10E944D010E94FF0161E086E11E
:1011F0000E944D010E94FF0161E087E10E944D01C4
:101200000E94FF0160E085E10E944D010E94FF0104
:1012100060E086E10E944D010E94FF0160E087E1ED
:101220000E944D0180E094E0E6EFF5E0DF019C01D3
:101230001D9221503040E1F7E6EFF1E0DF019C0123
:101240001D9221503040E1F78FB7F8944091F90991
:101250005091FA096091FB097091FC098FBF8FB71B
:10126000F8944091F9095091FA096091FB09709145
:10127000FC098FBFCE0107960E94A70461E088E1B8
:101280000E944D0160E089E10E944D0161E08FE024
:101290000E944D0161E082E10E944D011C9BFECF46
:1012A0000E94AE0060E082E1F3CFFC86EB86B801DD
:1012B0008F8198850E949F0B2BCF89EF9AE00E9427
:1012C000A7048FEF9AE00C94A704A1E21A2EAA1BA0
:1012D000BB1BFD010DC0AA1FBB1FEE1FFF1FA217E6
:1012E000B307E407F50720F0A21BB30BE40BF50BE3
:1012F000661F771F881F991F1A9469F7609570956C
:10130000809590959B01AC01BD01CF010895EE0F32
:10131000FF1F0024001C0BBE0790F691E02D0994DE
:101320000F931F93CF93DF938230910510F482E0E7
:1013300090E0E091070BF091080B30E020E0B0E086
:10134000A0E0309799F42115310509F44AC0281B13
:10135000390B24303105D8F58A819B8161157105DF
:1013600089F1FB0193838283FE0111C04081518189
:101370000281138148175907E0F04817590799F47B
:10138000109761F012960C93129713961C93329655
:10139000CF01DF91CF911F910F9108950093070B1B
:1013A0001093080BF4CF2115310551F04217530764
:1013B00038F0A901DB019A01BD01DF01F801C1CFBD
:1013C000EF01F9CF9093080B8093070BCDCFFE016F
:1013D000E20FF31F819391932250310939832883BF
:1013E000D7CF2091050B3091060B232B41F4209190
:1013F0000201309103013093060B2093050B2091DD
:101400000001309101012115310541F42DB73EB79E
:101410004091040150910501241B350BE091050B0F
:10142000F091060BE217F307A0F42E1B3F0B2817D1
:10143000390778F0AC014E5F5F4F2417350748F04D
:101440004E0F5F1F5093060B4093050B81939193B2
:101450009FCFF0E0E0E09CCFCF93DF930097E9F0DF
:10146000FC01329713821282A091070BB091080BF6
:10147000ED0130E020E01097A1F420813181820F4E
:10148000931F2091050B3091060B2817390709F09F
:1014900061C0F093060BE093050BDF91CF910895A7
:1014A000EA01CE17DF07E8F54A815B819E0141150D
:1014B0005105B1F7E901FB83EA8349915991C40FC2
:1014C000D51FEC17FD0761F4808191810296840F8E
:1014D000951FE90199838883828193819B838A8305
:1014E000F0E0E0E012968D919C9113970097B9F58A
:1014F0002D913C911197CD010296820F931F20915F
:10150000050B3091060B2817390739F6309751F53E
:101510001092080B1092070BB093060BA093050BCB
:10152000BCCFD383C28340815181840F951FC817DC
:10153000D90761F44E5F5F4F88819981480F591F29
:10154000518340838A819B81938382832115310556
:1015500009F0B0CFF093080BE093070B9ECFFD018D
:10156000DC01C0CF13821282D7CF4F925F926F926D
:101570007F928F929F92AF92BF92CF92DF92EF9223
:10158000FF920F931F93CF93DF938C01009799F4F1
:10159000CB01DF91CF911F910F91FF90EF90DF90E2
:1015A000CF90BF90AF909F908F907F906F905F9003
:1015B0004F900C949009FC01E60FF71F9C012250FC
:1015C0003109E217F30708F4AEC0D901CD91DC91DF
:1015D0001197C617D70720F1C530D10578F0CE0195
:1015E00004978617970750F0C61BD70B2297C19315
:1015F000D1936D937C93CF010E942C0AC801DF9197
:10160000CF911F910F91FF90EF90DF90CF90BF90FF
:10161000AF909F908F907F906F905F904F900895C4
:101620005B01AC1ABD0A4C018C0E9D1EA091070BEC
:10163000B091080B512C412CF12CE12C109731F575
:101640008091050B9091060B8815990509F05CC0F7
:101650004616570608F058C080910001909101018C
:10166000009741F48DB79EB7409104015091050158
:10167000841B950BE817F90708F055C0F093060B8B
:10168000E093050BF90171836083B8CF8D919C9134
:10169000119712966C90129713967C901397A81539
:1016A000B90559F56C0142E0C40ED11CCA14DB0423
:1016B00020F1AC014A195B09DA011296159780F006
:1016C0006282738251834083D9016D937C93E114CC
:1016D000F10471F0D7011396FC93EE9312978ECF1D
:1016E00022968C0F9D1FF90191838083F301EFCF28
:1016F000F093080BE093070B81CF4816590608F4C6
:101700002C017D01D3019ACFCB010E9490097C016D
:10171000009749F0AE01B8010E94960BC8010E94E3
:101720002C0A87016BCF10E000E068CFFB01DC01E1
:1017300002C001900D9241505040D8F70895FB012E
:10174000DC0101900D920020E1F7089510E0C1E85E
:10175000D0E004C0FE010E9487092196C238D1075B
:06176000C9F7F894FFCF69
:101766000000090B800000000000CB023502620277
:10177600180393027102850200000000D703AA0332
:101786000B048003A303900381033000653665656F
:1017960032353239636331376664316433653934DF
:1017A60063336432663438656232643133343439D3
:1017B600393239342C43494275696C6400312E3212
:1017C6002E302D33382D43494275696C640023430E
:1017D60076616B2E2E2E000D0A0024444F532C41A9
:1017E6004952444F533033422C002C302C000D0A02
:1017F600244144432C555354534950494E303343A6
:0C1806002C0023486D6D6D2E2E2E00006E
:00000001FF
