:100000000C9482000C94AC000C94AC000C94AC00EA
:100010000C94AC000C94AC000C94AC000C94AC00B0
:100020000C94AC000C94AC000C94AC000C94AC00A0
:100030000C94AC000C94AC000C94AC000C94AC0090
:100040000C94AC000C94AC000C9403060C94AC0023
:100050000C9477060C944D060C94AC000C94AC00F8
:100060000C94AC000C94AC000C94AD060C94AC0059
:100070000C94AC000C94AC000C94AC000C94AC0050
:100080000C94AC000C94AC000C94AC00000021006B
:10009000240027002A0000002200250028002B0051
:1000A0000202020202020202040404040404040420
:1000B0000303030303030303010101010101010120
:1000C0000102040810204080010204081020408032
:1000D0000102040810204080010204081020408022
:1000E0000000000203000A0B0000000005040908DC
:1000F0000000000000000000000000000000000000
:10010000D907A70B11241FBECFEFD0E4DEBFCDBFB0
:1001100027E0AAEDB1E001C01D92A334B207E1F7D8
:1001200011E0A0E0B1E0E2E7F0E200E00BBF02C0C6
:1001300007900D92AA3DB107D9F710E0C1E8D0E0D1
:1001400004C02197FE010E94F50CC038D107C9F701
:100150000E941D080C942C100C9400000CB405FC9B
:100160000DC01EBC00000DB407FEFDCF9EB51EBC29
:1001700000000DB407FEFDCF8EB508951EBC000033
:100180000DB407FEFDCF8EB51EBC00000DB407FEFA
:10019000FDCF9EB5089590918906809188062FEF36
:1001A0003FEF981748F4E92FF0E0E859F94F208124
:1001B00030E09F5F90938906C90108959091890668
:1001C000809188062FEF3FEF981748F4E92FF0E071
:1001D000E859F94F208130E09F5F90938906C9016B
:1001E0000895282F9091670681E0913208F042C06F
:1001F000809143068111FCCF8091660632E03093F6
:100200004306209342062FEF2093410626E436E072
:100210003093400620933F0610923E0690933D0691
:1002200010923C0690913C06880F892B80933C06E7
:1002300080913B06813029F510923B0680913C0667
:100240008093BB008091BC0083FDF8CF85EC809348
:10025000BC00809143068230E1F3809141068F3FDC
:1002600091F080914106803281F080914106803387
:1002700071F084E0109245061092670610924406D1
:10028000089585EEE4CF80E0F5CF82E0F3CF83E000
:10029000F1CF90E0FC01E052FF4F2491FC01E054CB
:1002A000FF4F349180569F4FFC018491882359F170
:1002B0002223C1F022502A30A8F4E22FF0E0ED59B9
:1002C000FE4F0C94F50C9C01A0016D01840172019C
:1002D000720188018E0192019801909180009F77B0
:1002E00090938000E82FF0E0EE0FFF1FEA56FF4FDB
:1002F000A591B4918FB7F894EC91611124C0309519
:100300003E233C938FBF0895909180009F7DE8CF5E
:100310009091B0009F779093B000E4CF9091B0009F
:100320009F7DF9CF909190009F7790939000DACFC6
:10033000909190009F7DF9CF94B59F7794BDD2CFD7
:1003400094B59F7DFBCF3E2BDCCFCF93DF9390E026
:10035000FC01E054FF4F249180569F4FFC01849193
:100360008823D1F090E0880F991FFC01E457FF4FDC
:10037000A591B491FC01EA56FF4FC591D49161114A
:100380000EC09FB7F8948C91E22FE0958E238C934A
:100390002881E223E8839FBFDF91CF9108958FB733
:1003A000F894EC91E22BEC938FBFF6CF3FB7F89423
:1003B0008091370690913806A0913906B0913A069F
:1003C00026B5A89B05C02F3F19F00196A11DB11DB0
:1003D0003FBFBA2FA92F982F8827BC01CD01620FEC
:1003E000711D811D911D43E0660F771F881F991FA6
:1003F0004A95D1F708958091880690918906891BC6
:10040000990B0895AF92BF92CF92DF92EF92FF9235
:100410000F931F93CF93DF936C017B018B01040F2C
:10042000151FEB015E01AE18BF08C017D10759F0C8
:100430006991D601ED91FC910190F081E02DC6010A
:100440000995892B79F7C501DF91CF911F910F9104
:10045000FF90EF90DF90CF90BF90AF900895FC0198
:10046000538D448D252F30E0842F90E0821B930B19
:10047000541710F0CF96089501970895FC01918DBF
:10048000828D981761F0A28DAE0FBF2FB11D5D96C2
:100490008C91928D9F5F9F73928F90E008958FEF64
:1004A0009FEF0895FC01918D828D981731F0828D18
:1004B000E80FF11D858D90E008958FEF9FEF08956F
:1004C000FC01918D228D892F90E0805C9F4F821BD3
:1004D00091098F73992708958AE896E00E94600237
:1004E00021E0892B09F420E0822F0895FC01A48DDE
:1004F000A80FB92FB11DA35ABF4F2C91848D90E046
:1005000001968F739927848FA689B7892C93A08928
:10051000B1898C91837080648C93938D848D9813B2
:1005200006C00288F389E02D80818F7D8083089545
:10053000EF92FF920F931F93CF93DF93EC0181E033
:10054000888F9B8D8C8D98131AC0E889F9898081DA
:1005500085FF15C09FB7F894EE89FF896083E8890D
:10056000F98980818370806480839FBF81E090E0FF
:10057000DF91CF911F910F91FF90EF900895F62E8C
:100580000B8D10E00F5F1F4F0F731127E02E8C8D26
:100590008E110CC00FB607FCFACFE889F98980816B
:1005A00085FFF5CFCE010E947602F1CFEB8DEC0FE7
:1005B000FD2FF11DE35AFF4FF0829FB7F8940B8F88
:1005C000EA89FB8980818062CFCFCF93DF93EC01F2
:1005D000888D8823B9F0AA89BB89E889F9898C912B
:1005E00085FD03C0808186FD0DC00FB607FCF7CFE7
:1005F0008C9185FFF2CF808185FFEDCFCE010E94E7
:100600007602E9CFDF91CF91089580E090E0892BC9
:1006100029F00E946C0281110E94000080E090E0AD
:10062000892B49F080E090E0892B29F00E9400009E
:1006300081110C940000089585ED8093BC00809199
:10064000BC0084FDFCCF1092430608952091000267
:10065000260F3327331F21323105ECF42091430656
:10066000FC0190E080E0243069F082E00895A091E0
:1006700000022191AC0140525E4FA40FB52FB11D75
:100680002C930196861798F380910002680F60936F
:10069000000280E0089581E008950895E0918906C0
:1006A00080918806E81730F4F0E0E859F94F80812E
:1006B00090E008958FEF9FEF0895CF92DF92EF9231
:1006C000FF920F931F93CF93DF937C01CB018A019D
:1006D00020914406222389F0EB016B01C40ED51E44
:1006E000CC15DD0569F06991D701ED91FC91019080
:1006F000F081E02DC7010995F3CF642F0E942603F6
:10070000C801DF91CF911F910F91FF90EF90DF9083
:10071000CF900895CF93DF931F92CDB7DEB7698353
:10072000209144062223F9F020916706203258F0E8
:1007300021E030E0FC013383228390E080E00F90E1
:10074000DF91CF91089580914506E82FF0E0EA5BB4
:10075000F94F998190838F5F809345068093670658
:1007600081E090E0ECCF61E0CE0101960E9426038B
:10077000F7CF682F87E297E00C948A0390E080E03F
:100780000895909143069111FCCF91E09093430618
:10079000909342062FEF2093410628E636E03093EF
:1007A000400620933F0610923E062FEF260F20931F
:1007B0003D0690933C0690913C06880F892B8093D0
:1007C0003C0680913B068130E9F410923B06809113
:1007D0003C068093BB008091BC0083FDF8CF85EC84
:1007E0008093BC00809143068130E1F380913E0606
:1007F000861710F460913E06109289066093880671
:10080000862F089585EEECCFFC0101900020E9F7DA
:100810003197AF01481B590BBC018AE896E00C9454
:1008200002028F929F92AF92BF920F931F93CF932A
:10083000DF93CDB7DEB7A1970FB6F894DEBF0FBE3A
:10084000CDBF19A2423008F44AE08E010F5D1F4F60
:10085000842E912CB12CA12CA50194010E94D30CC3
:10086000E62FB901CA01EA30F4F4E05DD801EE9355
:100870008D01232B242B252B79F790E080E0109716
:1008800019F0CD010E940404A1960FB6F894DEBFC2
:100890000FBECDBFDF91CF911F910F91BF90AF9051
:1008A0009F908F900895E95CE1CF0C940404CF935E
:1008B000DF93C82F81E080934406C09366061092B0
:1008C00045061092670688E090E00E94B90390E028
:1008D00080E00E94B90381E00E94F10060E18C2F6A
:1008E0000E94C103D0E10E94DE00C82F803120F4B5
:1008F0008AE291E00E9455046C2F70E090E080E065
:1009000040E10E941104D15071F7DF91CF91089519
:100910004F925F926F927F928F929F92AF92BF920F
:10092000CF92DF92EF92FF920F931F93CF936B01C1
:100930007C01742EAC019B010E94110E882399F05A
:100940008CE291E0CF911F910F91FF90EF90DF909B
:10095000CF90BF90AF909F908F907F906F905F905F
:100960004F900C94040446015701E894B7F82FEF18
:100970003FEF4FE75FE7C501B4010E94110E8111FF
:100980000DC02FEF3FEF4FE75FE7C501B4010E94B5
:10099000AF0B18161CF480E391E0D4CF2FEF3FEF9C
:1009A0004FE75FE4C701B6010E940C0E18161CF455
:1009B00084E391E0C7CF2FEF3FEF4FE75FECC70134
:1009C000B6010E94AF0B87FDF3CF20E030E0A90114
:1009D000C701B6010E94AF0B10E000E087FF0AC01C
:1009E0006DE28AE896E00E9498028C01F7FAF09492
:1009F000F7F8F094C0E060E070E080E09FE37C16E0
:100A000041F020E030E040E251E40E946B0DCF5F06
:100A1000F6CFA70196010E94FF0C2B013C010E941A
:100A2000DD0D4B015C014AE00E9411047C01E00EE7
:100A3000F11ECC23C1F1C501B4010E94B40B9B018E
:100A4000AC01C301B2010E94FE0C4B015C016EE2DD
:100A50008AE896E00E949802E80EF91EC15018F14B
:100A600020E030E040E251E4C501B4010E94150CE1
:100A70002B013C010E94DD0D4B01B12CA12C4AE061
:100A8000C501B4010E941104E80EF91EC501B401AC
:100A90000E94B40B9B01AC01C301B2010E94FE0C89
:100AA0004B015C01DBCFC701CF911F910F91FF90EC
:100AB000EF90DF90CF90BF90AF909F908F907F90FE
:100AC0006F905F904F900895CF93DF93EC018881F2
:100AD0009981009711F00E94B20E198218821D822E
:100AE0001C821B821A82DF91CF910895FC018081C4
:100AF0009181009711F00C94B20E08950F931F93FB
:100B0000CF93DF93EC0188819981009759F02A8176
:100B10003B812617370730F081E0DF91CF911F919D
:100B20000F9108958B016F5F7F4F0E943B0F0097DD
:100B300059F0998388831B830A832C813D81232B61
:100B400059F7FC011082E8CF80E0E7CFEF92FF92E7
:100B50000F931F93CF93DF936115710541F480E0EC
:100B6000DF91CF911F910F91FF90EF900895411564
:100B70005105B1F07B01EC010C811D81040F151FA3
:100B8000B8010E947E05882351F3288139818C8128
:100B90009D81B701820F931F0E9425101D830C8336
:100BA00081E0DECFEF92FF920F931F93CF93DF93FD
:100BB000EC017B01198218821B821A821D821C8221
:100BC000FB0101900020E9F731978F01061B170BFD
:100BD000B8010E947E05811109C0CE01DF91CF913D
:100BE0001F910F91FF90EF900C9464051D830C836F
:100BF000B70188819981DF91CF911F910F91FF906B
:100C0000EF900C9425101F920F920FB60F921124A3
:100C10002F933F938F939F93AF93BF93809133060E
:100C200090913406A0913506B09136063091320687
:100C300026E0230F2D3768F129E8230F0396A11D25
:100C4000B11D209332068093330690933406A0930F
:100C50003506B09336068091370690913806A091FC
:100C60003906B0913A060196A11DB11D8093370651
:100C700090933806A0933906B0933A06BF91AF918E
:100C80009F918F913F912F910F900FBE0F901F90CA
:100C900018950296A11DB11DD4CF1F920F920FB6C9
:100CA0000F9211240BB60F922F933F934F935F93A4
:100CB0006F937F938F939F93AF93BF93EF93FF9324
:100CC0008AE896E00E947602FF91EF91BF91AF9182
:100CD0009F918F917F916F915F914F913F912F9154
:100CE0000F900BBE0F900FBE0F901F9018951F9284
:100CF0000F920FB60F9211240BB60F922F938F9372
:100D00009F93EF93FF93E0919A06F0919B06808169
:100D1000E091A006F091A10682FD1DC09081809116
:100D2000A3068F5F8F732091A406821741F0E09194
:100D3000A306F0E0E657F94F958F8093A306FF9145
:100D4000EF919F918F912F910F900BBE0F900FBE3F
:100D50000F901F9018958081F2CF1F920F920FB6BF
:100D60000F9211240BB60F922F933F934F935F93E3
:100D70006F937F938F939F93AF93BF93EF93FF9363
:100D80008091B900887F803609F44DC008F040C0DA
:100D9000883209F4A7C028F5803109F49BC0C8F453
:100DA000882309F403C1883009F494C0FF91EF91BE
:100DB000BF91AF919F918F917F916F915F914F9173
:100DC0003F912F910F900BBE0F900FBE0F901F9071
:100DD0001895883109F486C0803241F78093410626
:100DE00014C0803409F4A3C040F48033B9F38833CD
:100DF000E9F68093410685ECBAC0803509F487C0D6
:100E0000883509F49CC0883489F60E941C03CECF33
:100E1000883909F492C038F5883729F050F48836BB
:100E200011F0803719F683E0809343061092220276
:100E300055C0883809F481C0803919F0803809F02C
:100E4000B5CF80912202803208F077C0E091220273
:100E500081E08E0F809322028091BB00F0E0EE5F74
:100E6000FD4F80833BC0803B39F0D0F4803A09F4D9
:100E700083C0883A09F09ACF84E0809343061092A9
:100E8000010210920002F0E0E0E00995809100027A
:100E900081110FC081E0809300021092E00109C02F
:100EA000803C09F4A8CF883C09F4A5CF883B09F021
:100EB0007DCFE091010281E08E0F80930102F0E08E
:100EC000E052FE4F80818093BB009091010280919F
:100ED000000231C080913C068093BB0085EC80937A
:100EE000BC0064CF90913E0680913D069817B8F5FE
:100EF00080913F0690914006E0913E0621E02E0F42
:100F000020933E06E80FF92FF11D8081E5CF209157
:100F10003F0630914006E0913E0681E08E0F8093BF
:100F20003E068091BB00E20FF32FF11D808390916C
:100F30003E0680913D06981788F285E8D0CF209133
:100F40003F0630914006E0913E0681E08E0F80938F
:100F50003E068091BB00E20FF32FF11D808380914C
:100F60004206811152CF81E080933B0684EA809350
:100F7000BC00109243061ACF85EC8093BC001092FF
:100F8000430680912202803230F4E0912202F0E0A8
:100F9000EE5FFD4F10826091220270E082E092E0ED
:100FA000F0E0E0E009951092220200CF1092410695
:100FB0002CCFEAE8F6E01382128288EE93E0A0E0FC
:100FC000B0E084839583A683B7832AE031E0318340
:100FD000208325EC30E03587248724EC30E0378708
:100FE000268720EC30E0318B208B21EC30E0338BF6
:100FF000228B22EC30E0358B248B26EC30E0378BD3
:10100000268B118E128E138E148EE7E2F7E0138278
:10101000128284839583A683B7838CE191E09183C8
:10102000808368E371E089E397E00E94D20569E676
:1010300071E083E397E00C94D205CF93DF93CDB7B3
:10104000DEB72C970FB6F894DEBF0FBECDBF7894F5
:1010500084B5836084BD85B5836085BD80916E0055
:10106000816080936E0092E0909381008091810076
:1010700081608093810080918000816080938000F6
:101080008091B10084608093B1008091B000816054
:101090008093B00080919100836080939100809153
:1010A000900081608093900086E880937A0010928F
:1010B000C100E0919A06F0919B069083E09196061C
:1010C000F09197061082E0919806F091990688E0D9
:1010D00080831092A206E0919E06F0919F0686E022
:1010E0008083E0919C06F0919D06808188698083D1
:1010F000E0919C06F0919D0680818F7D808380E247
:101100008093B8001FB7F89480912302811127C003
:10111000E4EAF0E08491E4ECF0E09491E82FF0E070
:10112000EE0FFF1FE457FF4FA591B491EC91E92317
:1011300021F461E084E00E94490161E084E00E94C2
:10114000A5018CB580618CBD8CB580648CBD61E0DF
:1011500087E00E94A50161E085E00E94A5018091E1
:1011600023028F5F809323021FBF81E58CBD1DBCCE
:1011700060E08BE10E94A50160E080E00E94A50193
:1011800061E086E10E94A50161E087E10E94A5017E
:1011900061E082E10E94A50161E084E10E94A50175
:1011A00061E082E00E94A50161E08AE10E94A50160
:1011B00061E08CE00E94A50161E08DE00E94A50144
:1011C00061E08EE00E94A50161E08FE00E94A50130
:1011D00061E082E10E94490161E084E10E944901ED
:1011E00061E082E00E94490161E08AE10E944901D8
:1011F00061E087E10E94490161E086E10E944901C6
:101200008AE791E00E94040483E891E00E940404CC
:1012100066E871E0CE0101960E94D2054091370741
:10122000509138076091330770913407CE010196D1
:101230000E94A605811104C0CE0101960E9464059A
:1012400043E050E066E971E0CE0101960E94A605F8
:10125000811104C0CE0101960E94640540913D07B2
:1012600050913E076091390770913A07CE0101967F
:101270000E94A605811104C0CE0101960E9464055A
:1012800041E050E068E971E0CE0101960E94A605B8
:10129000811104C0CE0101960E94640518861F8248
:1012A0001A8619861C861B8609811A81011511056B
:1012B00069F0ED80FE80B701CE0107960E947E05A1
:1012C0008111F0C0CE0107960E946405CE010196FF
:1012D0000E9476054B855C856F8178858AE896E06B
:1012E0000E9402028BE50E9457048AE991E00E9465
:1012F000550488E50E94570488E991E00E9455044E
:1013000001E00093440680E580936606109245064E
:101310001092670690E080E00E94B90390E080E0C0
:101320000E94B90381E00E94F10062E080E50E9422
:10133000C1030E94DE00182F809327020E94DE0066
:1013400080932602612F70E090E080E040E10E94EF
:1013500011046091260270E090E080E040E10E947C
:10136000110480EB91E00E9455048BE50E94570424
:1013700088E991E00E9455040093440683E5809338
:101380006606109245061092670690E080E00E9483
:10139000B90390E080E00E94B90381E00E94F1006F
:1013A00062E083E50E94C1030E94DE00182F809353
:1013B00025020E94DE0080932402612F70E090E0FD
:1013C00080E040E10E9411046091240270E090E00E
:1013D00080E040E10E94110483E891E00E9404044F
:1013E00084EC91E00E94040483E891E00E940404EC
:1013F00060E08CE00E94490160E08DE00E944901BC
:1014000060E08EE00E944901E2E3F2E080E094E0D7
:10141000DF019C011D9221503040E1F72FB7F89475
:101420008091330690913406A0913506B09136062E
:101430002FBF80932E0290932F02A0933002B0937F
:1014400031022FB7F8948091330690913406A09121
:101450003506B09136062FBF80932A0290932B0257
:10146000A0932C02B0932D02CE0107960E94760520
:10147000189B20C060E086E10E9449010E94AE00F6
:1014800026E0969587952A95E1F7FC01EE5CFD4FE5
:1014900080818F3F11F08F5F808361E086E10E9441
:1014A0004901E6CFFC86EB86B8018F8198850E94C2
:1014B00025100CCF8FB7F894C0903306D090340627
:1014C000E0903506F09036068FBF80912E02909105
:1014D0002F02A0913002B0913102A7019601281B82
:1014E000390B4A0B5B0BDA01C90180319742A10528
:1014F000B10508F46EC0C0922E02D0922F02E09285
:101500003002F092310261E08DE00E94490106E371
:1015100012E092E3A92E92E0B92E412C512C320117
:10152000D8018D918D01480E511C611C711CE2E3A4
:10153000F6E0EA17FB07A1F78DEC91E00E94550455
:10154000609128027091290290E080E04AE00E94B8
:10155000110488E991E00E9455044AE0C301B201F8
:101560000E94110488E991E00E945504D5016D9113
:101570005D0170E090E080E04AE00E9411040A15ED
:101580001B0581F783E891E00E9404048091280202
:101590009091290201969093290280932802E2E318
:1015A000F2E020E034E0119221503040E1F761E0B8
:1015B00087E10E94490160E086E10E9449010E94A2
:1015C000AE0061E086E10E94490160E08DE00E948A
:1015D000490180912A0290912B02A0912C02B09196
:1015E0002D02A7019601281B390B4A0B5B0BDA0170
:1015F000C90180369A4EA105B10508F4A5C0C09274
:101600002A02D0922B02E0922C02F0922D0281E06D
:101610008093440644E44093660610924506109277
:1016200067066DEF87E297E00E948A0381E00E94DF
:10163000F100811189C00E94D6012B013C018AE092
:10164000C82ED12CE12CF12C0E94D6016419750909
:1016500086099709683E734081059105A8F351E01A
:10166000C51AD108E108F10888EE480E83E0581E3B
:10167000611C711CC114D104E104F10429F766E076
:1016800084E40E94C1038091880690918906891B99
:10169000990B06970CF458C00E94DE00182F0E9488
:1016A000DE00912E812C7401E82AF92A0E94DE00C6
:1016B0000E94DE00182F0E94DE00312E212C8101B5
:1016C000082B192B0E94DE0084ED91E00E94550446
:1016D000B70190E080E00E94B40B20E03FEF4FE7BD
:1016E00057E40E946B0D20E030E04FE253E40E948B
:1016F000150C20E030E044E352E40E94FE0C42E08E
:101700000E94880488E991E00E945504B80190E0A5
:1017100080E00E94B40B20E03FEF4FE757E40E94C7
:101720006B0D20E030E04AEF52E40E94150C20E0FF
:1017300030E040EC50E40E94FE0C42E00E9488043D
:1017400083E891E00E9404040E94050391CE83E3A4
:1017500097E00E94760589E397E00C9476050E9455
:10176000F10B08F481E00895E89409C097FB3EF47A
:1017700090958095709561957F4F8F4F9F4F9923DE
:10178000A9F0F92F96E9BB279395F695879577955C
:101790006795B795F111F8CFFAF4BB0F11F460FF1C
:1017A0001BC06F5F7F4F8F4F9F4F16C0882311F074
:1017B00096E911C0772321F09EE8872F762F05C088
:1017C000662371F096E8862F70E060E02AF09A9523
:1017D000660F771F881FDAF7880F9695879597F918
:1017E0000895990F0008550FAA0BE0E8FEEF1616B2
:1017F0001706E807F907C0F012161306E407F50705
:1018000098F0621B730B840B950B39F40A2661F078
:10181000232B242B252B21F408950A2609F4A1401B
:10182000A6958FEF811D811D08950E94280C0C94B0
:10183000990C0E948B0C38F00E94920C20F095239A
:1018400011F00C94820C0C94880C11240C94CD0C87
:101850000E94AA0C70F3959FC1F3950F50E0551F9D
:10186000629FF001729FBB27F00DB11D639FAA27F5
:10187000F00DB11DAA1F649F6627B00DA11D661F44
:10188000829F2227B00DA11D621F739FB00DA11D65
:10189000621F839FA00D611D221F749F3327A00D1F
:1018A000611D231F849F600D211D822F762F6A2FBB
:1018B00011249F5750409AF0F1F088234AF0EE0F20
:1018C000FF1FBB1F661F771F881F91505040A9F74D
:1018D0009E3F510580F00C94820C0C94CD0C5F3F20
:1018E000E4F3983ED4F3869577956795B795F79589
:1018F000E7959F5FC1F7FE2B880F911D9695879501
:1019000097F9089597F99F6780E870E060E008957F
:101910009FEF80EC089500240A9416161706180607
:101920000906089500240A941216130614060506E3
:101930000895092E0394000C11F4882352F0BB0F74
:1019400040F4BF2B11F460FF04C06F5F7F4F8F4FD7
:101950009F4F089557FD9058440F551F59F05F3F12
:1019600071F04795880F97FB991F61F09F3F79F0C1
:1019700087950895121613061406551FF2CF469543
:10198000F1DF08C0161617061806991FF1CF8695C5
:101990007105610508940895E894BB2766277727A9
:1019A000CB0197F90895A1E21A2EAA1BBB1BFD01DA
:1019B0000DC0AA1FBB1FEE1FFF1FA217B307E4072E
:1019C000F50720F0A21BB30BE40BF50B661F771F86
:1019D000881F991F1A9469F7609570958095909566
:1019E0009B01AC01BD01CF010895EE0FFF1F002444
:1019F000001C0BBE0790F691E02D09945058BB27B0
:101A0000AA270E94160D0C94990C0E948B0C38F09A
:101A10000E94920C20F039F49F3F19F426F40C94A4
:101A2000880C0EF4E095E7FB0C94820CE92F0E94E1
:101A3000AA0C58F3BA17620773078407950720F0BA
:101A400079F4A6F50C94CC0C0EF4E0950B2EBA2F7D
:101A5000A02D0B01B90190010C01CA01A0011124B4
:101A6000FF27591B99F0593F50F4503E68F11A1660
:101A7000F040A22F232F342F4427585FF3CF4695F1
:101A800037952795A795F0405395C9F77EF41F1613
:101A9000BA0B620B730B840BBAF09150A1F0FF0FDD
:101AA000BB1F661F771F881FC2F70EC0BA0F621FC9
:101AB000731F841F48F4879577956795B795F795B9
:101AC0009E3F08F0B0CF9395880F08F09927EE0F4E
:101AD0009795879508950E947F0D0C94990C0E940C
:101AE000920C58F00E948B0C40F029F45F3F29F0D3
:101AF0000C94820C51110C94CD0C0C94880C0E9407
:101B0000AA0C68F39923B1F3552391F3951B550B58
:101B1000BB27AA2762177307840738F09F5F5F4FC0
:101B2000220F331F441FAA1FA9F335D00E2E3AF0FF
:101B3000E0E832D091505040E695001CCAF72BD017
:101B4000FE2F29D0660F771F881FBB1F2617370768
:101B50004807AB07B0E809F0BB0B802DBF01FF279A
:101B600093585F4F3AF09E3F510578F00C94820CE9
:101B70000C94CD0C5F3FE4F3983ED4F386957795B3
:101B80006795B795F7959F5FC9F7880F911D969553
:101B9000879597F90895E1E0660F771F881FBB1FAF
:101BA000621773078407BA0720F0621B730B840B5C
:101BB000BA0BEE1F88F7E09508950E94B20C88F0EA
:101BC0009F5798F0B92F9927B751B0F0E1F0660F01
:101BD000771F881F991F1AF0BA95C9F714C0B13042
:101BE00091F00E94CC0CB1E008950C94CC0C672FBE
:101BF000782F8827B85F39F0B93FCCF38695779571
:101C00006795B395D9F73EF4909580957095619559
:101C10007F4F8F4F9F4F08950E94F10B08F48FEF75
:101C200008950E94F10B880B990B08950F931F9351
:101C3000CF93DF938230910510F482E090E0E09141
:101C40004107F091420730E020E0B0E0A0E030979B
:101C500099F42115310509F44AC0281B390B2430A9
:101C60003105D8F58A819B816115710589F1FB01E8
:101C700093838283FE0111C04081518102811381CF
:101C800048175907E0F04817590799F4109761F081
:101C900012960C93129713961C933296CF01DF91F4
:101CA000CF911F910F910895009341071093420720
:101CB000F4CF2115310551F04217530738F0A9012F
:101CC000DB019A01BD01DF01F801C1CFEF01F9CFBE
:101CD0009093420780934107CDCFFE01E20FF31F9F
:101CE000819391932250310939832883D7CF209152
:101CF0003F0730914007232B41F42091020130919E
:101D000003013093400720933F0720910001309159
:101D100001012115310541F42DB73EB74091040171
:101D200050910501241B350BE0913F07F0914007CE
:101D3000E217F307A0F42E1B3F0B2817390778F0A2
:101D4000AC014E5F5F4F2417350748F04E0F5F1F01
:101D50005093400740933F07819391939FCFF0E0CA
:101D6000E0E09CCFCF93DF930097E9F0FC0132973E
:101D700013821282A0914107B0914207ED0130E039
:101D800020E01097A1F420813181820F931F2091D0
:101D90003F07309140072817390709F061C0F093D9
:101DA0004007E0933F07DF91CF910895EA01CE17F6
:101DB000DF07E8F54A815B819E0141155105B1F7C6
:101DC000E901FB83EA8349915991C40FD51FEC17B0
:101DD000FD0761F4808191810296840F951FE901CE
:101DE00099838883828193819B838A83F0E0E0E0FA
:101DF00012968D919C9113970097B9F52D913C9176
:101E00001197CD010296820F931F20913F073091C9
:101E100040072817390739F6309751F510924207D5
:101E200010924107B0934007A0933F07BCCFD383E4
:101E3000C28340815181840F951FC817D90761F46F
:101E40004E5F5F4F88819981480F591F51834083AE
:101E50008A819B81938382832115310509F0B0CF5C
:101E6000F0934207E09341079ECFFD01DC01C0CF14
:101E700013821282D7CF4F925F926F927F928F928E
:101E80009F92AF92BF92CF92DF92EF92FF920F9309
:101E90001F93CF93DF938C01009799F4CB01DF91CF
:101EA000CF911F910F91FF90EF90DF90CF90BF9057
:101EB000AF909F908F907F906F905F904F900C9419
:101EC000160EFC01E60FF71F9C0122503109E217A4
:101ED000F30708F4AEC0D901CD91DC911197C61774
:101EE000D70720F1C530D10578F0CE0104978617C9
:101EF000970750F0C61BD70B2297C193D1936D93D0
:101F00007C93CF010E94B20EC801DF91CF911F9147
:101F10000F91FF90EF90DF90CF90BF90AF909F9088
:101F20008F907F906F905F904F9008955B01AC1AF7
:101F3000BD0A4C018C0E9D1EA0914107B091420735
:101F4000512C412CF12CE12C109731F580913F0759
:101F5000909140078815990509F05CC04616570610
:101F600008F058C08091000190910101009741F460
:101F70008DB79EB74091040150910501841B950BCC
:101F8000E817F90708F055C0F0934007E0933F07C2
:101F9000F90171836083B8CF8D919C91119712964E
:101FA0006C90129713967C901397A815B90559F564
:101FB0006C0142E0C40ED11CCA14DB0420F1AC0158
:101FC0004A195B09DA011296159780F062827382D2
:101FD00051834083D9016D937C93E114F10471F036
:101FE000D7011396FC93EE9312978ECF22968C0F07
:101FF0009D1FF90191838083F301EFCFF093420796
:10200000E093410781CF4816590608F42C017D0161
:10201000D3019ACFCB010E94160E7C01009749F0A4
:10202000AE01B8010E941C10C8010E94B20E8701C7
:102030006BCF10E000E068CFFB01DC0102C0019033
:102040000D9241505040D8F70895FB01DC010190FA
:102050000D920020E1F7089510E0C1E8D0E004C03F
:10206000FE010E94F50C2196C238D107C9F7F894F9
:02207000FFCFA0
:1020720000004307800000000000980202022F02C5
:10208200E50260023E025202000000008A035D0384
:10209200BE034D03FB01CB004E0330006E616E00A8
:1020A200696E66006F766600613738613230376577
:1020B2006436633935643534376665626133653752
:1020C2006138353339353132356635363437376232
:1020D2002C43494275696C6400312E322E302D3307
:1020E200302D43494275696C6400234376616B2E3F
:1020F2002E2E000D0A0024444F532C414952444FC6
:10210200533034582C002C302C000D0A24444947FB
:102112002C424154444154554E49543031422C00D2
:102122000D0A244144432C555354534950494E30CF
:1021320033412C0023486D6D6D2E2E2E002448490C
:0A21420053542C0024454E562C0087
:00000001FF
