:100000000C9482000C94AC000C94AC000C94AC00EA
:100010000C94AC000C94AC000C94AC000C94311417
:100020000C94AC000C94AC000C94AC000C94AC00A0
:100030000C94AC000C94AC000C94AC000C94AC0090
:100040000C94AC000C94AC000C94FB110C94AC0020
:100050000C94CF120C94A5120C94AC000C94AC0030
:100060000C94AC000C94AC000C9405130C94AC00F4
:100070000C946F120C9445120C94AC000C94AC00D0
:100080000C94AC000C94AC000C94AC00000021006B
:10009000240027002A0000002200250028002B0051
:1000A0000202020202020202040404040404040420
:1000B0000303030303030303010101010101010120
:1000C0000102040810204080010204081020408032
:1000D0000102040810204080010204081020408022
:1000E0000000000203000A0B0000000005040908DC
:1000F0000000000000000000000000000000000000
:1001000063140A1811241FBECFEFD0E4DEBFCDBFA9
:100110002AE0A4E7B2E001C01D92AE37B207E1F7D2
:1001200012E0A0E0B1E0E6E2F9E300E00BBF02C0BC
:1001300007900D92A437B107D9F710E0C1E8D0E0DD
:1001400004C02197FE010E946E19C038D107C9F77B
:100150000E943C150C94861C0C9400009091BA08E7
:1001600081E0913208F043C08091C3088111FCCF37
:100170008091B90822E02093C30821E02093C208AF
:100180002FEF2093C10829E938E03093C00820936D
:10019000BF081092BE089093BD081092BC089091C1
:1001A000BC08880F892B8093BC088091BB088130E4
:1001B00029F51092BB088091BC088093BB00809108
:1001C000BC0083FDF8CF85EC8093BC008091C30810
:1001D0008230E1F38091C1088F3F91F08091C10896
:1001E000803281F08091C108803371F084E01092F8
:1001F00098081092BA0810929708089585EEE4CFF7
:1002000080E0F5CF82E0F3CF83E0F1CF90E0FC0116
:10021000E052FF4F2491FC01E054FF4F349180568F
:100220009F4FFC018491882359F12223C1F0225071
:100230002A30A8F4E22FF0E0E05EFE4F0C946E1935
:1002400059015D012A0141012F012F0145014B0197
:100250004F015501909180009F7790938000E82F87
:10026000F0E0EE0FFF1FEA56FF4FA591B4918FB754
:10027000F894EC91611124C030953E233C938FBFDC
:100280000895909180009F7DE8CF9091B0009F7776
:100290009093B000E4CF9091B0009F7DF9CF909102
:1002A00090009F7790939000DACF909190009F7D7F
:1002B000F9CF94B59F7794BDD2CF94B59F7DFBCFF6
:1002C0003E2BDCCFCF93DF9390E0FC01E054FF4F57
:1002D000249180569F4FFC0184918823D1F090E0B7
:1002E000880F991FFC01E457FF4FA591B491FC01C1
:1002F000EA56FF4FC591D49161110EC09FB7F89493
:100300008C91E22FE0958E238C932881E223E88361
:100310009FBFDF91CF9108958FB7F894EC91E22BB6
:10032000EC938FBFF6CF2FB7F8946091930870913C
:10033000940880919508909196082FBF0895AF92E8
:10034000BF92CF92DF92EF92FF920F931F93CF93C2
:10035000DF936C017B018B01040F151FEB015E0124
:10036000AE18BF08C017D10759F06991D601ED91B9
:10037000FC910190F081E02DC6010995892B79F758
:10038000C501DF91CF911F910F91FF90EF90DF900A
:10039000CF90BF90AF900895FC01538D448D252FD1
:1003A00030E0842F90E0821B930B541710F0CF960F
:1003B000089501970895FC01918D828D981761F041
:1003C000A28DAE0FBF2FB11D5D968C91928D9F5F58
:1003D0009F73928F90E008958FEF9FEF0895FC0137
:1003E000918D828D981731F0828DE80FF11D858DEA
:1003F00090E008958FEF9FEF0895FC01918D228D7D
:10040000892F90E0805C9F4F821B91098F73992701
:1004100008958EE299E00E94FD0121E0892B09F404
:1004200020E0822F08958BEC99E00E94FD0121E0ED
:10043000892B09F420E0822F0895FC01A48DA80FD8
:10044000B92FB11DA35ABF4F2C91848D90E0019616
:100450008F739927848FA689B7892C93A089B18936
:100460008C91837080648C93938D848D981306C0D7
:100470000288F389E02D80818F7D80830895EF923B
:10048000FF920F931F93CF93DF93EC0181E0888F4E
:100490009B8D8C8D98131AC0E889F989808185FF1E
:1004A00015C09FB7F894EE89FF896083E889F989C0
:1004B00080818370806480839FBF81E090E0DF91C2
:1004C000CF911F910F91FF90EF900895F62E0B8D15
:1004D00010E00F5F1F4F0F731127E02E8C8D8E11D0
:1004E0000CC00FB607FCFACFE889F989808185FF37
:1004F000F5CFCE010E941D02F1CFEB8DEC0FFD2F49
:10050000F11DE35AFF4FF0829FB7F8940B8FEA89F1
:10051000FB8980818062CFCFCF93DF93EC01888D00
:100520008823B9F0AA89BB89E889F9898C9185FD6E
:1005300003C0808186FD0DC00FB607FCF7CF8C91FC
:1005400085FFF2CF808185FFEDCFCE010E941D0295
:10055000E9CFDF91CF91089580E090E0892B29F0D9
:100560000E94130281110E94000080E090E0892B1C
:1005700029F00E94090281110C940000089585ED74
:100580008093BC008091BC0084FDFCCF1092C30816
:10059000089520910603260F3327331F213231059A
:1005A000ECF42091C308FC0190E080E0243069F075
:1005B00082E00895A09106032191AC014A515D4F5C
:1005C000A40FB52FB11D2C930196861798F3809137
:1005D0000603680F6093060380E0089581E00895A4
:1005E0000895E091C5088091C408E81730F4F0E060
:1005F000EA53F74F808190E008958FEF9FEF0895C1
:100600009091C5088091C4082FEF3FEF981748F4E8
:10061000E92FF0E0EA53F74F208130E09F5F90939D
:10062000C508C90108958091C4089091C508891B27
:10063000990B0895CF92DF92EF92FF920F931F9341
:10064000CF93DF937C01CB018A012091970822236D
:1006500089F0EB016B01C40ED51ECC15DD0569F0E8
:100660006991D701ED91FC910190F081E02DC701D6
:100670000995F3CF642F0E94C902C801DF91CF9181
:100680001F910F91FF90EF90DF90CF900895CF933F
:10069000DF931F92CDB7DEB769832091970822239D
:1006A000F9F02091BA08203258F021E030E0FC0146
:1006B0003383228390E080E00F90DF91CF91089503
:1006C00080919808E82FF0E0E756F74F99819083E2
:1006D0008F5F809398088093BA0881E090E0ECCF18
:1006E00061E0CE0101960E94C902F7CF682F88E62B
:1006F0009AE00C94470390E080E00895CF92DF9257
:10070000EF92FF920F931F93CF93DF938C01EB0136
:10071000F894C0904203D0904303E0904403F090DB
:10072000450360918400709185008091E40290916E
:10073000E5027894681B790B90E080E027E0660F73
:10074000771F881F991F2A95D1F720E137E240E0F3
:1007500050E00E944C19243648F528838091E0022D
:100760009091E102A091E202B091E3028C0D9D1DF7
:10077000AE1DBF1D40913E0350913F036091400369
:10078000709141036C017D01C41AD50AE60AF70A8B
:10079000F801C082D182E282F382DF91CF911F9172
:1007A0000F91FF90EF90DF90CF90089583E68883BC
:1007B000D5CF189B6EC080914A0390914B03A091B6
:1007C0004C03B0914D030196A11DB11D80934A03C6
:1007D00090934B03A0934C03B0934D03209184005E
:1007E0003091850042981EBC0DB407FEFDCF8EB53A
:1007F0001EBC0DB407FEFDCF9EB5429A89279827EF
:1008000089278034910570F4880F991FFC01E65FF9
:10081000F74F808191818F3F9807D9F1019691839D
:100820008083089540915803509159034C325140B0
:10083000A0F4E0915803F0915903EE0FFF1FEE541E
:10084000FA4F31832083E0915803F0915903EE0F62
:10085000FF1FE65AFC4F918380838091580390914B
:10086000590301969093590380935803809146034E
:1008700090914703A0914803B09149030196A11DAF
:10088000B11D8093460390934703A0934803B09310
:1008900049030895FB019081892790E1899F900188
:1008A0001124822790E0382F2227AC0163E0440F07
:1008B000551F6A95E1F724273527418150E0242709
:1008C000352774E0959587957A95E1F782279327E8
:1008D000918380830895AF92BF92DF92EF92FF924F
:1008E0000F931F93CF93DF93EC018B01FB01D38018
:1008F0008281645F7F4F8E3F09F459C0ED2CF12C4B
:10090000FB01EE0DFF1DDE2C91E09E1538F49701E2
:10091000215031099291992309F463C08883D982C7
:10092000F80184818A8385818B8386818C8387818A
:100930008D8380858E8381858F8381859285A38534
:10094000988781859285A385A987A701CE010A96FC
:100950000E94681CFAE0EF0EF11CCE0DDF1DF801BD
:10096000848199E0F92E80FF3AC08DE0F8019081F2
:10097000988391819983A82EB12C882341F0B801E6
:100980006A5E7E4FA501CE0102960E94681CC501D9
:100990008F0D911D03968D0D911DDF91CF911F91AC
:1009A0000F91FF90EF90DF90BF90AF9008958883F4
:1009B000D98286818A8387818B8380858C83818598
:1009C0008D83438150E0CE0106960E94681CF80199
:1009D000838190E00696C80FD91F25E0F22E80E0B3
:1009E000C5CF790190CF2F923F924F925F926F9235
:1009F0007F928F929F92AF92BF92CF92DF92EF92AF
:100A0000FF920F931F93CF93DF93CDB7DEB7CA58F2
:100A1000D1400FB6F894DEBF0FBECDBF1C01CF5939
:100A2000DE4F79836883C156D140C95BDE4F28838E
:100A300039834A835B83C754D140DC01CD90DD907C
:100A4000ED90FC90DA01C90113E0880F991FAA1FED
:100A5000BB1F1A95D1F78C0D9D1DAE1DBF1DF10159
:100A600080839183A283B3838C159D05AE05BF055A
:100A700058F484819581A681B7810196A11DB11D8D
:100A800084839583A683B783A3E0F694E794D794F1
:100A9000C794AA95D1F7FFE3CF22DD24EE24FF24EB
:100AA0008101085D1F4FC957DE4F19830883C7585E
:100AB000D1408E010F5B1E4FCF5BDE4F1983088341
:100AC000C154D140C95BDE4F488059806A807B8029
:100AD000C754D140411451046104710409F49BC40A
:100AE00080E490E0A0E0B0E08C199D09AE09BF0958
:100AF0005301420184159505A605B70510F44C0174
:100B00005D01C957DE4F88819981C758D1408C0D4E
:100B10009D1DA401CF59DE4F68817981C156D14016
:100B20000E94681CC80CD91CEA1CFB1CCF59DE4F64
:100B300068807980C156D140680C791CCF59DE4F4E
:100B400079826882C156D140C95BDE4F48805980A6
:100B50006A807B80C754D140481859086A087B08CE
:100B6000C95BDE4F488259826A827B82C754D1407A
:100B700000E4C016D104E104F10409F0A3CFC95781
:100B8000DE4F88819981C758D1408E010F5F1E4F7B
:100B9000F801DC0113962C911397208312962C9167
:100BA0001297218311962C91119722832C912383E4
:100BB00004963496CF5BDE4F48805980C154D140B3
:100BC0004E165F0631F7D1011896CD90DD90ED906D
:100BD000FC901B97CD59DE4FC882D982EA82FB82F6
:100BE000C356D1401C964D905D906D907C901F97A0
:100BF000C959DE4F488259826A827B82C756D140EA
:100C000050964D905D906D907C905397C559DE4FF6
:100C1000488259826A827B82CB56D14054964D904D
:100C20005D906D907C905797C159DE4F48825982F4
:100C30006A827B82CF56D14058964D905D906D90E0
:100C40007C905B97CD58DE4F488259826A827B82C6
:100C5000C357D1405C964D905D906D907C905F97AE
:100C6000C958DE4F488259826A827B82C757D14079
:100C700090964D905D906D907C909397C558DE4F07
:100C8000488259826A827B82CB57D14094964D909C
:100C90005D906D907C909797C158DE4F4882598245
:100CA0006A827B82CF57D1409E012F5F3F4FCD5A42
:100CB000DE4F39832883C355D140C901D8014D91F6
:100CC0005D916D917D918D01DC014D935D936D93EF
:100CD0007D93CD01E017F10789F7CD5ADE4F4880AB
:100CE0005980C355D140B0EC4B0E511CCD5ADE4F4C
:100CF00068807980C355D140CD5BDE4F79826882B0
:100D0000C354D140F30180AD91ADA2ADB3AD048128
:100D1000158126813781F4E06F0E711C6C017D0115
:100D20004FE0CC0CDD1CEE1CFF1C4A95D1F7AC014A
:100D3000BD01E1E17695679557954795EA95D1F71D
:100D4000C42AD52AE62AF72AAC01BD01FDE0440FEA
:100D5000551F661F771FFA95D1F74C015D01E3E13E
:100D6000B694A79497948794EA95D1F7482959297E
:100D70006A297B294C255D256E257F25FAE0B695ED
:100D8000A79597958795FA95D1F784279527A62754
:100D9000B727CD5BDE4FE881F981C354D14044A130
:100DA00055A166A177A1C080D180E280F3804C0D6F
:100DB0005D1D6E1D7F1D840F951FA61FB71F680147
:100DC000790147E0F694E794D794C7944A95D1F710
:100DD000B901A801E9E1440F551F661F771FEA9585
:100DE000D1F7C42AD52AE62AF72AB901A801FEE0DC
:100DF000440F551F661F771FFA95D1F74801590117
:100E0000E2E1B694A79497948794EA95D1F748299C
:100E100059296A297B294C255D256E257F25F3E01C
:100E20003695279517950795FA95D1F740275127BD
:100E300062277327840F951FA61FB71FF30184AF86
:100E400095AFA6AFB7AF4614570409F055CF02E1EE
:100E500011E0C757DE4F19830883C958D140C159E3
:100E6000DE4F288139814A815B81CF56D140CD57F1
:100E7000DE4F288339834A835B83C358D140C559E9
:100E8000DE4F88819981AA81BB81CB56D140C15B5D
:100E9000DE4F88839983AA83BB83CF54D140C9593D
:100EA000DE4F488059806A807B80C756D140C55B41
:100EB000DE4F488259826A827B82CB54D140CD5921
:100EC000DE4F488159816A817B81C356D140C55824
:100ED000DE4FC880D980EA80FB80CB57D140C75A0B
:100EE000DE4FC882D982EA82FB82C955D140C958F7
:100EF000DE4FE880F9800A811B81C757D140CB5A69
:100F0000DE4FE882F9820A831B83C555D140C15860
:100F1000DE4F088119812A813B81CF57D140CD5BBB
:100F2000DE4F088319832A833B83C354D140CD58B5
:100F3000DE4F88819981AA81BB81C357D140C757B1
:100F4000DE4FE881F981C958D140E190F1900191DB
:100F50001191C757DE4FF983E883C958D140C35A6E
:100F6000DE4FE882F9820A831B83CD55D140CD5AEA
:100F7000DE4FE881F981C355D14081909190A190D5
:100F8000B190CD5ADE4FF983E883C355D1402C018F
:100F90003D012AE1440C551C661C771C2A95D1F7AB
:100FA0008C019D01E6E03695279517950795EA9502
:100FB000D1F7402A512A622A732A8C019D01F5E15A
:100FC000000F111F221F331FFA95D1F76C017D010D
:100FD000EBE0F694E794D794C794EA95D1F70C29FF
:100FE0001D292E293F2904251525262537252C01C5
:100FF0003D01F9E17694679457944794FA95D1F7B7
:101000006C017D01E7E0CC0CDD1CEE1CFF1CEA95B9
:10101000D1F7C428D528E628F7280C251D252E252C
:101020003F25C35ADE4F488059806A807B80CD556A
:10103000D140840C951CA61CB71C080D191D2A1D37
:101040003B1D4C015D0180949094A094B094C75ACC
:10105000DE4FC880D980EA80FB80C955D1408C2002
:101060009D20AE20BF20CB5ADE4FC880D980EA80B9
:10107000FB80C555D140C822D922EA22FB228C240C
:101080009D24AE24BF24800E911EA21EB31ECD5BF4
:10109000DE4FE880F9800A811B81C354D1408E0C59
:1010A0009F1CA01EB11ECD57DE4F088119812A81D9
:1010B0003B81C358D140080D191D2A1D3B1DC35A41
:1010C000DE4F088319832A833B83CD55D1406A01C3
:1010D0007B01FEE1CC0CDD1CEE1CFF1CFA95D1F768
:1010E0008A019B01E2E03695279517950795EA95C9
:1010F000D1F7280139014C285D286E287F288A0104
:101100009B01F3E1000F111F221F331FFA95D1F746
:101110006A017B01EDE0F694E794D794C794EA95D1
:10112000D1F70C291D292E293F290425152526250F
:1011300037252A013B01F6E176946794579447944A
:10114000FA95D1F76A017B01EAE0CC0CDD1CEE1CBC
:10115000FF1CEA95D1F74C285D286E287F28730183
:101160006201C026D126E226F326CD5BDE4FC8827F
:10117000D982EA82FB82C354D140C55BDE4F08812D
:1011800019812A813B81CB54D140C15BDE4F48801D
:1011900059806A807B80CF54D140042515252625AF
:1011A00037250423152326233723C55BDE4FC8804C
:1011B000D980EA80FB80CB54D140C420D520E620E2
:1011C000F7200C251D252E253F25CD5BDE4FC88041
:1011D000D980EA80FB80C354D1400C0D1D1D2E1D0B
:1011E0003F1D080D191D2A1D3B1DC75ADE4F4880A3
:1011F00059806A807B80C955D140CD5BDE4F4882E3
:1012000059826A827B82C354D140C15BDE4FC88061
:10121000D980EA80FB80CF54D140CD57DE4FC882C1
:10122000D982EA82FB82C358D140F2E1EF2EF2E08C
:10123000FF2EC757DE4FE881F981C958D140EE161D
:10124000FF0609F0ADC0CD59DE4F488059806A8055
:101250007B80C356D140040D151D261D371DF1019D
:101260000087118722873387C959DE4F488059800C
:101270006A807B80C756D140440D551D661D771D81
:101280004487558766877787C559DE4F48815981DE
:101290006A817B81CB56D140C55BDE4F4880598047
:1012A0006A807B80CB54D140440D551D661D771D4F
:1012B000408B518B628B738BC159DE4F48815981B2
:1012C0006A817B81CF56D140C15BDE4F4880598017
:1012D0006A807B80CF54D140440D551D661D771D1B
:1012E000448B558B668B778BCD58DE4F4881598167
:1012F0006A817B81C357D140C35ADE4F48805980F1
:101300006A807B80CD55D140440D551D661D771DEB
:10131000408F518F628F738FC958DE4F488059803C
:101320006A807B80C757D140840D951DA61DB71DCF
:10133000848F958FA68FB78FC558DE4F888199818E
:10134000AA81BB81CB57D140CB5ADE4F4880598010
:101350006A807B80C555D140840D951DA61DB71DA3
:1013600080A391A3A2A3B3A3C158DE4F8881998122
:10137000AA81BB81CF57D140C75ADE4F48805980E0
:101380006A807B80C955D140840D951DA61DB71D6F
:1013900084A395A3A6A3B7A3C12CD12C760192CB8D
:1013A000C55BDE4F488059806A807B80CB54D1403A
:1013B000C15BDE4F488259826A827B82CF54D14022
:1013C000C55BDE4F488359836A837B83CB54D1400E
:1013D000B901A801CB5ADE4FC880D980EA80FB80D2
:1013E000C555D140C75ADE4FC882D982EA82FB82F6
:1013F000C955D140CB5ADE4F88839983AA83BB83DA
:10140000C555D140C35ADE4F88819981AA81BB81DD
:10141000CD55D14094CDC657DE4F0FB6F894DEBF00
:101420000FBECDBFDF91CF911F910F91FF90EF9035
:10143000DF90CF90BF90AF909F908F907F906F90F4
:101440005F904F903F902F9008954F925F926F92D0
:101450007F928F929F92AF92BF92CF92DF92EF9244
:10146000FF920F931F93CF93DF93CDB7DEB7C9548D
:10147000D1400FB6F894DEBF0FBECDBF6C0180E83F
:10148000F701DE01169601900D928A95E1F73A83F5
:1014900029836B834C830D8385E8FE013196D60149
:1014A0001C9601900D928A95E1F781E891E0A0E009
:1014B000F60181879287A3878091F208282F2270F6
:1014C00081FD1DC0E091F408F091F508309731F0EE
:1014D00080815DE0552E11E080FD02C0512C10E0AE
:1014E0008DEFF6018283EF56FF4F85E892919111BF
:1014F00003C081508130D1F73AE0432E07C08EEF10
:101500008283512C46E0442E10E085E8D6011396E4
:101510008C93139781E017968C9317979AE01896FF
:101520009C93189711115CC014961C92D6011596C5
:101530001C9215978091ED0816968C9316978091C2
:10154000ED088F5F8093ED0812968C911297CA5C1C
:10155000DE4F8883C653D14013968C911397C95C94
:10156000DE4F8883C753D14016969C9116971796E5
:101570008C912223C1F1C85CDE4F9883C853D140BF
:10158000C75CDE4F8883C953D1408AE0C65CDE4F1A
:101590008883CA53D14081E8C55CDE4F8883CB5332
:1015A000D140A42CB12C8FEF9FEFCA57DF4F998306
:1015B0008883C658D040CE018A5C9E4F7C014C0186
:1015C0008A0C9B1C9FEFE91AF90A8E149F04D1F133
:1015D000BE016A577F4FD7018C910E944A04F2CF17
:1015E000F6018483A3CFF6012481C85CDE4F2883F3
:1015F000C853D1402581C75CDE4F2883C953D140F1
:10160000C65CDE4F9883CA53D140C55CDE4F8883E9
:10161000CB53D1408AE0C45CDE4F8883CC53D140A9
:1016200081E8C35CDE4F8883CD53D14081E0C25C4A
:10163000DE4F8883CE53D140C15CDE4F1882CF533A
:10164000D140AFCFCA57DF4F88819981C658D0406B
:10165000C85BDE4F99838883C854D140F60163800C
:10166000712C7601FCE0EF0EF11C470181E0681A55
:101670007108BE01685B7E4F9FEF6916790631F0F5
:10168000D4018D914D010E944A04F0CF83E90E945C
:101690004A04C85BDE4F9881C854D140C75BDE4F17
:1016A0008881C954D140D6011396EC911397EE0D61
:1016B000FF2DF11D90831396EC911397EE0DFF2DE6
:1016C000F11D81839C9311968C931197112309F43A
:1016D00099C10091F4081091F5080115110509F45C
:1016E00091C1F801808180FF8DC113967C9081812A
:1016F0004601FAEE8F1AFEEF9F0AD4018C93F8018F
:1017000072816381548145813681278190858185ED
:10171000C05CDE4F7883C054D140CF5BDE4F68831E
:10172000C154D140CE5BDE4F5883C254D140CD5B13
:10173000DE4F4883C354D140CC5BDE4F3883C45462
:10174000D140CB5BDE4F2883C554D140CA5BDE4F0E
:101750009883C654D140C95BDE4F8883C754D140BB
:1017600086E0FE01E05CFE4F119601900D928A9595
:10177000E1F7D80112962C91129713963C9113978A
:1017800014964C91149715965C91159716966C913A
:10179000169717967C91179718968C91189719960B
:1017A0009C91A1E00E947719F8012283338344833E
:1017B00055836683778380879187CA57DF4F188266
:1017C00019821A821B82C658D040C657DF4F188232
:1017D00019821A821B82CA58D04087E696EEA9E089
:1017E000BAE6C257DF4F88839983AA83BB83CE585A
:1017F000D04085E89EEAA7E6BBEBCE56DF4F888354
:101800009983AA83BB83C259D04082E793EFAEE6A7
:10181000BCE3CA56DF4F88839983AA83BB83C6592A
:10182000D0408AE395EFAFE4B5EAC656DF4F888330
:101830009983AA83BB83CA59D0408FE792E5AEE073
:10184000B1E5C256DF4F88839983AA83BB83CE5903
:10185000D0408CE898E6A5E0BBE9CE55DF4F888301
:101860009983AA83BB83C25AD0408BEA99EDA3E83F
:10187000BFE1CA55DF4F88839983AA83BB83C65AC9
:10188000D04089E19DECA0EEBBE5C655DF4F8883D3
:101890009983AA83BB83CA5AD040B801665F7F4F41
:1018A00020E230E040E050E0CE018A579F4F0E9496
:1018B000F304242D30E050E040E0BE016A5C7E4F2E
:1018C000CE018A579F4F0E94F304272D30E050E04D
:1018D00040E0B701CE018A579F4F0E94F304B70141
:1018E000670D711D22E030E040E050E0CE018A57E4
:1018F0009F4F0E94F30427E030E040E050E0B40145
:10190000CE018A579F4F0E94F304CA57DF4F888148
:101910009981AA81BB81C658D040AC01BD0123E0AA
:1019200076956795579547952A95D1F74F73552723
:1019300027E730E0241B350B2F733327BE0162519C
:101940007F4F40E8FB01419347E411924A95E9F744
:10195000EEEEF0E0EC0FFD1FE20FF31F80879783A0
:10196000A683B583C657DF4F5881CA58D040C557A4
:10197000DF4F4881CB58D040C457DF4F9881CC58B7
:10198000D040C357DF4F8881CD58D0405483438324
:1019900092838183275F3F4F50E040E0BE01625158
:1019A0007F4FCE018A579F4F0E94F304CF56DF4FDF
:1019B0008881C159D040F601E35EFE4F8083C05755
:1019C000DF4F8881C059D04031968083C157DF4FA7
:1019D0008881CF58D04031968083C257DF4F8881AD
:1019E000CE58D04031968083CB56DF4F8881C55981
:1019F000D04031968083CC56DF4F8881C459D04087
:101A000031968083D60113968C918A0D9B2D911D62
:101A10000296850D911DC75BDE4F0FB6F894DEBFB1
:101A20000FBECDBFDF91CF911F910F91FF90EF902F
:101A3000DF90CF90BF90AF909F908F907F906F90EE
:101A40005F904F900895EF92FF920F93CF93DF93A3
:101A5000CDB7DEB7CB53D2400FB6F894DEBF0FBE82
:101A6000CDBF7C01062F24E030E041E061E0CE01F3
:101A700001960E94250ABE016F5F7F4FCE018C5DEB
:101A80009E4F0E946B04AC01BE016C5D7E4F8BECDF
:101A900099E00E949F01C55CDD4F0FB6F894DEBF50
:101AA0000FBECDBFDF91CF910F91FF90EF900895C2
:101AB0002F923F924F925F926F927F928F929F925E
:101AC000AF92BF92CF92DF92EF92FF920F931F934C
:101AD000CF93DF93CDB7DEB7C258D1090FB6F894D4
:101AE000DEBF0FBECDBF80913D0381117FC0C258C4
:101AF000DF4F188219821A821B82CE57D040CE57F0
:101B0000DF4F1882C258D040F894609084007090E3
:101B10008500E0905803F09059038091560390910E
:101B20005703789487012DE2E21621E0F20610F0C7
:101B30000CE211E023E0298320913B0330913C0328
:101B40003B832A839D838C8365E0CE0101960E94AE
:101B5000230DE114F10409F45FC0C8014C966DE156
:101B600070E00E943819362ED12CC12C412C37E060
:101B7000232E20913B0330913C03431408F04CC0CA
:101B8000C8018C199D098E31910510F08DE190E00E
:101B9000582E29823B832A834C823D828E831F826A
:101BA00018861986CE0101964C01B12CA12C94E027
:101BB000890E911CA51418F50E94D903C5018C0D3E
:101BC0009D1D880F991FFC01EE54FA4F2081318131
:101BD000865A9C4FFC0180819181F40136832583D4
:101BE00090878783FFEFAF1ABF0AE1CFBE016E5720
:101BF0007F4FCE0182589F4F0E947E0385CF652D77
:101C0000660F660F675FCE0101960E94230D439415
:101C10002DE1C20ED11CADCF84E0898380913B03BE
:101C200090913C039B838A83C258DF4F88819981BE
:101C3000AA81BB81CE57D0408C839D83AE83BF8366
:101C4000CE57DF4F8881C258D04088877A86698610
:101C5000FC86EB861E870D876EE0CE0101960E9402
:101C6000230D85E0898380913B0390913C039B8306
:101C70008A8310E000E00E94D903E4E0F0E0EC0F7A
:101C8000FD1FE00FF11FD801A65FB74F8D919C910A
:101C9000918380830E5F1F4F0034110561F765E467
:101CA000CE0101960E94230D86E0898380913B033B
:101CB00090913C039B838A8310E000E00E94D9034B
:101CC000E4E0F0E0EC0FFD1FE00FF11FD801A65B90
:101CD000B74F8D919C91918380830E5F1F4F00348D
:101CE000110561F763E4CE0101960E94230D8091F6
:101CF0003B0390913C03019690933C0380933B03FC
:101D0000CE57DF4F0FB6F894DEBF0FBECDBFDF91C9
:101D1000CF911F910F91FF90EF90DF90CF90BF90E8
:101D2000AF909F908F907F906F905F904F903F907B
:101D30002F900895EF92FF920F93CF93DF93CDB73B
:101D4000DEB7CB53D2400FB6F894DEBF0FBECDBF87
:101D50007C0104E124E030E040E060E0CE01019647
:101D60000E94250ABE016F5F7F4FCE018C5D9E4FA2
:101D70000E946B04AC01BE016C5D7E4F8BEC99E060
:101D80000E949F01C55CDD4F0FB6F894DEBF0FBE09
:101D9000CDBFDF91CF910F91FF90EF90089590917B
:101DA000C3089111FCCF91E09093C3089093C208AF
:101DB0002FEF2093C10826EC38E03093C008209321
:101DC000BF081092BE082FEF260F2093BD089093F6
:101DD000BC089091BC08880F892B8093BC08809127
:101DE000BB088130E9F41092BB088091BC08809355
:101DF000BB008091BC0083FDF8CF85EC8093BC00D4
:101E00008091C3088130E1F38091BE08861710F4F9
:101E10006091BE081092C5086093C408862F08958B
:101E200085EEECCF2F923F924F925F926F927F920E
:101E30008F929F92AF92BF92CF92DF92EF92FF92DA
:101E40000F931F93CF93DF93CDB7DEB7A9970FB64C
:101E5000F894DEBF0FBECDBF9E012D5E3F4F38A769
:101E60002FA36E013FE1C30ED11C30E9A32EBB248A
:101E7000B39444E6842E912C8EE299E00E94FD01F9
:101E8000892B09F4CBC10E94D9038EE299E00E940C
:101E9000DB01843231F480937C0281E080937B0209
:101EA000EBCFE0917B029FEF9E0F923608F0B3C11B
:101EB000662463946E0E60927B02F0E0E458FD4F5E
:101EC00080838A30C9F6E62DF0E0E458FD4F108299
:101ED00047E050E066E372E08CE792E00E94781CF5
:101EE000892B59F047E050E06EE372E08CE792E016
:101EF0000E94781C892B09F08EC18CE0AFA1B8A597
:101F00001D928A95E9F788E0F60111928A95E9F722
:101F10000CE712E0512C712CE0E040E0D8018D91EB
:101F20008D0144244394440E8C3241F08D3031F0C5
:101F3000982F9F7D9A3011F0811117C04E1BB1E090
:101F40007B1281C0463060F04B3008F04AE050E030
:101F50006E2F70E064587D4FCE0143960E94681C3E
:101F60007394E42D39E0371518F0442D6414B0F65D
:101F700061E4561207C08B89882321F081E09F8D90
:101F8000911101C080E040907A0249A680937A02C4
:101F9000882309F440C18B8980539AE03C893053EF
:101FA000899F300D11248D8980534E894053899F1C
:101FB000400D11248F898053388C20ED522E350C22
:101FC000899F300C11248F8D805328A0250C899F68
:101FD000200C112489A180532AA12053899F200D10
:101FE00011245BA150538CA18053599F800D112463
:101FF000E82FF0E0863408F441C0E459F84F02EBD2
:1020000017E0412C512C3201C801837099270E171B
:102010001F07E1F1892B31F4C801B4010E9438197E
:10202000892B31F4C801B5010E943819892B49F573
:102030008EE691E0A0E0B0E0480E591E6A1E7B1EBD
:102040000F5F1F4FE1CFF2E07F1208C0442309F475
:1020500087CFF0E0E458FD4F508082CF29E0721224
:102060007FCF463008F47CCFF0E0E458FD4F86E0A7
:10207000D60101900D928A95E1F772CFE053F84FA7
:10208000BECF8DE691E0A0E0B0E0D6CF5CE0E6E028
:10209000F1E0DE01119601900D925A95E1F7892B3E
:1020A00031F4C801B4010E943819892B31F4C801F8
:1020B000B5010E943819892BE1F49DE180E0622F7F
:1020C0006150770BFB01682F70E06E177F0798F463
:1020D000292F813041F0A1E0B0E0AC0FBD1F6A0FA5
:1020E0007B1FDB012C91420E511C611C711C8F5F08
:1020F000EACF9CE1E3CFE0913D03F894232F30E059
:10210000A0E1BEE00E9419197B018C01242F30E070
:10211000ACE3B0E00E9419196E0D7F1D801F911F66
:102120007B018C01E30CF11C011D111D222D21509E
:10213000330BC901A3019201280F391F411D511D05
:1021400060E871E581E090E00E9428196E0D7F1D26
:10215000801F911F6093E0027093E1028093E2027E
:102160009093E3028091420390914303A091440332
:10217000B091450380933E0390933F03A0934003A7
:10218000B093410381E080933D037894EE2319F0EE
:1021900049A4411040C0F8940091420310914303B8
:1021A00020914403309145038091E0029091E10237
:1021B000A091E202B091E30240913E0350913F03AF
:1021C0006091400370914103789428013901441AC9
:1021D000550A660A770AB301A201E2E0E983E091B9
:1021E0003D03EA830B831C832D833E838F83988773
:1021F000A987BA87840F951FA61FB71F8B879C8757
:10220000AD87BE874F87588B698B7A8B62E1CE0191
:1022100001960E94230D10927B022ECEA9960FB636
:10222000F894DEBF0FBECDBFDF91CF911F910F910C
:10223000FF90EF90DF90CF90BF90AF909F908F90E6
:102240007F906F905F904F903F902F900895CF9226
:10225000DF92EF92FF920F931F93CF93DF93CDB74F
:10226000DEB766970FB6F894DEBF0FBECDBF809184
:102270003D03811131C01A8A1B8A1C8A1D8A1E8A5D
:1022800081E08093970885E48093B90810929808BC
:102290001092BA0864E288E69AE00E94470360E080
:1022A00088E69AE00E9447030E94AE00811194C024
:1022B0000E9493016B017C010E9493016C197D09BE
:1022C0008E099F096F3071058105910568F40E94A0
:1022D000D9030E94120FF0CFBE016A5E7F4FCE017C
:1022E00042960E947E03CCCF66E085E40E94CF0E2A
:1022F0008091C4089091C508891B990B06970CF42E
:102300006BC088E69AE00E940003182F88E69AE0E6
:102310000E940003E12CF12EE82AF92A88E69AE0CF
:102320000E94000388E69AE00E940003182F88E6C6
:102330009AE00E94000360E0712F8B01082B192B9B
:1023400088E69AE00E94000388E0898380913B033D
:1023500090913C039B838A838A899B89AC89BD8940
:102360008C839D83AE83BF838E8988871986B7014E
:1023700090E080E00E94131820E03FEF4FE757E421
:102380000E94F01920E030E04FE253E40E94501820
:1023900020E030E044E352E40E9483196A877B879F
:1023A0008C879D87B80190E080E00E94131820E0A0
:1023B0003FEF4FE757E40E94F01920E030E048EC8F
:1023C00052E40E9450186E877F87888B998B61E159
:1023D000CE0101960E94230D66960FB6F894DEBFDB
:1023E0000FBECDBFDF91CF911F910F91FF90EF9066
:1023F000DF90CF9008951F920F920FB60F92112485
:102400002F933F938F939F93AF93BF9380919308A4
:1024100090919408A0919508B091960830919208F7
:1024200026E0230F2D3768F129E8230F0396A11D1D
:10243000B11D209392088093930890939408A093E1
:102440009508B093960880918E0890918F08A0917E
:102450009008B09191080196A11DB11D80938E083E
:1024600090938F08A0939008B0939108BF91AF917B
:102470009F918F913F912F910F900FBE0F901F90C2
:1024800018950296A11DB11DD4CF1F920F920FB6C1
:102490000F9211240BB60F922F933F934F935F939C
:1024A0006F937F938F939F93AF93BF93EF93FF931C
:1024B0008EE299E00E941D02FF91EF91BF91AF91D2
:1024C0009F918F917F916F915F914F913F912F914C
:1024D0000F900BBE0F900FBE0F901F9018951F927C
:1024E0000F920FB60F9211240BB60F922F938F936A
:1024F0009F93EF93FF93E0913E09F0913F09808114
:10250000E0914409F091450982FD1DC090818091C0
:1025100047098F5F8F7320914809821741F0E0913E
:102520004709F0E0E25DF64F958F80934709FF91F0
:10253000EF919F918F912F910F900BBE0F900FBE37
:102540000F901F9018958081F2CF1F920F920FB6B7
:102550000F9211240BB60F922F933F934F935F93DB
:102560006F937F938F939F93AF93BF93EF93FF935B
:102570008BEC99E00E941D02FF91EF91BF91AF910A
:102580009F918F917F916F915F914F913F912F918B
:102590000F900BBE0F900FBE0F901F9018951F92BB
:1025A0000F920FB60F9211240BB60F922F938F93A9
:1025B0009F93EF93FF93E091DB09F091DC09808119
:1025C000E091E109F091E20982FD1DC090818091C6
:1025D000E4098F5F8F732091E509821741F0E09144
:1025E000E409F0E0E553F64F958F8093E409FF91FD
:1025F000EF919F918F912F910F900BBE0F900FBE77
:102600000F901F9018958081F2CF1F920F920FB6F6
:102610000F9211240BB60F922F933F934F935F931A
:102620006F937F938F939F93AF93BF93EF93FF939A
:102630008091B900887F803609F44DC008F040C011
:10264000883209F4A7C028F5803109F49BC0C8F48A
:10265000882309F403C1883009F494C0FF91EF91F5
:10266000BF91AF919F918F917F916F915F914F91AA
:102670003F912F910F900BBE0F900FBE0F901F90A8
:102680001895883109F486C0803241F78093C108DB
:1026900014C0803409F4A3C040F48033B9F3883304
:1026A000E9F68093C10885ECBAC0803509F487C08B
:1026B000883509F49CC0883489F60E94BF02CECFC9
:1026C000883909F492C038F5883729F050F48836F3
:1026D00011F0803719F683E08093C3081092280325
:1026E00055C0883809F481C0803919F0803809F064
:1026F000B5CF80912803803208F077C0E09128039D
:1027000081E08E0F809328038091BB00F0E0E85FAA
:10271000FC4F80833BC0803B39F0D0F4803A09F411
:1027200083C0883A09F09ACF84E08093C30810925E
:10273000070310920603F0E0E0E00995809106039C
:1027400081110FC081E0809306031092E60209C058
:10275000803C09F4A8CF883C09F4A5CF883B09F058
:102760007DCFE091070381E08E0F80930703F0E0B7
:10277000EA51FD4F80818093BB00909107038091C7
:10278000060331C08091BC088093BB0085EC809328
:10279000BC0064CF9091BE088091BD089817B8F531
:1027A0008091BF089091C008E091BE0821E02E0FF3
:1027B0002093BE08E80FF92FF11D8081E5CF20910D
:1027C000BF083091C008E091BE0881E08E0F809371
:1027D000BE088091BB00E20FF32FF11D8083909122
:1027E000BE088091BD08981788F285E8D0CF209167
:1027F000BF083091C008E091BE0881E08E0F809341
:10280000BE088091BB00E20FF32FF11D8083809101
:10281000C208811152CF81E08093BB0884EA809383
:10282000BC001092C3081ACF85EC8093BC001092B4
:10283000C30880912803803230F4E0912803F0E04F
:10284000E85FFC4F10826091280370E088E093E01D
:10285000F0E0E0E009951092280300CF1092C10843
:102860002CCF1F920F920FB60F9211248F939F932C
:10287000AF93BF934C9B25C08091840090918500BD
:102880009093E5028093E402809142039091430388
:10289000A0914403B09145030196A11DB11D809301
:1028A000420390934303A0934403B0934503479A94
:1028B000BF91AF919F918F910F900FBE0F901F907E
:1028C00018954798F5CF109231091092300988EE8B
:1028D00093E0A0E0B0E08093320990933309A09395
:1028E0003409B093350926E132E030932F09209363
:1028F0002E094DEC50E050933B0940933A094CECC3
:1029000050E050933D0940933C0948EC50E050930F
:102910003F0940933E0949EC50E0509341094093F0
:1029200040094AEC50E050934309409342094EEC71
:1029300050E0509345094093440910924709109282
:1029400048091092490910924A091092CE09109232
:10295000CD098093CF099093D009A093D109B0936A
:10296000D2093093CC092093CB0925EC30E0309389
:10297000D8092093D70924EC30E03093DA0920936A
:10298000D90920EC30E03093DC092093DB0921ECFD
:1029900030E03093DE092093DD0922EC30E0309303
:1029A000E0092093DF0926EC30E03093E209209320
:1029B000E1091092E4091092E5091092E6091092DB
:1029C000E70910926B0A10926A0A80936C0A90933E
:1029D0006D0AA0936E0AB0936F0A88E292E090931A
:1029E000690A8093680A1092750A1092740A10920C
:1029F000770A1092760A1092790A1092780A6EE29B
:102A000070E090E080E00E94871B009701F19093B6
:102A1000750A8093740A2DE230E03093770A209390
:102A2000760A2091780A3091790A232B11F4FC015F
:102A300010828DE290E09093790A8093780A66E4A0
:102A400072E08091740A9091750A0C94711C8091C7
:102A5000740A9091750A009711F00E94FE1A109264
:102A6000750A1092740A1092790A1092780A1092DC
:102A7000770A1092760A0895CF93DF93CDB7DEB729
:102A8000A1970FB6F894DEBF0FBECDBF789484B582
:102A9000836084BD85B5836085BD80916E00816053
:102AA00080936E0082E0809381009091810091601C
:102AB000909381009091800091609093800090911C
:102AC000B10094609093B1009091B00091609093A8
:102AD000B00090919100936090939100909190003C
:102AE00091609093900096E890937A001092C100C4
:102AF000E091DB09F091DC098083E091D709F09146
:102B0000D8091082E091D909F091DA0998E0908310
:102B10001092E309E091DF09F091E00926E02083BB
:102B2000E091DD09F091DE09908198699083E09150
:102B3000DD09F091DE0990819F7D9083E0913E094F
:102B4000F0913F098083E0913A09F0913B091082AE
:102B5000E0913C09F0913D0989E18083109246099A
:102B6000E0914209F09143092083E0914009F091FE
:102B70004109808188698083E0914009F091410991
:102B800080818F7D808380E28093B8001FB7F894A6
:102B900080912903811127C0E4EAF0E08491E4ECFC
:102BA000F0E09491E82FF0E0EE0FFF1FE457FF4FA5
:102BB000A591B491EC91E92321F461E084E00E94B5
:102BC000060161E084E00E9462018CB580618CBDE9
:102BD0008CB580648CBD61E087E00E94620161E099
:102BE00085E00E946201809129038F5F8093290311
:102BF0001FBF81E58CBD1DBC1092800085E08093D5
:102C00008100109285001092840060E080E00E94B4
:102C1000620160E08CE00E94620161E082E10E945A
:102C2000620161E08FE00E94620161E085E10E9443
:102C3000620161E086E10E94620161E087E10E9439
:102C4000620161E08FE00E94060161E082E10E9482
:102C5000060180916800886080936800809173000D
:102C600080618093730081E0809397088BE5809367
:102C7000B908109298081092BA0888E090E00E9473
:102C8000760390E080E00E9476030E94AE0060E14F
:102C90008BE50E94CF0E0BE213E088E69AE00E94DB
:102CA0000003D8018D938D01B3E00B331B07A9F707
:102CB00011E01093970883E58093B9081092980863
:102CC0001092BA0890E080E00E94760390E080E0E5
:102CD0000E9476030E94AE0062E083E50E94CF0E60
:102CE00088E69AE00E940003082F80932A0388E672
:102CF0009AE00E940003FE01799695E0DF011D92A3
:102D00009A95E9F7198390E49A832CE231E03C83A9
:102D10002B8390E1EBE2F3E0DE01159601900D923A
:102D20009A95E1F70D8B8E8B1F8B83E0888F6DE179
:102D3000CE0101960E94230D0E94271160E085E1DB
:102D40000E94060160E086E10E94060160E087E1E2
:102D50000E940601EAE0F8E080E8DF011D928A9512
:102D6000E9F788E592E0E2EBF5E0DF019C011D92D6
:102D700021503040E1F7EAE5F3E0DF019C011D92CC
:102D800021503040E1F710925903109258030E94ED
:102D9000930160938A0870938B0880938C089093BA
:102DA0008D080E94930160935203709353038093A4
:102DB0005403909355030E94930160934E037093C4
:102DC0004F0380935003909351038091840090911E
:102DD0008500909357038093560300E888E5282EDA
:102DE00082E0382E19E00E94D9030E94120F0E943F
:102DF00093016B017C0180918A0890918B08A091CE
:102E00008C08B0918D08A7019601281B390B4A0B3D
:102E10005B0BDA01C90180319742A105B10508F4C5
:102E20004BC0C0928A08D0928B08E0928C08F09236
:102E30008D0861E086E10E9406010E94580DAAE01B
:102E4000B8E0E02F1D92EA95E9F7A2EBB5E0F101B9
:102E50001D923197E9F7AAE5B3E0F1011D92319790
:102E6000E9F71092590310925803809184009091D1
:102E70008500909357038093560361E08FE00E9492
:102E8000060160E082E10E9406010CB405FCB2C0BC
:102E90001EBC00000DB407FEFDCF8EB51EBC0000A9
:102EA0000DB407FEFDCF8EB561E082E10E94060100
:102EB00060E086E10E9406018091520390915303E5
:102EC000A0915403B0915503A7019601281B390B1B
:102ED0004A0B5B0BDA01C90180339547A105B105A7
:102EE00050F0C0925203D0925303E0925403F092F8
:102EF00055030E94271180914E0390914F03A0919A
:102F00005003B0915103A7019601281B390B4A0BBE
:102F10005B0BDA01C90180369A4EA105B10508F4B0
:102F200066C0C0924E03D0924F03E0925003F092DD
:102F30005103F89480904A0390904B03A0904C0367
:102F4000B0904D038091460390914703A0914803B0
:102F5000B09149038E8F9F8FA8A3B9A31092460307
:102F6000109247031092480310924903C090420305
:102F7000D0904303E0904403F090450340903E031B
:102F800050903F03609040037090410378940E94FA
:102F9000930128EE33E040E050E00E944C1980910C
:102FA0003D03882399F1C418D508E608F70819836A
:102FB0002A833B834C835D8320913B0330913C0308
:102FC0003F832E8388869986AA86BB862E8D3F8D69
:102FD00048A159A12C873D874E875F87888BC98A76
:102FE000DA8AEB8AFC8ACE0101960E949A0E0E9430
:102FF000AC02F9CE1EBC00000DB407FEFDCF8EB5AD
:103000001EBC00000DB407FEFDCF4DCFC12CD12C4E
:103010007601CDCF8091740A9091750A009711F0D6
:103020000C94FE1A0895E89409C097FB3EF490951D
:103030008095709561957F4F8F4F9F4F9923A9F091
:10304000F92F96E9BB279395F69587957795679520
:10305000B795F111F8CFFAF4BB0F11F460FF1BC064
:103060006F5F7F4F8F4F9F4F16C0882311F096E9F7
:1030700011C0772321F09EE8872F762F05C06623A5
:1030800071F096E8862F70E060E02AF09A95660F5E
:10309000771F881FDAF7880F9695879597F9089517
:1030A0000E9463180C94D4180E94C61838F00E942D
:1030B000CD1820F0952311F00C94BD180C94C31872
:1030C00011240C9408190E94E51870F3959FC1F320
:1030D000950F50E0551F629FF001729FBB27F00DC6
:1030E000B11D639FAA27F00DB11DAA1F649F66271B
:1030F000B00DA11D661F829F2227B00DA11D621F6A
:10310000739FB00DA11D621F839FA00D611D221F23
:10311000749F3327A00D611D231F849F600D211D07
:10312000822F762F6A2F11249F5750409AF0F1F08A
:1031300088234AF0EE0FFF1FBB1F661F771F881FF3
:1031400091505040A9F79E3F510580F00C94BD1856
:103150000C9408195F3FE4F3983ED4F38695779575
:103160006795B795F795E7959F5FC1F7FE2B880F99
:10317000911D9695879597F9089597F99F6780E82F
:1031800070E060E008959FEF80EC089500240A94B9
:103190001616170618060906089500240A94121632
:1031A0001306140605060895092E0394000C11F465
:1031B000882352F0BB0F40F4BF2B11F460FF04C012
:1031C0006F5F7F4F8F4F9F4F089557FD9058440F6B
:1031D000551F59F05F3F71F04795880F97FB991F76
:1031E00061F09F3F79F08795089512161306140633
:1031F000551FF2CF4695F1DF08C0161617061806C0
:10320000991FF1CF86957105610508940895E8949A
:10321000BB2766277727CB0197F908950E941919D4
:10322000A59F900DB49F900DA49F800D911D11241A
:103230000895A29FB001B39FC001A39F700D811D8F
:103240001124911DB29F700D811D1124911D0895AF
:10325000DB018F939F930E940E19BF91AF91A29FA4
:10326000800D911DA39F900DB29F900D1124089584
:10327000AA1BBB1B51E107C0AA1FBB1FA617B7079C
:1032800010F0A61BB70B881F991F5A95A9F78095B8
:103290009095BC01CD010895A1E21A2EAA1BBB1B7B
:1032A000FD010DC0AA1FBB1FEE1FFF1FA217B30712
:1032B000E407F50720F0A21BB30BE40BF50B661F28
:1032C000771F881F991F1A9469F7609570958095EC
:1032D00090959B01AC01BD01CF010895EE0FFF1F3A
:1032E0000024001C0BBE0790F691E02D09940024E9
:1032F000A7FD00942A0F301D401D501D601D701D3C
:10330000801D901D08955058BB27AA270E949B1925
:103310000C94D4180E94C61838F00E94CD1820F0E2
:1033200039F49F3F19F426F40C94C3180EF4E09579
:10333000E7FB0C94BD18E92F0E94E51858F3BA1763
:10334000620773078407950720F079F4A6F50C94BB
:1033500007190EF4E0950B2EBA2FA02D0B01B90121
:1033600090010C01CA01A0011124FF27591B99F0FB
:10337000593F50F4503E68F11A16F040A22F232F07
:10338000342F4427585FF3CF469537952795A79557
:10339000F0405395C9F77EF41F16BA0B620B730BFE
:1033A000840BBAF09150A1F0FF0FBB1F661F771F6F
:1033B000881FC2F70EC0BA0F621F731F841F48F424
:1033C000879577956795B795F7959E3F08F0B0CFAD
:1033D0009395880F08F09927EE0F97958795089594
:1033E0000E94041A0C94D4180E94CD1858F00E9420
:1033F000C61840F029F45F3F29F00C94BD18511114
:103400000C9408190C94C3180E94E51868F39923CA
:10341000B1F3552391F3951B550BBB27AA276217D0
:103420007307840738F09F5F5F4F220F331F441FDD
:10343000AA1FA9F335D00E2E3AF0E0E832D0915011
:103440005040E695001CCAF72BD0FE2F29D0660FFE
:10345000771F881FBB1F261737074807AB07B0E841
:1034600009F0BB0B802DBF01FF2793585F4F3AF047
:103470009E3F510578F00C94BD180C9408195F3FDD
:10348000E4F3983ED4F3869577956795B795F795CD
:103490009F5FC9F7880F911D9695879597F90895B5
:1034A000E1E0660F771F881FBB1F62177307840751
:1034B000BA0720F0621B730B840BBA0BEE1F88F760
:1034C000E09508950F931F93CF93DF93823091057A
:1034D00010F482E090E0E0917C0AF0917D0A30E007
:1034E00020E0B0E0A0E0309799F42115310509F40F
:1034F0004AC0281B390B24303105D8F58A819B81BD
:103500006115710589F1FB0193838283FE0111C06E
:10351000408151810281138148175907E0F0481713
:10352000590799F4109761F012960C93129713961D
:103530001C933296CF01DF91CF911F910F91089587
:1035400000937C0A10937D0AF4CF2115310551F0C8
:103550004217530738F0A901DB019A01BD01DF01D1
:10356000F801C1CFEF01F9CF90937D0A80937C0AD7
:10357000CDCFFE01E20FF31F8193919322503109C9
:1035800039832883D7CF20917A0A30917B0A232B65
:1035900041F4209102013091030130937B0A209382
:1035A0007A0A20910001309101012115310541F481
:1035B0002DB73EB74091040150910501241B350BF6
:1035C000E0917A0AF0917B0AE217F307A0F42E1B30
:1035D0003F0B2817390778F0AC014E5F5F4F241777
:1035E000350748F04E0F5F1F50937B0A40937A0ACD
:1035F000819391939FCFF0E0E0E09CCFCF93DF9356
:103600000097E9F0FC01329713821282A0917C0AA4
:10361000B0917D0AED0130E020E01097A1F4208107
:103620003181820F931F20917A0A30917B0A2817EB
:10363000390709F061C0F0937B0AE0937A0ADF91C1
:10364000CF910895EA01CE17DF07E8F54A815B8143
:103650009E0141155105B1F7E901FB83EA834991C8
:103660005991C40FD51FEC17FD0761F4808191813A
:103670000296840F951FE901998388838281938143
:103680009B838A83F0E0E0E012968D919C911397E2
:103690000097B9F52D913C911197CD010296820FBB
:1036A000931F20917A0A30917B0A2817390739F63F
:1036B000309751F510927D0A10927C0AB0937B0AE4
:1036C000A0937A0ABCCFD383C28340815181840FF7
:1036D000951FC817D90761F44E5F5F4F88819981A4
:1036E000480F591F518340838A819B819383828332
:1036F0002115310509F0B0CFF0937D0AE0937C0AE3
:103700009ECFFD01DC01C0CF13821282D7CF4F9232
:103710005F926F927F928F929F92AF92BF92CF9261
:10372000DF92EF92FF920F931F93CF93DF938C0161
:10373000009799F4CB01DF91CF911F910F91FF90EA
:10374000EF90DF90CF90BF90AF909F908F907F9041
:103750006F905F904F900C94621AFC01E60FF71F78
:103760009C0122503109E217F30708F4AEC0D901D9
:10377000CD91DC911197C617D70720F1C530D1053F
:1037800078F0CE0104978617970750F0C61BD70B29
:103790002297C193D1936D937C93CF010E94FE1A1F
:1037A000C801DF91CF911F910F91FF90EF90DF90B3
:1037B000CF90BF90AF909F908F907F906F905F90D1
:1037C0004F9008955B01AC1ABD0A4C018C0E9D1EF2
:1037D000A0917C0AB0917D0A512C412CF12CE12C56
:1037E000109731F580917A0A90917B0A8815990596
:1037F00009F05CC04616570608F058C080910001D9
:1038000090910101009741F48DB79EB7409104015A
:1038100050910501841B950BE817F90708F055C076
:10382000F0937B0AE0937A0AF90171836083B8CF41
:103830008D919C91119712966C90129713967C9093
:103840001397A815B90559F56C0142E0C40ED11CB7
:10385000CA14DB0420F1AC014A195B09DA011296A3
:10386000159780F06282738251834083D9016D93F2
:103870007C93E114F10471F0D7011396FC93EE935D
:1038800012978ECF22968C0F9D1FF9019183808312
:10389000F301EFCFF0937D0AE0937C0A81CF4816C5
:1038A000590608F42C017D01D3019ACFCB010E9467
:1038B000621A7C01009749F0AE01B8010E94681CB1
:1038C000C8010E94FE1A87016BCF10E000E068CFAC
:1038D000FB01DC0102C001900D9241505040D8F72D
:1038E0000895FB01DC0101900D920020E1F708959D
:1038F000FB01DC014150504030F08D910190801966
:1039000019F40020B9F7881B990B089510E0C1E85D
:10391000D0E004C0FE010E946E192196C238D10782
:06392000C9F7F894FFCF87
:1039260000007E0A80001F1C1F1E1F1E1F1F1E1F59
:103936001E1F982F8A4291443771CFFBC0B5A5DB75
:10394600B5E95BC25639F111F159A4823F92D55EB1
:103956001CAB98AA07D8015B8312BE853124C37DB0
:103966000C55745DBE72FEB1DE80A706DC9B74F159
:103976009BC1C1699BE48647BEEFC69DC10FCCA122
:103986000C246F2CE92DAA84744ADCA9B05CDA8871
:10399600F97652513E986DC631A8C82703B0C77F45
:1039A60059BFF30BE0C64791A7D55163CA066729ED
:1039B6002914850AB72738211B2EFC6D2C4D130DB3
:1039C600385354730A65BB0A6A762EC9C281852CA0
:1039D6007292A1E8BFA24B661AA8708B4BC2A35184
:1039E6006CC719E892D1240699D685350EF470A0D5
:1039F6006A1016C1A419086C371E4C774827B5BC47
:103A0600B034B30C1C394AAAD84E4FCA9C5BF36F2C
:103A16002E68EE828F746F63A5781478C8840802C6
:103A2600C78CFAFFBE90EB6C50A4F7A3F9BEF278F0
:103A360071C6000000003F029F01CC018C02FD010F
:103A4600DB01EF010000000047031A037B03F002CD
:103A560013030003F102244750524D432C00244720
:103A66004E524D432C003164363739636237326526
:103A7600303333396235343030303335666631634E
:103A860038383138656263316464316139392C42C2
:043A960065746100F2
:00000001FF
