:100000000C9482000C94AC000C94AC000C94AC00EA
:100010000C9479090C94E7090C94AC000C94AC0096
:100020000C94AC000C94AC000C94AC000C94AC00A0
:100030000C94AC000C94AC000C94AC000C94AC0090
:100040000C94AC000C94AC000C9443070C94AC00E2
:100050000C9417080C94ED070C94AC000C94AC00B5
:100060000C94AC000C94AC000C944D080C94AC00B7
:100070000C94B7070C948D070C94AC000C94AC0056
:100080000C94AC000C94AC000C94AC00000021006B
:10009000240027002A0000002200250028002B0051
:1000A0000202020202020202040404040404040420
:1000B0000303030303030303010101010101010120
:1000C0000102040810204080010204081020408032
:1000D0000102040810204080010204081020408022
:1000E0000000000203000A0B0000000005040908DC
:1000F0000000000000000000000000000000000000
:10010000160A8E1011241FBECFEFD0E4DEBFCDBF84
:1001100029E0A4EFB1E001C01D92A13AB207E1F7D6
:1001200011E0A0E0B1E0E8EDFAE200E00BBF02C0B0
:1001300007900D92A43FB107D9F710E0C1E8D0E0D5
:1001400004C02197FE010E941A12C038D107C9F7D6
:100150000E94800A0C945F150C94000090911F0877
:1001600081E0913208F043C0809128088111FCCFD2
:1001700080911E0822E02093280821E02093270880
:100180002FEF209326082EEF37E030932508209399
:10019000240810922308909322081092210890912D
:1001A0002108880F892B80932108809120088130B5
:1001B00029F510922008809121088093BB0080913E
:1001C000BC0083FDF8CF85EC8093BC0080912808AB
:1001D0008230E1F3809126088F3F91F080912608CC
:1001E000803281F080912608803371F084E0109293
:1001F000FD0710921F081092FC07089585EEE4CFCA
:1002000080E0F5CF82E0F3CF83E0F1CF90E0FC0116
:10021000E052FF4F2491FC01E054FF4F349180568F
:100220009F4FFC018491882359F12223C1F0225071
:100230002A30A8F4E22FF0E0E05EFE4F0C941A1290
:1002400059015D012A0141012F012F0145014B0197
:100250004F015501909180009F7790938000E82F87
:10026000F0E0EE0FFF1FEA56FF4FA591B4918FB754
:10027000F894EC91611124C030953E233C938FBFDC
:100280000895909180009F7DE8CF9091B0009F7776
:100290009093B000E4CF9091B0009F7DF9CF909102
:1002A00090009F7790939000DACF909190009F7D7F
:1002B000F9CF94B59F7794BDD2CF94B59F7DFBCFF6
:1002C0003E2BDCCFCF93DF9390E0FC01E054FF4F57
:1002D000249180569F4FFC0184918823D1F090E0B7
:1002E000880F991FFC01E457FF4FA591B491FC01C1
:1002F000EA56FF4FC591D49161110EC09FB7F89493
:100300008C91E22FE0958E238C932881E223E88361
:100310009FBFDF91CF9108958FB7F894EC91E22BB6
:10032000EC938FBFF6CF3FB7F8948091F807909188
:10033000F907A091FA07B091FB0726B5A89B05C065
:100340002F3F19F00196A11DB11D3FBFBA2FA92F54
:10035000982F8827BC01CD01620F711D811D911D51
:1003600043E0660F771F881F991F4A95D1F70895BC
:10037000AF92BF92CF92DF92EF92FF920F931F93B3
:10038000CF93DF936C017B018B01040F151FEB01F1
:100390005E01AE18BF08C017D10759F06991D601A8
:1003A000ED91FC910190F081E02DC6010995892B1A
:1003B00079F7C501DF91CF911F910F91FF90EF90D9
:1003C000DF90CF90BF90AF900895FC01538D448D86
:1003D000252F30E0842F90E0821B930B541710F0F0
:1003E000CF96089501970895FC01918D828D9817FD
:1003F00061F0A28DAE0FBF2FB11D5D968C91928DD5
:100400009F5F9F73928F90E008958FEF9FEF089505
:10041000FC01918D828D981731F0828DE80FF11DCE
:10042000858D90E008958FEF9FEF0895FC01918DE9
:10043000228D892F90E0805C9F4F821B91098F73E2
:10044000992708958BE498E00E94160221E0892BF9
:1004500009F420E0822F089588EE98E00E941602A9
:1004600021E0892B09F420E0822F0895FC01A48D5E
:10047000A80FB92FB11DA35ABF4F2C91848D90E0C6
:1004800001968F739927848FA689B7892C93A089A9
:10049000B1898C91837080648C93938D848D981333
:1004A00006C00288F389E02D80818F7D80830895C6
:1004B000EF92FF920F931F93CF93DF93EC0181E0B4
:1004C000888F9B8D8C8D98131AC0E889F98980815B
:1004D00085FF15C09FB7F894EE89FF896083E8898E
:1004E000F98980818370806480839FBF81E090E080
:1004F000DF91CF911F910F91FF90EF900895F62E0D
:100500000B8D10E00F5F1F4F0F731127E02E8C8DA6
:100510008E110CC00FB607FCFACFE889F9898081EB
:1005200085FFF5CFCE010E943602F1CFEB8DEC0FA7
:10053000FD2FF11DE35AFF4FF0829FB7F8940B8F08
:10054000EA89FB8980818062CFCF682F88EE98E0AE
:100550000C945802CF93DF93EC01888D8823B9F077
:10056000AA89BB89E889F9898C9185FD03C08081BE
:1005700086FD0DC00FB607FCF7CF8C9185FFF2CF3B
:10058000808185FFEDCFCE010E943602E9CFDF9159
:10059000CF91089580E090E0892B29F00E942C02F1
:1005A00081110E94000080E090E0892B29F00E94D8
:1005B000220281110C940000089585ED8093BC0007
:1005C0008091BC0084FDFCCF1092280808952091F2
:1005D0001C02260F3327331F21323105ECF4209102
:1005E0002808FC0190E080E0243069F082E0089562
:1005F000A0911C022191AC0144505E4FA40FB52F75
:10060000B11D2C930196861798F380911C02680FF8
:1006100060931C0280E0089581E008950895E091C0
:100620002A0880912908E81730F4F0E0E55DF74FDB
:10063000808190E008958FEF9FEF089590912A08B0
:10064000809129082FEF3FEF981748F4E92FF0E049
:10065000E55DF74F208130E09F5F90932A08C90144
:1006600008958091290890912A08891B990B089573
:10067000CF92DF92EF92FF920F931F93CF93DF936E
:100680007C01CB018A012091FC07222389F0EB0138
:100690006B01C40ED51ECC15DD0569F06991D7013B
:1006A000ED91FC910190F081E02DC7010995F3CF08
:1006B000642F0E94E702C801DF91CF911F910F9133
:1006C000FF90EF90DF90CF900895CF93DF931F922C
:1006D000CDB7DEB769832091FC072223F9F0209182
:1006E0001F08203258F021E030E0FC0133832283E0
:1006F00090E080E00F90DF91CF9108958091FD0709
:10070000E82FF0E0E250F84F998190838F5F80935B
:10071000FD0780931F0881E090E0ECCF61E0CE01FF
:1007200001960E94E702F7CF682F85E899E00C94C4
:10073000650390E080E00895CF92DF92EF92FF9200
:100740000F931F93CF93DF938C01EB01F894C0902C
:100750004602D0904702E0904802F0904902609132
:100760008400709185008091FA019091FB0178944A
:10077000681B790B90E080E027E0660F771F881FE9
:10078000991F2A95D1F720E137E240E050E00E941E
:10079000F811243648F5288380914A0290914B0243
:1007A000A0914C02B0914D028C0D9D1DAE1DBF1D40
:1007B000409142025091430260914402709145027F
:1007C0006C017D01C41AD50AE60AF70AF801C08255
:1007D000D182E282F382DF91CF911F910F91FF903E
:1007E000EF90DF90CF90089583E68883D5CF9091E6
:1007F00028089111FCCF91E0909328089093270846
:100800002FEF209326082BE238E030932508209321
:100810002408109223082FEF260F2093220890938C
:10082000210890912108880F892B809321088091BD
:1008300020088130E9F410922008809121088093EB
:10084000BB008091BC0083FDF8CF85EC8093BC0099
:10085000809128088130E1F380912308861710F4F5
:100860006091230810922A0860932908862F089522
:1008700085EEECCFFC0101900020E9F73197AF0144
:10088000481B590BBC0188EE98E00C94B8018F927C
:100890009F92AF92BF920F931F93CF93DF93CDB7E9
:1008A000DEB7A1970FB6F894DEBF0FBECDBF19A279
:1008B000423008F44AE08E010F5D1F4F842E912CC8
:1008C000B12CA12CA50194010E94F811E62FB901C9
:1008D000CA01EA30F4F4E05DD801EE938D01232BD8
:1008E000242B252B79F790E080E0109719F0CD01AB
:1008F0000E943A04A1960FB6F894DEBF0FBECDBF9A
:10090000DF91CF911F910F91BF90AF909F908F90EB
:100910000895E95CE1CFBC0190E080E04AE00C94EE
:100920004704CF93DF9381E08093FC078BE58093AE
:100930001E081092FD0710921F0888E090E00E94A8
:10094000940390E080E00E9494030E94AE0060E176
:100950008BE50E94F703D0E185E899E00E941E0331
:10096000C82F803118F480E30E94A5026C2F70E03C
:1009700090E080E040E10E944704D15069F7DF91A8
:10098000CF910895CF93C82F8A3018F480E30E9446
:10099000A5026C2F70E090E080E04AE0CF910C94CB
:1009A000470486E391E00C943A040C943A044F9285
:1009B0005F926F927F928F929F92AF92BF92CF92EF
:1009C000DF92EF92FF920F931F93CF936B017C0105
:1009D000742EAC019B010E943613882399F089E3A1
:1009E00091E0CF911F910F91FF90EF90DF90CF900A
:1009F000BF90AF909F908F907F906F905F904F903F
:100A00000C943A0446015701E894B7F82FEF3FEFF2
:100A10004FE75FE7C501B4010E94361381110DC095
:100A20002FEF3FEF4FE75FE7C501B4010E9496103B
:100A300018161CF48DE391E0D4CF2FEF3FEF4FE772
:100A40005FE4C701B6010E94311318161CF481E45B
:100A500091E0C7CF2FEF3FEF4FE75FECC701B60143
:100A60000E94961087FDF3CF20E030E0A901C70176
:100A7000B6010E94961010E000E087FF08C08DE2EA
:100A80000E94A5028C01F7FAF094F7F8F094C0E008
:100A900060E070E080E09FE37C1641F020E030E011
:100AA00040E251E40E949012CF5FF6CFA701960179
:100AB0000E9424122B013C010E9402134B015C0195
:100AC0004AE00E9447047C01E00EF11ECC2399F11C
:100AD000C501B4010E949B109B01AC01C301B2018E
:100AE0000E9423124B015C018EE20E94A502E80ED7
:100AF000F91EC15000F120E030E040E251E4C501B0
:100B0000B4010E94FC102B013C010E9402134B0116
:100B1000CB010E948B04E80EF91EB40190E080E046
:100B20000E949B109B01AC01C301B2010E942312E1
:100B30004B015C01DECFC701CF911F910F91FF9058
:100B4000EF90DF90CF90BF90AF909F908F907F906D
:100B50006F905F904F9008958F929F92AF92BF9247
:100B6000CF92DF92EF92FF920F931F93CF93DF9379
:100B700000D000D01F92CDB7DEB78091B4028111B2
:100B8000DBC019821A821B821C821D8281E0809345
:100B9000FC0785E480931E081092FD0710921F0841
:100BA00064E285E899E00E94650360E085E899E0E9
:100BB0000E9465030E94AE008111ACC00E949301A7
:100BC0004B015C018FE0C82ED12CE12CF12C0E944E
:100BD0009301681979098A099B09683E7340810568
:100BE0009105A8F321E0C21AD108E108F10888EEC6
:100BF000880E83E0981EA11CB11CC114D104E1042D
:100C0000F10429F766E085E40E94F7038091290842
:100C100090912A08891B990B06970CF47BC085E8F4
:100C200099E00E941E03182F85E899E00E941E0398
:100C3000E12CF12EE82AF92A85E899E00E941E03AA
:100C400085E899E00E941E03182F85E899E00E942C
:100C50001E0360E0712F8B01082B192B85E899E0AA
:100C60000E941E0385E491E00E94D5048091B502A4
:100C70009091B6020E948B0488EA91E00E94D5040C
:100C800069817A818B819C814AE00E94470484E9D2
:100C900091E00E94D5046D8170E090E080E04AE030
:100CA0000E94470488EA91E00E94D504B70190E0D1
:100CB00080E00E949B1020E03FEF4FE757E40E9446
:100CC000901220E030E04FE253E40E94FC1020E05C
:100CD00030E044E352E40E94231241E00E94D70432
:100CE00088EA91E00E94D504B80190E080E00E947B
:100CF0009B1020E03FEF4FE757E40E94901220E066
:100D000030E048EC52E40E94FC1041E00E94D7041D
:100D10000E94D1040F900F900F900F900F90DF91D1
:100D2000CF911F910F91FF90EF90DF90CF90BF90E8
:100D3000AF909F908F900895BE016B5F7F4FCE0163
:100D400001960E949C0322CFCF93DF93EC01888110
:100D50009981009711F00E94D713198218821D8281
:100D60001C821B821A82DF91CF910895FC01808141
:100D70009181009711F00C94D71308950F931F934E
:100D8000CF93DF93EC0188819981009759F02A81F4
:100D90003B812617370730F081E0DF91CF911F911B
:100DA0000F9108958B016F5F7F4F0E946014009731
:100DB00059F0998388831B830A832C813D81232BDF
:100DC00059F7FC011082E8CF80E0E7CFEF92FF9265
:100DD0000F931F93CF93DF936115710541F480E06A
:100DE000DF91CF911F910F91FF90EF9008954115E2
:100DF0005105B1F07B01EC010C811D81040F151F21
:100E0000B8010E94BE06882351F3288139818C8164
:100E10009D81B701820F931F0E944A151D830C8389
:100E200081E0DECFEF92FF920F931F93CF93DF937A
:100E3000EC017B01198218821B821A821D821C829E
:100E4000FB0101900020E9F731978F01061B170B7A
:100E5000B8010E94BE06811109C0CE01DF91CF9179
:100E60001F910F91FF90EF900C94A4061D830C83AB
:100E7000B70188819981DF91CF911F910F91FF90E8
:100E8000EF900C944A151F920F920FB60F921124F7
:100E90002F933F938F939F93AF93BF938091F407CA
:100EA0009091F507A091F607B091F7073091F307FD
:100EB00026E0230F2D3768F129E8230F0396A11DA3
:100EC000B11D2093F3078093F4079093F507A09347
:100ED000F607B093F7078091F8079091F907A09172
:100EE000FA07B091FB070196A11DB11D8093F80789
:100EF0009093F907A093FA07B093FB07BF91AF91C6
:100F00009F918F913F912F910F900FBE0F901F9047
:100F100018950296A11DB11DD4CF1F920F920FB646
:100F20000F9211240BB60F922F933F934F935F9321
:100F30006F937F938F939F93AF93BF93EF93FF93A1
:100F40008BE498E00E943602FF91EF91BF91AF9140
:100F50009F918F917F916F915F914F913F912F91D1
:100F60000F900BBE0F900FBE0F901F9018951F9201
:100F70000F920FB60F9211240BB60F922F938F93EF
:100F80009F93EF93FF93E0915B08F0915C08808161
:100F9000E0916108F091620882FD1DC0908180910E
:100FA00064088F5F8F7320916508821741F0E0918C
:100FB0006408F0E0E55BF74F958F80936408FF913C
:100FC000EF919F918F912F910F900BBE0F900FBEBD
:100FD0000F901F9018958081F2CF1F920F920FB63D
:100FE0000F9211240BB60F922F933F934F935F9361
:100FF0006F937F938F939F93AF93BF93EF93FF93E1
:1010000088EE98E00E943602FF91EF91BF91AF9178
:101010009F918F917F916F915F914F913F912F9110
:101020000F900BBE0F900FBE0F901F9018951F9240
:101030000F920FB60F9211240BB60F922F938F932E
:101040009F93EF93FF93E091F808F091F908808166
:10105000E091FE08F091FF0882FD1DC09081809113
:1010600001098F5F8F7320910209821741F0E0918F
:101070000109F0E0E851F74F958F80930109FF9146
:10108000EF919F918F912F910F900BBE0F900FBEFC
:101090000F901F9018958081F2CF1F920F920FB67C
:1010A0000F9211240BB60F922F933F934F935F93A0
:1010B0006F937F938F939F93AF93BF93EF93FF9320
:1010C0008091B900887F803609F44DC008F040C097
:1010D000883209F4A7C028F5803109F49BC0C8F410
:1010E000882309F403C1883009F494C0FF91EF917B
:1010F000BF91AF919F918F917F916F915F914F9130
:101100003F912F910F900BBE0F900FBE0F901F902D
:101110001895883109F486C0803241F780932608FB
:1011200014C0803409F4A3C040F48033B9F3883389
:10113000E9F68093260885ECBAC0803509F487C0AB
:10114000883509F49CC0883489F60E94DD02CECF30
:10115000883909F492C038F5883729F050F4883678
:1011600011F0803719F683E08093280810923E0230
:1011700055C0883809F481C0803919F0803809F0E9
:10118000B5CF80913E02803208F077C0E0913E02F8
:1011900081E08E0F80933E028091BB00F0E0E25E22
:1011A000FD4F80833BC0803B39F0D0F4803A09F496
:1011B00083C0883A09F09ACF84E08093280810927F
:1011C0001D0210921C02F0E0E0E0099580911C02E3
:1011D00081110FC081E080931C021092FC0109C0B4
:1011E000803C09F4A8CF883C09F4A5CF883B09F0DE
:1011F0007DCFE0911D0281E08E0F80931D02F0E013
:10120000E450FE4F80818093BB0090911D0280913D
:101210001C0231C0809121088093BB0085EC809333
:10122000BC0064CF90912308809122089817B8F5EC
:101230008091240890912508E091230821E02E0F49
:1012400020932308E80FF92FF11D8081E5CF20912D
:10125000240830912508E091230881E08E0F8093C7
:1012600023088091BB00E20FF32FF11D8083909142
:10127000230880912208981788F285E8D0CF209122
:10128000240830912508E091230881E08E0F809397
:1012900023088091BB00E20FF32FF11D8083809122
:1012A0002708811152CF81E08093200884EA80933F
:1012B000BC00109228081ACF85EC8093BC001092D5
:1012C000280880913E02803230F4E0913E02F0E046
:1012D000E25EFD4F108260913E0270E08EE192E08E
:1012E000F0E0E0E0099510923E0200CF109226084F
:1012F0002CCF1F920F920FB60F9211240BB60F92A4
:101300002F933F934F935F936F938F939F93EF939D
:10131000FF93189B27C0209184003091850042984C
:101320001EBC0DB407FEFDCF8EB51EBC0DB407FE6E
:10133000FDCF9EB5429A892798278927969587954C
:101340009695879580349105E8F4880F991FFC01E4
:10135000E159F84F808191818F3F980719F00196EC
:1013600091838083FF91EF919F918F916F915F9116
:101370004F913F912F910F900BBE0F900FBE0F908A
:101380001F9018954091BD025091BE024C325140C1
:10139000A0F4E091BD02F091BE02EE0FFF1FE95EE6
:1013A000FA4F31832083E091BD02F091BE02EE0F2F
:1013B000FF1FE154FD4F918380838091BD02909186
:1013C000BE0201969093BE028093BD02CBCF1F92C6
:1013D0000F920FB60F9211248F939F93AF93BF93E9
:1013E0004C9B1BC080918400909185009093FB01E1
:1013F0008093FA018091460290914702A0914802A1
:10140000B09149020196A11DB11D809346029093AF
:101410004702A0934802B0934902BF91AF919F91B8
:101420008F910F900FBE0F901F901895EBE4F8E08E
:101430001382128288EE93E0A0E0B0E0848395836B
:10144000A683B78326E131E0318320834DEC50E061
:10145000558744874CEC50E05787468748EC50E06E
:10146000518B408B49EC50E0538B428B4AEC50E05F
:10147000558B448B4EEC50E0578B468B118E128E61
:10148000138E148EE8EEF8E0138212828483958323
:10149000A683B7833183208325EC30E0358724870A
:1014A00024EC30E03787268720EC30E0318B208B2E
:1014B00021EC30E0338B228B22EC30E0358B248B17
:1014C00026EC30E0378B268B118E128E138E148E05
:1014D000E5E8F9E01382128284839583A683B783BB
:1014E00088E291E0918380836BE471E087E999E081
:1014F0000E9412076CE771E081E999E00C941207F1
:10150000CF93DF93CDB7DEB7AF970FB6F894DEBFBA
:101510000FBECDBF789484B5836084BD85B58360EC
:1015200085BD80916E00816080936E0082E0809323
:101530008100909181009160909381009091800052
:101540009160909380009091B10094609093B1006D
:101550009091B00091609093B00090919100936051
:10156000909391009091900091609093900096E8F4
:1015700090937A001092C100E091F808F091F90878
:101580008083E091F408F091F5081082E091F6086C
:10159000F091F70898E0908310920009E091FC0820
:1015A000F091FD0826E02083E091FA08F091FB0815
:1015B000908198699083E091FA08F091FB089081FE
:1015C0009F7D9083E0915B08F0915C088083E091BF
:1015D0005708F09158081082E0915908F0915A0884
:1015E00087E6808310926308E0915F08F0916008BD
:1015F0002083E0915D08F0915E0880818869808396
:10160000E0915D08F0915E0880818F7D808380E2AB
:101610008093B8001FB7F89480913F02811127C0D2
:10162000E4EAF0E08491E4ECF0E09491E82FF0E05B
:10163000EE0FFF1FE457FF4FA591B491EC91E92302
:1016400021F461E084E00E94060161E084E00E94F0
:1016500062018CB580618CBD8CB580648CBD61E00D
:1016600087E00E94620161E085E00E946201809152
:101670003F028F5F80933F021FBF81E58CBD1DBC81
:101680001092800085E08093810010928500109276
:10169000840060E080E00E94620160E08CE00E94D3
:1016A000620161E082E10E94620161E08FE00E94DC
:1016B000620161E085E10E94620161E086E10E94D1
:1016C000620161E087E10E94620161E08FE00E94B7
:1016D000060161E082E10E9406018091680081605C
:1016E0008093680080916B00816080936B00809193
:1016F000680082608093680080916C0080618093B4
:101700006C008DE891E00E943A040E94D10466E9E1
:1017100071E0CE0101960E94120740919509509107
:1017200096096091910970919209CE0101960E94EB
:10173000E606811104C0CE0101960E94A40643E092
:1017400050E066EA71E0CE0101960E94E606811142
:1017500004C0CE0101960E94A40640919B095091BD
:101760009C096091970970919809CE0101960E9499
:10177000E606811104C0CE0101960E94A40641E054
:1017800050E068EA71E0CE0101960E94E606811100
:1017900004C0CE0101960E94A4061E861D86188AEA
:1017A0001F861A8A198A09811A810115110569F0A3
:1017B000ED80FE80B701CE010D960E94BE0681111C
:1017C000D3C0CE010D960E94A406CE0101960E94C0
:1017D000B60649895A896D857E8588EE98E00E9413
:1017E000B8010E9491040E94D1048AEA91E00E940B
:1017F000D5040E94910488EA91E00E94D50481E01A
:101800008093FC0783E580931E081092FD071092D9
:101810001F0890E080E00E94940390E080E00E9426
:1018200094030E94AE0062E083E50E94F70385E81E
:1018300099E00E941E03182F8093410285E899E0E9
:101840000E941E0380934002612F70E090E080E0D0
:1018500040E10E9447046091400270E090E080E027
:1018600040E10E9447040E94D1048CEB91E00E9469
:101870003A040E94D1040E94AC0560E085E10E9418
:10188000060160E086E10E94060160E087E10E94B7
:101890000601EFE6F7E080E8DF011D928A95E9F79F
:1018A00088E592E0E7E1F5E0DF019C011D9221501F
:1018B0003040E1F7EFEBF2E0DF019C011D92215097
:1018C0003040E1F71092BE021092BD022FB7F8949B
:1018D0008091F4079091F507A091F607B091F70772
:1018E0002FBF8093EF079093F007A093F107B09379
:1018F000F2072FB7F8948091F4079091F507A09123
:10190000F607B091F7072FBF8093B7029093B80204
:10191000A093B902B093BA0280918400909185009F
:101920009093BC028093BB02CE010D960E94B60636
:10193000AE01435F5F4F5AA349A3CE0149969CA3D2
:101940008BA38BE498E00E941602892B09F4A2C2B3
:101950008BE498E00E94F401843271F48093500289
:1019600081E080934F02EDCFFA8AE98AB8018D8534
:101970009E850E944A1529CFE0914F029FEF9E0F4E
:10198000923608F084C2EE24E394EE0EE0924F0209
:10199000F0E0E05BFD4F80838A3099F6EE2DF0E0B9
:1019A000E05BFD4F108247E050E065EC71E080E5C0
:1019B00092E00E945115892B59F047E050E06DEC00
:1019C00071E080E592E00E945115892B09F05FC219
:1019D0008CE0A9A1BAA11D928A95E9F788E0EBA154
:1019E000FCA111928A95E9F700E512E0D12CF12CC7
:1019F000E0E040E0D8018D918D01CC24C394C40E69
:101A00008C3241F08D3031F0982F9F7D9A3011F05B
:101A1000811117C04E1BB1E0FB1285C0463060F04B
:101A20004B3008F04AE050E06E2F70E0605B7D4F75
:101A3000CE010D960E944115F394EC2D39E03F152F
:101A400018F04C2DEC14B0F641E4D41207C08D858B
:101A5000882321F081E0998D911101C080E05090A0
:101A60004E0280934E02882309F411C28D85805363
:101A70009AE02E852053922E899F900C11248F85F9
:101A8000805348894053899F400D11248989805390
:101A90007A8850ED750E899F700C1124898D8053C2
:101AA0006A8C650E899F600C11248B8D80538C8C01
:101AB000850E899F800C11242D8D20538E8D80538F
:101AC000299F800D1124E82FF0E0863408F447C0E8
:101AD000E459F84F02EB17E0C12CD12C760120E934
:101AE00031E054E6A52EB12CC801837099270E175A
:101AF0001F07E9F1892B31F4C801B5010E94E411F7
:101B0000892B31F4C801B9010E94E411892B51F5E8
:101B10008EE691E0A0E0B0E0C80ED91EEA1EFB1EE2
:101B20000F5F1F4FE1CFF2E0FF1208C0442309F41A
:101B300083CFF0E0E05BFD4FD0807ECF29E0F21252
:101B40007BCF463008F478CFF0E0E05BFD4F86E0D5
:101B5000DE01599601900D928A95E1F76DCFE05321
:101B6000F84FB8CF8DE691E0A0E0B0E0D5CF2CE003
:101B7000E6E0F1E0DE01119601900D922A95E1F781
:101B8000892B39F4C80164E670E00E94E411892BC6
:101B900041F4C80160E971E00E94E4116CE1892B15
:101BA00009F46DE150E0882D8150990B9C01852F3F
:101BB00090E08217930790F4513071F0A1E0B0E00B
:101BC000AC0FBD1F8A0F9B1FFC018081C80ED11C6A
:101BD000E11CF11C5F5FEBCF862FF8CFE091B402E0
:101BE000F894292D30E0A0E1BEE00E94C5114B0120
:101BF0005C01242F30E0ACE3B0E00E94C511860EFA
:101C0000971EA81EB91E870C911CA11CB11C262D65
:101C10002150330BC901A7019601280F391F411D1F
:101C2000511D60E871E581E090E00E94D411860EBC
:101C3000971EA81EB91E80924A0290924B02A09253
:101C40004C02B0924D028091460290914702A091C1
:101C50004802B09149028093420290934302A093BC
:101C60004402B093450281E08093B4027894EE235D
:101C700011F051100CC1F894409046025090470268
:101C8000609048027090490280914A0290914B0204
:101C9000A0914C02B0914D028DA39EA3AFA3B8A713
:101CA0008091420290914302A0914402B09145027A
:101CB0007894A3019201281B390B4A0B5B0B29A7CF
:101CC0003AA74BA75CA78DA09EA0AFA0B8A4820E98
:101CD000931EA41EB51EC501B4012CE330E040E004
:101CE00050E00E94F8116DA7CA01B9012CE330E061
:101CF00040E050E00E94F8116EA7C501B40120E158
:101D00003EE040E050E00E94F811CA01B90128E12C
:101D100030E040E050E00E94F8116FA7C501B40127
:101D200020E831E541E050E00E94F81169017A01B4
:101D300022EB222E27E0322E00E911E0E4E6F0E06B
:101D40009101237033272115310531F4C101BF0101
:101D50000E94E411892B31F4C101B8010E94E41101
:101D6000892B89F48EE691E0B0E0A0E0C816D90690
:101D7000EA06FB0658F0C81AD90AEA0AFB0A3FEF3E
:101D8000231A330ADDCF8DE691E0EECF8CE0E6E05A
:101D9000F1E0DE01119601900D928A95E1F7232B77
:101DA00039F4C10164E670E00E94E411892B41F42A
:101DB000C10160E971E00E94E4112CE1892B09F472
:101DC0002DE111E0822F123021F0FE01E10FF11D13
:101DD000808190E0B0E0A0E0C816D906EA06FB06D4
:101DE00030F0C81AD90AEA0AFB0A1F5FEBCF85ED6B
:101DF00091E00E94D5044AE0C301B2010E94470469
:101E000088EA91E00E94D5044AE06DA17EA18FA1ED
:101E100098A50E94470488EA91E00E94D5044AE010
:101E2000C501B4010E94470488EA91E00E94D504EC
:101E30004AE069A57AA58BA59CA50E94470488EA7B
:101E400091E00E94D504C1010E948B048DE20E94A2
:101E5000A502812F0E94C2048DE20E94A50281E0AA
:101E60008C0D0E94C20480E20E94A5028FA50E94F0
:101E7000C2048AE30E94A5028EA50E94C2048AE3DE
:101E80000E94A5028DA50E94C2040E94D104109256
:101E90004F0257CD8FB7F8944090F4075090F50754
:101EA0006090F6077090F7078FBF8091EF079091D1
:101EB000F007A091F107B091F207A3019201281B4E
:101EC000390B4A0B5B0BDA01C90180319742A1053E
:101ED000B10508F4F5C04092EF075092F007609208
:101EE000F1077092F20761E086E10E94060180919D
:101EF000B40281114BC019821A821B821C821D867A
:101F0000F894A0908400B0908500C090BD02D0905D
:101F1000BE020091BB021091BC0278948CED91E05E
:101F20000E94D5048091B5029091B6020E948B0464
:101F300088EA91E00E94D504C8010E948B040E94A7
:101F4000D10410E000E0C016D10641F10C3241E0AE
:101F5000140721F184EE91E00E94D5047801EE0C83
:101F6000FF1CF701E95EFA4F808191810E948B048A
:101F700088EA91E00E94D504F701E154FD4F808189
:101F800091810E948B040F5F1F4FDDCFBE01635F05
:101F90007F4FCE0101960E949C03B2CF8AEE91E062
:101FA0000E94D5048091B5029091B6020E948B04E4
:101FB00088EA91E00E94D50469817A818B819C81B5
:101FC0004AE00E94470484E991E00E94D5046D85AF
:101FD00070E090E080E04AE00E94470488EA91E0E7
:101FE0000E94D504C5010E948B0488EA91E00E94FA
:101FF000D504C6010E948B040FE617E08FEEE82E91
:1020000087E0F82E88EA91E00E94D504D8018D91EE
:102010009D918D010E948B04E016F10699F70E94B4
:10202000D1048091B5029091B60201969093B602C8
:102030008093B502F894EFE6F7E080E8DF011D92A7
:102040008A95E9F788E592E0E7E1F5E0DF019C0198
:102050001D9221503040E1F7EFEBF2E0DF019C01EF
:102060001D9221503040E1F71092BE021092BD0245
:1020700080918400909185009093BC028093BB0274
:10208000789461E08FE00E94060160E082E10E94A6
:1020900006010CB405FC36C01EBC00000DB407FEE2
:1020A000FDCF8EB51EBC00000DB407FEFDCF8EB572
:1020B00061E082E10E94060160E086E10E94060183
:1020C0008091B7029091B802A091B902B091BA0282
:1020D000A3019201281B390B4A0B5B0BDA01C901E2
:1020E00080339547A105B10550F04092B702509258
:1020F000B8026092B9027092BA020E94AC050E94C6
:10210000CA0216CC1EBC00000DB407FEFDCF8EB572
:102110001EBC00000DB407FEFDCFC9CF81E999E0D8
:102120000E94B60687E999E00C94B6060E94D81082
:1021300008F481E00895E89409C097FB3EF4909577
:102140008095709561957F4F8F4F9F4F9923A9F090
:10215000F92F96E9BB279395F6958795779567951F
:10216000B795F111F8CFFAF4BB0F11F460FF1BC063
:102170006F5F7F4F8F4F9F4F16C0882311F096E9F6
:1021800011C0772321F09EE8872F762F05C06623A4
:1021900071F096E8862F70E060E02AF09A95660F5D
:1021A000771F881FDAF7880F9695879597F9089516
:1021B000990F0008550FAA0BE0E8FEEF1616170658
:1021C000E807F907C0F012161306E407F50798F0C0
:1021D000621B730B840B950B39F40A2661F0232BD9
:1021E000242B252B21F408950A2609F4A140A69555
:1021F0008FEF811D811D08950E940F110C94801195
:102200000E94721138F00E94791120F0952311F08C
:102210000C9469110C946F1111240C94B4110E9448
:10222000911170F3959FC1F3950F50E0551F629F78
:10223000F001729FBB27F00DB11D639FAA27F00D1F
:10224000B11DAA1F649F6627B00DA11D661F829F46
:102250002227B00DA11D621F739FB00DA11D621F2B
:10226000839FA00D611D221F749F3327A00D611D48
:10227000231F849F600D211D822F762F6A2F11242A
:102280009F5750409AF0F1F088234AF0EE0FFF1F5D
:10229000BB1F661F771F881F91505040A9F79E3FB4
:1022A000510580F00C9469110C94B4115F3FE4F374
:1022B000983ED4F3869577956795B795F795E7950A
:1022C0009F5FC1F7FE2B880F911D9695879597F913
:1022D000089597F99F6780E870E060E008959FEFA8
:1022E00080EC089500240A941616170618060906AD
:1022F000089500240A94121613061406050608957C
:10230000092E0394000C11F4882352F0BB0F40F403
:10231000BF2B11F460FF04C06F5F7F4F8F4F9F4F43
:10232000089557FD9058440F551F59F05F3F71F0C5
:102330004795880F97FB991F61F09F3F79F087952C
:102340000895121613061406551FF2CF4695F1DFB5
:1023500008C0161617061806991FF1CF8695710545
:10236000610508940895E894BB2766277727CB0179
:1023700097F908950E94C511A59F900DB49F900DE7
:10238000A49F800D911D11240895A29FB001B39FB9
:10239000C001A39F700D811D1124911DB29F700D6E
:1023A000811D1124911D0895DB018F939F930E943D
:1023B000BA11BF91AF91A29F800D911DA39F900D67
:1023C000B29F900D11240895AA1BBB1B51E107C0B9
:1023D000AA1FBB1FA617B70710F0A61BB70B881FB5
:1023E000991F5A95A9F780959095BC01CD01089544
:1023F000A1E21A2EAA1BBB1BFD010DC0AA1FBB1F09
:10240000EE1FFF1FA217B307E407F50720F0A21B7A
:10241000B30BE40BF50B661F771F881F991F1A94E7
:1024200069F760957095809590959B01AC01BD0111
:10243000CF010895EE0FFF1F0024001C0BBE079074
:10244000F691E02D09945058BB27AA270E943B1211
:102450000C9480110E94721138F00E94791120F0C2
:1024600039F49F3F19F426F40C946F110EF4E095A3
:10247000E7FB0C946911E92F0E94911158F3BA17E8
:10248000620773078407950720F079F4A6F50C948A
:10249000B3110EF4E0950B2EBA2FA02D0B01B9014C
:1024A00090010C01CA01A0011124FF27591B99F0CA
:1024B000593F50F4503E68F11A16F040A22F232FD6
:1024C000342F4427585FF3CF469537952795A79526
:1024D000F0405395C9F77EF41F16BA0B620B730BCD
:1024E000840BBAF09150A1F0FF0FBB1F661F771F3E
:1024F000881FC2F70EC0BA0F621F731F841F48F4F3
:10250000879577956795B795F7959E3F08F0B0CF7B
:102510009395880F08F09927EE0F97958795089562
:102520000E94A4120C9480110E94791158F00E940C
:10253000721140F029F45F3F29F00C946911511198
:102540000C94B4110C946F110E94911168F39923AB
:10255000B1F3552391F3951B550BBB27AA2762179F
:102560007307840738F09F5F5F4F220F331F441FAC
:10257000AA1FA9F335D00E2E3AF0E0E832D09150E0
:102580005040E695001CCAF72BD0FE2F29D0660FCD
:10259000771F881FBB1F261737074807AB07B0E810
:1025A00009F0BB0B802DBF01FF2793585F4F3AF016
:1025B0009E3F510578F00C9469110C94B4115F3F63
:1025C000E4F3983ED4F3869577956795B795F7959C
:1025D0009F5FC9F7880F911D9695879597F9089584
:1025E000E1E0660F771F881FBB1F62177307840720
:1025F000BA0720F0621B730B840BBA0BEE1F88F72F
:10260000E09508950E94991188F09F5798F0B92F8E
:102610009927B751B0F0E1F0660F771F881F991F17
:102620001AF0BA95C9F714C0B13091F00E94B311F5
:10263000B1E008950C94B311672F782F8827B85F05
:1026400039F0B93FCCF3869577956795B395D9F76F
:102650003EF490958095709561957F4F8F4F9F4F79
:1026600008950E94D81008F48FEF08950E94D810A2
:10267000880B990B08950F931F93CF93DF938230AC
:10268000910510F482E090E0E0919F09F091A0099B
:1026900030E020E0B0E0A0E0309799F4211531055A
:1026A00009F44AC0281B390B24303105D8F58A813A
:1026B0009B816115710589F1FB0193838283FE0182
:1026C00011C0408151810281138148175907E0F000
:1026D0004817590799F4109761F012960C931297C6
:1026E00013961C933296CF01DF91CF911F910F91DA
:1026F000089500939F091093A009F4CF2115310587
:1027000051F04217530738F0A901DB019A01BD01CE
:10271000DF01F801C1CFEF01F9CF9093A0098093B9
:102720009F09CDCFFE01E20FF31F819391932250B9
:10273000310939832883D7CF20919D0930919E0993
:10274000232B41F4209102013091030130939E0923
:1027500020939D092091000130910101211531053F
:1027600041F42DB73EB74091040150910501241B5F
:10277000350BE0919D09F0919E09E217F307A0F453
:102780002E1B3F0B2817390778F0AC014E5F5F4FC7
:102790002417350748F04E0F5F1F50939E09409352
:1027A0009D09819391939FCFF0E0E0E09CCFCF9380
:1027B000DF930097E9F0FC01329713821282A09117
:1027C0009F09B091A009ED0130E020E01097A1F43D
:1027D00020813181820F931F20919D0930919E09A4
:1027E0002817390709F061C0F0939E09E0939D090D
:1027F000DF91CF910895EA01CE17DF07E8F54A810E
:102800005B819E0141155105B1F7E901FB83EA8324
:1028100049915991C40FD51FEC17FD0761F48081D0
:1028200091810296840F951FE901998388838281A3
:1028300093819B838A83F0E0E0E012968D919C91D6
:1028400013970097B9F52D913C911197CD01029600
:10285000820F931F20919D0930919E0928173907F7
:1028600039F6309751F51092A00910929F09B09354
:102870009E09A0939D09BCCFD383C283408151811F
:10288000840F951FC817D90761F44E5F5F4F888189
:102890009981480F591F518340838A819B8193837B
:1028A00082832115310509F0B0CFF093A009E093A0
:1028B0009F099ECFFD01DC01C0CF13821282D7CFCA
:1028C0004F925F926F927F928F929F92AF92BF9240
:1028D000CF92DF92EF92FF920F931F93CF93DF93EC
:1028E0008C01009799F4CB01DF91CF911F910F914B
:1028F000FF90EF90DF90CF90BF90AF909F908F9020
:102900007F906F905F904F900C943B13FC01E60F0B
:10291000F71F9C0122503109E217F30708F4AEC0FB
:10292000D901CD91DC911197C617D70720F1C53099
:10293000D10578F0CE0104978617970750F0C61B93
:10294000D70B2297C193D1936D937C93CF010E94B3
:10295000D713C801DF91CF911F910F91FF90EF9096
:10296000DF90CF90BF90AF909F908F907F906F90AF
:102970005F904F9008955B01AC1ABD0A4C018C0E1C
:102980009D1EA0919F09B091A009512C412CF12CC2
:10299000E12C109731F580919D0990919E09881541
:1029A000990509F05CC04616570608F058C080919A
:1029B000000190910101009741F48DB79EB74091BD
:1029C000040150910501841B950BE817F90708F0E5
:1029D00055C0F0939E09E0939D09F90171836083CE
:1029E000B8CF8D919C91119712966C901297139677
:1029F0007C901397A815B90559F56C0142E0C40EF7
:102A0000D11CCA14DB0420F1AC014A195B09DA01BC
:102A10001296159780F06282738251834083D901A8
:102A20006D937C93E114F10471F0D7011396FC933C
:102A3000EE9312978ECF22968C0F9D1FF9019183F2
:102A40008083F301EFCFF093A009E0939F0981CF3A
:102A50004816590608F42C017D01D3019ACFCB0109
:102A60000E943B137C01009749F0AE01B8010E941F
:102A70004115C8010E94D71387016BCF10E000E019
:102A800068CFFB01DC0102C001900D924150504023
:102A9000D8F70895FB01DC0101900D920020E1F7C9
:102AA0000895FB01DC014150504030F08D910190C0
:102AB000801919F40020B9F7881B990B089510E0CC
:102AC000C1E8D0E004C0FE010E941A122196C2386B
:082AD000D107C9F7F894FFCF0C
:102AD8000000A10980001F1C1F1E1F1E1F1F1E1F94
:102AE8001E1F000000005802B801E501AA021602E4
:102AF800F4010802000000006503380399030E037F
:102B080031031E030F030D0A006E616E00696E66C5
:102B1800006F76660024454E562C00363935383419
:102B28003736653137626461616234333032383741
:102B38006663353839346362356631316130633301
:102B48003363662C43494275696C6400312E332E19
:102B5800302D33382D43494275696C640023437620
:102B6800616B2E2E2E0024444F532C414952444F62
:102B7800533033422C002C302C00244144432C5534
:102B88005354534950494E3033432C0023486D6DFC
:102B98006D2E2E2E00244750524D432C0024474EB4
:102BA800524D432C002454494D452C002453544184
:102BB80052542C000D0A24452C000D0A2453544F5E
:042BC800502C00008D
:00000001FF
