:100000000C9482000C94AC000C94AC000C94AC00EA
:100010000C94AC000C94AC000C94AC000C94311417
:100020000C94AC000C94AC000C94AC000C94AC00A0
:100030000C94AC000C94AC000C94AC000C94AC0090
:100040000C94AC000C94AC000C94FB110C94AC0020
:100050000C94CF120C94A5120C94AC000C94AC0030
:100060000C94AC000C94AC000C9405130C94AC00F4
:100070000C946F120C9445120C94AC000C94AC00D0
:100080000C94AC000C94AC000C94AC00000021006B
:10009000240027002A0000002200250028002B0051
:1000A0000202020202020202040404040404040420
:1000B0000303030303030303010101010101010120
:1000C0000102040810204080010204081020408032
:1000D0000102040810204080010204081020408022
:1000E0000000000203000A0B0000000005040908DC
:1000F0000000000000000000000000000000000000
:100100006314111811241FBECFEFD0E4DEBFCDBFA2
:1001100025E1A4E7B2E001C01D92AE36B207E1F7D7
:1001200012E0A0E0B1E0E4E3F9E300E00BBF02C0BD
:1001300007900D92A437B107D9F710E0C1E8D0E0DD
:1001400004C02197FE010E947519C038D107C9F774
:100150000E943C150C948D1C0C9400009091AA13E5
:1001600081E0913208F043C08091B3138111FCCF3C
:100170008091A91322E02093B31321E02093B213BE
:100180002FEF2093B11329E833E13093B01320937C
:10019000AF131092AE139093AD131092AC139091D5
:1001A000AC13880F892B8093AC138091AB138130F3
:1001B00029F51092AB138091AC138093BB00809112
:1001C000BC0083FDF8CF85EC8093BC008091B31315
:1001D0008230E1F38091B1138F3F91F08091B113A0
:1001E000803281F08091B113803371F084E01092FD
:1001F00088131092AA1310928713089585EEE4CF06
:1002000080E0F5CF82E0F3CF83E0F1CF90E0FC0116
:10021000E052FF4F2491FC01E054FF4F349180568F
:100220009F4FFC018491882359F12223C1F0225071
:100230002A30A8F4E22FF0E0E05EFE4F0C9475192E
:1002400059015D012A0141012F012F0145014B0197
:100250004F015501909180009F7790938000E82F87
:10026000F0E0EE0FFF1FEA56FF4FA591B4918FB754
:10027000F894EC91611124C030953E233C938FBFDC
:100280000895909180009F7DE8CF9091B0009F7776
:100290009093B000E4CF9091B0009F7DF9CF909102
:1002A00090009F7790939000DACF909190009F7D7F
:1002B000F9CF94B59F7794BDD2CF94B59F7DFBCFF6
:1002C0003E2BDCCFCF93DF9390E0FC01E054FF4F57
:1002D000249180569F4FFC0184918823D1F090E0B7
:1002E000880F991FFC01E457FF4FA591B491FC01C1
:1002F000EA56FF4FC591D49161110EC09FB7F89493
:100300008C91E22FE0958E238C932881E223E88361
:100310009FBFDF91CF9108958FB7F894EC91E22BB6
:10032000EC938FBFF6CF2FB7F89460918313709141
:10033000841380918513909186132FBF0895AF92F7
:10034000BF92CF92DF92EF92FF920F931F93CF93C2
:10035000DF936C017B018B01040F151FEB015E0124
:10036000AE18BF08C017D10759F06991D601ED91B9
:10037000FC910190F081E02DC6010995892B79F758
:10038000C501DF91CF911F910F91FF90EF90DF900A
:10039000CF90BF90AF900895FC01538D448D252FD1
:1003A00030E0842F90E0821B930B541710F0CF960F
:1003B000089501970895FC01918D828D981761F041
:1003C000A28DAE0FBF2FB11D5D968C91928D9F5F58
:1003D0009F73928F90E008958FEF9FEF0895FC0137
:1003E000918D828D981731F0828DE80FF11D858DEA
:1003F00090E008958FEF9FEF0895FC01918D228D7D
:10040000892F90E0805C9F4F821B91098F73992701
:1004100008958EE194E10E94FD0121E0892B09F409
:1004200020E0822F08958BEB94E10E94FD0121E0F2
:10043000892B09F420E0822F0895FC01A48DA80FD8
:10044000B92FB11DA35ABF4F2C91848D90E0019616
:100450008F739927848FA689B7892C93A089B18936
:100460008C91837080648C93938D848D981306C0D7
:100470000288F389E02D80818F7D80830895EF923B
:10048000FF920F931F93CF93DF93EC0181E0888F4E
:100490009B8D8C8D98131AC0E889F989808185FF1E
:1004A00015C09FB7F894EE89FF896083E889F989C0
:1004B00080818370806480839FBF81E090E0DF91C2
:1004C000CF911F910F91FF90EF900895F62E0B8D15
:1004D00010E00F5F1F4F0F731127E02E8C8D8E11D0
:1004E0000CC00FB607FCFACFE889F989808185FF37
:1004F000F5CFCE010E941D02F1CFEB8DEC0FFD2F49
:10050000F11DE35AFF4FF0829FB7F8940B8FEA89F1
:10051000FB8980818062CFCFCF93DF93EC01888D00
:100520008823B9F0AA89BB89E889F9898C9185FD6E
:1005300003C0808186FD0DC00FB607FCF7CF8C91FC
:1005400085FFF2CF808185FFEDCFCE010E941D0295
:10055000E9CFDF91CF91089580E090E0892B29F0D9
:100560000E94130281110E94000080E090E0892B1C
:1005700029F00E94090281110C940000089585ED74
:100580008093BC008091BC0084FDFCCF1092B3131B
:10059000089520910603260F3327331F213231059A
:1005A000ECF42091B313FC0190E080E0243069F07A
:1005B00082E00895A09106032191AC014A515D4F5C
:1005C000A40FB52FB11D2C930196861798F3809137
:1005D0000603680F6093060380E0089581E00895A4
:1005E0000895E091B5138091B413E81730F4F0E06A
:1005F000EA54FC4E808190E008958FEF9FEF0895BC
:100600009091B5138091B4132FEF3FEF981748F4F2
:10061000E92FF0E0EA54FC4E208130E09F5F909398
:10062000B513C90108958091B4139091B513891B36
:10063000990B0895CF92DF92EF92FF920F931F9341
:10064000CF93DF937C01CB018A0120918713222372
:1006500089F0EB016B01C40ED51ECC15DD0569F0E8
:100660006991D701ED91FC910190F081E02DC701D6
:100670000995F3CF642F0E94C902C801DF91CF9181
:100680001F910F91FF90EF90DF90CF900895CF933F
:10069000DF931F92CDB7DEB76983209187132223A2
:1006A000F9F02091AA13203258F021E030E0FC014B
:1006B0003383228390E080E00F90DF91CF91089503
:1006C00080918813E82FF0E0E757FC4E99819083E2
:1006D0008F5F809388138093AA1381E090E0ECCF22
:1006E00061E0CE0101960E94C902F7CF682F88E52C
:1006F00095E10C94470390E080E00895CF92DF925B
:10070000EF92FF920F931F93CF93DF938C01EB0136
:10071000F894C0906413D0906513E0906613F09045
:10072000671360918400709185008091E40290913C
:10073000E5027894681B790B90E080E027E0660F73
:10074000771F881F991F2A95D1F720E137E240E0F3
:1007500050E00E945319243648F528838091E00226
:100760009091E102A091E202B091E3028C0D9D1DF7
:10077000AE1DBF1D409160135091611360916213D3
:10078000709163136C017D01C41AD50AE60AF70A59
:10079000F801C082D182E282F382DF91CF911F9172
:1007A0000F91FF90EF90DF90CF90089583E68883BC
:1007B000D5CF189B6EC080916C1390916D13A09152
:1007C0006E13B0916F130196A11DB11D80936C1330
:1007D00090936D13A0936E13B0936F1320918400C8
:1007E0003091850042981EBC0DB407FEFDCF8EB53A
:1007F0001EBC0DB407FEFDCF9EB5429A89279827EF
:1008000089278034910570F4880F991FFC01E35209
:10081000FD4E808191818F3F9807D9F10196918398
:10082000808308954091781350917913483E534046
:10083000A0F4E0917813F0917913EE0FFF1FE35FBE
:10084000F44F31832083E0917813F0917913EE0F08
:10085000FF1FE35CFC4F918380838091781390911C
:10086000791301969093791380937813809168138C
:1008700090916913A0916A13B0916B130196A11D19
:10088000B11D8093681390936913A0936A13B0937A
:100890006B130895FB019081892790E1899F900156
:1008A0001124822790E0382F2227AC0163E0440F07
:1008B000551F6A95E1F724273527418150E0242709
:1008C000352774E0959587957A95E1F782279327E8
:1008D000918380830895AF92BF92DF92EF92FF924F
:1008E0000F931F93CF93DF93EC018B01FB01D38018
:1008F0008281645F7F4F8E3F09F459C0ED2CF12C4B
:10090000FB01EE0DFF1DDE2C91E09E1538F49701E2
:10091000215031099291992309F463C08883D982C7
:10092000F80184818A8385818B8386818C8387818A
:100930008D8380858E8381858F8381859285A38534
:10094000988781859285A385A987A701CE010A96FC
:100950000E946F1CFAE0EF0EF11CCE0DDF1DF801B6
:10096000848199E0F92E80FF3AC08DE0F8019081F2
:10097000988391819983A82EB12C882341F0B801E6
:100980006A5E7E4FA501CE0102960E946F1CC501D2
:100990008F0D911D03968D0D911DDF91CF911F91AC
:1009A0000F91FF90EF90DF90BF90AF9008958883F4
:1009B000D98286818A8387818B8380858C83818598
:1009C0008D83438150E0CE0106960E946F1CF80192
:1009D000838190E00696C80FD91F25E0F22E80E0B3
:1009E000C5CF790190CF2F923F924F925F926F9235
:1009F0007F928F929F92AF92BF92CF92DF92EF92AF
:100A0000FF920F931F93CF93DF93CDB7DEB7CA58F2
:100A1000D1400FB6F894DEBF0FBECDBF1C01CF5939
:100A2000DE4F79836883C156D140C95BDE4F28838E
:100A300039834A835B83C754D140DC01CD90DD907C
:100A4000ED90FC90DA01C90113E0880F991FAA1FED
:100A5000BB1F1A95D1F78C0D9D1DAE1DBF1DF10159
:100A600080839183A283B3838C159D05AE05BF055A
:100A700058F484819581A681B7810196A11DB11D8D
:100A800084839583A683B783A3E0F694E794D794F1
:100A9000C794AA95D1F7FFE3CF22DD24EE24FF24EB
:100AA0008101085D1F4FC957DE4F19830883C7585E
:100AB000D1408E010F5B1E4FCF5BDE4F1983088341
:100AC000C154D140C95BDE4F488059806A807B8029
:100AD000C754D140411451046104710409F49BC40A
:100AE00080E490E0A0E0B0E08C199D09AE09BF0958
:100AF0005301420184159505A605B70510F44C0174
:100B00005D01C957DE4F88819981C758D1408C0D4E
:100B10009D1DA401CF59DE4F68817981C156D14016
:100B20000E946F1CC80CD91CEA1CFB1CCF59DE4F5D
:100B300068807980C156D140680C791CCF59DE4F4E
:100B400079826882C156D140C95BDE4F48805980A6
:100B50006A807B80C754D140481859086A087B08CE
:100B6000C95BDE4F488259826A827B82C754D1407A
:100B700000E4C016D104E104F10409F0A3CFC95781
:100B8000DE4F88819981C758D1408E010F5F1E4F7B
:100B9000F801DC0113962C911397208312962C9167
:100BA0001297218311962C91119722832C912383E4
:100BB00004963496CF5BDE4F48805980C154D140B3
:100BC0004E165F0631F7D1011896CD90DD90ED906D
:100BD000FC901B97CD59DE4FC882D982EA82FB82F6
:100BE000C356D1401C964D905D906D907C901F97A0
:100BF000C959DE4F488259826A827B82C756D140EA
:100C000050964D905D906D907C905397C559DE4FF6
:100C1000488259826A827B82CB56D14054964D904D
:100C20005D906D907C905797C159DE4F48825982F4
:100C30006A827B82CF56D14058964D905D906D90E0
:100C40007C905B97CD58DE4F488259826A827B82C6
:100C5000C357D1405C964D905D906D907C905F97AE
:100C6000C958DE4F488259826A827B82C757D14079
:100C700090964D905D906D907C909397C558DE4F07
:100C8000488259826A827B82CB57D14094964D909C
:100C90005D906D907C909797C158DE4F4882598245
:100CA0006A827B82CF57D1409E012F5F3F4FCD5A42
:100CB000DE4F39832883C355D140C901D8014D91F6
:100CC0005D916D917D918D01DC014D935D936D93EF
:100CD0007D93CD01E017F10789F7CD5ADE4F4880AB
:100CE0005980C355D140B0EC4B0E511CCD5ADE4F4C
:100CF00068807980C355D140CD5BDE4F79826882B0
:100D0000C354D140F30180AD91ADA2ADB3AD048128
:100D1000158126813781F4E06F0E711C6C017D0115
:100D20004FE0CC0CDD1CEE1CFF1C4A95D1F7AC014A
:100D3000BD01E1E17695679557954795EA95D1F71D
:100D4000C42AD52AE62AF72AAC01BD01FDE0440FEA
:100D5000551F661F771FFA95D1F74C015D01E3E13E
:100D6000B694A79497948794EA95D1F7482959297E
:100D70006A297B294C255D256E257F25FAE0B695ED
:100D8000A79597958795FA95D1F784279527A62754
:100D9000B727CD5BDE4FE881F981C354D14044A130
:100DA00055A166A177A1C080D180E280F3804C0D6F
:100DB0005D1D6E1D7F1D840F951FA61FB71F680147
:100DC000790147E0F694E794D794C7944A95D1F710
:100DD000B901A801E9E1440F551F661F771FEA9585
:100DE000D1F7C42AD52AE62AF72AB901A801FEE0DC
:100DF000440F551F661F771FFA95D1F74801590117
:100E0000E2E1B694A79497948794EA95D1F748299C
:100E100059296A297B294C255D256E257F25F3E01C
:100E20003695279517950795FA95D1F740275127BD
:100E300062277327840F951FA61FB71FF30184AF86
:100E400095AFA6AFB7AF4614570409F055CF02E1EE
:100E500011E0C757DE4F19830883C958D140C159E3
:100E6000DE4F288139814A815B81CF56D140CD57F1
:100E7000DE4F288339834A835B83C358D140C559E9
:100E8000DE4F88819981AA81BB81CB56D140C15B5D
:100E9000DE4F88839983AA83BB83CF54D140C9593D
:100EA000DE4F488059806A807B80C756D140C55B41
:100EB000DE4F488259826A827B82CB54D140CD5921
:100EC000DE4F488159816A817B81C356D140C55824
:100ED000DE4FC880D980EA80FB80CB57D140C75A0B
:100EE000DE4FC882D982EA82FB82C955D140C958F7
:100EF000DE4FE880F9800A811B81C757D140CB5A69
:100F0000DE4FE882F9820A831B83C555D140C15860
:100F1000DE4F088119812A813B81CF57D140CD5BBB
:100F2000DE4F088319832A833B83C354D140CD58B5
:100F3000DE4F88819981AA81BB81C357D140C757B1
:100F4000DE4FE881F981C958D140E190F1900191DB
:100F50001191C757DE4FF983E883C958D140C35A6E
:100F6000DE4FE882F9820A831B83CD55D140CD5AEA
:100F7000DE4FE881F981C355D14081909190A190D5
:100F8000B190CD5ADE4FF983E883C355D1402C018F
:100F90003D012AE1440C551C661C771C2A95D1F7AB
:100FA0008C019D01E6E03695279517950795EA9502
:100FB000D1F7402A512A622A732A8C019D01F5E15A
:100FC000000F111F221F331FFA95D1F76C017D010D
:100FD000EBE0F694E794D794C794EA95D1F70C29FF
:100FE0001D292E293F2904251525262537252C01C5
:100FF0003D01F9E17694679457944794FA95D1F7B7
:101000006C017D01E7E0CC0CDD1CEE1CFF1CEA95B9
:10101000D1F7C428D528E628F7280C251D252E252C
:101020003F25C35ADE4F488059806A807B80CD556A
:10103000D140840C951CA61CB71C080D191D2A1D37
:101040003B1D4C015D0180949094A094B094C75ACC
:10105000DE4FC880D980EA80FB80C955D1408C2002
:101060009D20AE20BF20CB5ADE4FC880D980EA80B9
:10107000FB80C555D140C822D922EA22FB228C240C
:101080009D24AE24BF24800E911EA21EB31ECD5BF4
:10109000DE4FE880F9800A811B81C354D1408E0C59
:1010A0009F1CA01EB11ECD57DE4F088119812A81D9
:1010B0003B81C358D140080D191D2A1D3B1DC35A41
:1010C000DE4F088319832A833B83CD55D1406A01C3
:1010D0007B01FEE1CC0CDD1CEE1CFF1CFA95D1F768
:1010E0008A019B01E2E03695279517950795EA95C9
:1010F000D1F7280139014C285D286E287F288A0104
:101100009B01F3E1000F111F221F331FFA95D1F746
:101110006A017B01EDE0F694E794D794C794EA95D1
:10112000D1F70C291D292E293F290425152526250F
:1011300037252A013B01F6E176946794579447944A
:10114000FA95D1F76A017B01EAE0CC0CDD1CEE1CBC
:10115000FF1CEA95D1F74C285D286E287F28730183
:101160006201C026D126E226F326CD5BDE4FC8827F
:10117000D982EA82FB82C354D140C55BDE4F08812D
:1011800019812A813B81CB54D140C15BDE4F48801D
:1011900059806A807B80CF54D140042515252625AF
:1011A00037250423152326233723C55BDE4FC8804C
:1011B000D980EA80FB80CB54D140C420D520E620E2
:1011C000F7200C251D252E253F25CD5BDE4FC88041
:1011D000D980EA80FB80C354D1400C0D1D1D2E1D0B
:1011E0003F1D080D191D2A1D3B1DC75ADE4F4880A3
:1011F00059806A807B80C955D140CD5BDE4F4882E3
:1012000059826A827B82C354D140C15BDE4FC88061
:10121000D980EA80FB80CF54D140CD57DE4FC882C1
:10122000D982EA82FB82C358D140F2E1EF2EF2E08C
:10123000FF2EC757DE4FE881F981C958D140EE161D
:10124000FF0609F0ADC0CD59DE4F488059806A8055
:101250007B80C356D140040D151D261D371DF1019D
:101260000087118722873387C959DE4F488059800C
:101270006A807B80C756D140440D551D661D771D81
:101280004487558766877787C559DE4F48815981DE
:101290006A817B81CB56D140C55BDE4F4880598047
:1012A0006A807B80CB54D140440D551D661D771D4F
:1012B000408B518B628B738BC159DE4F48815981B2
:1012C0006A817B81CF56D140C15BDE4F4880598017
:1012D0006A807B80CF54D140440D551D661D771D1B
:1012E000448B558B668B778BCD58DE4F4881598167
:1012F0006A817B81C357D140C35ADE4F48805980F1
:101300006A807B80CD55D140440D551D661D771DEB
:10131000408F518F628F738FC958DE4F488059803C
:101320006A807B80C757D140840D951DA61DB71DCF
:10133000848F958FA68FB78FC558DE4F888199818E
:10134000AA81BB81CB57D140CB5ADE4F4880598010
:101350006A807B80C555D140840D951DA61DB71DA3
:1013600080A391A3A2A3B3A3C158DE4F8881998122
:10137000AA81BB81CF57D140C75ADE4F48805980E0
:101380006A807B80C955D140840D951DA61DB71D6F
:1013900084A395A3A6A3B7A3C12CD12C760192CB8D
:1013A000C55BDE4F488059806A807B80CB54D1403A
:1013B000C15BDE4F488259826A827B82CF54D14022
:1013C000C55BDE4F488359836A837B83CB54D1400E
:1013D000B901A801CB5ADE4FC880D980EA80FB80D2
:1013E000C555D140C75ADE4FC882D982EA82FB82F6
:1013F000C955D140CB5ADE4F88839983AA83BB83DA
:10140000C555D140C35ADE4F88819981AA81BB81DD
:10141000CD55D14094CDC657DE4F0FB6F894DEBF00
:101420000FBECDBFDF91CF911F910F91FF90EF9035
:10143000DF90CF90BF90AF909F908F907F906F90F4
:101440005F904F903F902F9008954F925F926F92D0
:101450007F928F929F92AF92BF92CF92DF92EF9244
:10146000FF920F931F93CF93DF93CDB7DEB7C9548D
:10147000D1400FB6F894DEBF0FBECDBF6C0180E83F
:10148000F701DE01169601900D928A95E1F73A83F5
:1014900029836B834C830D8385E8FE013196D60149
:1014A0001C9601900D928A95E1F781E891E0A0E009
:1014B000F60181879287A3878091E213282F2270FB
:1014C00081FD1DC0E091E413F091E513309731F0F8
:1014D00080815DE0552E11E080FD02C0512C10E0AE
:1014E0008DEFF6018283EF56FF4F85E892919111BF
:1014F00003C081508130D1F73AE0432E07C08EEF10
:101500008283512C46E0442E10E085E8D6011396E4
:101510008C93139781E017968C9317979AE01896FF
:101520009C93189711115CC014961C92D6011596C5
:101530001C9215978091DD1316968C9316978091C7
:10154000DD138F5F8093DD1312968C911297CA5C26
:10155000DE4F8883C653D14013968C911397C95C94
:10156000DE4F8883C753D14016969C9116971796E5
:101570008C912223C1F1C85CDE4F9883C853D140BF
:10158000C75CDE4F8883C953D1408AE0C65CDE4F1A
:101590008883CA53D14081E8C55CDE4F8883CB5332
:1015A000D140A42CB12C8FEF9FEFCA57DF4F998306
:1015B0008883C658D040CE018A5C9E4F7C014C0186
:1015C0008A0C9B1C9FEFE91AF90A8E149F04D1F133
:1015D000BE016A577F4FD7018C910E944A04F2CF17
:1015E000F6018483A3CFF6012481C85CDE4F2883F3
:1015F000C853D1402581C75CDE4F2883C953D140F1
:10160000C65CDE4F9883CA53D140C55CDE4F8883E9
:10161000CB53D1408AE0C45CDE4F8883CC53D140A9
:1016200081E8C35CDE4F8883CD53D14081E0C25C4A
:10163000DE4F8883CE53D140C15CDE4F1882CF533A
:10164000D140AFCFCA57DF4F88819981C658D0406B
:10165000C85BDE4F99838883C854D140F60163800C
:10166000712C7601FCE0EF0EF11C470181E0681A55
:101670007108BE01685B7E4F9FEF6916790631F0F5
:10168000D4018D914D010E944A04F0CF83E90E945C
:101690004A04C85BDE4F9881C854D140C75BDE4F17
:1016A0008881C954D140D6011396EC911397EE0D61
:1016B000FF2DF11D90831396EC911397EE0DFF2DE6
:1016C000F11D81839C9311968C931197112309F43A
:1016D00099C10091E4131091E5130115110509F466
:1016E00091C1F801808180FF8DC113967C9081812A
:1016F0004601FAEE8F1AFEEF9F0AD4018C93F8018F
:1017000072816381548145813681278190858185ED
:10171000C05CDE4F7883C054D140CF5BDE4F68831E
:10172000C154D140CE5BDE4F5883C254D140CD5B13
:10173000DE4F4883C354D140CC5BDE4F3883C45462
:10174000D140CB5BDE4F2883C554D140CA5BDE4F0E
:101750009883C654D140C95BDE4F8883C754D140BB
:1017600086E0FE01E05CFE4F119601900D928A9595
:10177000E1F7D80112962C91129713963C9113978A
:1017800014964C91149715965C91159716966C913A
:10179000169717967C91179718968C91189719960B
:1017A0009C91A1E00E947E19F80122833383448337
:1017B00055836683778380879187CA57DF4F188266
:1017C00019821A821B82C658D040C657DF4F188232
:1017D00019821A821B82CA58D04087E696EEA9E089
:1017E000BAE6C257DF4F88839983AA83BB83CE585A
:1017F000D04085E89EEAA7E6BBEBCE56DF4F888354
:101800009983AA83BB83C259D04082E793EFAEE6A7
:10181000BCE3CA56DF4F88839983AA83BB83C6592A
:10182000D0408AE395EFAFE4B5EAC656DF4F888330
:101830009983AA83BB83CA59D0408FE792E5AEE073
:10184000B1E5C256DF4F88839983AA83BB83CE5903
:10185000D0408CE898E6A5E0BBE9CE55DF4F888301
:101860009983AA83BB83C25AD0408BEA99EDA3E83F
:10187000BFE1CA55DF4F88839983AA83BB83C65AC9
:10188000D04089E19DECA0EEBBE5C655DF4F8883D3
:101890009983AA83BB83CA5AD040B801665F7F4F41
:1018A00020E230E040E050E0CE018A579F4F0E9496
:1018B000F304242D30E050E040E0BE016A5C7E4F2E
:1018C000CE018A579F4F0E94F304272D30E050E04D
:1018D00040E0B701CE018A579F4F0E94F304B70141
:1018E000670D711D22E030E040E050E0CE018A57E4
:1018F0009F4F0E94F30427E030E040E050E0B40145
:10190000CE018A579F4F0E94F304CA57DF4F888148
:101910009981AA81BB81C658D040AC01BD0123E0AA
:1019200076956795579547952A95D1F74F73552723
:1019300027E730E0241B350B2F733327BE0162519C
:101940007F4F40E8FB01419347E411924A95E9F744
:10195000EEEEF0E0EC0FFD1FE20FF31F80879783A0
:10196000A683B583C657DF4F5881CA58D040C557A4
:10197000DF4F4881CB58D040C457DF4F9881CC58B7
:10198000D040C357DF4F8881CD58D0405483438324
:1019900092838183275F3F4F50E040E0BE01625158
:1019A0007F4FCE018A579F4F0E94F304CF56DF4FDF
:1019B0008881C159D040F601E35EFE4F8083C05755
:1019C000DF4F8881C059D04031968083C157DF4FA7
:1019D0008881CF58D04031968083C257DF4F8881AD
:1019E000CE58D04031968083CB56DF4F8881C55981
:1019F000D04031968083CC56DF4F8881C459D04087
:101A000031968083D60113968C918A0D9B2D911D62
:101A10000296850D911DC75BDE4F0FB6F894DEBFB1
:101A20000FBECDBFDF91CF911F910F91FF90EF902F
:101A3000DF90CF90BF90AF909F908F907F906F90EE
:101A40005F904F900895EF92FF920F93CF93DF93A3
:101A5000CDB7DEB7CB53D2400FB6F894DEBF0FBE82
:101A6000CDBF7C01062F24E030E041E061E0CE01F3
:101A700001960E94250ABE016F5F7F4FCE018C5DEB
:101A80009E4F0E946B04AC01BE016C5D7E4F8BEBE0
:101A900094E10E949F01C55CDD4F0FB6F894DEBF54
:101AA0000FBECDBFDF91CF910F91FF90EF900895C2
:101AB0002F923F924F925F926F927F928F929F925E
:101AC000AF92BF92CF92DF92EF92FF920F931F934C
:101AD000CF93DF93CDB7DEB7C258D1090FB6F894D4
:101AE000DEBF0FBECDBF80915F1381117FC0C25892
:101AF000DF4F188219821A821B82CE57D040CE57F0
:101B0000DF4F1882C258D040F894609084007090E3
:101B10008500E0907813F090791380913B039091C9
:101B20003C037894870129EEE21623E0F20610F0D8
:101B300008EE13E023E0298320915D1330915E13BA
:101B40003B832A839D838C8365E0CE0101960E94AE
:101B5000230DE114F10409F45FC0C8014C966DE156
:101B600070E00E943F19362ED12CC12C412C37E059
:101B7000232E20915D1330915E13431408F04CC066
:101B8000C8018C199D098E31910510F08DE190E00E
:101B9000582E29823B832A834C823D828E831F826A
:101BA00018861986CE0101964C01B12CA12C94E027
:101BB000890E911CA51418F50E94D903C5018C0D3E
:101BC0009D1D880F991FFC01E35FF44F2081318137
:101BD000835C9C4FFC0180819181F40136832583D5
:101BE00090878783FFEFAF1ABF0AE1CFBE016E5720
:101BF0007F4FCE0182589F4F0E947E0385CF652D77
:101C0000660F660F675FCE0101960E94230D439415
:101C10002DE1C20ED11CADCF84E0898380915D138C
:101C200090915E139B838A83C258DF4F888199818C
:101C3000AA81BB81CE57D0408C839D83AE83BF8366
:101C4000CE57DF4F8881C258D04088877A86698610
:101C5000FC86EB861E870D876EE0CE0101960E9402
:101C6000230D85E0898380915D1390915E139B83A2
:101C70008A8310E000E00E94D903E4E0F0E0EC0F7A
:101C8000FD1FE00FF11FD801A352BD4E8D919C9115
:101C9000918380830E5F1F4F0034110561F765E467
:101CA000CE0101960E94230D86E0898380915D1309
:101CB00090915E139B838A8310E000E00E94D90319
:101CC000E4E0F0E0EC0FFD1FE00FF11FD801A35E90
:101CD000BC4E8D919C91918380830E5F1F4F003489
:101CE000110561F763E4CE0101960E94230D8091F6
:101CF0005D1390915E13019690935E1380935D1334
:101D0000CE57DF4F0FB6F894DEBF0FBECDBFDF91C9
:101D1000CF911F910F91FF90EF90DF90CF90BF90E8
:101D2000AF909F908F907F906F905F904F903F907B
:101D30002F900895EF92FF920F93CF93DF93CDB73B
:101D4000DEB7CB53D2400FB6F894DEBF0FBECDBF87
:101D50007C0104E124E030E040E060E0CE01019647
:101D60000E94250ABE016F5F7F4FCE018C5D9E4FA2
:101D70000E946B04AC01BE016C5D7E4F8BEB94E165
:101D80000E949F01C55CDD4F0FB6F894DEBF0FBE09
:101D9000CDBFDF91CF910F91FF90EF90089590917B
:101DA000B3139111FCCF91E09093B3139093B213BE
:101DB0002FEF2093B11326EB33E13093B013209330
:101DC000AF131092AE132FEF260F2093AD13909305
:101DD000AC139091AC13880F892B8093AC13809136
:101DE000AB138130E9F41092AB138091AC13809364
:101DF000BB008091BC0083FDF8CF85EC8093BC00D4
:101E00008091B3138130E1F38091AE13861710F403
:101E10006091AE131092B5136093B413862F08959A
:101E200085EEECCF2F923F924F925F926F927F920E
:101E30008F929F92AF92BF92CF92DF92EF92FF92DA
:101E40000F931F93CF93DF93CDB7DEB7A9970FB64C
:101E5000F894DEBF0FBECDBF9E012D5E3F4F38A769
:101E60002FA36E013FE1C30ED11C30E9A32EBB248A
:101E7000B39444E6842E912C8EE194E10E94FD01FE
:101E8000892B09F4CBC10E94D9038EE194E10E9411
:101E9000DB01843231F480937C0281E080937B0209
:101EA000EBCFE0917B029FEF9E0F923608F0B3C11B
:101EB000662463946E0E60927B02F0E0E458FD4F5E
:101EC00080838A30C9F6E62DF0E0E458FD4F108299
:101ED00047E050E066E372E08CE792E00E947F1CEE
:101EE000892B59F047E050E06EE372E08CE792E016
:101EF0000E947F1C892B09F08EC18CE0AFA1B8A590
:101F00001D928A95E9F788E0F60111928A95E9F722
:101F10000CE712E0512C712CE0E040E0D8018D91EB
:101F20008D0144244394440E8C3241F08D3031F0C5
:101F3000982F9F7D9A3011F0811117C04E1BB1E090
:101F40007B1281C0463060F04B3008F04AE050E030
:101F50006E2F70E064587D4FCE0143960E946F1C37
:101F60007394E42D39E0371518F0442D6414B0F65D
:101F700061E4561207C08B89882321F081E09F8D90
:101F8000911101C080E040907A0249A680937A02C4
:101F9000882309F440C18B8980539AE03C893053EF
:101FA000899F300D11248D8980534E894053899F1C
:101FB000400D11248F898053388C20ED522E350C22
:101FC000899F300C11248F8D805328A0250C899F68
:101FD000200C112489A180532AA12053899F200D10
:101FE00011245BA150538CA18053599F800D112463
:101FF000E82FF0E0863408F441C0E459F84F02EBD2
:1020000017E0412C512C3201C801837099270E171B
:102010001F07E1F1892B31F4C801B4010E943F1977
:10202000892B31F4C801B5010E943F19892B49F56C
:102030008EE691E0A0E0B0E0480E591E6A1E7B1EBD
:102040000F5F1F4FE1CFF2E07F1208C0442309F475
:1020500087CFF0E0E458FD4F508082CF29E0721224
:102060007FCF463008F47CCFF0E0E458FD4F86E0A7
:10207000D60101900D928A95E1F772CFE053F84FA7
:10208000BECF8DE691E0A0E0B0E0D6CF5CE0E6E028
:10209000F1E0DE01119601900D925A95E1F7892B3E
:1020A00031F4C801B4010E943F19892B31F4C801F1
:1020B000B5010E943F19892BE1F49DE180E0622F78
:1020C0006150770BFB01682F70E06E177F0798F463
:1020D000292F813041F0A1E0B0E0AC0FBD1F6A0FA5
:1020E0007B1FDB012C91420E511C611C711C8F5F08
:1020F000EACF9CE1E3CFE0915F13F894232F30E027
:10210000A0E1BEE00E9420197B018C01242F30E069
:10211000ACE3B0E00E9420196E0D7F1D801F911F5F
:102120007B018C01E30CF11C011D111D222D21509E
:10213000330BC901A3019201280F391F411D511D05
:1021400060E871E581E090E00E942F196E0D7F1D1F
:10215000801F911F6093E0027093E1028093E2027E
:102160009093E3028091641390916513A09166139C
:10217000B09167138093601390936113A0936213DF
:10218000B093631381E080935F137894EE2319F08A
:1021900049A4411040C0F894009164131091651354
:1021A00020916613309167138091E0029091E102D3
:1021B000A091E202B091E30240916013509161134B
:1021C0006091621370916313789428013901441A65
:1021D000550A660A770AB301A201E2E0E983E091B9
:1021E0005F13EA830B831C832D833E838F83988741
:1021F000A987BA87840F951FA61FB71F8B879C8757
:10220000AD87BE874F87588B698B7A8B62E1CE0191
:1022100001960E94230D10927B022ECEA9960FB636
:10222000F894DEBF0FBECDBFDF91CF911F910F910C
:10223000FF90EF90DF90CF90BF90AF909F908F90E6
:102240007F906F905F904F903F902F900895CF9226
:10225000DF92EF92FF920F931F93CF93DF93CDB74F
:10226000DEB766970FB6F894DEBF0FBECDBF809184
:102270005F13811131C01A8A1B8A1C8A1D8A1E8A2B
:1022800081E08093871385E48093A91310928813CB
:102290001092AA1364E288E595E10E94470360E08A
:1022A00088E595E10E9447030E94AE00811194C029
:1022B0000E9493016B017C010E9493016C197D09BE
:1022C0008E099F096F3071058105910568F40E94A0
:1022D000D9030E94120FF0CFBE016A5E7F4FCE017C
:1022E00042960E947E03CCCF66E085E40E94CF0E2A
:1022F0008091B4139091B513891B990B06970CF438
:102300006BC088E595E10E940003182F88E595E1F0
:102310000E940003E12CF12EE82AF92A88E595E1D4
:102320000E94000388E595E10E940003182F88E5CC
:1023300095E10E94000360E0712F8B01082B192B9F
:1023400088E595E10E94000388E0898380915D1310
:1023500090915E139B838A838A899B89AC89BD890E
:102360008C839D83AE83BF838E8988871986B7014E
:1023700090E080E00E941A1820E03FEF4FE757E41A
:102380000E94F71920E030E04FE253E40E94571812
:1023900020E030E044E352E40E948A196A877B8798
:1023A0008C879D87B80190E080E00E941A1820E099
:1023B0003FEF4FE757E40E94F71920E030E048EC88
:1023C00052E40E9457186E877F87888B998B61E152
:1023D000CE0101960E94230D66960FB6F894DEBFDB
:1023E0000FBECDBFDF91CF911F910F91FF90EF9066
:1023F000DF90CF9008951F920F920FB60F92112485
:102400002F933F938F939F93AF93BF9380918313A9
:1024100090918413A0918513B0918613309182130B
:1024200026E0230F2D3768F129E8230F0396A11D1D
:10243000B11D209382138093831390938413A093F0
:102440008513B093861380917E1390917F13A09192
:102450008013B09181130196A11DB11D80937E134D
:1024600090937F13A0938013B0938113BF91AF918A
:102470009F918F913F912F910F900FBE0F901F90C2
:1024800018950296A11DB11DD4CF1F920F920FB6C1
:102490000F9211240BB60F922F933F934F935F939C
:1024A0006F937F938F939F93AF93BF93EF93FF931C
:1024B0008EE194E10E941D02FF91EF91BF91AF91D7
:1024C0009F918F917F916F915F914F913F912F914C
:1024D0000F900BBE0F900FBE0F901F9018951F927C
:1024E0000F920FB60F9211240BB60F922F938F936A
:1024F0009F93EF93FF93E0912E14F0912F1480811E
:10250000E0913414F091351482FD1DC090818091CA
:1025100037148F5F8F7320913814821741F0E09148
:102520003714F0E0E25EFB4E958F80933714FF91F5
:10253000EF919F918F912F910F900BBE0F900FBE37
:102540000F901F9018958081F2CF1F920F920FB6B7
:102550000F9211240BB60F922F933F934F935F93DB
:102560006F937F938F939F93AF93BF93EF93FF935B
:102570008BEB94E10E941D02FF91EF91BF91AF910F
:102580009F918F917F916F915F914F913F912F918B
:102590000F900BBE0F900FBE0F901F9018951F92BB
:1025A0000F920FB60F9211240BB60F922F938F93A9
:1025B0009F93EF93FF93E091CB14F091CC14808123
:1025C000E091D114F091D21482FD1DC090818091D0
:1025D000D4148F5F8F732091D514821741F0E0914E
:1025E000D414F0E0E554FB4E958F8093D414FF9102
:1025F000EF919F918F912F910F900BBE0F900FBE77
:102600000F901F9018958081F2CF1F920F920FB6F6
:102610000F9211240BB60F922F933F934F935F931A
:102620006F937F938F939F93AF93BF93EF93FF939A
:102630008091B900887F803609F44DC008F040C011
:10264000883209F4A7C028F5803109F49BC0C8F48A
:10265000882309F403C1883009F494C0FF91EF91F5
:10266000BF91AF919F918F917F916F915F914F91AA
:102670003F912F910F900BBE0F900FBE0F901F90A8
:102680001895883109F486C0803241F78093B113E0
:1026900014C0803409F4A3C040F48033B9F3883304
:1026A000E9F68093B11385ECBAC0803509F487C090
:1026B000883509F49CC0883489F60E94BF02CECFC9
:1026C000883909F492C038F5883729F050F48836F3
:1026D00011F0803719F683E08093B313109228032A
:1026E00055C0883809F481C0803919F0803809F064
:1026F000B5CF80912803803208F077C0E09128039D
:1027000081E08E0F809328038091BB00F0E0E85FAA
:10271000FC4F80833BC0803B39F0D0F4803A09F411
:1027200083C0883A09F09ACF84E08093B313109263
:10273000070310920603F0E0E0E00995809106039C
:1027400081110FC081E0809306031092E60209C058
:10275000803C09F4A8CF883C09F4A5CF883B09F058
:102760007DCFE091070381E08E0F80930703F0E0B7
:10277000EA51FD4F80818093BB00909107038091C7
:10278000060331C08091AC138093BB0085EC80932D
:10279000BC0064CF9091AE138091AD139817B8F53B
:1027A0008091AF139091B013E091AE1321E02E0F02
:1027B0002093AE13E80FF92FF11D8081E5CF209112
:1027C000AF133091B013E091AE1381E08E0F809380
:1027D000AE138091BB00E20FF32FF11D8083909127
:1027E000AE138091AD13981788F285E8D0CF209171
:1027F000AF133091B013E091AE1381E08E0F809350
:10280000AE138091BB00E20FF32FF11D8083809106
:10281000B213811152CF81E08093AB1384EA80938D
:10282000BC001092B3131ACF85EC8093BC001092B9
:10283000B31380912803803230F4E0912803F0E054
:10284000E85FFC4F10826091280370E088E093E01D
:10285000F0E0E0E009951092280300CF1092B11348
:102860002CCF1F920F920FB60F9211248F939F932C
:10287000AF93BF934C9B25C08091840090918500BD
:102880009093E5028093E402809164139091651324
:10289000A0916613B09167130196A11DB11D80939D
:1028A000641390936513A0936613B0936713479ACC
:1028B000BF91AF919F918F910F900FBE0F901F907E
:1028C00018954798F5CF109221141092201488EE95
:1028D00093E0A0E0B0E08093221490932314A0939F
:1028E0002414B093251426E132E030931F14209372
:1028F0001E144DEC50E050932B1440932A144CECD2
:1029000050E050932D1440932C1448EC50E0509319
:102910002F1440932E1449EC50E0509331144093FF
:1029200030144AEC50E050933314409332144EEC80
:1029300050E0509335144093341410923714109291
:1029400038141092391410923A141092BE14109246
:10295000BD148093BF149093C014A093C114B0937E
:10296000C2143093BC142093BB1425EC30E0309398
:10297000C8142093C71424EC30E03093CA14209379
:10298000C91420EC30E03093CC142093CB1421EC0C
:1029900030E03093CE142093CD1422EC30E030930D
:1029A000D0142093CF1426EC30E03093D21420932F
:1029B000D1141092D4141092D5141092D6141092EF
:1029C000D71410925B1510925A1580935C15909352
:1029D0005D15A0935E15B0935F1588E292E0909329
:1029E0005915809358151092651510926415109220
:1029F00067151092661510926915109268156EE2AF
:102A000070E090E080E00E948E1B009701F19093AF
:102A10006515809364152DE230E03093671520939F
:102A200066152091681530916915232B11F4FC016E
:102A300010828DE290E0909369158093681566E4AA
:102A400072E080916415909165150C94781C8091CA
:102A5000641590916515009711F00E94051B109266
:102A600065151092641510926915109268151092F0
:102A70006715109266150895CF93DF93CDB7DEB733
:102A8000A1970FB6F894DEBF0FBECDBF789484B582
:102A9000836084BD85B5836085BD80916E00816053
:102AA00080936E0082E0809381009091810091601C
:102AB000909381009091800091609093800090911C
:102AC000B10094609093B1009091B00091609093A8
:102AD000B00090919100936090939100909190003C
:102AE00091609093900096E890937A001092C100C4
:102AF000E091CB14F091CC148083E091C714F09155
:102B0000C8141082E091C914F091CA1498E090831F
:102B10001092D314E091CF14F091D01426E02083CA
:102B2000E091CD14F091CE14908198699083E0915A
:102B3000CD14F091CE1490819F7D9083E0912E145E
:102B4000F0912F148083E0912A14F0912B141082BD
:102B5000E0912C14F0912D1489E1808310923614A9
:102B6000E0913214F09133142083E0913014F0910D
:102B70003114808188698083E0913014F0913114A0
:102B800080818F7D808380E28093B8001FB7F894A6
:102B900080912903811127C0E4EAF0E08491E4ECFC
:102BA000F0E09491E82FF0E0EE0FFF1FE457FF4FA5
:102BB000A591B491EC91E92321F461E084E00E94B5
:102BC000060161E084E00E9462018CB580618CBDE9
:102BD0008CB580648CBD61E087E00E94620161E099
:102BE00085E00E946201809129038F5F8093290311
:102BF0001FBF81E58CBD1DBC1092800085E08093D5
:102C00008100109285001092840060E080E00E94B4
:102C1000620160E08CE00E94620161E082E10E945A
:102C2000620161E08FE00E94620161E085E10E9443
:102C3000620161E086E10E94620161E087E10E9439
:102C4000620161E08FE00E94060161E082E10E9482
:102C5000060180916800886080936800809173000D
:102C600080618093730081E0809387138BE580936C
:102C7000A913109288131092AA1388E090E00E9482
:102C8000760390E080E00E9476030E94AE0060E14F
:102C90008BE50E94CF0E0BE213E088E595E10E94E0
:102CA0000003D8018D938D01B3E00B331B07A9F707
:102CB00011E01093871383E58093A9131092881372
:102CC0001092AA1390E080E00E94760390E080E0EA
:102CD0000E9476030E94AE0062E083E50E94CF0E60
:102CE00088E595E10E940003082F80932A0388E578
:102CF00095E10E940003FE01799695E0DF011D92A7
:102D00009A95E9F7198390E49A8328EE33E03C839F
:102D10002B8390E1EBE2F3E0DE01159601900D923A
:102D20009A95E1F70D8B8E8B1F8B83E0888F6DE179
:102D3000CE0101960E94230D0E94271160E085E1DB
:102D40000E94060160E086E10E94060160E087E1E2
:102D50000E940601EDEDF2E180E8DF011D928A9507
:102D6000E9F780ED97E0EDE0FBE0DF019C011D92CB
:102D700021503040E1F7EDE3F3E0DF019C011D92CB
:102D800021503040E1F710927913109278130E948D
:102D9000930160937A1370937B1380937C139093C9
:102DA0007D130E9493016093741370937513809345
:102DB0007613909377130E9493016093701370932E
:102DC0007113809372139093731380918400909188
:102DD000850090933C0380933B0300E880ED282E10
:102DE00087E0382E19E00E94D9030E94120F0E943A
:102DF00093016B017C0180917A1390917B13A091D8
:102E00007C13B0917D13A7019601281B390B4A0B47
:102E10005B0BDA01C90180319742A105B10540F48D
:102E20008091781390917913883E934008F44BC0B9
:102E3000C0927A13D0927B13E0927C13F0927D13B0
:102E400061E086E10E9406010E94580DADEDB2E1FD
:102E5000E02F1D92EA95E9F7ADE0BBE0F1011D928C
:102E60003197E9F7ADE3B3E0F1011D923197E9F74E
:102E700010927913109278138091840090918500BC
:102E800090933C0380933B0361E08FE00E94060136
:102E900060E082E10E9406010CB405FCB2C01EBCD9
:102EA00000000DB407FEFDCF8EB51EBC00000DB4B2
:102EB00007FEFDCF8EB561E082E10E94060160E071
:102EC00086E10E9406018091741390917513A09180
:102ED0007613B0917713A7019601281B390B4A0B83
:102EE0005B0BDA01C90180339547A105B10550F0AC
:102EF000C0927413D0927513E0927613F092771308
:102F00000E9427118091701390917113A0917213F8
:102F1000B0917313A7019601281B390B4A0B5B0B69
:102F2000DA01C90180369A4EA105B10508F466C0E0
:102F3000C0927013D0927113E0927213F0927313D7
:102F4000F89480906C1390906D13A0906E13B090D5
:102F50006F138091681390916913A0916A13B091D7
:102F60006B138E8F9F8FA8A3B9A310926813109232
:102F7000691310926A1310926B13C0906413D0906F
:102F80006513E0906613F0906713409060135090C3
:102F90006113609062137090631378940E949301A0
:102FA00028EE33E040E050E00E94531980915F1317
:102FB000882399F1C418D508E608F70819832A83ED
:102FC0003B834C835D8320915D1330915E133F837F
:102FD0002E8388869986AA86BB862E8D3F8D48A132
:102FE00059A12C873D874E875F87888BC98ADA8AEB
:102FF000EB8AFC8ACE0101960E949A0E0E94AC02D6
:10300000F2CE1EBC00000DB407FEFDCF8EB51EBC77
:1030100000000DB407FEFDCF4DCFC12CD12C7601A1
:10302000CDCF8091641590916515009711F00C94A7
:10303000051B0895E89409C097FB3EF49095809590
:10304000709561957F4F8F4F9F4F9923A9F0F92F6E
:1030500096E9BB279395F695879577956795B795EC
:10306000F111F8CFFAF4BB0F11F460FF1BC06F5FD2
:103070007F4F8F4F9F4F16C0882311F096E911C0E4
:10308000772321F09EE8872F762F05C0662371F005
:1030900096E8862F70E060E02AF09A95660F771F19
:1030A000881FDAF7880F9695879597F908950E94FB
:1030B0006A180C94DB180E94CD1838F00E94D418BE
:1030C00020F0952311F00C94C4180C94CA18112404
:1030D0000C940F190E94EC1870F3959FC1F3950F93
:1030E00050E0551F629FF001729FBB27F00DB11D8C
:1030F000639FAA27F00DB11DAA1F649F6627B00D1C
:10310000A11D661F829F2227B00DA11D621F739F04
:10311000B00DA11D621F839FA00D611D221F749F12
:103120003327A00D611D231F849F600D211D822F59
:10313000762F6A2F11249F5750409AF0F1F0882380
:103140004AF0EE0FFF1FBB1F661F771F881F9150AD
:103150005040A9F79E3F510580F00C94C4180C9480
:103160000F195F3FE4F3983ED4F386957795679502
:10317000B795F795E7959F5FC1F7FE2B880F911DD7
:103180009695879597F9089597F99F6780E870E07D
:1031900060E008959FEF80EC089500240A941616CD
:1031A000170618060906089500240A941216130635
:1031B000140605060895092E0394000C11F48823C3
:1031C00052F0BB0F40F4BF2B11F460FF04C06F5FDF
:1031D0007F4F8F4F9F4F089557FD9058440F551FB5
:1031E00059F05F3F71F04795880F97FB991F61F089
:1031F0009F3F79F087950895121613061406551F00
:10320000F2CF4695F1DF08C0161617061806991F6B
:10321000F1CF86957105610508940895E894BB2760
:1032200066277727CB0197F908950E942019A59F5B
:10323000900DB49F900DA49F800D911D11240895B1
:10324000A29FB001B39FC001A39F700D811D1124E7
:10325000911DB29F700D811D1124911D0895DB01F8
:103260008F939F930E941519BF91AF91A29F800DDC
:10327000911DA39F900DB29F900D11240895AA1B3C
:10328000BB1B51E107C0AA1FBB1FA617B70710F051
:10329000A61BB70B881F991F5A95A9F78095909583
:1032A000BC01CD010895A1E21A2EAA1BBB1BFD0192
:1032B0000DC0AA1FBB1FEE1FFF1FA217B307E40715
:1032C000F50720F0A21BB30BE40BF50B661F771F6D
:1032D000881F991F1A9469F760957095809590954D
:1032E0009B01AC01BD01CF010895EE0FFF1F00242B
:1032F000001C0BBE0790F691E02D09940024A7FD59
:1033000000942A0F301D401D501D601D701D801D32
:10331000901D08955058BB27AA270E94A2190C940B
:10332000DB180E94CD1838F00E94D41820F039F430
:103330009F3F19F426F40C94CA180EF4E095E7FBAD
:103340000C94C418E92F0E94EC1858F3BA176207BE
:1033500073078407950720F079F4A6F50C940E19ED
:103360000EF4E0950B2EBA2FA02D0B01B9019001A0
:103370000C01CA01A0011124FF27591B99F0593FE4
:1033800050F4503E68F11A16F040A22F232F342F2C
:103390004427585FF3CF469537952795A795F0407A
:1033A0005395C9F77EF41F16BA0B620B730B840B8F
:1033B000BAF09150A1F0FF0FBB1F661F771F881F47
:1033C000C2F70EC0BA0F621F731F841F48F487959F
:1033D00077956795B795F7959E3F08F0B0CF939591
:1033E000880F08F09927EE0F9795879508950E940A
:1033F0000B1A0C94DB180E94D41858F00E94CD18B8
:1034000040F029F45F3F29F00C94C41851110C943A
:103410000F190C94CA180E94EC1868F39923B1F3A1
:10342000552391F3951B550BBB27AA2762177307EA
:10343000840738F09F5F5F4F220F331F441FAA1F7E
:10344000A9F335D00E2E3AF0E0E832D0915050403A
:10345000E695001CCAF72BD0FE2F29D0660F771FE8
:10346000881FBB1F261737074807AB07B0E809F0CE
:10347000BB0B802DBF01FF2793585F4F3AF09E3F53
:10348000510578F00C94C4180C940F195F3FE4F3C5
:10349000983ED4F3869577956795B795F7959F5F96
:1034A000C9F7880F911D9695879597F90895E1E0E2
:1034B000660F771F881FBB1F621773078407BA0741
:1034C00020F0621B730B840BBA0BEE1F88F7E0959C
:1034D00008950F931F93CF93DF938230910510F4DB
:1034E00082E090E0E0916C15F0916D1530E020E005
:1034F000B0E0A0E0309799F42115310509F44AC0F5
:10350000281B390B24303105D8F58A819B81611540
:10351000710589F1FB0193838283FE0111C0408113
:1035200051810281138148175907E0F04817590764
:1035300099F4109761F012960C93129713961C93BE
:103540003296CF01DF91CF911F910F910895009393
:103550006C1510936D15F4CF2115310551F04217FC
:10356000530738F0A901DB019A01BD01DF01F80121
:10357000C1CFEF01F9CF90936D1580936C15CDCF2E
:10358000FE01E20FF31F8193919322503109398399
:103590002883D7CF20916A1530916B15232B41F4E6
:1035A000209102013091030130936B1520936A152D
:1035B00020910001309101012115310541F42DB711
:1035C0003EB74091040150910501241B350BE09159
:1035D0006A15F0916B15E217F307A0F42E1B3F0B51
:1035E0002817390778F0AC014E5F5F4F2417350775
:1035F00048F04E0F5F1F50936B1540936A158193EF
:1036000091939FCFF0E0E0E09CCFCF93DF930097C2
:10361000E9F0FC01329713821282A0916C15B091EF
:103620006D15ED0130E020E01097A1F4208131818B
:10363000820F931F20916A1530916B152817390757
:1036400009F061C0F0936B15E0936A15DF91CF919B
:103650000895EA01CE17DF07E8F54A815B819E01F4
:1036600041155105B1F7E901FB83EA83499159916D
:10367000C40FD51FEC17FD0761F48081918102967C
:10368000840F951FE90199838883828193819B83AD
:103690008A83F0E0E0E012968D919C911397009759
:1036A000B9F52D913C911197CD010296820F931F90
:1036B00020916A1530916B152817390739F6309724
:1036C00051F510926D1510926C15B0936B15A09377
:1036D0006A15BCCFD383C28340815181840F951F6B
:1036E000C817D90761F44E5F5F4F88819981480FF1
:1036F000591F518340838A819B8193838283211543
:10370000310509F0B0CFF0936D15E0936C159ECFA5
:10371000FD01DC01C0CF13821282D7CF4F925F929E
:103720006F927F928F929F92AF92BF92CF92DF92D1
:10373000EF92FF920F931F93CF93DF938C0100972B
:1037400099F4CB01DF91CF911F910F91FF90EF90F2
:10375000DF90CF90BF90AF909F908F907F906F90B1
:103760005F904F900C94691AFC01E60FF71F9C01C3
:1037700022503109E217F30708F4AEC0D901CD9108
:10378000DC911197C617D70720F1C530D10578F025
:10379000CE0104978617970750F0C61BD70B2297C8
:1037A000C193D1936D937C93CF010E94051BC801F7
:1037B000DF91CF911F910F91FF90EF90DF90CF900D
:1037C000BF90AF909F908F907F906F905F904F9041
:1037D00008955B01AC1ABD0A4C018C0E9D1EA09190
:1037E0006C15B0916D15512C412CF12CE12C1097DA
:1037F00031F580916A1590916B158815990509F03E
:103800005CC04616570608F058C0809100019091A0
:103810000101009741F48DB79EB74091040150918A
:103820000501841B950BE817F90708F055C0F093C4
:103830006B15E0936A15F90171836083B8CF8D91A0
:103840009C91119712966C90129713967C901397F7
:10385000A815B90559F56C0142E0C40ED11CCA1473
:10386000DB0420F1AC014A195B09DA0112961597C5
:1038700080F06282738251834083D9016D937C937F
:10388000E114F10471F0D7011396FC93EE931297B3
:103890008ECF22968C0F9D1FF90191838083F301B7
:1038A000EFCFF0936D15E0936C1581CF4816590654
:1038B00008F42C017D01D3019ACFCB010E94691A33
:1038C0007C01009749F0AE01B8010E946F1CC8014D
:1038D0000E94051B87016BCF10E000E068CFFB0161
:1038E000DC0102C001900D9241505040D8F708957C
:1038F000FB01DC0101900D920020E1F70895FB012E
:10390000DC014150504030F08D910190801919F444
:103910000020B9F7881B990B089510E0C1E8D0E0AA
:1039200004C0FE010E9475192196C238D107C9F75B
:04393000F894FFCF39
:1039340000006E1580001F1C1F1E1F1E1F1F1E1F50
:103944001E1F982F8A4291443771CFFBC0B5A5DB67
:10395400B5E95BC25639F111F159A4823F92D55EA3
:103964001CAB98AA07D8015B8312BE853124C37DA2
:103974000C55745DBE72FEB1DE80A706DC9B74F14B
:103984009BC1C1699BE48647BEEFC69DC10FCCA114
:103994000C246F2CE92DAA84744ADCA9B05CDA8863
:1039A400F97652513E986DC631A8C82703B0C77F37
:1039B40059BFF30BE0C64791A7D55163CA066729DF
:1039C4002914850AB72738211B2EFC6D2C4D130DA5
:1039D400385354730A65BB0A6A762EC9C281852C92
:1039E4007292A1E8BFA24B661AA8708B4BC2A35176
:1039F4006CC719E892D1240699D685350EF470A0C7
:103A04006A1016C1A419086C371E4C774827B5BC38
:103A1400B034B30C1C394AAAD84E4FCA9C5BF36F1E
:103A24002E68EE828F746F63A5781478C8840802B8
:103A3400C78CFAFFBE90EB6C50A4F7A3F9BEF278E2
:103A440071C6000000003F029F01CC018C02FD0101
:103A5400DB01EF010000000047031A037B03F002BF
:103A640013030003F102244750524D432C00244712
:103A74004E524D432C006331363166396232303850
:103A8400356665396162386563326635633162383B
:103A940039323430303834386332323263392C427C
:043AA40065746100E4
:00000001FF
