:100000000C9482000C94AC000C94AC000C94AC00EA
:100010000C94AC000C9460110C94AC000C94CE11B8
:100020000C94AC000C94AC000C94AC000C94AC00A0
:100030000C94AC000C94AC000C94AC000C94AC0090
:100040000C94AC000C94AC000C942A0F0C94AC00F3
:100050000C94FE0F0C94D40F0C94AC000C94AC00D8
:100060000C94AC000C94AC000C9434100C94AC00C8
:100070000C949E0F0C94740F0C94AC000C94AC0078
:100080000C94AC000C94AC000C94AC00000021006B
:10009000240027002A0000002200250028002B0051
:1000A0000202020202020202040404040404040420
:1000B0000303030303030303010101010101010120
:1000C0000102040810204080010204081020408032
:1000D0000102040810204080010204081020408022
:1000E0000000000203000A0B0000000005040908DC
:1000F0000000000000000000000000000000000000
:100100000012221711241FBECFEFD0E4DEBFCDBFF7
:100110002AE0A8E7B2E001C01D92A637B207E1F7D6
:1001200012E0A0E0B1E0E6E5F7E300E00BBF02C0BB
:1001300007900D92A837B107D9F710E0C1E8D0E0D9
:1001400004C02197FE010E948618C038D107C9F764
:100150000E94D9120C949E1B0C9400009091B2083E
:1001600081E0913208F043C08091BB088111FCCF3F
:100170008091B10822E02093BB0821E02093BA08C7
:100180002FEF2093B90821E938E03093B808209385
:10019000B7081092B6089093B5081092B4089091E1
:1001A000B408880F892B8093B4088091B3088130FC
:1001B00029F51092B3088091B4088093BB00809118
:1001C000BC0083FDF8CF85EC8093BC008091BB0818
:1001D0008230E1F38091B9088F3F91F08091B908A6
:1001E000803281F08091B908803371F084E0109200
:1001F00090081092B20810928F08089585EEE4CF0F
:1002000080E0F5CF82E0F3CF83E0F1CF90E0FC0116
:10021000E052FF4F2491FC01E054FF4F349180568F
:100220009F4FFC018491882359F12223C1F0225071
:100230002A30A8F4E22FF0E0E05EFE4F0C9486181E
:1002400059015D012A0141012F012F0145014B0197
:100250004F015501909180009F7790938000E82F87
:10026000F0E0EE0FFF1FEA56FF4FA591B4918FB754
:10027000F894EC91611124C030953E233C938FBFDC
:100280000895909180009F7DE8CF9091B0009F7776
:100290009093B000E4CF9091B0009F7DF9CF909102
:1002A00090009F7790939000DACF909190009F7D7F
:1002B000F9CF94B59F7794BDD2CF94B59F7DFBCFF6
:1002C0003E2BDCCFCF93DF9390E0FC01E054FF4F57
:1002D000249180569F4FFC0184918823D1F090E0B7
:1002E000880F991FFC01E457FF4FA591B491FC01C1
:1002F000EA56FF4FC591D49161110EC09FB7F89493
:100300008C91E22FE0958E238C932881E223E88361
:100310009FBFDF91CF9108958FB7F894EC91E22BB6
:10032000EC938FBFF6CF3FB7F89480918B089091F4
:100330008C08A0918D08B0918E0826B5A89B05C0A9
:100340002F3F19F00196A11DB11D3FBFBA2FA92F54
:10035000982F8827BC01CD01620F711D811D911D51
:1003600043E0660F771F881F991F4A95D1F70895BC
:10037000AF92BF92CF92DF92EF92FF920F931F93B3
:10038000CF93DF936C017B018B01040F151FEB01F1
:100390005E01AE18BF08C017D10759F06991D601A8
:1003A000ED91FC910190F081E02DC6010995892B1A
:1003B00079F7C501DF91CF911F910F91FF90EF90D9
:1003C000DF90CF90BF90AF900895FC01538D448D86
:1003D000252F30E0842F90E0821B930B541710F0F0
:1003E000CF96089501970895FC01918D828D9817FD
:1003F00061F0A28DAE0FBF2FB11D5D968C91928DD5
:100400009F5F9F73928F90E008958FEF9FEF089505
:10041000FC01918D828D981731F0828DE80FF11DCE
:10042000858D90E008958FEF9FEF0895FC01918DE9
:10043000228D892F90E0805C9F4F821B91098F73E2
:100440009927089586E299E00E94160221E0892BFF
:1004500009F420E0822F089583EC99E00E941602AF
:1004600021E0892B09F420E0822F0895FC01A48D5E
:10047000A80FB92FB11DA35ABF4F2C91848D90E0C6
:1004800001968F739927848FA689B7892C93A089A9
:10049000B1898C91837080648C93938D848D981333
:1004A00006C00288F389E02D80818F7D80830895C6
:1004B000EF92FF920F931F93CF93DF93EC0181E0B4
:1004C000888F9B8D8C8D98131AC0E889F98980815B
:1004D00085FF15C09FB7F894EE89FF896083E8898E
:1004E000F98980818370806480839FBF81E090E080
:1004F000DF91CF911F910F91FF90EF900895F62E0D
:100500000B8D10E00F5F1F4F0F731127E02E8C8DA6
:100510008E110CC00FB607FCFACFE889F9898081EB
:1005200085FFF5CFCE010E943602F1CFEB8DEC0FA7
:10053000FD2FF11DE35AFF4FF0829FB7F8940B8F08
:10054000EA89FB8980818062CFCFCF93DF93EC0172
:10055000888D8823B9F0AA89BB89E889F9898C91AB
:1005600085FD03C0808186FD0DC00FB607FCF7CF67
:100570008C9185FFF2CF808185FFEDCFCE010E9467
:100580003602E9CFDF91CF91089580E090E0892B8A
:1005900029F00E942C0281110E94000080E090E06E
:1005A000892B29F00E94220281110C9400000895E9
:1005B00085ED8093BC008091BC0084FDFCCF10923F
:1005C000BB0808952091A202260F3327331F213242
:1005D0003105ECF42091BB08FC0190E080E0243070
:1005E00069F082E00895A091A2022191AC014E57DA
:1005F0005D4FA40FB52FB11D2C930196861798F36C
:100600008091A202680F6093A20280E0089581E0C9
:1006100008950895E091BD088091BC08E81730F472
:10062000F0E0E254F74F808190E008958FEF9FEF64
:1006300008959091BD088091BC082FEF3FEF981767
:1006400048F4E92FF0E0E254F74F208130E09F5F5B
:100650009093BD08C90108958091BC089091BD0890
:10066000891B990B0895CF92DF92EF92FF920F931F
:100670001F93CF93DF937C01CB018A0120918F08D8
:10068000222389F0EB016B01C40ED51ECC15DD05CC
:1006900069F06991D701ED91FC910190F081E02D15
:1006A000C7010995F3CF642F0E94E202C801DF91D0
:1006B000CF911F910F91FF90EF90DF90CF90089511
:1006C000CF93DF931F92CDB7DEB7698320918F0858
:1006D0002223F9F02091B208203258F021E030E0D6
:1006E000FC013383228390E080E00F90DF91CF9173
:1006F000089580919008E82FF0E0EF56F74F998128
:1007000090838F5F809390088093B20881E090E09F
:10071000ECCF61E0CE0101960E94E202F7CF682F94
:1007200080E69AE00C94600390E080E00895CF9218
:10073000DF92EF92FF920F931F93CF93DF938C0181
:10074000EB01F894C090DB02D090DC02E090DD0277
:10075000F090DE02609184007091850080918002AB
:10076000909181027894681B790B90E080E027E0FB
:10077000660F771F881F991F2A95D1F720E137E26E
:1007800040E050E00E946418243648F528838091A8
:10079000DF029091E002A091E102B091E2028C0DA3
:1007A0009D1DAE1DBF1D4091D7025091D802609192
:1007B000D9027091DA026C017D01C41AD50AE60AE9
:1007C000F70AF801C082D182E282F382DF91CF91F1
:1007D0001F910F91FF90EF90DF90CF90089583E6E7
:1007E0008883D5CFFB019081892790E1899F900173
:1007F0001124822790E0382F2227AC0163E0440FB8
:10080000551F6A95E1F724273527418150E02427B9
:10081000352774E0959587957A95E1F78227932798
:100820009183808308952F923F924F925F926F92AF
:100830007F928F929F92AF92BF92CF92DF92EF9270
:10084000FF920F931F93CF93DF93CDB7DEB7CA58B4
:10085000D1400FB6F894DEBF0FBECDBF1C01CF59FB
:10086000DE4F79836883C156D140C95BDE4F288350
:1008700039834A835B83C754D140DC01CD90DD903E
:10088000ED90FC90DA01C90113E0880F991FAA1FAF
:10089000BB1F1A95D1F78C0D9D1DAE1DBF1DF1011B
:1008A00080839183A283B3838C159D05AE05BF051C
:1008B00058F484819581A681B7810196A11DB11D4F
:1008C00084839583A683B783A3E0F694E794D794B3
:1008D000C794AA95D1F7FFE3CF22DD24EE24FF24AD
:1008E0008101085D1F4FC957DE4F19830883C75820
:1008F000D1408E010F5B1E4FCF5BDE4F1983088303
:10090000C154D140C95BDE4F488059806A807B80EA
:10091000C754D140411451046104710409F49BC4CB
:1009200080E490E0A0E0B0E08C199D09AE09BF0919
:100930005301420184159505A605B70510F44C0135
:100940005D01C957DE4F88819981C758D1408C0D10
:100950009D1DA401CF59DE4F68817981C156D140D8
:100960000E94801BC80CD91CEA1CFB1CCF59DE4F0F
:1009700068807980C156D140680C791CCF59DE4F10
:1009800079826882C156D140C95BDE4F4880598068
:100990006A807B80C754D140481859086A087B0890
:1009A000C95BDE4F488259826A827B82C754D1403C
:1009B00000E4C016D104E104F10409F0A3CFC95743
:1009C000DE4F88819981C758D1408E010F5F1E4F3D
:1009D000F801DC0113962C911397208312962C9129
:1009E0001297218311962C91119722832C912383A6
:1009F00004963496CF5BDE4F48805980C154D14075
:100A00004E165F0631F7D1011896CD90DD90ED902E
:100A1000FC901B97CD59DE4FC882D982EA82FB82B7
:100A2000C356D1401C964D905D906D907C901F9761
:100A3000C959DE4F488259826A827B82C756D140AB
:100A400050964D905D906D907C905397C559DE4FB8
:100A5000488259826A827B82CB56D14054964D900F
:100A60005D906D907C905797C159DE4F48825982B6
:100A70006A827B82CF56D14058964D905D906D90A2
:100A80007C905B97CD58DE4F488259826A827B8288
:100A9000C357D1405C964D905D906D907C905F9770
:100AA000C958DE4F488259826A827B82C757D1403B
:100AB00090964D905D906D907C909397C558DE4FC9
:100AC000488259826A827B82CB57D14094964D905E
:100AD0005D906D907C909797C158DE4F4882598207
:100AE0006A827B82CF57D1409E012F5F3F4FCD5A04
:100AF000DE4F39832883C355D140C901D8014D91B8
:100B00005D916D917D918D01DC014D935D936D93B0
:100B10007D93CD01E017F10789F7CD5ADE4F48806C
:100B20005980C355D140B0EC4B0E511CCD5ADE4F0D
:100B300068807980C355D140CD5BDE4F7982688271
:100B4000C354D140F30180AD91ADA2ADB3AD0481EA
:100B5000158126813781F4E06F0E711C6C017D01D7
:100B60004FE0CC0CDD1CEE1CFF1C4A95D1F7AC010C
:100B7000BD01E1E17695679557954795EA95D1F7DF
:100B8000C42AD52AE62AF72AAC01BD01FDE0440FAC
:100B9000551F661F771FFA95D1F74C015D01E3E100
:100BA000B694A79497948794EA95D1F74829592940
:100BB0006A297B294C255D256E257F25FAE0B695AF
:100BC000A79597958795FA95D1F784279527A62716
:100BD000B727CD5BDE4FE881F981C354D14044A1F2
:100BE00055A166A177A1C080D180E280F3804C0D31
:100BF0005D1D6E1D7F1D840F951FA61FB71F680109
:100C0000790147E0F694E794D794C7944A95D1F7D1
:100C1000B901A801E9E1440F551F661F771FEA9546
:100C2000D1F7C42AD52AE62AF72AB901A801FEE09D
:100C3000440F551F661F771FFA95D1F748015901D8
:100C4000E2E1B694A79497948794EA95D1F748295E
:100C500059296A297B294C255D256E257F25F3E0DE
:100C60003695279517950795FA95D1F7402751277F
:100C700062277327840F951FA61FB71FF30184AF48
:100C800095AFA6AFB7AF4614570409F055CF02E1B0
:100C900011E0C757DE4F19830883C958D140C159A5
:100CA000DE4F288139814A815B81CF56D140CD57B3
:100CB000DE4F288339834A835B83C358D140C559AB
:100CC000DE4F88819981AA81BB81CB56D140C15B1F
:100CD000DE4F88839983AA83BB83CF54D140C959FF
:100CE000DE4F488059806A807B80C756D140C55B03
:100CF000DE4F488259826A827B82CB54D140CD59E3
:100D0000DE4F488159816A817B81C356D140C558E5
:100D1000DE4FC880D980EA80FB80CB57D140C75ACC
:100D2000DE4FC882D982EA82FB82C955D140C958B8
:100D3000DE4FE880F9800A811B81C757D140CB5A2A
:100D4000DE4FE882F9820A831B83C555D140C15822
:100D5000DE4F088119812A813B81CF57D140CD5B7D
:100D6000DE4F088319832A833B83C354D140CD5877
:100D7000DE4F88819981AA81BB81C357D140C75773
:100D8000DE4FE881F981C958D140E190F19001919D
:100D90001191C757DE4FF983E883C958D140C35A30
:100DA000DE4FE882F9820A831B83CD55D140CD5AAC
:100DB000DE4FE881F981C355D14081909190A19097
:100DC000B190CD5ADE4FF983E883C355D1402C0151
:100DD0003D012AE1440C551C661C771C2A95D1F76D
:100DE0008C019D01E6E03695279517950795EA95C4
:100DF000D1F7402A512A622A732A8C019D01F5E11C
:100E0000000F111F221F331FFA95D1F76C017D01CE
:100E1000EBE0F694E794D794C794EA95D1F70C29C0
:100E20001D292E293F2904251525262537252C0186
:100E30003D01F9E17694679457944794FA95D1F778
:100E40006C017D01E7E0CC0CDD1CEE1CFF1CEA957B
:100E5000D1F7C428D528E628F7280C251D252E25EE
:100E60003F25C35ADE4F488059806A807B80CD552C
:100E7000D140840C951CA61CB71C080D191D2A1DF9
:100E80003B1D4C015D0180949094A094B094C75A8E
:100E9000DE4FC880D980EA80FB80C955D1408C20C4
:100EA0009D20AE20BF20CB5ADE4FC880D980EA807B
:100EB000FB80C555D140C822D922EA22FB228C24CE
:100EC0009D24AE24BF24800E911EA21EB31ECD5BB6
:100ED000DE4FE880F9800A811B81C354D1408E0C1B
:100EE0009F1CA01EB11ECD57DE4F088119812A819B
:100EF0003B81C358D140080D191D2A1D3B1DC35A03
:100F0000DE4F088319832A833B83CD55D1406A0184
:100F10007B01FEE1CC0CDD1CEE1CFF1CFA95D1F729
:100F20008A019B01E2E03695279517950795EA958A
:100F3000D1F7280139014C285D286E287F288A01C5
:100F40009B01F3E1000F111F221F331FFA95D1F708
:100F50006A017B01EDE0F694E794D794C794EA9593
:100F6000D1F70C291D292E293F29042515252625D1
:100F700037252A013B01F6E176946794579447940C
:100F8000FA95D1F76A017B01EAE0CC0CDD1CEE1C7E
:100F9000FF1CEA95D1F74C285D286E287F28730145
:100FA0006201C026D126E226F326CD5BDE4FC88241
:100FB000D982EA82FB82C354D140C55BDE4F0881EF
:100FC00019812A813B81CB54D140C15BDE4F4880DF
:100FD00059806A807B80CF54D14004251525262571
:100FE00037250423152326233723C55BDE4FC8800E
:100FF000D980EA80FB80CB54D140C420D520E620A4
:10100000F7200C251D252E253F25CD5BDE4FC88002
:10101000D980EA80FB80C354D1400C0D1D1D2E1DCC
:101020003F1D080D191D2A1D3B1DC75ADE4F488064
:1010300059806A807B80C955D140CD5BDE4F4882A4
:1010400059826A827B82C354D140C15BDE4FC88023
:10105000D980EA80FB80CF54D140CD57DE4FC88283
:10106000D982EA82FB82C358D140F2E1EF2EF2E04E
:10107000FF2EC757DE4FE881F981C958D140EE16DF
:10108000FF0609F0ADC0CD59DE4F488059806A8017
:101090007B80C356D140040D151D261D371DF1015F
:1010A0000087118722873387C959DE4F48805980CE
:1010B0006A807B80C756D140440D551D661D771D43
:1010C0004487558766877787C559DE4F48815981A0
:1010D0006A817B81CB56D140C55BDE4F4880598009
:1010E0006A807B80CB54D140440D551D661D771D11
:1010F000408B518B628B738BC159DE4F4881598174
:101100006A817B81CF56D140C15BDE4F48805980D8
:101110006A807B80CF54D140440D551D661D771DDC
:10112000448B558B668B778BCD58DE4F4881598128
:101130006A817B81C357D140C35ADE4F48805980B2
:101140006A807B80CD55D140440D551D661D771DAD
:10115000408F518F628F738FC958DE4F48805980FE
:101160006A807B80C757D140840D951DA61DB71D91
:10117000848F958FA68FB78FC558DE4F8881998150
:10118000AA81BB81CB57D140CB5ADE4F48805980D2
:101190006A807B80C555D140840D951DA61DB71D65
:1011A00080A391A3A2A3B3A3C158DE4F88819981E4
:1011B000AA81BB81CF57D140C75ADE4F48805980A2
:1011C0006A807B80C955D140840D951DA61DB71D31
:1011D00084A395A3A6A3B7A3C12CD12C760192CB4F
:1011E000C55BDE4F488059806A807B80CB54D140FC
:1011F000C15BDE4F488259826A827B82CF54D140E4
:10120000C55BDE4F488359836A837B83CB54D140CF
:10121000B901A801CB5ADE4FC880D980EA80FB8093
:10122000C555D140C75ADE4FC882D982EA82FB82B7
:10123000C955D140CB5ADE4F88839983AA83BB839B
:10124000C555D140C35ADE4F88819981AA81BB819F
:10125000CD55D14094CDC657DE4F0FB6F894DEBFC2
:101260000FBECDBFDF91CF911F910F91FF90EF90F7
:10127000DF90CF90BF90AF909F908F907F906F90B6
:101280005F904F903F902F900895AF92BF92CF9272
:10129000DF92EF92FF920F931F93CF93DF93CDB71F
:1012A000DEB7CF5FD2400FB6F894DEBF0FBECDBF22
:1012B000FC0190E8A4E2B1E0AC0FBD1F15960190CF
:1012C0000D929A95E1F784E090E0CC5DDE4F998332
:1012D0008883C452D14081E0CA5DDE4F8883C65204
:1012E000D140C95DDE4F8883C752D140C85DDE4F13
:1012F0006883C852D14085E8FE01EC5DFE4FDE01F7
:101300001D9601900D928A95E1F781E891E0A0E0A9
:101310008A879B87AC878091EA08282F227081FDFD
:1013200019C0E091EC08F091ED08F12C309719F01C
:1013300080818170F82E8DEF8B83FE01EE56FF4F7A
:1013400085E89291911103C081508130D1F73AE044
:10135000E32E06C08EEF8B8346E0E42EF12C85E869
:101360008C8391E098873AE03987F11048C01D825C
:101370001E829091E5089F8331E0390F3093E50894
:101380003B81C451DD4F3883CC5ED240C351DD4F29
:101390008883CD5ED2402223A1F1C251DD4F9883D4
:1013A000CE5ED24081E0C151DD4F8883CF5ED24016
:1013B0008AE0C051DD4F8883C05FD24081E8CF50C2
:1013C000DD4F8883C15FD2408FEF9FEFC45CDD4F5C
:1013D00099838883CC53D2408E0104511D4F6801FC
:1013E000CE0CD11C0F5F1F4FC016D106B9F1BE0144
:1013F000645C7D4FF80180810E94F203F3CF9D83EE
:10140000B7CF8D81C251DD4F8883CE5ED240C151AE
:10141000DD4F1882CF5ED240C051DD4F9883C05F50
:10142000D24081E0CF50DD4F8883C15FD2409AE047
:10143000CE50DD4F9883C25FD24091E8CD50DD4F52
:101440009883C35FD240CC50DD4F8883C45FD240C5
:10145000CB50DD4F1882C55FD240B6CFC45CDD4FA4
:1014600088819981CC53D240C250DD4F99838883C3
:10147000CE5FD2400C8110E05E01FDE0AF0EB11CEA
:1014800065010150110948F0BE0162507D4FF50120
:1014900081915F010E94F203F4CFBE0162507D4F43
:1014A00083E90E94F203C250DD4F9881CE5FD240A3
:1014B000C150DD4F8881CF5FD240EC81EC0DFD2D16
:1014C000F11D9083EC81EC0FFD2FF11D8687998330
:1014D0008A83FF2009F499C10091EC081091ED086E
:1014E0000115110509F491C1F801808180FF8DC1BA
:1014F000FC808181C95EDE4F8883C751D1407281F3
:101500006381548145813681278190858185CA50C8
:10151000DD4F7883C65FD240C950DD4F6883C75F17
:10152000D240C850DD4F5883C85FD240C750DD4F0E
:101530004883C95FD240C650DD4F3883CA5FD2406E
:10154000C550DD4F2883CB5FD240C450DD4F988318
:10155000CC5FD240C350DD4F8883CD5FD24086E060
:10156000FE01EA50FD4FDE01A85EBE4F01900D92D4
:101570008A95E1F7F80122813381448155816681A2
:10158000778180859185A1E00E948F182283338323
:10159000448355836683778380879187C45CDD4F5E
:1015A000188219821A821B82CC53D240C05CDD4F54
:1015B000188219821A821B82C054D24087E696EEA6
:1015C000A9E0BAE6CC5BDD4F88839983AA83BB830D
:1015D000C454D24085E89EEAA7E6BBEBC85BDD4F6A
:1015E00088839983AA83BB83C854D24082E793EF50
:1015F000AEE6BCE3C45BDD4F88839983AA83BB83DB
:10160000CC54D2408AE395EFAFE4B5EAC05BDD4F3E
:1016100088839983AA83BB83C055D2408FE792E524
:10162000AEE0B1E5CC5ADD4F88839983AA83BB83B2
:10163000C455D2408CE898E6A5E0BBE9C85ADD4F16
:1016400088839983AA83BB83C855D2408BEA99EDDE
:10165000A3E8BFE1C45ADD4F88839983AA83BB8383
:10166000CC55D24089E19DECA0EEBBE5C05ADD4FE0
:1016700088839983AA83BB83C056D240B801665F32
:101680007F4F20E230E040E050E0CE01845C9D4F8F
:101690000E9413042E2D30E050E040E0BE01645162
:1016A0007D4FCE01845C9D4F0E9413042F2D30E0AE
:1016B00050E040E0B601CE01845C9D4F0E941304CF
:1016C000B6016F0D711D22E030E040E050E0CE0128
:1016D000845C9D4F0E94130427E030E040E050E01E
:1016E000BE01695E7E4FCE01845C9D4F0E94130453
:1016F000C45CDD4F88819981AA81BB81CC53D240E3
:10170000AC01BD0123E076956795579547952A95DD
:10171000D1F74F73552727E730E0241B350B2F7384
:101720003327BE016C557D4F40E8FB01419347E4F0
:1017300011924A95E9F7E4EAF2E0EC0FFD1FE20F9F
:10174000F31F80879783A683B583C05CDD4F5881E4
:10175000C054D240CF5BDD4F4881C154D240CE5BF4
:10176000DD4F9881C254D240CD5BDD4F8881C35498
:10177000D2405483438392838183275F3F4F50E05D
:1017800040E0BE016C557D4FCE01845C9D4F0E94B0
:101790001304C95BDD4F8881C754D240C25EDE4F5F
:1017A0008883CE51D140CA5BDD4F8881C654D24078
:1017B000C15EDE4F8883CF51D140CB5BDD4F888146
:1017C000C554D240C05EDE4F8883C052D140CC5B4E
:1017D000DD4F8881C454D240CF5DDE4F8883C15233
:1017E000D140C55BDD4F8881CB54D240CE5DDE4F0A
:1017F0008883C252D140C65BDD4F8881CA54D24033
:10180000CD5DDE4F8883C352D140FC802B815F8148
:10181000488539858A859B85AC850F2D10E02E3F44
:1018200009F48BC0E1E0F0E0EC0FFD1FE00FF11FC9
:10183000F02E61E0601740F4B385B8016150710982
:101840003197BB2309F4ABC0CC5DDE4F2883C45273
:10185000D140CB5DDE4FF882C552D140ED80CA5DEC
:10186000DE4FE882C652D1402E81C95DDE4F28830B
:10187000C752D140C85DDE4F5883C852D140C75DC2
:10188000DE4F4883C952D140C65DDE4F3883CA520D
:10189000D140C55DDE4F8883CB52D140C45DDE4F61
:1018A0009883CC52D140C35DDE4FA883CD52D14046
:1018B000A801B60184E291E08C0F9D1F0A960E9458
:1018C000801B065F1F4FE4E2F1E0EC0FFD1FE00F0D
:1018D000F11F19E08DE0E0FE60C029819A8120832C
:1018E0009183C82ED12C882341F0A601BE01695EE8
:1018F0007E4FCF0102960E94801BA601410F511D11
:101900004D5F5F4F4F0D511DBE016C5D7E4F83ECEF
:1019100099E00E94B801C150DD4F0FB6F894DEBFC8
:101920000FBECDBFDF91CF911F910F91FF90EF9030
:10193000DF90CF90BF90AF900895CC5DDE4F2883AD
:10194000C452D140CB5DDE4FF882C552D140CA5D52
:10195000DE4F5883C652D140C95DDE4F4883C7521F
:10196000D140C85DDE4F3883C852D140C75DDE4FDD
:101970008883C952D140A801B60184E291E08C0F5E
:101980009D1F06960E94801B0A5F1F4FE4E2F1E054
:10199000EC0FFD1FE00FF11F15E080E09ECF8B01E3
:1019A00047CF7F928F929F92AF92BF92CF92DF925A
:1019B000EF92FF920F931F93CF93DF93CDB7DEB7D4
:1019C000C258D1090FB6F894DEBF0FBECDBF8091CB
:1019D000E302811178C0C258DF4F188219821A823F
:1019E0001B82CE57D040CE57DF4F1882C258D0400E
:1019F000F894A0908400B0908500E0905003F0909F
:101A0000510380914E0390914F03789487012DE20A
:101A1000E21621E0F20610F00CE211E023E0298347
:101A200020917E0230917F023B832A839D838C83A9
:101A300065E0CE0101960E944509E114F10409F424
:101A400057C0C8014C966DE170E00E945018862E78
:101A5000D12CC12C912C57E0752E20917E02309113
:101A60007F02981408F044C0C8018C199D098E317A
:101A7000910510F08DE190E0682F79823B832A83F5
:101A80009C828D828E831F8218861986FE01319674
:101A900030E020E034962617F8F4C9018C0D9D1D26
:101AA000880F991FDC01A655BA4F4D915C918E5A53
:101AB0009C4FDC018D919C91568345839087878351
:101AC0002F5F3F4FE7CFBE016E577F4FCE01825849
:101AD0009F4F0E9497038CCF660F660F675FCE0102
:101AE00001960E9445099394BDE1CB0ED11CB5CF60
:101AF00084E0898380917E0290917F029B838A8318
:101B0000C258DF4F88819981AA81BB81CE57D040CE
:101B10008C839D83AE83BF83CE57DF4F8881C258AD
:101B2000D0408887BA86A986FC86EB861E870D87FB
:101B30006EE0CE0101960E94450985E0898380917F
:101B40007E0290917F029B838A8390E080E0E4E0B4
:101B5000F0E0EC0FFD1FE80FF91FDC01AE5FB74F9F
:101B60002D913C913183208302968034910579F741
:101B700065E4CE0101960E94450986E08983809143
:101B80007E0290917F029B838A8390E080E0E4E074
:101B9000F0E0EC0FFD1FE80FF91FDC01AE5BB74F63
:101BA0002D913C913183208302968034910579F701
:101BB00063E4CE0101960E94450980917E029091D6
:101BC0007F02019690937F0280937E02CE57DF4F73
:101BD0000FB6F894DEBF0FBECDBFDF91CF911F913E
:101BE0000F91FF90EF90DF90CF90BF90AF909F90BC
:101BF0008F907F9008959091BB089111FCCF91E058
:101C00009093BB089093BA082FEF2093B9082EEB5E
:101C100038E03093B8082093B7081092B6082FEF39
:101C2000260F2093B5089093B4089091B408880FBC
:101C3000892B8093B4088091B3088130E9F4109225
:101C4000B3088091B4088093BB008091BC0083FDF1
:101C5000F8CF85EC8093BC008091BB088130E1F324
:101C60008091B608861710F46091B6081092BD08EE
:101C70006093BC08862F089585EEECCF8F929F92DB
:101C8000AF92BF92CF92DF92EF92FF920F931F938A
:101C9000CF93DF93CDB7DEB766970FB6F894DEBF6C
:101CA0000FBECDBF8091E3028111CCC01A8A1B8A7E
:101CB0001C8A1D8A1E8A81E080938F0885E48093A8
:101CC000B108109290081092B20864E280E69AE09F
:101CD0000E94600360E080E69AE00E9460030E9438
:101CE000AE0081119CC00E9493014B015C018FE00A
:101CF000C82ED12CE12CF12C0E949301681979098E
:101D00008A099B09683E734081059105A8F321E08B
:101D1000C21AD108E108F10888EE880E83E0981E07
:101D2000A11CB11CC114D104E104F10429F766E03F
:101D300085E40E94FB0D8091BC089091BD08891B31
:101D4000990B06970CF46BC080E69AE00E94190389
:101D5000182F80E69AE00E941903E12CF12EE82A60
:101D6000F92A80E69AE00E94190380E69AE00E9430
:101D70001903182F80E69AE00E94190360E0712F82
:101D80008B01082B192B80E69AE00E94190388E04A
:101D9000898380917E0290917F029B838A838A89C6
:101DA0009B89AC89BD898C839D83AE83BF838E89DB
:101DB00088871986B70190E080E00E942B1720E009
:101DC0003FEF4FE757E40E94081920E030E04FE270
:101DD00053E40E94681720E030E044E352E40E949C
:101DE0009B186A877B878C879D87B80190E080E08D
:101DF0000E942B1720E03FEF4FE757E40E9408199D
:101E000020E030E048EC52E40E9468176E877F873C
:101E1000888B998B61E1CE0101960E9445096696F7
:101E20000FB6F894DEBF0FBECDBFDF91CF911F91EB
:101E30000F91FF90EF90DF90CF90BF90AF909F9069
:101E40008F900895BE016A5E7F4FCE0142960E9438
:101E5000970331CF1F920F920FB60F9211242F9339
:101E60003F938F939F93AF93BF93809187089091F7
:101E70008808A0918908B0918A083091860826E0E8
:101E8000230F2D3768F129E8230F0396A11DB11DFB
:101E9000209386088093870890938808A0938908E8
:101EA000B0938A0880918B0890918C08A0918D083E
:101EB000B0918E080196A11DB11D80938B0890935F
:101EC0008C08A0938D08B0938E08BF91AF919F911D
:101ED0008F913F912F910F900FBE0F901F901895EB
:101EE0000296A11DB11DD4CF1F920F920FB60F9273
:101EF00011240BB60F922F933F934F935F936F93E1
:101F00007F938F939F93AF93BF93EF93FF9386E25B
:101F100099E00E943602FF91EF91BF91AF919F919E
:101F20008F917F916F915F914F913F912F910F9082
:101F30000BBE0F900FBE0F901F9018951F920F921F
:101F40000FB60F9211240BB60F922F938F939F937E
:101F5000EF93FF93E0913609F09137098081E0918A
:101F60003C09F0913D0982FD1DC0908180913F099F
:101F70008F5F8F7320914009821741F0E0913F09F4
:101F8000F0E0EA5DF64F958F80933F09FF91EF9166
:101F90009F918F912F910F900BBE0F900FBE0F90BE
:101FA0001F9018958081F2CF1F920F920FB60F925B
:101FB00011240BB60F922F933F934F935F936F9320
:101FC0007F938F939F93AF93BF93EF93FF9383EC94
:101FD00099E00E943602FF91EF91BF91AF919F91DE
:101FE0008F917F916F915F914F913F912F910F90C2
:101FF0000BBE0F900FBE0F901F9018951F920F925F
:102000000FB60F9211240BB60F922F938F939F93BD
:10201000EF93FF93E091D309F091D4098081E0918F
:10202000D909F091DA0982FD1DC090818091DC0907
:102030008F5F8F732091DD09821741F0E091DC09F9
:10204000F0E0ED53F64F958F8093DC09FF91EF910F
:102050009F918F912F910F900BBE0F900FBE0F90FD
:102060001F9018958081F2CF1F920F920FB60F929A
:1020700011240BB60F922F933F934F935F936F935F
:102080007F938F939F93AF93BF93EF93FF93809131
:10209000B900887F803609F44DC008F040C088320E
:1020A00009F4A7C028F5803109F49BC0C8F488233F
:1020B00009F403C1883009F494C0FF91EF91BF91F6
:1020C000AF919F918F917F916F915F914F913F91D0
:1020D0002F910F900BBE0F900FBE0F901F90189571
:1020E000883109F486C0803241F78093B90814C062
:1020F000803409F4A3C040F48033B9F38833E9F69F
:102100008093B90885ECBAC0803509F487C088355A
:1021100009F49CC0883489F60E94D802CECF883951
:1021200009F492C038F5883729F050F4883611F058
:10213000803719F683E08093BB081092C40255C023
:10214000883809F481C0803919F0803809F0B5CF9A
:102150008091C402803208F077C0E091C40281E02F
:102160008E0F8093C4028091BB00F0E0EC55FD4FD0
:1021700080833BC0803B39F0D0F4803A09F483C0BF
:10218000883A09F09ACF84E08093BB081092A302AA
:102190001092A202F0E0E0E009958091A202811184
:1021A0000FC081E08093A2021092820209C0803C9D
:1021B00009F4A8CF883C09F4A5CF883B09F07DCF6E
:1021C000E091A30281E08E0F8093A302F0E0EE572E
:1021D000FD4F80818093BB009091A3028091A20269
:1021E00031C08091B4088093BB0085EC8093BC0023
:1021F00064CF9091B6088091B5089817B8F5809192
:10220000B7089091B808E091B60821E02E0F20930E
:10221000B608E80FF92FF11D8081E5CF2091B708AE
:102220003091B808E091B60881E08E0F8093B6082F
:102230008091BB00E20FF32FF11D80839091B608CF
:102240008091B508981788F285E8D0CF2091B7081B
:102250003091B808E091B60881E08E0F8093B608FF
:102260008091BB00E20FF32FF11D80838091BA08AB
:10227000811152CF81E08093B30884EA8093BC003F
:102280001092BB081ACF85EC8093BC001092BB085B
:102290008091C402803230F4E091C402F0E0EC5549
:1022A000FD4F10826091C40270E084EA92E0F0E099
:1022B000E0E009951092C40200CF1092B9082CCF2B
:1022C0001F920F920FB60F9211240BB60F922F93FD
:1022D0003F934F935F936F938F939F93EF93FF93EE
:1022E000189B27C0209184003091850042981EBC25
:1022F0000DB407FEFDCF8EB51EBC0DB407FEFDCF9D
:102300009EB5429A8927982789279695879596950D
:10231000879580349105E8F4880F991FFC01EE5FE2
:10232000F74F808191818F3F980719F00196918333
:102330008083FF91EF919F918F916F915F914F916A
:102340003F912F910F900BBE0F900FBE0F901F90DB
:10235000189540915003509151034C325140A0F4D4
:10236000E0915003F0915103EE0FFF1FE655FA4F35
:1023700031832083E0915003F0915103EE0FFF1F52
:10238000EE5AFC4F918380838091500390915103CA
:1023900001969093510380935003CBCF1F920F92DD
:1023A0000FB60F9211248F939F93AF93BF934C9BC3
:1023B00025C0809184009091850090938102809344
:1023C00080028091DB029091DC02A091DD02B0914D
:1023D000DE020196A11DB11D8093DB029093DC0209
:1023E000A093DD02B093DE02479ABF91AF919F9117
:1023F0008F910F900FBE0F901F9018954798F5CFB3
:10240000109229091092280988EE93E0A0E0B0E02C
:1024100080932A0990932B09A0932C09B0932D093E
:1024200026E132E030932709209326094DEC50E055
:1024300050933309409332094CEC50E050933509E6
:102440004093340948EC50E05093370940933609E3
:1024500049EC50E050933909409338094AEC50E078
:1024600050933B0940933A094EEC50E050933D099C
:1024700040933C0910923F09109240091092410983
:10248000109242091092C6091092C5098093C7099B
:102490009093C809A093C909B093CA093093C4099D
:1024A0002093C30925EC30E03093D0092093CF0965
:1024B00024EC30E03093D2092093D10920EC30E0B5
:1024C0003093D4092093D30921EC30E03093D6091E
:1024D0002093D50922EC30E03093D8092093D70916
:1024E00026EC30E03093DA092093D9091092DC0908
:1024F0001092DD091092DE091092DF091092630A32
:102500001092620A8093640A9093650AA093660A07
:10251000B093670A88E292E09093610A8093600A20
:1025200010926D0A10926C0A10926F0A10926E0A45
:102530001092710A1092700A61E370E090E080E0FE
:102540000E949F1A009701F190936D0A80936C0A84
:1025500020E330E030936F0A20936E0A2091700AD6
:102560003091710A232B11F4FC01108280E390E07A
:102570009093710A8093700A66E372E080916C0A0E
:1025800090916D0A0C94891B80916C0A90916D0A50
:10259000009711F00E94161A10926D0A10926C0AA0
:1025A0001092710A1092700A10926F0A10926E0ABD
:1025B0000895CF93DF93CDB7DEB7E4970FB6F894C5
:1025C000DEBF0FBECDBF789484B5836084BD85B572
:1025D000836085BD80916E00816080936E0082E093
:1025E00080938100909181009160909381009091FF
:1025F00080009160909380009091B10094609093DE
:10260000B1009091B00091609093B00090919100D2
:1026100093609093910090919000916090939000BE
:1026200096E890937A001092C100E091D309F0915E
:10263000D4098083E091CF09F091D0091082E09114
:10264000D109F091D20998E090831092DB09E091D2
:10265000D709F091D80926E02083E091D509F091BF
:10266000D609908198699083E091D509F091D609B7
:1026700090819F7D9083E0913609F09137098083A6
:10268000E0913209F09133091082E0913409F09120
:10269000350989E1808310923E09E0913A09F09171
:1026A0003B092083E0913809F091390980818869DC
:1026B0008083E0913809F091390980818F7D808392
:1026C00080E28093B8001FB7F8948091C502811111
:1026D00027C0E4EAF0E08491E4ECF0E09491E82F84
:1026E000F0E0EE0FFF1FE457FF4FA591B491EC917E
:1026F000E92321F461E084E00E94060161E084E0C6
:102700000E9462018CB580618CBD8CB580648CBDEB
:1027100061E087E00E94620161E085E00E94620161
:102720008091C5028F5F8093C5021FBF81E58CBD7C
:102730001DBC1092800085E080938100109285007E
:102740001092840060E080E00E94620160E08CE012
:102750000E94620161E082E10E94620161E08FE01B
:102760000E94620161E085E10E94620161E086E110
:102770000E94620161E087E10E94620161E08FE0F6
:102780000E94060161E082E10E94060180916800DA
:1027900082608093680080916C00816080936C00FF
:1027A00080916800886080936800809173008061E8
:1027B0008093730081E080938F088BE58093B1084C
:1027C000109290081092B20888E090E00E948F0367
:1027D00090E080E00E948F030E94AE0060E18BE5F4
:1027E0000E94FB0D07EC12E057EDE52E52E0F52EAE
:1027F00080E69AE00E941903D8018D938D01EA16B4
:10280000FB06B1F711E010938F0883E58093B108C0
:10281000109290081092B20890E080E00E948F031E
:1028200090E080E00E948F030E94AE0062E083E5AA
:102830000E94FB0D80E69AE00E941903082F809306
:10284000C60280E69AE00E941903FE01799695E09F
:10285000DF011D929A95E9F7198390E49A832CE29F
:1028600031E03C832B8390E1E7ECF2E0DE0115964A
:1028700001900D929A95E1F70D8B8E8B1F8B83E063
:10288000888F6DE1CE0101960E9445090E943E0E9F
:1028900060E085E10E94060160E086E10E94060199
:1028A00060E087E10E940601E2E0F8E080E8DF01F5
:1028B0001D928A95E9F788E592E0EAEAF5E0DF0102
:1028C0009C011D9221503040E1F7E2E5F3E0DF0189
:1028D0009C011D9221503040E1F71092510310925B
:1028E00050032FB7F8948091870890918808A091A1
:1028F0008908B0918A082FBF80938208909383083B
:10290000A0938408B09385082FB7F8948091870826
:1029100090918808A0918908B0918A082FBF809370
:102920004A0390934B03A0934C03B0934D038091C3
:1029300084009091850090934F0380934E03AE01E5
:10294000425E5F4F5BAB4AAB6E015AE2C50ED11CD3
:1029500040E9A42EBB24B39434E6832E912C86E266
:1029600099E00E941602892B09F4C9C186E299E018
:102970000E94F401843231F48093E60281E0809376
:10298000E502EDCFE091E5029FEF9E0F923608F051
:10299000B3C1662463946E0E6092E502F0E0EA51E2
:1029A000FD4F80838A30D9F6E62DF0E0EA51FD4FE5
:1029B000108247E050E067E672E086EE92E00E9407
:1029C000901B892B59F047E050E06FE672E086EEED
:1029D00092E00E94901B892B09F08EC1AAA9BBA985
:1029E000ECE01D92EA95E9F788E0D6011D928A9500
:1029F000E9F706EE12E0512C712CE0E040E0D8013E
:102A00008D918D0144244394440E8C3241F08D30DD
:102A100031F0982F9F7D9A3011F0811117C04E1B15
:102A2000B1E07B1281C0463060F04B3008F04AE0E4
:102A300050E06E2F70E06A517D4FCE014E960E949D
:102A4000801B7394E42D39E0371518F0442D64147D
:102A5000B0F641E4541207C08E8D882321F081E046
:102A60009AA5911101C080E04090E4024CAA8093A5
:102A7000E402882309F440C18E8D80539AE03F8D93
:102A80003053899F300D112488A1805349A14053B0
:102A9000899F400D11248AA180533BA020ED522E26
:102AA000350C899F300C11248AA580532BA4250C4A
:102AB000899F200C11248CA580532DA52053899F1C
:102AC000200D11245EA550538FA58053599F800D72
:102AD0001124E82FF0E0863408F441C0E459F84F9F
:102AE00002EB17E0412C512C3201C8018370992769
:102AF0000E171F07E1F1892B31F4C801B4010E94C0
:102B00005018892B31F4C801B5010E945018892B47
:102B100049F58EE691E0A0E0B0E0480E591E6A1E2D
:102B20007B1E0F5F1F4FE1CFF2E07F1208C04423EE
:102B300009F487CFF0E0EA51FD4F508082CF29E0C1
:102B400072127FCF463008F47CCFF0E0EA51FD4F9F
:102B500086E0D60101900D928A95E1F772CFE0539D
:102B6000F84FBECF8DE691E0A0E0B0E0D6CF5CE0BC
:102B7000E6E0F1E0DE01119601900D925A95E1F741
:102B8000892B31F4C801B4010E945018892B31F40B
:102B9000C801B5010E945018892BE1F49DE180E045
:102BA000622F6150770BFB01682F70E06E177F0773
:102BB00098F4292F813041F0A1E0B0E0AC0FBD1FA7
:102BC0006A0F7B1FDB012C91420E511C611C711C92
:102BD0008F5FEACF9CE1E3CFE091E302F894232FEB
:102BE00030E0A0E1BEE00E9431187B018C01242F6F
:102BF00030E0ACE3B0E00E9431186E0D7F1D801F05
:102C0000911F7B018C01E30CF11C011D111D222D74
:102C10002150330BC901A3019201280F391F411D17
:102C2000511D60E871E581E090E00E9440186E0D52
:102C30007F1D801F911F6093DF027093E0028093DD
:102C4000E1029093E2028091DB029091DC02A0917C
:102C5000DD02B091DE028093D7029093D802A09358
:102C6000D902B093DA0281E08093E3027894EE23F4
:102C700019F04CA8411040C0F8940091DB0210916B
:102C8000DC022091DD023091DE028091DF02909122
:102C9000E002A091E102B091E2024091D70250918E
:102CA000D8026091D9027091DA0278942801390132
:102CB000441A550A660A770AB301A201E2E0E983E1
:102CC000E091E302EA830B831C832D833E838F8391
:102CD0009887A987BA87840F951FA61FB71F8B8770
:102CE0009C87AD87BE874F87588B698B7A8B62E153
:102CF000CE0101960E9445091092E50230CE8FB7B1
:102D0000F8944090870850908808609089087090E7
:102D10008A088FBF8091820890918308A0918408CF
:102D2000B0918508A3019201281B390B4A0B5B0B5C
:102D3000DA01C90180319742A105B10508F454C0F8
:102D400040928208509283086092840870928508AD
:102D500061E086E10E9406010E94D10CF894E2E055
:102D6000F8E080E8DF011D928A95E9F788E592E0B6
:102D7000EAEAF5E0DF019C011D9221503040E1F7C5
:102D8000E2E5F3E0DF019C011D9221503040E1F7C4
:102D9000109251031092500380918400909185000D
:102DA00090934F0380934E03789461E08FE00E94EC
:102DB000060160E082E10E9406010CB405FC36C009
:102DC0001EBC00000DB407FEFDCF8EB51EBC00007A
:102DD0000DB407FEFDCF8EB561E082E10E940601D1
:102DE00060E086E10E94060180914A0390914B03C6
:102DF000A0914C03B0914D03B301A201481B590BA4
:102E00006A0B7B0BDB01CA0180339547A105B10535
:102E100050F040924A0350924B0360924C037092E0
:102E20004D030E943E0E0E94C50296CD1EBC0000BE
:102E30000DB407FEFDCF8EB51EBC00000DB407FE1D
:102E4000FDCFC9CF80916C0A90916D0A009711F067
:102E50000C94161A0895E89409C097FB3EF49095D7
:102E60008095709561957F4F8F4F9F4F9923A9F063
:102E7000F92F96E9BB279395F695879577956795F2
:102E8000B795F111F8CFFAF4BB0F11F460FF1BC036
:102E90006F5F7F4F8F4F9F4F16C0882311F096E9C9
:102EA00011C0772321F09EE8872F762F05C0662377
:102EB00071F096E8862F70E060E02AF09A95660F30
:102EC000771F881FDAF7880F9695879597F90895E9
:102ED0000E947B170C94EC170E94DE1738F00E94BA
:102EE000E51720F0952311F00C94D5170C94DB17FF
:102EF00011240C9420180E94FD1770F3959FC1F3C4
:102F0000950F50E0551F629FF001729FBB27F00D97
:102F1000B11D639FAA27F00DB11DAA1F649F6627EC
:102F2000B00DA11D661F829F2227B00DA11D621F3B
:102F3000739FB00DA11D621F839FA00D611D221FF5
:102F4000749F3327A00D611D231F849F600D211DD9
:102F5000822F762F6A2F11249F5750409AF0F1F05C
:102F600088234AF0EE0FFF1FBB1F661F771F881FC5
:102F700091505040A9F79E3F510580F00C94D51711
:102F80000C9420185F3FE4F3983ED4F38695779530
:102F90006795B795F795E7959F5FC1F7FE2B880F6B
:102FA000911D9695879597F9089597F99F6780E801
:102FB00070E060E008959FEF80EC089500240A948B
:102FC0001616170618060906089500240A94121604
:102FD0001306140605060895092E0394000C11F437
:102FE000882352F0BB0F40F4BF2B11F460FF04C0E4
:102FF0006F5F7F4F8F4F9F4F089557FD9058440F3D
:10300000551F59F05F3F71F04795880F97FB991F47
:1030100061F09F3F79F08795089512161306140604
:10302000551FF2CF4695F1DF08C016161706180691
:10303000991FF1CF86957105610508940895E8946C
:10304000BB2766277727CB0197F908950E9431188F
:10305000A59F900DB49F900DA49F800D911D1124EC
:103060000895A29FB001B39FC001A39F700D811D61
:103070001124911DB29F700D811D1124911D089581
:10308000DB018F939F930E942618BF91AF91A29F5F
:10309000800D911DA39F900DB29F900D1124089556
:1030A000AA1BBB1B51E107C0AA1FBB1FA617B7076E
:1030B00010F0A61BB70B881F991F5A95A9F780958A
:1030C0009095BC01CD010895A1E21A2EAA1BBB1B4D
:1030D000FD010DC0AA1FBB1FEE1FFF1FA217B307E4
:1030E000E407F50720F0A21BB30BE40BF50B661FFA
:1030F000771F881F991F1A9469F7609570958095BE
:1031000090959B01AC01BD01CF010895EE0FFF1F0B
:103110000024001C0BBE0790F691E02D09940024BA
:10312000A7FD00942A0F301D401D501D601D701D0D
:10313000801D901D08955058BB27AA270E94B318E0
:103140000C94EC170E94DE1738F00E94E51720F06F
:1031500039F49F3F19F426F40C94DB170EF4E09534
:10316000E7FB0C94D517E92F0E94FD1758F3BA1707
:10317000620773078407950720F079F4A6F50C948D
:103180001F180EF4E0950B2EBA2FA02D0B01B901DC
:1031900090010C01CA01A0011124FF27591B99F0CD
:1031A000593F50F4503E68F11A16F040A22F232FD9
:1031B000342F4427585FF3CF469537952795A79529
:1031C000F0405395C9F77EF41F16BA0B620B730BD0
:1031D000840BBAF09150A1F0FF0FBB1F661F771F41
:1031E000881FC2F70EC0BA0F621F731F841F48F4F6
:1031F000879577956795B795F7959E3F08F0B0CF7F
:103200009395880F08F09927EE0F97958795089565
:103210000E941C190C94EC170E94E51758F00E94AC
:10322000DE1740F029F45F3F29F00C94D5175111B7
:103230000C9420180C94DB170E94FD1768F3992357
:10324000B1F3552391F3951B550BBB27AA276217A2
:103250007307840738F09F5F5F4F220F331F441FAF
:10326000AA1FA9F335D00E2E3AF0E0E832D09150E3
:103270005040E695001CCAF72BD0FE2F29D0660FD0
:10328000771F881FBB1F261737074807AB07B0E813
:1032900009F0BB0B802DBF01FF2793585F4F3AF019
:1032A0009E3F510578F00C94D5170C9420185F3F81
:1032B000E4F3983ED4F3869577956795B795F7959F
:1032C0009F5FC9F7880F911D9695879597F9089587
:1032D000E1E0660F771F881FBB1F62177307840723
:1032E000BA0720F0621B730B840BBA0BEE1F88F732
:1032F000E09508950F931F93CF93DF93823091054C
:1033000010F482E090E0E091740AF091750A30E0E8
:1033100020E0B0E0A0E0309799F42115310509F4E0
:103320004AC0281B390B24303105D8F58A819B818E
:103330006115710589F1FB0193838283FE0111C040
:10334000408151810281138148175907E0F04817E5
:10335000590799F4109761F012960C9312971396EF
:103360001C933296CF01DF91CF911F910F91089559
:103370000093740A1093750AF4CF2115310551F0AA
:103380004217530738F0A901DB019A01BD01DF01A3
:10339000F801C1CFEF01F9CF9093750A8093740AB9
:1033A000CDCFFE01E20FF31F81939193225031099B
:1033B00039832883D7CF2091720A3091730A232B47
:1033C00041F420910201309103013093730A20935C
:1033D000720A20910001309101012115310541F45B
:1033E0002DB73EB74091040150910501241B350BC8
:1033F000E091720AF091730AE217F307A0F42E1B12
:103400003F0B2817390778F0AC014E5F5F4F241748
:10341000350748F04E0F5F1F5093730A4093720AAE
:10342000819391939FCFF0E0E0E09CCFCF93DF9327
:103430000097E9F0FC01329713821282A091740A7E
:10344000B091750AED0130E020E01097A1F42081E1
:103450003181820F931F2091720A3091730A2817CD
:10346000390709F061C0F093730AE093720ADF91A3
:10347000CF910895EA01CE17DF07E8F54A815B8115
:103480009E0141155105B1F7E901FB83EA8349919A
:103490005991C40FD51FEC17FD0761F4808191810C
:1034A0000296840F951FE901998388838281938115
:1034B0009B838A83F0E0E0E012968D919C911397B4
:1034C0000097B9F52D913C911197CD010296820F8D
:1034D000931F2091720A3091730A2817390739F621
:1034E000309751F51092750A1092740AB093730ACE
:1034F000A093720ABCCFD383C28340815181840FD1
:10350000951FC817D90761F44E5F5F4F8881998175
:10351000480F591F518340838A819B819383828303
:103520002115310509F0B0CFF093750AE093740AC4
:103530009ECFFD01DC01C0CF13821282D7CF4F9204
:103540005F926F927F928F929F92AF92BF92CF9233
:10355000DF92EF92FF920F931F93CF93DF938C0133
:10356000009799F4CB01DF91CF911F910F91FF90BC
:10357000EF90DF90CF90BF90AF909F908F907F9013
:103580006F905F904F900C947A19FC01E60FF71F33
:103590009C0122503109E217F30708F4AEC0D901AB
:1035A000CD91DC911197C617D70720F1C530D10511
:1035B00078F0CE0104978617970750F0C61BD70BFB
:1035C0002297C193D1936D937C93CF010E94161AD9
:1035D000C801DF91CF911F910F91FF90EF90DF9085
:1035E000CF90BF90AF909F908F907F906F905F90A3
:1035F0004F9008955B01AC1ABD0A4C018C0E9D1EC4
:10360000A091740AB091750A512C412CF12CE12C37
:10361000109731F58091720A9091730A8815990577
:1036200009F05CC04616570608F058C080910001AA
:1036300090910101009741F48DB79EB7409104012C
:1036400050910501841B950BE817F90708F055C048
:10365000F093730AE093720AF90171836083B8CF23
:103660008D919C91119712966C90129713967C9065
:103670001397A815B90559F56C0142E0C40ED11C89
:10368000CA14DB0420F1AC014A195B09DA01129675
:10369000159780F06282738251834083D9016D93C4
:1036A0007C93E114F10471F0D7011396FC93EE932F
:1036B00012978ECF22968C0F9D1FF90191838083E4
:1036C000F301EFCFF093750AE093740A81CF4816A7
:1036D000590608F42C017D01D3019ACFCB010E9439
:1036E0007A197C01009749F0AE01B8010E94801B55
:1036F000C8010E94161A87016BCF10E000E068CF66
:10370000FB01DC0102C001900D9241505040D8F7FE
:103710000895FB01DC0101900D920020E1F708956E
:10372000FB01DC014150504030F08D910190801937
:1037300019F40020B9F7881B990B089510E0C1E82F
:10374000D0E004C0FE010E9486182196C238D1073D
:06375000C9F7F894FFCF59
:103756000000760A80001F1C1F1E1F1E1F1F1E1F33
:103766001E1F982F8A4291443771CFFBC0B5A5DB47
:10377600B5E95BC25639F111F159A4823F92D55E83
:103786001CAB98AA07D8015B8312BE853124C37D82
:103796000C55745DBE72FEB1DE80A706DC9B74F12B
:1037A6009BC1C1699BE48647BEEFC69DC10FCCA1F4
:1037B6000C246F2CE92DAA84744ADCA9B05CDA8843
:1037C600F97652513E986DC631A8C82703B0C77F17
:1037D60059BFF30BE0C64791A7D55163CA066729BF
:1037E6002914850AB72738211B2EFC6D2C4D130D85
:1037F600385354730A65BB0A6A762EC9C281852C72
:103806007292A1E8BFA24B661AA8708B4BC2A35155
:103816006CC719E892D1240699D685350EF470A0A6
:103826006A1016C1A419086C371E4C774827B5BC18
:10383600B034B30C1C394AAAD84E4FCA9C5BF36FFE
:103846002E68EE828F746F63A5781478C884080298
:10385600C78CFAFFBE90EB6C50A4F7A3F9BEF278C2
:1038660071C6000000005802B801E501A502160263
:10387600F401080200000000600333039403090307
:103886002C0319030A033866616161626536376481
:1038960063323666363461323263623966323738BD
:1038A60030333431373261343933346130662C4346
:1038B600494275696C6400244750524D432C0024DC
:0838C600474E524D432C000057
:00000001FF
