:100000000C9482000C94AC000C94AC000C94AC00EA
:100010000C94AC000C94AC000C94AC000C94AC00B0
:100020000C94AC000C94AC000C94AC000C94AC00A0
:100030000C94AC000C94AC000C94AC000C94AC0090
:100040000C94AC000C94AC000C943B0E0C94AC00E3
:100050000C94AF0E0C94850E0C94AC000C94AC0078
:100060000C94AC000C94AC000C94E50E0C94AC0019
:100070000C94AC000C94AC000C94AC000C94AC0050
:100080000C94AC000C94AC000C94AC00000021006B
:10009000240027002A0000002200250028002B0051
:1000A0000202020202020202040404040404040420
:1000B0000303030303030303010101010101010120
:1000C0000102040810204080010204081020408032
:1000D0000102040810204080010204081020408022
:1000E0000000000203000A0B0000000005040908DC
:1000F0000000000000000000000000000000000000
:1001000011108F1211241FBECFEFD0E4DEBFCDBF80
:1001100024E0A4E7B2E001C01D92A633B207E1F7E4
:1001200012E0A0E0B1E0E2EFF9E200E00BBF02C0B4
:1001300007900D92A437B107D9F710E0C1E8D0E0DD
:1001400004C02197FE010E94C112C038D107C9F72F
:100150000E9455100C94EC140C9400000CB405FC97
:100160000DC01EBC00000DB407FEFDCF9EB51EBC29
:1001700000000DB407FEFDCF8EB508951EBC000033
:100180000DB407FEFDCF8EB51EBC00000DB407FEFA
:10019000FDCF9EB5089590E0FC01E052FF4F249101
:1001A000FC01E054FF4F349180569F4FFC01849135
:1001B000882359F12223C1F022502A30A8F4E22FDB
:1001C000F0E0EB51FF4F0C94C1121E012201EF0031
:1001D0000601F400F4000A01100114011A019091C3
:1001E00080009F7790938000E82FF0E0EE0FFF1FD4
:1001F000EA56FF4FA591B4918FB7F894EC91611135
:1002000024C030953E233C938FBF08959091800089
:100210009F7DE8CF9091B0009F779093B000E4CF9E
:100220009091B0009F7DF9CF909190009F7790932F
:100230009000DACF909190009F7DF9CF94B59F7791
:1002400094BDD2CF94B59F7DFBCF3E2BDCCFCF9317
:10025000DF9390E0FC01E054FF4F249180569F4FC4
:10026000FC0184918823D1F090E0880F991FFC0154
:10027000E457FF4FA591B491FC01EA56FF4FC59199
:10028000D49161110EC09FB7F8948C91E22FE09544
:100290008E238C932881E223E8839FBFDF91CF9147
:1002A00008958FB7F894EC91E22BEC938FBFF6CFC3
:1002B0003FB7F8948091310390913203A0913303BA
:1002C000B091340326B5A89B05C02F3F19F00196C5
:1002D000A11DB11D3FBFBA2FA92F982F8827BC01A0
:1002E000CD01620F711D811D911D43E0660F771FC7
:1002F000881F991F4A95D1F708958F929F92AF92C8
:10030000BF92CF92DF92EF92FF920E9458014B0171
:100310005C0184E6C82ED12CE12CF12C0E945801FE
:10032000681979098A099B09683E7340810591051E
:10033000A8F321E0C21AD108E108F10888EE880E7E
:1003400083E0981EA11CB11CC114D104E104F10486
:1003500029F7FF90EF90DF90CF90BF90AF909F90E4
:100360008F900895AF92BF92CF92DF92EF92FF925B
:100370000F931F93CF93DF936C017B018B01040FCD
:10038000151FEB015E01AE18BF08C017D10759F069
:100390006991D601ED91FC910190F081E02DC601AB
:1003A0000995892B79F7C501DF91CF911F910F91A5
:1003B000FF90EF90DF90CF90BF90AF900895FC0139
:1003C000538D448D252F30E0842F90E0821B930BBA
:1003D000541710F0CF96089501970895FC01918D60
:1003E000828D981761F0A28DAE0FBF2FB11D5D9663
:1003F0008C91928D9F5F9F73928F90E008958FEF05
:100400009FEF0895FC01918D828D981731F0828DB8
:10041000E80FF11D858D90E008958FEF9FEF08950F
:10042000FC01918D228D892F90E0805C9F4F821B73
:1004300091098F73992708958DE793E00E94100228
:1004400021E0892B09F420E0822F0895FC01A48D7E
:10045000A80FB92FB11DA35ABF4F2C91848D90E0E6
:1004600001968F739927848FA689B7892C93A089C9
:10047000B1898C91837080648C93938D848D981353
:1004800006C00288F389E02D80818F7D80830895E6
:10049000EF92FF920F931F93CF93DF93EC0181E0D4
:1004A000888F9B8D8C8D98131AC0E889F98980817B
:1004B00085FF15C09FB7F894EE89FF896083E889AE
:1004C000F98980818370806480839FBF81E090E0A0
:1004D000DF91CF911F910F91FF90EF900895F62E2D
:1004E0000B8D10E00F5F1F4F0F731127E02E8C8DC7
:1004F0008E110CC00FB607FCFACFE889F98980810C
:1005000085FFF5CFCE010E942602F1CFEB8DEC0FD7
:10051000FD2FF11DE35AFF4FF0829FB7F8940B8F28
:10052000EA89FB8980818062CFCFCF93DF93EC0192
:10053000888D8823B9F0AA89BB89E889F9898C91CB
:1005400085FD03C0808186FD0DC00FB607FCF7CF87
:100550008C9185FFF2CF808185FFEDCFCE010E9487
:100560002602E9CFDF91CF91089580E090E0892BBA
:1005700029F00E941C0281110E94000080E090E09E
:10058000892B49F080E090E0892B29F00E9400003F
:1005900081110C940000089585ED8093BC0080913A
:1005A000BC0084FDFCCF1092EC02089520919C02C7
:1005B000260F3327331F21323105ECF42091EC0252
:1005C000FC0190E080E0243069F082E00895A09181
:1005D0009C022191AC0144585D4FA40FB52FB11D71
:1005E0002C930196861798F380919C02680F609374
:1005F0009C0280E0089581E008950895E091EE0264
:100600008091ED02E81730F4F0E0E151FD4F808178
:1006100090E008958FEF9FEF08959091EE02809102
:10062000ED022FEF3FEF981748F4E92FF0E0E1518A
:10063000FD4F208130E09F5F9093EE02C901089545
:100640008091ED029091EE02891B990B0895CF9253
:10065000DF92EF92FF920F931F93CF93DF937C0172
:10066000CB018A012091C002222389F0EB016B01AA
:10067000C40ED51ECC15DD0569F06991D701ED9149
:10068000FC910190F081E02DC7010995F3CF642F13
:100690000E94D602C801DF91CF911F910F91FF9068
:1006A000EF90DF90CF900895CF93DF931F92CDB757
:1006B000DEB769832091C0022223F9F02091E30282
:1006C000203258F021E030E0FC013383228390E0B7
:1006D00080E00F90DF91CF9108958091C102E82FC3
:1006E000F0E0EE53FD4F998190838F5F8093C102BC
:1006F0008093E30281E090E0ECCF61E0CE010196CF
:100700000E94D602F7CF90E080E00895FB0190812F
:10071000892790E1899F90011124822790E0382F4A
:100720002227AC0163E0440F551F6A95E1F72427A7
:100730003527418150E02427352774E0959587952A
:100740007A95E1F7822793279183808308952F92EA
:100750003F924F925F926F927F928F929F92AF9251
:10076000BF92CF92DF92EF92FF920F931F93CF939E
:10077000DF93CDB7DEB7CA58D1400FB6F894DEBFCD
:100780000FBECDBF1C01CF59DE4F79836883C156A0
:10079000D140C95BDE4F288339834A835B83C754CA
:1007A000D140DC01CD90DD90ED90FC90DA01C901E3
:1007B00013E0880F991FAA1FBB1F1A95D1F78C0D44
:1007C0009D1DAE1DBF1DF10180839183A283B38364
:1007D0008C159D05AE05BF0558F484819581A681D1
:1007E000B7810196A11DB11D84839583A683B7832C
:1007F000A3E0F694E794D794C794AA95D1F7FFE3C2
:10080000CF22DD24EE24FF248101085D1F4FC9574C
:10081000DE4F19830883C758D1408E010F5B1E4FEE
:10082000CF5BDE4F19830883C154D140C95BDE4FD3
:10083000488059806A807B80C754D140411451045C
:100840006104710409F49BC480E490E0A0E0B0E08E
:100850008C199D09AE09BF09530142018415950504
:10086000A605B70510F44C015D01C957DE4F88811C
:100870009981C758D1408C0D9D1DA401CF59DE4FE1
:1008800068817981C156D1400E94DC14C80CD91C02
:10089000EA1CFB1CCF59DE4F68807980C156D140DD
:1008A000680C791CCF59DE4F79826882C156D140DD
:1008B000C95BDE4F488059806A807B80C754D14035
:1008C000481859086A087B08C95BDE4F488259827C
:1008D0006A827B82C754D14000E4C016D104E1048F
:1008E000F10409F0A3CFC957DE4F88819981C75819
:1008F000D1408E010F5F1E4FF801DC0113962C9141
:100900001397208312962C911297218311962C9184
:10091000119722832C91238304963496CF5BDE4F6C
:1009200048805980C154D1404E165F0631F7D1013D
:100930001896CD90DD90ED90FC901B97CD59DE4F31
:10094000C882D982EA82FB82C356D1401C964D9060
:100950005D906D907C901F97C959DE4F48825982F7
:100960006A827B82C756D14050964D905D906D90C3
:100970007C905397C559DE4F488259826A827B82A8
:10098000CB56D14054964D905D906D907C9057978A
:10099000C159DE4F488259826A827B82CF56D1404C
:1009A00058964D905D906D907C905B97CD58DE4F42
:1009B000488259826A827B82C357D1405C964D90AF
:1009C0005D906D907C905F97C958DE4F4882598248
:1009D0006A827B82C757D14090964D905D906D9012
:1009E0007C909397C558DE4F488259826A827B82F9
:1009F000CB57D14094964D905D906D907C90979799
:100A0000C158DE4F488259826A827B82CF57D140DB
:100A10009E012F5F3F4FCD5ADE4F39832883C35548
:100A2000D140C901D8014D915D916D917D918D01AC
:100A3000DC014D935D936D937D93CD01E017F1073C
:100A400089F7CD5ADE4F48805980C355D140B0EC6C
:100A50004B0E511CCD5ADE4F68807980C355D14072
:100A6000CD5BDE4F79826882C354D140F30180AD03
:100A700091ADA2ADB3AD0481158126813781F4E03B
:100A80006F0E711C6C017D014FE0CC0CDD1CEE1C67
:100A9000FF1C4A95D1F7AC01BD01E1E17695679560
:100AA00057954795EA95D1F7C42AD52AE62AF72A19
:100AB000AC01BD01FDE0440F551F661F771FFA957D
:100AC000D1F74C015D01E3E1B694A7949794879424
:100AD000EA95D1F7482959296A297B294C255D25B2
:100AE0006E257F25FAE0B695A79597958795FA9597
:100AF000D1F784279527A627B727CD5BDE4FE8815E
:100B0000F981C354D14044A155A166A177A1C08009
:100B1000D180E280F3804C0D5D1D6E1D7F1D840F22
:100B2000951FA61FB71F6801790147E0F694E79467
:100B3000D794C7944A95D1F7B901A801E9E1440FC8
:100B4000551F661F771FEA95D1F7C42AD52AE62AD2
:100B5000F72AB901A801FEE0440F551F661F771F51
:100B6000FA95D1F748015901E2E1B694A794979418
:100B70008794EA95D1F7482959296A297B294C2578
:100B80005D256E257F25F3E036952795179507950A
:100B9000FA95D1F74027512762277327840F951FB5
:100BA000A61FB71FF30184AF95AFA6AFB7AF46142A
:100BB000570409F055CF06E011E0C757DE4F1983FF
:100BC0000883C958D140C159DE4F288139814A81F3
:100BD0005B81CF56D140CD57DE4F288339834A837E
:100BE0005B83C358D140C559DE4F88819981AA8162
:100BF000BB81CB56D140C15BDE4F88839983AA83EA
:100C0000BB83CF54D140C959DE4F488059806A8098
:100C10007B80C756D140C55BDE4F488259826A82CD
:100C20007B82CB54D140CD59DE4F488159816A81B6
:100C30007B81C356D140C558DE4FC880D980EA8039
:100C4000FB80CB57D140C75ADE4FC882D982EA8297
:100C5000FB82C955D140C958DE4FE880F9800A812E
:100C60001B81C757D140CB5ADE4FE882F9820A83F5
:100C70001B83C555D140C158DE4F088119812A8197
:100C80003B81CF57D140CD5BDE4F088319832A8348
:100C90003B83C354D140CD58DE4F88819981AA81CE
:100CA000BB81C357D140C757DE4FE881F981C9588E
:100CB000D140E190F19001911191C757DE4FF98336
:100CC000E883C958D140C35ADE4FE882F9820A83CB
:100CD0001B83CD55D140CD5ADE4FE881F981C355F4
:100CE000D14081909190A190B190CD5ADE4FF9837F
:100CF000E883C355D1402C013D012AE1440C551C29
:100D0000661C771C2A95D1F78C019D01E6E036958B
:100D1000279517950795EA95D1F7402A512A622A17
:100D2000732A8C019D01F5E1000F111F221F331F53
:100D3000FA95D1F76C017D01EBE0F694E794D79436
:100D4000C794EA95D1F70C291D292E293F2904259E
:100D50001525262537252C013D01F9E17694679468
:100D600057944794FA95D1F76C017D01E7E0CC0CDC
:100D7000DD1CEE1CFF1CEA95D1F7C428D528E62817
:100D8000F7280C251D252E253F25C35ADE4F488008
:100D900059806A807B80CD55D140840C951CA61C5F
:100DA000B71C080D191D2A1D3B1D4C015D018094C7
:100DB0009094A094B094C75ADE4FC880D980EA803E
:100DC000FB80C955D1408C209D20AE20BF20CB5A3E
:100DD000DE4FC880D980EA80FB80C555D140C8224B
:100DE000D922EA22FB228C249D24AE24BF24800E2B
:100DF000911EA21EB31ECD5BDE4FE880F9800A81F2
:100E00001B81C354D1408E0C9F1CA01EB11ECD5718
:100E1000DE4F088119812A813B81C358D140080DDA
:100E2000191D2A1D3B1DC35ADE4F088319832A83CF
:100E30003B83CD55D1406A017B01FEE1CC0CDD1C2A
:100E4000EE1CFF1CFA95D1F78A019B01E2E0369572
:100E5000279517950795EA95D1F7280139014C2870
:100E60005D286E287F288A019B01F3E1000F111F86
:100E7000221F331FFA95D1F76A017B01EDE0F6944A
:100E8000E794D794C794EA95D1F70C291D292E2908
:100E90003F2904251525262537252A013B01F6E1A2
:100EA0007694679457944794FA95D1F76A017B0139
:100EB000EAE0CC0CDD1CEE1CFF1CEA95D1F74C28B7
:100EC0005D286E287F2873016201C026D126E226A4
:100ED000F326CD5BDE4FC882D982EA82FB82C354FF
:100EE000D140C55BDE4F088119812A813B81CB54FB
:100EF000D140C15BDE4F488059806A807B80CF54EF
:100F0000D14004251525262537250423152326231E
:100F10003723C55BDE4FC880D980EA80FB80CB5485
:100F2000D140C420D520E620F7200C251D252E25F4
:100F30003F25CD5BDE4FC880D980EA80FB80C3545B
:100F4000D1400C0D1D1D2E1D3F1D080D191D2A1D04
:100F50003B1DC75ADE4F488059806A807B80C95547
:100F6000D140CD5BDE4F488259826A827B82C35476
:100F7000D140C15BDE4FC880D980EA80FB80CF546E
:100F8000D140CD57DE4FC882D982EA82FB82C35856
:100F9000D140F6E0EF2EF2E0FF2EC757DE4FE8819A
:100FA000F981C958D140EE16FF0609F0ADC0CD5900
:100FB000DE4F488059806A807B80C356D140040D43
:100FC000151D261D371DF1010087118722873387E4
:100FD000C959DE4F488059806A807B80C756D1400E
:100FE000440D551D661D771D448755876687778795
:100FF000C559DE4F488159816A817B81CB56D140EA
:10100000C55BDE4F488059806A807B80CB54D140DD
:10101000440D551D661D771D408B518B628B738B64
:10102000C159DE4F488159816A817B81CF56D140B9
:10103000C15BDE4F488059806A807B80CF54D140AD
:10104000440D551D661D771D448B558B668B778B24
:10105000CD58DE4F488159816A817B81C357D14089
:10106000C35ADE4F488059806A807B80CD55D1407D
:10107000440D551D661D771D408F518F628F738FF4
:10108000C958DE4F488059806A807B80C757D1405D
:10109000840D951DA61DB71D848F958FA68FB78FC4
:1010A000C558DE4F88819981AA81BB81CB57D14039
:1010B000CB5ADE4F488059806A807B80C555D1402D
:1010C000840D951DA61DB71D80A391A3A2A3B3A354
:1010D000C158DE4F88819981AA81BB81CF57D14009
:1010E000C75ADE4F488059806A807B80C955D140FD
:1010F000840D951DA61DB71D84A395A3A6A3B7A314
:10110000C12CD12C760192CBC55BDE4F4880598033
:101110006A807B80CB54D140C15BDE4F48825982CC
:101120006A827B82CF54D140C55BDE4F48835983AE
:101130006A837B83CB54D140B901A801CB5ADE4FDF
:10114000C880D980EA80FB80C555D140C75ADE4FA0
:10115000C882D982EA82FB82C955D140CB5ADE4F80
:1011600088839983AA83BB83C555D140C35ADE4F78
:1011700088819981AA81BB81CD55D14094CDC65734
:10118000DE4F0FB6F894DEBF0FBECDBFDF91CF911B
:101190001F910F91FF90EF90DF90CF90BF90AF9095
:1011A0009F908F907F906F905F904F903F902F9087
:1011B0000895AF92BF92CF92DF92EF92FF920F937A
:1011C0001F93CF93DF93CDB7DEB7CF5FD2400FB67B
:1011D000F894DEBF0FBECDBFFC0190E8A4E2B1E001
:1011E000AC0FBD1F159601900D929A95E1F750E056
:1011F000CC5DDE4F59834883C452D140CA5DDE4F77
:101200001882C652D140C95DDE4F1882C752D14004
:10121000C85DDE4F6883C852D14085E8FE01EC5DB1
:10122000FE4FDE011D9601900D928A95E1F781E84F
:1012300091E0A0E08A879B87AC8780914103282FAB
:10124000227081FD19C0E0914303F0914403F12C19
:10125000309719F080818170F82E8DEF8B83FE011D
:10126000EE56FF4F85E89291911103C08150813075
:10127000D1F73AE0E32E06C08EEF8B8346E0E42EF2
:10128000F12C85E88C8391E098873AE03987F1105A
:1012900048C01D821E8290913C039F8331E0390F2C
:1012A00030933C033B81C451DD4F3883CC5ED24048
:1012B000C351DD4F8883CD5ED2402223A1F1C251BC
:1012C000DD4F9883CE5ED24081E0C151DD4F8883EF
:1012D000CF5ED2408AE0C051DD4F8883C05FD240EC
:1012E00081E8CF50DD4F8883C15FD2408FEF9FEF01
:1012F000C45CDD4F99838883CC53D2408E01045166
:101300001D4F6801CE0CD11C0F5F1F4FC016D106B8
:10131000B9F1BE01645C7D4FF80180810E948603B3
:10132000F3CF9D83B7CF8D81C251DD4F8883CE5ED1
:10133000D240C151DD4F1882CF5ED240C051DD4F47
:101340009883C05FD24081E0CF50DD4F8883C15F7A
:10135000D2409AE0CE50DD4F9883C25FD24091E8F0
:10136000CD50DD4F9883C35FD240CC50DD4F888392
:10137000C45FD240CB50DD4F1882C55FD240B6CF9C
:10138000C45CDD4F88819981CC53D240C250DD4F7F
:1013900099838883CE5FD2400C8110E05E01FDE02E
:1013A000AF0EB11C65010150110948F0BE01625039
:1013B0007D4FF50181915F010E948603F4CFBE014C
:1013C00062507D4F83E90E948603C250DD4F9881B1
:1013D000CE5FD240C150DD4F8881CF5FD240EC81DB
:1013E000EC0DFD2DF11D9083EC81EC0FFD2FF11D17
:1013F000868799838A83FF2009F499C1009143036A
:10140000109144030115110509F491C1F80180817F
:1014100080FF8DC1FC808181C95EDE4F8883C7510A
:10142000D1407281638154814581368127819085C5
:101430008185CA50DD4F7883C65FD240C950DD4FE9
:101440006883C75FD240C850DD4F5883C85FD24021
:10145000C750DD4F4883C95FD240C650DD4F388347
:10146000CA5FD240C550DD4F2883CB5FD240C45005
:10147000DD4F9883CC5FD240C350DD4F8883CD5F72
:10148000D24086E0FE01EA50FD4FDE01A85EBE4F6D
:1014900001900D928A95E1F7F80122813381448110
:1014A00055816681778180859185A1E00E94CA126D
:1014B0002283338344835583668377838087918730
:1014C000C45CDD4F188219821A821B82CC53D24031
:1014D000C05CDD4F188219821A821B82C054D24030
:1014E00087E696EEA9E0BAE6CC5BDD4F8883998368
:1014F000AA83BB83C454D24085E89EEAA7E6BBEB2F
:10150000C85BDD4F88839983AA83BB83C854D240CC
:1015100082E793EFAEE6BCE3C45BDD4F888399833B
:10152000AA83BB83CC54D2408AE395EFAFE4B5EAFB
:10153000C05BDD4F88839983AA83BB83C055D240AB
:101540008FE792E5AEE0B1E5CC5ADD4F8883998311
:10155000AA83BB83C455D2408CE898E6A5E0BBE9DA
:10156000C85ADD4F88839983AA83BB83C855D2406C
:101570008BEA99EDA3E8BFE1C45ADD4F88839983D4
:10158000AA83BB83CC55D24089E19DECA0EEBBE59C
:10159000C05ADD4F88839983AA83BB83C056D2404B
:1015A000B801665F7F4F20E230E040E050E0CE01BE
:1015B000845C9D4F0E94A7032E2D30E050E040E058
:1015C000BE0164517D4FCE01845C9D4F0E94A703F4
:1015D0002F2D30E050E040E0B601CE01845C9D4FFD
:1015E0000E94A703B6016F0D711D22E030E040E0BC
:1015F00050E0CE01845C9D4F0E94A70327E030E0BD
:1016000040E050E0BE01695E7E4FCE01845C9D4F9C
:101610000E94A703C45CDD4F88819981AA81BB81A8
:10162000CC53D240AC01BD0123E076956795579528
:1016300047952A95D1F74F73552727E730E0241BAC
:10164000350B2F733327BE016C557D4F40E8FB01EE
:10165000419347E411924A95E9F7E4EAF2E0EC0F8E
:10166000FD1FE20FF31F80879783A683B583C05CBD
:10167000DD4F5881C054D240CF5BDD4F4881C1540B
:10168000D240CE5BDD4F9881C254D240CD5BDD4F5E
:101690008881C354D2405483438392838183275FDC
:1016A0003F4F50E040E0BE016C557D4FCE01845C61
:1016B0009D4F0E94A703C95BDD4F8881C754D2406C
:1016C000C25EDE4F8883CE51D140CA5BDD4F888138
:1016D000C654D240C15EDE4F8883CF51D140CB5B30
:1016E000DD4F8881C554D240C05EDE4F8883C05232
:1016F000D140CC5BDD4F8881C454D240CF5DDE4FFA
:101700008883C152D140C55BDD4F8881CB54D24024
:10171000CE5DDE4F8883C252D140C65BDD4F8881EB
:10172000CA54D240CD5DDE4F8883C352D140FC8085
:101730002B815F81488539858A859B85AC850F2DF6
:1017400010E02E3F09F48BC0E1E0F0E0EC0FFD1F4C
:10175000E00FF11FF02E61E0601740F4B385B8018F
:10176000615071093197BB2309F4ABC0CC5DDE4FEA
:101770002883C452D140CB5DDE4FF882C552D140A0
:10178000ED80CA5DDE4FE882C652D1402E81C95D30
:10179000DE4F2883C752D140C85DDE4F5883C85200
:1017A000D140C75DDE4F4883C952D140C65DDE4F90
:1017B0003883CA52D140C55DDE4F8883CB52D140B9
:1017C000C45DDE4F9883CC52D140C35DDE4FA88309
:1017D000CD52D140A801B60184E291E08C0F9D1F4B
:1017E0000A960E94DC14065F1F4FE4E2F1E0EC0F62
:1017F000FD1FE00FF11F19E08DE0E0FE60C02981C0
:101800009A8120839183C82ED12C882341F0A60190
:10181000BE01695E7E4FCF0102960E94DC14A601D4
:10182000410F511D4D5F5F4F4F0D511DBE016C5D4E
:101830007E4F8DE793E00E94B201C150DD4F0FB69D
:10184000F894DEBF0FBECDBFDF91CF911F910F91F6
:10185000FF90EF90DF90CF90BF90AF900895CC5D58
:10186000DE4F2883C452D140CB5DDE4FF882C55293
:10187000D140CA5DDE4F5883C652D140C95DDE4FAC
:101880004883C752D140C85DDE4F3883C852D1402B
:10189000C75DDE4F8883C952D140A801B60184E2FA
:1018A00091E08C0F9D1F06960E94DC140A5F1F4F6B
:1018B000E4E2F1E0EC0FFD1FE00FF11F15E080E026
:1018C0009ECF8B0147CF2F923F924F925F926F92A4
:1018D0007F928F929F92AF92BF92CF92DF92EF92C0
:1018E000FF920F931F93CF93DF93CDB7DEB7CC500A
:1018F000D9400FB6F894DEBF0FBECDBF8E010F5F8B
:10190000164F8CE0D8011D928A95E9F75E01BFEF72
:10191000AB1AB7EFBB0A80E8F501282F11922A9580
:10192000E9F76E013FE7C31A37EFD30AD6011D92DC
:101930008A95E9F7FE0131961F0180E098E0DF010A
:10194000FC011D923197E9F761E087E10E94CB002D
:1019500060E086E10E94CB000E94AE0061E086E17B
:101960000E94CB0020EF622E23E2722EF12CE12C9C
:10197000512C412C189BFECF60E086E10E94CB00E9
:101980000E94AE004C0196E0969487949A95E1F7F8
:1019900061E086E10E94CB00E814F90408F099C0E8
:1019A000FFEF4F1A5F0A740121E0621A710811F704
:1019B0007E0139E0E30EF11CCE018F5F9D4FF701F0
:1019C000612C712C430121913191620E731E811C97
:1019D000911CE817F907B9F761E08EE00E94CB008F
:1019E00080917A0290917B02D8019C9311968C93FE
:1019F000119712969C92129713968C9213971496A5
:101A00007C92149715966C92159716965C92169781
:101A100017964C92179718961C92189784E019966F
:101A20008C93F501D7018D919D917D018F3F91059B
:101A300019F010F08FEF90E08193CE16DF0691F74A
:101A4000DE01A75FBE4FF6019E012350374F8D91F7
:101A50009D918F3F910519F010F08FEF90E08193E9
:101A60002E173F07A1F74BE06CE0C8010E94D90890
:101A70004CE060E8C5010E94D9084DE060E8C6016D
:101A80000E94D90880917A0290917B0201969093EE
:101A90007B0280937A0260E08EE00E94CB00C45FFC
:101AA000D64F0FB6F894DEBF0FBECDBFDF91CF91FA
:101AB0001F910F91FF90EF90DF90CF90BF90AF906C
:101AC0009F908F907F906F905F904F903F902F905E
:101AD0000895EE0CFF1CF101EE0DFF1D8081918138
:101AE000019691838083F12CE12C5ECFCF93DF931D
:101AF000EC0188819981009711F00E94721319827C
:101B000018821D821C821B821A82DF91CF91089558
:101B1000FC0180819181009711F00C94721308955B
:101B20000F931F93CF93DF93EC01888199810097E6
:101B300059F02A813B812617370730F081E0DF9189
:101B4000CF911F910F9108958B016F5F7F4F0E947E
:101B5000FB13009759F0998388831B830A832C8198
:101B60003D81232B59F7FC011082E8CF80E0E7CFBD
:101B7000EF92FF920F931F93CF93DF93611571053F
:101B800041F480E0DF91CF911F910F91FF90EF9092
:101B9000089541155105B1F07B01EC010C811D81C7
:101BA000040F151FB8010E94900D882351F328815E
:101BB00039818C819D81B701820F931F0E94E514AA
:101BC0001D830C8381E0DECFCF93DF93EC0141E0F6
:101BD00050E06FE672E00E94B80D811103C0CE01A3
:101BE0000E94760DCE01DF91CF910895CF93DF93C0
:101BF000EC01FB0144815581608171810E94B80D27
:101C0000811103C0CE010E94760DCE01DF91CF91EC
:101C10000895EF92FF920F931F93CF93DF93EC0100
:101C20007B018A01BA010E94900D81110BC0CE0187
:101C30000E94760DCE01DF91CF911F910F91FF9001
:101C4000EF9008951D830C83B701888199810E94CC
:101C5000E514F0CFFC0111821082138212821582EA
:101C60001482FB0101900020E9F73197AF01461B78
:101C7000570B0C94090E1F920F920FB60F9211245E
:101C80002F933F938F939F93AF93BF9380912D0397
:101C900090912E03A0912F03B091300330912C032B
:101CA00026E0230F2D3768F129E8230F0396A11DA5
:101CB000B11D20932C0380932D0390932E03A093AA
:101CC0002F03B09330038091310390913203A091A0
:101CD0003303B09134030196A11DB11D80933103EC
:101CE00090933203A0933303B0933403BF91AF9129
:101CF0009F918F913F912F910F900FBE0F901F904A
:101D000018950296A11DB11DD4CF1F920F920FB648
:101D10000F9211240BB60F922F933F934F935F9323
:101D20006F937F938F939F93AF93BF93EF93FF93A3
:101D30008DE793E00E942602FF91EF91BF91AF9152
:101D40009F918F917F916F915F914F913F912F91D3
:101D50000F900BBE0F900FBE0F901F9018951F9203
:101D60000F920FB60F9211240BB60F922F938F93F1
:101D70009F93EF93FF93E0918D03F0918E03808109
:101D8000E0919303F091940382FD1DC090818091B6
:101D900096038F5F8F7320919703821741F0E09134
:101DA0009603F0E0E358FC4F958F80939603FF91E4
:101DB000EF919F918F912F910F900BBE0F900FBEBF
:101DC0000F901F9018958081F2CF1F920F920FB63F
:101DD0000F9211240BB60F922F933F934F935F9363
:101DE0006F937F938F939F93AF93BF93EF93FF93E3
:101DF0008091B900887F803609F44DC008F040C05A
:101E0000883209F4A7C028F5803109F49BC0C8F4D2
:101E1000882309F403C1883009F494C0FF91EF913D
:101E2000BF91AF919F918F917F916F915F914F91F2
:101E30003F912F910F900BBE0F900FBE0F901F90F0
:101E40001895883109F486C0803241F78093EA0200
:101E500014C0803409F4A3C040F48033B9F388334C
:101E6000E9F68093EA0285ECBAC0803509F487C0B0
:101E7000883509F49CC0883489F60E94CC02CECF04
:101E8000883909F492C038F5883729F050F488363B
:101E900011F0803719F683E08093EC021092BE02B5
:101EA00055C0883809F481C0803919F0803809F0AC
:101EB000B5CF8091BE02803208F077C0E091BE02BB
:101EC00081E08E0F8093BE028091BB00F0E0E2566D
:101ED000FD4F80833BC0803B39F0D0F4803A09F459
:101EE00083C0883A09F09ACF84E08093EC02109284
:101EF0009D0210929C02F0E0E0E0099580919C0226
:101F000081110FC081E080939C0210927C0209C075
:101F1000803C09F4A8CF883C09F4A5CF883B09F0A0
:101F20007DCFE0919D0281E08E0F80939D02F0E0D5
:101F3000E458FD4F80818093BB0090919D02809179
:101F40009C0231C08091E5028093BB0085EC8093B8
:101F5000BC0064CF9091E7028091E6029817B8F533
:101F60008091E8029091E902E091E70221E02E0FD2
:101F70002093E702E80FF92FF11D8081E5CF209132
:101F8000E8023091E902E091E70281E08E0F809350
:101F9000E7028091BB00E20FF32FF11D8083909147
:101FA000E7028091E602981788F285E8D0CF209169
:101FB000E8023091E902E091E70281E08E0F809320
:101FC000E7028091BB00E20FF32FF11D8083809127
:101FD000EB02811152CF81E08093E40284EA809386
:101FE000BC001092EC021ACF85EC8093BC001092DA
:101FF000EC028091BE02803230F4E091BE02F0E04B
:10200000E256FD4F10826091BE0270E08EE992E0D0
:10201000F0E0E0E009951092BE0200CF1092EA02D3
:102020002CCFEDE7F3E01382128288EE93E0A0E07C
:10203000B0E084839583A683B7832AE032E03183BE
:10204000208325EC30E03587248724EC30E0378787
:10205000268720EC30E0318B208B21EC30E0338B75
:10206000228B22EC30E0358B248B26EC30E0378B52
:10207000268B118E128E138E148EEAE1F4E01382F9
:10208000128284839583A683B7838CE192E0918347
:1020900080836AE272E08CE294E00E942A0E60E3A0
:1020A00072E086E294E00C942A0ECF93DF93CDB7D2
:1020B000DEB76D970FB6F894DEBF0FBECDBF789434
:1020C00084B5836084BD85B5836085BD80916E00D5
:1020D000816080936E0092E09093810080918100F6
:1020E0008160809381008091800081608093800076
:1020F0008091B10084608093B1008091B0008160D4
:102100008093B000809191008360809391008091D2
:10211000900081608093900086E880937A0010920E
:10212000C100E3E1F3E089E1DF011D928A95E9F75F
:10213000E0918D03F0918E039083E0918903F091FB
:102140008A031082E0918B03F0918C0388E08083F6
:1021500010929503E0919103F091920386E08083C1
:10216000E0918F03F0919003808188698083E091F2
:102170008F03F091900380818F7D80831FB7F89447
:102180008091BF02811127C0E4EAF0E08491E4EC81
:10219000F0E09491E82FF0E0EE0FFF1FE457FF4FBF
:1021A000A591B491EC91E92321F461E084E00E94CF
:1021B000CB0061E084E00E9427018CB580618CBD7A
:1021C0008CB580648CBD61E087E00E94270161E0EE
:1021D00085E00E9427018091BF028F5F8093BF023C
:1021E0001FBF81E58CBD1DBC80E28093B80060E01C
:1021F00080E00E94270161E086E10E94270161E002
:1022000087E10E94270161E087E10E94CB0061E045
:1022100086E10E94CB0061E08CE00E94270161E032
:102220008DE00E94270161E08EE00E94270161E0BD
:102230008CE00E94CB000E947D0161E08DE00E9455
:10224000CB000E947D0161E08EE00E94CB000E94E5
:102250007D011B8A1A8A1D8A1C8A1F8A1E8A4AE0EF
:102260008E010F5F1F4FB80184E090E00E9497122B
:10227000F80101900020E9F73197AF01401B510BA5
:10228000B801CE0142960E94090E61E672E0C801D3
:102290000E942A0E6CE274E0C8010E94F60D0E94B2
:1022A000E40DBE016E5E7F4F0E94F60D0E94E40DAC
:1022B00066E274E00E94F60D0E94E40D198E188EFD
:1022C0001B8E1A8E1D8E1C8E7E01B8E1EB0EF11C4A
:1022D0008E159F0559F0FC016081718161157105B2
:1022E00029F044815581C7010E94090EC8010E944E
:1022F000880DCE0142960E94880D81E08093C00235
:1023000088E58093E2021092C1021092E30268E035
:102310008AE194E00E94540360E08AE194E00E9424
:1023200054038091E3028132F0F59091EC02911117
:10233000FCCF92E09093EC0291E09093EB029FEF40
:102340009093EA0222EC32E03093E9022093E80213
:102350001092E7028093E6021092E5028091E50276
:10236000806B8093E5028091E402813009F0D1C056
:102370001092E4028091E5028093BB008091BC0042
:1023800083FDF8CF85EC8093BC008091EC02823015
:10239000E1F38091EA028F3F31F08091EA028032CE
:1023A00011F08091EA021092C1021092E3021092A1
:1023B000C0028091EC028111FCCF81E08093EC029D
:1023C0008093EB029FEF9093EA022FEE32E030937E
:1023D000E9022093E8021092E7029FE09093E60260
:1023E0008093E5028091E502806B8093E502809105
:1023F000E402813009F08FC01092E4028091E5027E
:102400008093BB008091BC0083FDF8CF85EC809366
:10241000BC008091EC028130E1F38091E7028031D1
:1024200008F07BC08091E7021092EE028093ED02EB
:1024300080E1D82E8AE194E00E940D03B82EC82EC8
:10244000FFE0F81738F041E050E06EE272E0C701BB
:102450000E94B80D1B8A1A8A1D8A1C8A1F8A1E8A2E
:1024600040E1B8018B2D90E00E949712F801019095
:102470000020E9F73197AF01401B510BB801CE01A5
:1024800042960E94090E4E895F896A897B89C7013D
:102490000E94B80DCE0142960E94880D80910F03D4
:1024A00090911003A0911103B09112038C0D911D16
:1024B000A11DB11D80930F0390931003A0931103EE
:1024C000B0931203DA94D110B5CF4C8D5D8D688D29
:1024D000798D8DE793E00E94B20142E050E061E720
:1024E00072E08DE793E00E94B20160E08CE00E9410
:1024F000CB0060E08DE00E94CB0060E08EE00E94A7
:10250000CB00C7010E94880D0E94630C0E94B50297
:10251000FBCF85EE38CF85EE7ACF80E185CF86E29E
:1025200094E00E94880D8CE294E00C94880DBB2707
:10253000FB015527AA27880F991FAA1FA41710F07F
:10254000A41B83955051B9F7A05DAA3308F0A95D8B
:10255000A193009779F7B111B1931192CB010C942B
:10256000B112DC01FC01672F71917723E1F73297FB
:1025700004C07C916D9370836291AE17BF07C8F35E
:102580000895EE0FFF1F0024001C0BBE0790F6916C
:10259000E02D09940024A7FD00942A0F301D401D52
:1025A000501D601D701D801D901D08950F931F9379
:1025B000CF93DF938230910510F482E090E0E091B8
:1025C0003404F091350430E020E0B0E0A0E0309732
:1025D00099F42115310509F44AC0281B390B243020
:1025E0003105D8F58A819B816115710589F1FB015F
:1025F00093838283FE0111C0408151810281138146
:1026000048175907E0F04817590799F4109761F0F7
:1026100012960C93129713961C933296CF01DF916A
:10262000CF911F910F9108950093340410933504B6
:10263000F4CF2115310551F04217530738F0A901A5
:10264000DB019A01BD01DF01F801C1CFEF01F9CF34
:102650009093350480933404CDCFFE01E20FF31F35
:10266000819391932250310939832883D7CF2091C8
:10267000320430913304232B41F420910201309134
:1026800003013093330420933204209100013091F0
:1026900001012115310541F42DB73EB740910401E8
:1026A00050910501241B350BE0913204F091330465
:1026B000E217F307A0F42E1B3F0B2817390778F019
:1026C000AC014E5F5F4F2417350748F04E0F5F1F78
:1026D0005093330440933204819391939FCFF0E061
:1026E000E0E09CCFCF93DF930097E9F0FC013297B5
:1026F00013821282A0913404B0913504ED0130E0D0
:1027000020E01097A1F420813181820F931F209146
:102710003204309133042817390709F061C0F0936F
:102720003304E0933204DF91CF910895EA01CE178C
:10273000DF07E8F54A815B819E0141155105B1F73C
:10274000E901FB83EA8349915991C40FD51FEC1726
:10275000FD0761F4808191810296840F951FE90144
:1027600099838883828193819B838A83F0E0E0E070
:1027700012968D919C9113970097B9F52D913C91EC
:102780001197CD010296820F931F20913204309150
:1027900033042817390739F6309751F5109235046C
:1027A00010923404B0933304A0933204BCCFD3838B
:1027B000C28340815181840F951FC817D90761F4E6
:1027C0004E5F5F4F88819981480F591F5183408325
:1027D0008A819B81938382832115310509F0B0CFD3
:1027E000F0933504E09334049ECFFD01DC01C0CFAB
:1027F00013821282D7CF4F925F926F927F928F9205
:102800009F92AF92BF92CF92DF92EF92FF920F937F
:102810001F93CF93DF938C01009799F4CB01DF9145
:10282000CF911F910F91FF90EF90DF90CF90BF90CD
:10283000AF909F908F907F906F905F904F900C948F
:10284000D612FC01E60FF71F9C0122503109E21756
:10285000F30708F4AEC0D901CD91DC911197C617EA
:10286000D70720F1C530D10578F0CE01049786173F
:10287000970750F0C61BD70B2297C193D1936D9346
:102880007C93CF010E947213C801DF91CF911F91F9
:102890000F91FF90EF90DF90CF90BF90AF909F90FF
:1028A0008F907F906F905F904F9008955B01AC1A6E
:1028B000BD0A4C018C0E9D1EA0913404B0913504CC
:1028C000512C412CF12CE12C109731F580913204E0
:1028D000909133048815990509F05CC04616570697
:1028E00008F058C08091000190910101009741F4D7
:1028F0008DB79EB74091040150910501841B950B43
:10290000E817F90708F055C0F0933304E093320458
:10291000F90171836083B8CF8D919C9111971296C4
:102920006C90129713967C901397A815B90559F5DA
:102930006C0142E0C40ED11CCA14DB0420F1AC01CE
:102940004A195B09DA011296159780F06282738248
:1029500051834083D9016D937C93E114F10471F0AC
:10296000D7011396FC93EE9312978ECF22968C0F7D
:102970009D1FF90191838083F301EFCFF09335041C
:10298000E093340481CF4816590608F42C017D01E8
:10299000D3019ACFCB010E94D6127C01009749F057
:1029A000AE01B8010E94DC14C8010E9472138701B5
:1029B0006BCF10E000E068CFFB01DC0102C00190AA
:1029C0000D9241505040D8F70895FB01DC01019071
:1029D0000D920020E1F7089510E0C1E8D0E004C0B6
:1029E000FE010E94C1122196C238D107C9F7F8949E
:0229F000FFCF17
:1029F200000036048000982F8A4291443771CFFB41
:102A0200C0B5A5DBB5E95BC25639F111F159A48213
:102A12003F92D55E1CAB98AA07D8015B8312BE8594
:102A22003124C37D0C55745DBE72FEB1DE80A706F3
:102A3200DC9B74F19BC1C1699BE48647BEEFC69DD6
:102A4200C10FCCA10C246F2CE92DAA84744ADCA9F5
:102A5200B05CDA88F97652513E986DC631A8C82723
:102A620003B0C77F59BFF30BE0C64791A7D55163A7
:102A7200CA0667292914850AB72738211B2EFC6D3F
:102A82002C4D130D385354730A65BB0A6A762EC94E
:102A9200C281852C7292A1E8BFA24B661AA8708BE4
:102AA2004BC2A3516CC719E892D1240699D6853539
:102AB2000EF470A06A1016C1A419086C371E4C7768
:102AC2004827B5BCB034B30C1C394AAAD84E4FCAF9
:102AD2009C5BF36F2E68EE828F746F63A578147817
:102AE200C8840802C78CFAFFBE90EB6C50A4F7A30F
:102AF200F9BEF27871C6000000004802B201DF019F
:102B020095021002EE0102020000000054032703A6
:102B12008303FD0220030D03FE02554156303000AF
:102B2200306537616636646230313165373564321B
:102B32006139333666633261653037666232383204
:102B420034316338303062642C43494275696C64B5
:102B52000024444F532C4C4142444F533031412CBA
:042B6200000D0A0058
:00000001FF
