:100000000C9482000C94AC000C94AC000C94AC00EA
:100010000C94AC000C94AC000C94AC000C94E50B6C
:100020000C94AC000C94AC000C94AC000C94AC00A0
:100030000C94AC000C94AC000C94AC000C94AC0090
:100040000C94AC000C94AC000C94AF090C94AC0074
:100050000C94830A0C94590A0C94AC000C94AC00D8
:100060000C94AC000C94AC000C94B90A0C94AC0049
:100070000C94230A0C94F9090C94AC000C94AC0079
:100080000C94AC000C94AC000C94AC00000021006B
:10009000240027002A0000002200250028002B0051
:1000A0000202020202020202040404040404040420
:1000B0000303030303030303010101010101010120
:1000C0000102040810204080010204081020408032
:1000D0000102040810204080010204081020408022
:1000E0000000000203000A0B0000000005040908DC
:1000F0000000000000000000000000000000000000
:10010000170C8D1011241FBECFEFD0E4DEBFCDBF82
:100110002CE1A0E4B2E001C01D92A33BB207E1F7DD
:1001200012E0A0E0B1E0E6EDFAE200E00BBF02C0B1
:1001300007900D92A034B107D9F710E0C1E8D0E0E4
:1001400004C02197FE010E941912C038D107C9F7D7
:100150000E94810C0C945E150C9400009091311B50
:1001600081E0913208F043C080913A1B8111FCCFAD
:100170008091301B22E020933A1B21E02093391B11
:100180002FEF2093381B20E13BE13093371B209366
:10019000361B1092351B9093341B1092331B909199
:1001A000331B880F892B8093331B8091321B813046
:1001B00029F51092321B8091331B8093BB008091F4
:1001C000BC0083FDF8CF85EC8093BC0080913A1B86
:1001D0008230E1F38091381B8F3F91F08091381B82
:1001E000803281F08091381B803371F084E010926E
:1001F0000F1B1092311B10920E1B089585EEE4CF59
:1002000080E0F5CF82E0F3CF83E0F1CF90E0FC0116
:10021000E052FF4F2491FC01E054FF4F349180568F
:100220009F4FFC018491882359F12223C1F0225071
:100230002A30A8F4E22FF0E0E05EFE4F0C94191291
:1002400059015D012A0141012F012F0145014B0197
:100250004F015501909180009F7790938000E82F87
:10026000F0E0EE0FFF1FEA56FF4FA591B4918FB754
:10027000F894EC91611124C030953E233C938FBFDC
:100280000895909180009F7DE8CF9091B0009F7776
:100290009093B000E4CF9091B0009F7DF9CF909102
:1002A00090009F7790939000DACF909190009F7D7F
:1002B000F9CF94B59F7794BDD2CF94B59F7DFBCFF6
:1002C0003E2BDCCFCF93DF9390E0FC01E054FF4F57
:1002D000249180569F4FFC0184918823D1F090E0B7
:1002E000880F991FFC01E457FF4FA591B491FC01C1
:1002F000EA56FF4FC591D49161110EC09FB7F89493
:100300008C91E22FE0958E238C932881E223E88361
:100310009FBFDF91CF9108958FB7F894EC91E22BB6
:10032000EC938FBFF6CF2FB7F89460910A1B7091B2
:100330000B1B80910C1B90910D1B2FBF089580917A
:100340003B1B90913C1B891B990B0895AF92BF9268
:10035000CF92DF92EF92FF920F931F93CF93DF9391
:100360006C017B018B01040F151FEB015E01AE18C0
:10037000BF08C017D10759F06991D601ED91FC91E2
:100380000190F081E02DC6010995892B79F7C5010F
:10039000DF91CF911F910F91FF90EF90DF90CF9061
:1003A000BF90AF900895FC01538D448D252F30E010
:1003B000842F90E0821B930B541710F0CF96089572
:1003C00001970895FC01918D828D981761F0A28D9F
:1003D000AE0FBF2FB11D5D968C91928D9F5F9F7365
:1003E000928F90E008958FEF9FEF0895FC01918D1B
:1003F000828D981731F0828DE80FF11D858D90E088
:1004000008958FEF9FEF0895FC01918D228D892F24
:1004100090E0805C9F4F821B91098F73992708950C
:100420008DE59BE10E94040221E0892B09F420E084
:10043000822F08958AEF9BE10E94040221E0892B1C
:1004400009F420E0822F0895FC01A48DA80FB92F94
:10045000B11DA35ABF4F2C91848D90E001968F73EC
:100460009927848FA689B7892C93A089B1898C910B
:10047000837080648C93938D848D981306C002885A
:10048000F389E02D80818F7D80830895EF92FF9224
:100490000F931F93CF93DF93EC0181E0888F9B8DA7
:1004A0008C8D98131AC0E889F989808185FF15C061
:1004B0009FB7F894EE89FF896083E889F989808184
:1004C0008370806480839FBF81E090E0DF91CF9153
:1004D0001F910F91FF90EF900895F62E0B8D10E075
:1004E0000F5F1F4F0F731127E02E8C8D8E110CC0E4
:1004F0000FB607FCFACFE889F989808185FFF5CF2F
:10050000CE010E942402F1CFEB8DEC0FFD2FF11DE7
:10051000E35AFF4FF0829FB7F8940B8FEA89FB896B
:1005200080818062CFCF682F8AEF9BE10C944602D6
:10053000CF93DF93EC01888D8823B9F0AA89BB891A
:10054000E889F9898C9185FD03C0808186FD0DC005
:100550000FB607FCF7CF8C9185FFF2CF808185FF26
:10056000EDCFCE010E942402E9CFDF91CF91089513
:1005700080E090E0892B29F00E941A0281110E94EC
:10058000000080E090E0892B29F00E941002811188
:100590000C940000089585ED8093BC008091BC0010
:1005A00084FDFCCF10923A1B08952091DD02260FA6
:1005B0003327331F21323105ECF420913A1BFC0123
:1005C00090E080E0243069F082E00895A091DD029F
:1005D0002191AC0143545D4FA40FB52FB11D2C9355
:1005E0000196861798F38091DD02680F6093DD0213
:1005F00080E0089581E008950895E0913C1B80918A
:100600003B1BE81730F4F0E0E35CF44E808190E0AF
:1006100008958FEF9FEF089590913C1B80913B1BB5
:100620002FEF3FEF981748F4E92FF0E0E35CF44E2A
:10063000208130E09F5F90933C1BC9010895CF92C9
:10064000DF92EF92FF920F931F93CF93DF937C0182
:10065000CB018A0120910E1B222389F0EB016B0153
:10066000C40ED51ECC15DD0569F06991D701ED9159
:10067000FC910190F081E02DC7010995F3CF642F23
:100680000E94D502C801DF91CF911F910F91FF9079
:10069000EF90DF90CF900895CF93DF931F92CDB767
:1006A000DEB7698320910E1B2223F9F02091311BC4
:1006B000203258F021E030E0FC013383228390E0C7
:1006C00080E00F90DF91CF91089580910F1BE82F6C
:1006D000F0E0E05FF44E998190838F5F80930F1B71
:1006E0008093311B81E090E0ECCF61E0CE01019678
:1006F0000E94D502F7CF682F87E99CE10C944C0348
:1007000090E080E00895CF93C82FE82FF0E084E0D8
:10071000F595E7958A95E1F7EE5EFE4F80810E94A0
:100720009302CF70EC2FF0E0EE5EFE4F8081CF9110
:100730000C949302CF92DF92EF92FF920F931F934C
:10074000CF93DF938C01EB018091560281110FC092
:10075000F80110821182128213821882DF91CF91E8
:100760001F910F91FF90EF90DF90CF900895F89434
:10077000C0904E02D0904F02E0905002F090510293
:1007800060918400709185008091480290914902A7
:100790007894681B790B90E080E027E0660F771F64
:1007A000881F991F2A95D1F720E137E240E050E0F9
:1007B0000E94F711243638F42883F801C082D182D0
:1007C000E282F382CBCF83E68883F7CF0F931F9328
:1007D0000091840010918500B09B0FC081E086BB22
:1007E0008091460290914702019690934702809330
:1007F000460200918400109185006091460270913C
:10080000470290E080E0CB017727662730E020E0C8
:10081000602B712B822B932B1F910F9108950F93B7
:100820001F930E94E603189B1DC042981EBC0DB486
:1008300007FEFDCF3EB51EBC0DB407FEFDCF2EB5A5
:10084000429AD901A034B10580F4FD01EE0FFF1FDB
:10085000E758F54E808191818F3F980719F00196F6
:10086000918380831F910F9108952091FF1A3091F9
:10087000001B283E334030F500910503109106031C
:100880002091070330910803AB01BC01401B510BC1
:10089000620B730BE091FF1AF091001BEE0FFF1F2C
:1008A000EE0FFF1FE752F54F40835183628373833E
:1008B000E091FF1AF091001BEE0FFF1FE75FFC4F66
:1008C000B183A0838091FF1A9091001B01969093B1
:1008D000001B8093FF1AC6CF90913A1B9111FCCF59
:1008E00091E090933A1B9093391B2FEF2093381B84
:1008F0002DE33BE13093371B2093361B1092351BC1
:100900002FEF260F2093341B9093331B9091331BB2
:10091000880F892B8093331B8091321B8130E9F43F
:100920001092321B8091331B8093BB008091BC00DE
:1009300083FDF8CF85EC8093BC0080913A1B813019
:10094000E1F38091351B861710F46091351B1092EE
:100950003C1B60933B1B862F089585EEECCFCF9315
:1009600081E080930E1B8BE58093301B10920F1B50
:100970001092311B88E090E00E947B0390E080E0C1
:100980000E947B030E94AE0060E18BE50E946C0434
:10099000C0E187E99CE10E940C030E948303C150DF
:1009A000C1F7CF910895FC0101900020E9F731973C
:1009B000AF01481B590BBC018AEF9BE10C94A601C7
:1009C0008F929F92AF92BF920F931F93CF93DF931B
:1009D000CDB7DEB7A1970FB6F894DEBF0FBECDBF7F
:1009E00019A2423008F44AE08E010F5D1F4F842E99
:1009F000912CB12CA12CA50194010E94F711E62F96
:100A0000B901CA01EA30F4F4E05DD801EE938D013A
:100A1000232B242B252B79F790E080E0109719F0F9
:100A2000CD010E94D304A1960FB6F894DEBF0FBE8D
:100A3000CDBFDF91CF911F910F91BF90AF909F904D
:100A40008F900895E95CE1CFBC0190E080E04AE03E
:100A50000C94E004CF93C82F8A3018F480E30E94EE
:100A600093026C2F70E090E080E04AE0CF910C940C
:100A7000E00487E491E00C94D3040C94D304CF9366
:100A8000DF930E94D304EC010E9439058C0F9D1F57
:100A9000DF91CF910895CF93DF9300D000D01F92C4
:100AA000CDB7DEB7BE016B5F7F4FCE0101960E94CE
:100AB0009A0384E591E00E943D0569817A818B81EA
:100AC0009C814AE00E94E0048AED91E00E943D058D
:100AD0006D8170E090E080E04AE00E94E004809147
:100AE0005602811110C08EE491E00E943D058DE513
:100AF00091E00E943F050F900F900F900F900F9084
:100B0000DF91CF9108958AE491E0EFCF8F929F9289
:100B1000AF92BF92CF92DF92EF92FF92CF93DF938B
:100B20006B017C01AC019B010E943513882371F09D
:100B300084E791E0DF91CF91FF90EF90DF90CF902D
:100B4000BF90AF909F908F900C94D30446015701B3
:100B5000E894B7F82FEF3FEF4FE75FE7C501B40127
:100B60000E94351381110DC02FEF3FEF4FE75FE774
:100B7000C501B4010E94951018161CF488E791E095
:100B8000D9CF2FEF3FEF4FE75FE4C701B6010E94D7
:100B9000301318161CF48CE791E0CCCF2FEF3FEF09
:100BA0004FE75FECC701B6010E94951087FDF3CFB8
:100BB00020E030E0A901C701B6010E949510D0E005
:100BC000C0E087FF08C08DE20E949302EC01F7FAB3
:100BD000F094F7F8F0942DEC3CEC4CE45DE3C701A5
:100BE000B6010E9423124B015C010E9401136B01AC
:100BF0007C010E949A109B01AC01C501B4010E94C6
:100C000022124B015C014AE0C701B6010E94E004D8
:100C1000C80FD91F8EE20E949302C80FD91F20E08F
:100C200030E040E251E4C501B4010E94FB100E9493
:100C30000113CB010E9424058C0F9D1FDF91CF91E2
:100C4000FF90EF90DF90CF90BF90AF909F908F90EC
:100C50000895CF93DF93EC0188819981009711F07B
:100C60000E94D613198218821D821C821B821A824E
:100C7000DF91CF910895FC0180819181009711F05F
:100C80000C94D61308950F931F93CF93DF93EC0129
:100C900088819981009759F02A813B81261737076F
:100CA00030F081E0DF91CF911F910F9108958B017A
:100CB0006F5F7F4F0E945F14009759F0998388837C
:100CC0001B830A832C813D81232B59F7FC01108261
:100CD000E8CF80E0E7CFEF92FF920F931F93CF937F
:100CE000DF936115710541F480E0DF91CF911F9191
:100CF0000F91FF90EF90089541155105B1F07B01E0
:100D0000EC010C811D81040F151FB8010E944306E0
:100D1000882351F3288139818C819D81B701820F0D
:100D2000931F0E9449151D830C8381E0DECFEF9253
:100D3000FF920F931F93CF93DF93EC017B011982F6
:100D400018821B821A821D821C82FB0101900020E6
:100D5000E9F731978F01061B170BB8010E94430674
:100D6000811109C0CE01DF91CF911F910F91FF90AA
:100D7000EF900C9429061D830C83B701888199811B
:100D8000DF91CF911F910F91FF90EF900C94491537
:100D90002F923F924F925F926F927F928F929F928B
:100DA000AF92BF92CF92DF92EF92FF920F931F9379
:100DB000CF93DF93CDB7DEB7AF970FB6F894DEBF12
:100DC0000FBECDBF8E01035F1F4F1AA309A3045F9F
:100DD0001F4F1CA30BA38DE59BE10E940402892BEE
:100DE00009F4A4C20E940F048DE59BE10E94E20178
:100DF000843231F48093590281E080935802EBCF22
:100E0000E09158029FEF9E0F923608F088C2EE24C0
:100E1000E394EE0EE0925802F0E0E75AFD4F808333
:100E20008A30C9F6EE2DF0E0E75AFD4F108247E018
:100E300050E060E871E089E592E00E945015892B4E
:100E400059F047E050E068E871E089E592E00E94DF
:100E50005015892B09F063C28CE0A9A1BAA11D929B
:100E60008A95E9F788E0EBA1FCA111928A95E9F750
:100E700009E512E0D12CF12CE0E040E0D8018D91A1
:100E80008D01CC24C394C40E8C3241F08D3031F0EE
:100E9000982F9F7D9A3011F0811117C04E1BB1E041
:100EA000FB1285C0463060F04B3008F04AE050E05D
:100EB0006E2F70E0675A7D4FCE010D960E9440154F
:100EC000F394EC2D39E03F1518F04C2DEC14B0F6EE
:100ED00041E4D41207C08D85882321F081E0998DEB
:100EE000911101C080E050905702809357028823EF
:100EF00009F415C28D8580539AE02E852053922ED9
:100F0000899F900C11248F85805348894053899F75
:100F1000400D1124898980537A8850ED750E899F80
:100F2000700C1124898D80536A8C650E899F600C2A
:100F300011248B8D80538C8C850E899F800C1124FD
:100F40002D8D20538E8D8053299F800D1124E82FE5
:100F5000F0E0863408F447C0E459F84F02EB17E09C
:100F6000C12CD12C760120E931E094E6A92EB12CD8
:100F7000C801837099270E171F07E9F1892B31F4F7
:100F8000C801B5010E94E311892B31F4C801B901F0
:100F90000E94E311892B51F58EE691E0A0E0B0E0CC
:100FA000C80ED91EEA1EFB1E0F5F1F4FE1CFF2E0F5
:100FB000FF1208C0442309F483CFF0E0E75AFD4F45
:100FC000D0807ECF29E0F2127BCF463008F478CF74
:100FD000F0E0E75AFD4F86E0DE01599601900D9250
:100FE0008A95E1F76DCFE053F84FB8CF8DE691E0E9
:100FF000A0E0B0E0D5CF2CE0E6E0F1E0DE01119614
:1010000001900D922A95E1F7892B39F4C80164E625
:1010100070E00E94E311892B39F4C80160E971E0A6
:101020000E94E311892BD9F49DE180E0A82DA15005
:10103000BB0BBD01282F30E026173707A0F4813005
:1010400081F0E1E0F0E0EC0FFD1F2E0F3F1FD90112
:101050002C91C20ED11CE11CF11C8F5FEBCF9CE1E7
:10106000E4CF292FF6CFE0915602F894292D30E0F5
:10107000A0E1BEE00E94C4114B015C01242F30E0CE
:10108000ACE3B0E00E94C411860E971EA81EB91EE4
:10109000870C911CA11CB11C062D0150110BA7013E
:1010A0009601200F311F411D511D60E871E581E05F
:1010B00090E00E94D311860E971EA81EB91E809242
:1010C000520290925302A0925402B0925502809123
:1010D0004E0290914F02A0915002B0915102809324
:1010E0004A0290934B02A0934C02B0934D0281E0D0
:1010F000809356027894E11115C10E944B05F89433
:1011000040904E0250904F026090500270905102F9
:1011100040915202509153026091540270915502D5
:1011200080914A0290914B02A0914C02B0914D02E5
:1011300078948A019B01081B190B2A0B3B0B0DA30A
:101140001EA32FA338A748015901840C951CA61C87
:10115000B71CA3019201281B390B4A0B5B0B29A773
:101160003AA74BA75CA7C501B4012CE330E040E0EF
:1011700050E00E94F7116DA7CA01B9012CE330E0DD
:1011800040E050E00E94F7116EA7C501B40120E1D4
:101190003EE040E050E00E94F711CA01B90128E1A9
:1011A00030E040E050E00E94F7116FA7C501B401A4
:1011B00020E831E541E050E00E94F71169017A0131
:1011C00082EB282E87E0382E00E911E0E4E6F0E01B
:1011D0009101237033272115310531F4C101BF017D
:1011E0000E94E311892B31F4C101B8010E94E3117F
:1011F000892B89F48EE691E0B0E0A0E0C816D9060C
:10120000EA06FB0658F0C81AD90AEA0AFB0A3FEFB9
:10121000231A330ADDCF8DE691E0EECF8CE0E6E0D5
:10122000F1E0DE01119601900D928A95E1F7232BF2
:1012300039F4C10164E670E00E94E311892B41F4A6
:10124000C10160E971E00E94E3112CE1892B09F4EE
:101250002DE111E0822F123021F0FE01E10FF11D8E
:10126000808190E0B0E0A0E0C816D906EA06FB064F
:1012700030F0C81AD90AEA0AFB0A1F5FEBCF80E9EF
:1012800091E00E943D054AE0C301B2010E94E004E2
:101290008EEE91E00E943D054AE06DA17EA18FA1F6
:1012A00098A50E94E0048EEE91E00E943D054AE080
:1012B000C501B4010E94E0048EEE91E00E943D055C
:1012C0004AE069A57AA58BA59CA50E94E0048EEE54
:1012D00091E00E943D05C1010E9424058DE20E941B
:1012E0009302812F0E942A058DE20E94930281E0E1
:1012F0008C0D0E942A0580E20E9493028FA50E9415
:101300002A058AE30E9493028EA50E942A058AE399
:101310000E9493028DA50E942A050E943905109211
:10132000580259CD552009F4EACEF9CFAF960FB641
:10133000F894DEBF0FBECDBFDF91CF911F910F910B
:10134000FF90EF90DF90CF90BF90AF909F908F90E5
:101350007F906F905F904F903F902F9008951F92D5
:101360000F920FB60F9211242F933F938F939F9359
:10137000AF93BF9380910A1B90910B1BA0910C1B04
:10138000B0910D1B3091091B26E0230F2D3768F11A
:1013900029E8230F0396A11DB11D2093091B8093FB
:1013A0000A1B90930B1BA0930C1BB0930D1B8091F9
:1013B000051B9091061BA091071BB091081B01967D
:1013C000A11DB11D8093051B9093061BA093071BC5
:1013D000B093081BBF91AF919F918F913F912F9137
:1013E0000F900FBE0F901F9018950296A11DB11D72
:1013F000D4CF1F920F920FB60F9211240BB60F92FB
:101400002F933F934F935F936F937F938F939F930C
:10141000AF93BF93EF93FF938DE59BE10E9424026E
:10142000FF91EF91BF91AF919F918F917F916F91BC
:101430005F914F913F912F910F900BBE0F900FBE78
:101440000F901F9018951F920F920FB60F921124B4
:101450000BB60F922F938F939F93EF93FF93E0918F
:101460006D1BF0916E1B8081E091731BF091741BDA
:1014700082FD1DC090818091761B8F5F8F732091BC
:10148000771B821741F0E091761BF0E0E35AF44EAF
:10149000958F8093761BFF91EF919F918F912F9164
:1014A0000F900BBE0F900FBE0F901F90189580816C
:1014B000F2CF1F920F920FB60F9211240BB60F921C
:1014C0002F933F934F935F936F937F938F939F934C
:1014D000AF93BF93EF93FF938AEF9BE10E942402A7
:1014E000FF91EF91BF91AF919F918F917F916F91FC
:1014F0005F914F913F912F910F900BBE0F900FBEB8
:101500000F901F9018951F920F920FB60F921124F3
:101510000BB60F922F938F939F93EF93FF93E091CE
:101520000A1CF0910B1C8081E091101CF091111CA1
:1015300082FD1DC090818091131C8F5F8F7320915D
:10154000141C821741F0E091131CF0E0E650F44EB9
:10155000958F8093131CFF91EF919F918F912F9105
:101560000F900BBE0F900FBE0F901F9018958081AB
:10157000F2CF1F920F920FB60F9211240BB60F925B
:101580002F933F934F935F936F937F938F939F938B
:10159000AF93BF93EF93FF938091B900887F80361C
:1015A00009F44DC008F040C0883209F4A7C028F5FE
:1015B000803109F49BC0C8F4882309F403C1883042
:1015C00009F494C0FF91EF91BF91AF919F918F91DA
:1015D0007F916F915F914F913F912F910F900BBE33
:1015E0000F900FBE0F901F901895883109F486C098
:1015F000803241F78093381B14C0803409F4A3C0B3
:1016000040F48033B9F38833E9F68093381B85ECD6
:10161000BAC0803509F487C0883509F49CC0883485
:1016200089F60E94CB02CECF883909F492C038F5F2
:10163000883729F050F4883611F0803719F683E0A6
:1016400080933A1B1092FF0255C0883809F481C07C
:10165000803919F0803809F0B5CF8091FF028032CF
:1016600008F077C0E091FF0281E08E0F8093FF02C7
:101670008091BB00F0E0E152FD4F80833BC0803B96
:1016800039F0D0F4803A09F483C0883A09F09ACF4F
:1016900084E080933A1B1092DE021092DD02F0E0AB
:1016A000E0E009958091DD0281110FC081E0809317
:1016B000DD021092BD0209C0803C09F4A8CF883C2D
:1016C00009F4A5CF883B09F07DCFE091DE0281E0EF
:1016D0008E0F8093DE02F0E0E354FD4F8081809313
:1016E000BB009091DE028091DD0231C08091331BFE
:1016F0008093BB0085EC8093BC0064CF9091351B38
:101700008091341B9817B8F58091361B9091371B48
:10171000E091351B21E02E0F2093351BE80FF92FA8
:10172000F11D8081E5CF2091361B3091371BE09170
:10173000351B81E08E0F8093351B8091BB00E20F3B
:10174000F32FF11D80839091351B8091341B9817E6
:1017500088F285E8D0CF2091361B3091371BE0917D
:10176000351B81E08E0F8093351B8091BB00E20F0B
:10177000F32FF11D80838091391B811152CF81E0BD
:101780008093321B84EA8093BC0010923A1B1ACFDC
:1017900085EC8093BC0010923A1B8091FF0280324E
:1017A00030F4E091FF02F0E0E152FD4F10826091D1
:1017B000FF0270E08FED92E0F0E0E0E0099510921A
:1017C000FF0200CF1092381B2CCF1F920F920FB642
:1017D0000F9211248F939F93AF93BF934C9B25C07F
:1017E00080918400909185009093490280934802F3
:1017F00080914E0290914F02A0915002B0915102FF
:101800000196A11DB11D80934E0290934F02A093AB
:101810005002B0935102479ABF91AF919F918F911F
:101820000F900FBE0F901F9018954798F5CFEDE5DC
:10183000FBE11382128288EE93E0A0E0B0E08483A3
:101840009583A683B78327E231E0318320834DEC73
:1018500050E0558744874CEC50E05787468748EC6A
:1018600050E0518B408B49EC50E0538B428B4AEC5B
:1018700050E0558B448B4EEC50E0578B468B118ECD
:10188000128E138E148EEAEFFBE113821282848390
:101890009583A683B7833183208325EC30E0358799
:1018A000248724EC30E03787268720EC30E0318B2A
:1018B000208B21EC30E0338B228B22EC30E0358B17
:1018C000248B26EC30E0378B268B118E128E138EF4
:1018D000148EE7E9FCE11382128284839583A68348
:1018E000B78389E391E09183808367E971E089EAB6
:1018F0009CE10E94970665EC71E083EA9CE10C9400
:101900009706CF93DF93CDB7DEB72C970FB6F89439
:10191000DEBF0FBECDBF789484B5836084BD85B52E
:10192000836085BD80916E00816080936E0082E04F
:1019300080938100909181009160909381009091BB
:1019400080009160909380009091B100946090939A
:10195000B1009091B00091609093B000909191008F
:10196000936090939100909190009160909390007B
:1019700096E890937A001092C100E0910A1CF091D1
:101980000B1C8083E091061CF091071C1082E091F3
:10199000081CF091091C98E090831092121CE091B1
:1019A0000E1CF0910F1C26E02083E0910C1CF0919E
:1019B0000D1C908198699083E0910C1CF0910D1C96
:1019C00090819F7D9083E0916D1BF0916E1B8083D1
:1019D000E091691BF0916A1B1082E0916B1BF09102
:1019E0006C1B89E180831092751BE091711BF09153
:1019F000721B2083E0916F1BF091701B80818869BE
:101A00008083E0916F1BF091701B80818F7D8083BC
:101A100080E28093B8001FB7F89480910003811191
:101A200027C0E4EAF0E08491E4ECF0E09491E82F40
:101A3000F0E0EE0FFF1FE457FF4FA591B491EC913A
:101A4000E92321F461E084E00E94060161E084E082
:101A50000E9462018CB580618CBD8CB580648CBDA8
:101A600061E087E00E94620161E085E00E9462011E
:101A7000809100038F5F809300031FBF81E58CBDC1
:101A80001DBC1092800085E080938100109285003B
:101A90001092840060E080E00E94620160E08CE0CF
:101AA0000E94620161E082E10E94620161E08FE0D8
:101AB0000E94620161E085E10E94620161E086E1CD
:101AC0000E94620161E087E10E94620161E08FE0B3
:101AD0000E94060161E082E10E9406018091680097
:101AE00088608093680080917300806180937300A8
:101AF00083ED91E00E943F056CED71E0CE0101960F
:101B00000E9497064091A71C5091A81C6091A31CAD
:101B10007091A41CCE0101960E946B06811104C035
:101B2000CE0101960E94290643E050E06CEE71E080
:101B3000CE0101960E946B06811104C0CE01019670
:101B40000E9429064091AD1C5091AE1C6091A91CC9
:101B50007091AA1CCE0101960E946B06811104C0EF
:101B6000CE0101960E94290641E050E06EEE71E040
:101B7000CE0101960E946B06811104C0CE01019630
:101B80000E94290618861F821A8619861C861B86C3
:101B900009811A810115110569F0ED80FE80B701F8
:101BA000CE0107960E944306811131C1CE010796EE
:101BB0000E942906CE0101960E943B064B855C855A
:101BC0006F8178858AEF9BE10E94A6010E94AF0495
:101BD0000E94390580EF91E00E943F0588E092E085
:101BE0000E943D050E94AF048EEE91E00E943D05EB
:101BF00081E080930E1B83E58093301B10920F1BB6
:101C00001092311B90E080E00E947B0390E080E026
:101C10000E947B030E94AE0062E083E50E946C0498
:101C200087E99CE10E940C03082F8093020387E957
:101C30009CE10E940C03182F80930103802F0E94C7
:101C40008303812F0E9483030E9439050E944B0564
:101C50008AE192E00E943F0560E085E10E94060172
:101C600060E086E10E94060160E087E10E940601D3
:101C7000E9E7FAE180E8DF011D928A95E9F7E9EDED
:101C8000FAE080EA9FE0DF019C011D922150304084
:101C9000E1F7E9E0F3E080ED97E0DF019C011D92C0
:101CA00021503040E1F71092001B1092FF1A0E9461
:101CB00093016093011B7093021B8093031B90930D
:101CC000041B0E9493016093FB1A7093FC1A80938B
:101CD000FD1A9093FE1A0E94E60360930503709329
:101CE00006038093070390930803709304036093A3
:101CF0000303CE0107960E943B0629EF222E2AE11C
:101D0000322E0E940F040E94C8060E9493014B01CC
:101D10005C018091011B9091021BA091031BB0916B
:101D2000041BA5019401281B390B4A0B5B0BDA013C
:101D3000C90180319742A105B10540F48091FF1A95
:101D40009091001B883E934008F4F8C08092011BDC
:101D50009092021BA092031BB092041B61E086E1EB
:101D60000E940601BE01695F7F4FCE0101960E946D
:101D70009A03F894C0908400D0908500E090FF1AF8
:101D8000F090001B0091030310910403789483E208
:101D900092E00E943D058091F91A9091FA1A0E94F2
:101DA00024058EEE91E00E943D05C8010E942405A5
:101DB0000E94390510E000E0E016F10681F1083ECE
:101DC00053E0150761F10E940F048BE292E00E943C
:101DD0003D05F801EE0FFF1FEE0FFF1FE752F54F15
:101DE00060817181828193814AE00E94E0048EEEDD
:101DF00091E00E943D05F801EE0FFF1FE75FFC4FE9
:101E0000808191810E9424050F5F1F4FD5CFFC86F2
:101E1000EB86B8018F8198850E944915CBCE81E36E
:101E200092E00E943D058091F91A9091FA1A0E9461
:101E300024058EEE91E00E943D0569817A818B81B7
:101E40009C814AE00E94E0048AED91E00E943D05F9
:101E50006F8170E090E080E04AE00E94E0048EEE46
:101E600091E00E943D05C6010E9424058EEE91E09E
:101E70000E943D05C7010E94240509E71AE10E945E
:101E80000F048EEE91E00E943D05D8018D919D9149
:101E90008D010E9424052016310689F70E9439051C
:101EA0008091F91A9091FA1A01969093FA1A8093F8
:101EB000F91AE9E7FAE120E811922A95E9F7A9ED84
:101EC000BAE0E0EAFFE01D923197E9F7A9E0B3E05C
:101ED000E0EDF7E01D923197E9F71092001B1092A8
:101EE000FF1A0E94E6036093050370930603809334
:101EF000070390930803709304036093030361E066
:101F00008FE00E94060160E082E10E9406010CB4AD
:101F100005FC6CC01EBC00000DB407FEFDCF8EB5E5
:101F20001EBC00000DB407FEFDCF8EB561E082E15E
:101F30000E94060160E086E10E9406018091FB1A82
:101F40009091FC1AA091FD1AB091FE1AA50194017E
:101F5000281B390B4A0B5B0BDA01C901803395470B
:101F6000A105B10508F4D6C08092FB1A9092FC1A24
:101F7000A092FD1AB092FE1A8091F91A9091FA1A65
:101F8000892B09F4C7C0BE01695F7F4FCE0101965E
:101F90000E949A0381E080930E1B45E44093301B1E
:101FA00010920F1B1092311B64E287E99CE10E94A2
:101FB0004C0360E087E99CE10E944C030E94AE0064
:101FC0008111A8C00E9493016B017C010E949301C2
:101FD0006C197D098E099F096F3071058105910586
:101FE00088F40E940F040E94C806F0CF1EBC0000B7
:101FF0000DB407FEFDCF8EB51EBC00000DB407FE6C
:10200000FDCF93CF66E085E40E946C0480913B1B7A
:1020100090913C1B891B990B06970CF47BC087E9B8
:102020009CE10E940C03182F87E99CE10E940C039D
:10203000712E612C7301E82AF92A87E99CE10E943C
:102040000C0387E99CE10E940C03182F87E99CE1AF
:102050000E940C03512E412C8201082B192B87E979
:102060009CE10E940C038AE392E00E943D0580916E
:10207000F91A9091FA1A01970E9424058EEE91E0C8
:102080000E943D0569817A818B819C814AE00E9492
:10209000E0048AED91E00E943D056F8170E090E0E0
:1020A00080E04AE00E94E0048EEE91E00E943D054F
:1020B000B70190E080E00E949A1020E03FEF4FE7E8
:1020C00057E40E948F1220E030E04FE253E40E9478
:1020D000FB1020E030E044E352E40E9422120E9410
:1020E00086058EEE91E00E943D05B80190E080E00B
:1020F0000E949A1020E03FEF4FE757E40E948F12B2
:1021000020E030E048EC52E40E94FB100E9486057B
:102110000E9439050E94B802F4CD83EA9CE10E9436
:102120003B0689EA9CE10C943B060E94D71008F418
:1021300081E00895E89409C097FB3EF4909580955E
:10214000709561957F4F8F4F9F4F9923A9F0F92F7D
:1021500096E9BB279395F695879577956795B795FB
:10216000F111F8CFFAF4BB0F11F460FF1BC06F5FE1
:102170007F4F8F4F9F4F16C0882311F096E911C0F3
:10218000772321F09EE8872F762F05C0662371F014
:1021900096E8862F70E060E02AF09A95660F771F28
:1021A000881FDAF7880F9695879597F90895990F04
:1021B0000008550FAA0BE0E8FEEF16161706E80711
:1021C000F907C0F012161306E407F50798F0621B32
:1021D000730B840B950B39F40A2661F0232B242B07
:1021E000252B21F408950A2609F4A140A6958FEF26
:1021F000811D811D08950E940E110C947F110E9473
:10220000711138F00E94781120F0952311F00C9490
:1022100068110C946E1111240C94B3110E9490114A
:1022200070F3959FC1F3950F50E0551F629FF00129
:10223000729FBB27F00DB11D639FAA27F00DB11D42
:10224000AA1F649F6627B00DA11D661F829F2227CB
:10225000B00DA11D621F739FB00DA11D621F839F52
:10226000A00D611D221F749F3327A00D611D231F28
:10227000849F600D211D822F762F6A2F11249F5776
:1022800050409AF0F1F088234AF0EE0FFF1FBB1F79
:10229000661F771F881F91505040A9F79E3F510538
:1022A00080F00C9468110C94B3115F3FE4F3983EF6
:1022B000D4F3869577956795B795F795E7959F5FE2
:1022C000C1F7FE2B880F911D9695879597F9089574
:1022D00097F99F6780E870E060E008959FEF80ECD9
:1022E000089500240A94161617061806090608957C
:1022F00000240A9412161306140605060895092EE2
:102300000394000C11F4882352F0BB0F40F4BF2B50
:1023100011F460FF04C06F5F7F4F8F4F9F4F089590
:1023200057FD9058440F551F59F05F3F71F0479586
:10233000880F97FB991F61F09F3F79F0879508956B
:10234000121613061406551FF2CF4695F1DF08C08A
:10235000161617061806991FF1CF869571056105A7
:1023600008940895E894BB2766277727CB0197F94F
:1023700008950E94C411A59F900DB49F900DA49F35
:10238000800D911D11240895A29FB001B39FC0013B
:10239000A39F700D811D1124911DB29F700D811D91
:1023A0001124911D0895DB018F939F930E94B91111
:1023B000BF91AF91A29F800D911DA39F900DB29FE1
:1023C000900D11240895AA1BBB1B51E107C0AA1F41
:1023D000BB1FA617B70710F0A61BB70B881F991FC6
:1023E0005A95A9F780959095BC01CD010895A1E279
:1023F0001A2EAA1BBB1BFD010DC0AA1FBB1FEE1F7F
:10240000FF1FA217B307E407F50720F0A21BB30BC9
:10241000E40BF50B661F771F881F991F1A9469F745
:1024200060957095809590959B01AC01BD01CF01A1
:102430000895EE0FFF1F0024001C0BBE0790F691BD
:10244000E02D09945058BB27AA270E943A120C94F9
:102450007F110E94711138F00E94781120F039F438
:102460009F3F19F426F40C946E110EF4E095E7FBEF
:102470000C946811E92F0E94901158F3BA17620763
:1024800073078407950720F079F4A6F50C94B21130
:102490000EF4E0950B2EBA2FA02D0B01B90190017F
:1024A0000C01CA01A0011124FF27591B99F0593FC3
:1024B00050F4503E68F11A16F040A22F232F342F0B
:1024C0004427585FF3CF469537952795A795F04059
:1024D0005395C9F77EF41F16BA0B620B730B840B6E
:1024E000BAF09150A1F0FF0FBB1F661F771F881F26
:1024F000C2F70EC0BA0F621F731F841F48F487957E
:1025000077956795B795F7959E3F08F0B0CF93956F
:10251000880F08F09927EE0F9795879508950E94E8
:10252000A3120C947F110E94781158F00E9471112F
:1025300040F029F45F3F29F00C94681151110C947C
:10254000B3110C946E110E94901168F39923B1F3AA
:10255000552391F3951B550BBB27AA2762177307C9
:10256000840738F09F5F5F4F220F331F441FAA1F5D
:10257000A9F335D00E2E3AF0E0E832D09150504019
:10258000E695001CCAF72BD0FE2F29D0660F771FC7
:10259000881FBB1F261737074807AB07B0E809F0AD
:1025A000BB0B802DBF01FF2793585F4F3AF09E3F32
:1025B000510578F00C9468110C94B3115F3FE4F36B
:1025C000983ED4F3869577956795B795F7959F5F75
:1025D000C9F7880F911D9695879597F90895E1E0C1
:1025E000660F771F881FBB1F621773078407BA0720
:1025F00020F0621B730B840BBA0BEE1F88F7E0957B
:1026000008950E94981188F09F5798F0B92F992744
:10261000B751B0F0E1F0660F771F881F991F1AF0CD
:10262000BA95C9F714C0B13091F00E94B211B1E06F
:1026300008950C94B211672F782F8827B85F39F06E
:10264000B93FCCF3869577956795B395D9F73EF466
:1026500090958095709561957F4F8F4F9F4F08950E
:102660000E94D71008F48FEF08950E94D710880BAE
:10267000990B08950F931F93CF93DF9382309105A9
:1026800010F482E090E0E091B11CF091B21C30E0D7
:1026900020E0B0E0A0E0309799F42115310509F46D
:1026A0004AC0281B390B24303105D8F58A819B811B
:1026B0006115710589F1FB0193838283FE0111C0CD
:1026C000408151810281138148175907E0F0481772
:1026D000590799F4109761F012960C93129713967C
:1026E0001C933296CF01DF91CF911F910F910895E6
:1026F0000093B11C1093B21CF4CF2115310551F099
:102700004217530738F0A901DB019A01BD01DF012F
:10271000F801C1CFEF01F9CF9093B21C8093B11CA7
:10272000CDCFFE01E20FF31F819391932250310927
:1027300039832883D7CF2091AF1C3091B01C232B35
:1027400041F420910201309103013093B01C209399
:10275000AF1C20910001309101012115310541F498
:102760002DB73EB74091040150910501241B350B54
:10277000E091AF1CF091B01CE217F307A0F42E1B00
:102780003F0B2817390778F0AC014E5F5F4F2417D5
:10279000350748F04E0F5F1F5093B01C4093AF1C9D
:1027A000819391939FCFF0E0E0E09CCFCF93DF93B4
:1027B0000097E9F0FC01329713821282A091B11CBC
:1027C000B091B21CED0130E020E01097A1F420811F
:1027D0003181820F931F2091AF1C3091B01C2817BC
:1027E000390709F061C0F093B01CE093AF1CDF9192
:1027F000CF910895EA01CE17DF07E8F54A815B81A2
:102800009E0141155105B1F7E901FB83EA83499126
:102810005991C40FD51FEC17FD0761F48081918198
:102820000296840F951FE9019983888382819381A1
:102830009B838A83F0E0E0E012968D919C91139740
:102840000097B9F52D913C911197CD010296820F19
:10285000931F2091AF1C3091B01C2817390739F60F
:10286000309751F51092B21C1092B11CB093B01C6D
:10287000A093AF1CBCCFD383C28340815181840F0E
:10288000951FC817D90761F44E5F5F4F8881998102
:10289000480F591F518340838A819B819383828390
:1028A0002115310509F0B0CFF093B21CE093B11CB3
:1028B0009ECFFD01DC01C0CF13821282D7CF4F9291
:1028C0005F926F927F928F929F92AF92BF92CF92C0
:1028D000DF92EF92FF920F931F93CF93DF938C01C0
:1028E000009799F4CB01DF91CF911F910F91FF9049
:1028F000EF90DF90CF90BF90AF909F908F907F90A0
:102900006F905F904F900C943A13FC01E60FF71F05
:102910009C0122503109E217F30708F4AEC0D90137
:10292000CD91DC911197C617D70720F1C530D1059D
:1029300078F0CE0104978617970750F0C61BD70B87
:102940002297C193D1936D937C93CF010E94D613AC
:10295000C801DF91CF911F910F91FF90EF90DF9011
:10296000CF90BF90AF909F908F907F906F905F902F
:102970004F9008955B01AC1ABD0A4C018C0E9D1E50
:10298000A091B11CB091B21C512C412CF12CE12C26
:10299000109731F58091AF1C9091B01C8815990566
:1029A00009F05CC04616570608F058C08091000137
:1029B00090910101009741F48DB79EB740910401B9
:1029C00050910501841B950BE817F90708F055C0D5
:1029D000F093B01CE093AF1CF90171836083B8CF12
:1029E0008D919C91119712966C90129713967C90F2
:1029F0001397A815B90559F56C0142E0C40ED11C16
:102A0000CA14DB0420F1AC014A195B09DA01129601
:102A1000159780F06282738251834083D9016D9350
:102A20007C93E114F10471F0D7011396FC93EE93BB
:102A300012978ECF22968C0F9D1FF9019183808370
:102A4000F301EFCFF093B21CE093B11C81CF481695
:102A5000590608F42C017D01D3019ACFCB010E94C5
:102A60003A137C01009749F0AE01B8010E9440156D
:102A7000C8010E94D61387016BCF10E000E068CF39
:102A8000FB01DC0102C001900D9241505040D8F78B
:102A90000895FB01DC0101900D920020E1F70895FB
:102AA000FB01DC014150504030F08D9101908019C4
:102AB00019F40020B9F7881B990B089510E0C1E8BC
:102AC000D0E004C0FE010E9419122196C238D1073D
:062AD000C9F7F894FFCFE6
:102AD6000000B31C80001F1C1F1E1F1E1F1F1E1F71
:102AE6001E1F30313233343536373839616263640C
:102AF600656600000000004602A601D301980204A4
:102B060002E201F601000000004C031F038003FCF3
:102B1600029F010C03FD020D0A002C4F4B002C49AD
:102B26004E4954002452544343484B2C002C7265A2
:102B36006730373D307830302C72656732383D303B
:102B4600783030006E616E00696E66006F766600E2
:102B5600244750524D432C0024474E524D432C00DF
:102B66002454494D452C0063313631663962323082
:102B76003835666539616238656332663563316258
:102B86003839323430303834386332323263392CA3
:102B96004265746100312E332E312D35362D426556
:102BA600746100234376616B2E2E2E0024444F530E
:102BB6002C414952444F533033422C002C302C00C8
:102BC6002444415441464F524D41542C564552538C
:102BD600494F4E5F322E3100244144432C55535405
:102BE600534950494E3033432C0023486D6D6D2EAA
:102BF6002E2E002453544152542C000D0A24452CE9
:102C0600000D0A2453544F502C0024454E562C00D8
:00000001FF
