:100000000C9482000C94AC000C94AC000C94AC00EA
:100010000C94AC000C94AC000C94AC000C94AC00B0
:100020000C94AC000C94AC000C94AC000C94AC00A0
:100030000C94AC000C94AC000C94AC000C94AC0090
:100040000C94AC000C94AC000C94F0050C94AC0037
:100050000C9464060C943A060C94AC000C94AC001E
:100060000C94AC000C94AC000C949A060C94AC006C
:100070000C94AC000C94AC000C94AC000C94AC0050
:100080000C94AC000C94AC000C94AC00000021006B
:10009000240027002A0000002200250028002B0051
:1000A0000202020202020202040404040404040420
:1000B0000303030303030303010101010101010120
:1000C0000102040810204080010204081020408032
:1000D0000102040810204080010204081020408022
:1000E0000000000203000A0B0000000005040908DC
:1000F0000000000000000000000000000000000000
:10010000C607450B11241FBECFEFD0E4DEBFCDBF25
:1001100027E0A4ECB1E001C01D92AB32B207E1F7D9
:1001200011E0A0E0B1E0EEEAFFE100E00BBF02C0A9
:1001300007900D92A43CB107D9F710E0C1E8D0E0D8
:1001400004C02197FE010E94930CC038D107C9F763
:100150000E940A080C94CA0F0C9400000CB405FC11
:100160000DC01EBC00000DB407FEFDCF9EB51EBC29
:1001700000000DB407FEFDCF8EB508951EBC000033
:100180000DB407FEFDCF8EB51EBC00000DB407FEFA
:10019000FDCF9EB50895282F9091710681E0913290
:1001A00008F042C080914D068111FCCF809170060D
:1001B00032E030934D0620934C062FEF20934B06F0
:1001C00020E536E030934A0620934906109248060F
:1001D000909347061092460690914606880F892B09
:1001E0008093460680914506813029F51092450698
:1001F000809146068093BB008091BC0083FDF8CFC0
:1002000085EC8093BC0080914D068230E1F38091B3
:100210004B068F3F91F080914B06803281F08091A8
:100220004B06803371F084E010924F0610927106F5
:1002300010924E06089585EEE4CF80E0F5CF82E07F
:10024000F3CF83E0F1CF90E0FC01E052FF4F249127
:10025000FC01E054FF4F349180569F4FFC01849184
:10026000882359F12223C1F022502A30A8F4E22F2A
:10027000F0E0E35CFE4F0C94930C76017A014701A9
:100280005E014C014C01620168016C0172019091A8
:1002900080009F7790938000E82FF0E0EE0FFF1F23
:1002A000EA56FF4FA591B4918FB7F894EC91611184
:1002B00024C030953E233C938FBF089590918000D9
:1002C0009F7DE8CF9091B0009F779093B000E4CFEE
:1002D0009091B0009F7DF9CF909190009F7790937F
:1002E0009000DACF909190009F7DF9CF94B59F77E1
:1002F00094BDD2CF94B59F7DFBCF3E2BDCCFCF9367
:10030000DF9390E0FC01E054FF4F249180569F4F13
:10031000FC0184918823D1F090E0880F991FFC01A3
:10032000E457FF4FA591B491FC01EA56FF4FC591E8
:10033000D49161110EC09FB7F8948C91E22FE09593
:100340008E238C932881E223E8839FBFDF91CF9196
:1003500008958FB7F894EC91E22BEC938FBFF6CF12
:100360003FB7F89480911F0690912006A091210636
:10037000B091220626B5A89B05C02F3F19F0019623
:10038000A11DB11D3FBFBA2FA92F982F8827BC01EF
:10039000CD01620F711D811D911D43E0660F771F16
:1003A000881F991F4A95D1F708958091230690914F
:1003B0002406891B990B0895AF92BF92CF92DF92CA
:1003C000EF92FF920F931F93CF93DF936C017B010A
:1003D0008B01040F151FEB015E01AE18BF08C0179B
:1003E000D10759F06991D601ED91FC910190F0810E
:1003F000E02DC6010995892B79F7C501DF91CF91D1
:100400001F910F91FF90EF90DF90CF90BF90AF9032
:100410000895FC01538D448D252F30E0842F90E00A
:10042000821B930B541710F0CF96089501970895EF
:10043000FC01918D828D981761F0A28DAE0FBF2FB8
:10044000B11D5D968C91928D9F5F9F73928F90E00E
:1004500008958FEF9FEF0895FC01918D828D98177D
:1004600031F0828DE80FF11D858D90E008958FEFBA
:100470009FEF0895FC01918D228D892F90E0805C83
:100480009F4F821B91098F739927089582E796E009
:100490000E943A0221E0892B09F420E0822F08957E
:1004A000FC01A48DA80FB92FB11DA35ABF4F2C91E9
:1004B000848D90E001968F739927848FA689B789E0
:1004C0002C93A089B1898C91837080648C93938DD7
:1004D000848D981306C00288F389E02D80818F7D7A
:1004E00080830895EF92FF920F931F93CF93DF9332
:1004F000EC0181E0888F9B8D8C8D98131AC0E88960
:10050000F989808185FF15C09FB7F894EE89FF892E
:100510006083E889F98980818370806480839FBFCC
:1005200081E090E0DF91CF911F910F91FF90EF90CC
:100530000895F62E0B8D10E00F5F1F4F0F731127DC
:10054000E02E8C8D8E110CC00FB607FCFACFE88917
:10055000F989808185FFF5CFCE010E945002F1CF4D
:10056000EB8DEC0FFD2FF11DE35AFF4FF0829FB78B
:10057000F8940B8FEA89FB8980818062CFCFCF937B
:10058000DF93EC01888D8823B9F0AA89BB89E889BB
:10059000F9898C9185FD03C0808186FD0DC00FB661
:1005A00007FCF7CF8C9185FFF2CF808185FFEDCFDF
:1005B000CE010E945002E9CFDF91CF91089580E0F3
:1005C00090E0892B29F00E94460281110E940000D0
:1005D00080E090E0892B49F080E090E0892B29F0C1
:1005E0000E94000081110C940000089585ED809315
:1005F000BC008091BC0084FDFCCF10924D06089594
:100600002091EA01260F3327331F21323105ECF404
:1006100020914D06FC0190E080E0243069F082E0FA
:100620000895A091EA012191AC0146535E4FA40FB9
:10063000B52FB11D2C930196861798F38091EA018E
:10064000680F6093EA0180E0089581E008950895BD
:10065000E091240680912306E81730F4F0E0EB5D8A
:10066000F94F808190E008958FEF9FEF089590916A
:100670002406809123062FEF3FEF981748F4E92FC7
:10068000F0E0EB5DF94F208130E09F5F909324060E
:10069000C9010895CF92DF92EF92FF920F931F93BB
:1006A000CF93DF937C01CB018A0120914E06222358
:1006B00089F0EB016B01C40ED51ECC15DD0569F088
:1006C0006991D701ED91FC910190F081E02DC70176
:1006D0000995F3CF642F0E940003C801DF91CF91E9
:1006E0001F910F91FF90EF90DF90CF900895CF93DF
:1006F000DF931F92CDB7DEB7698320914E06222388
:10070000F9F020917106203258F021E030E0FC0130
:100710003383228390E080E00F90DF91CF910895A2
:1007200080914F06E82FF0E0E05BF94F99819083CC
:100730008F5F80934F068093710681E090E0ECCF4D
:1007400061E0CE0101960E940003F7CF682F8FE091
:1007500097E00C94770390E080E0089590914D0627
:100760009111FCCF91E090934D0690934C062FEFA2
:1007700020934B0625E236E030934A062093490643
:10078000109248062FEF260F2093470690934606B7
:1007900090914606880F892B8093460680914506E6
:1007A0008130E9F410924506809146068093BB00A3
:1007B0008091BC0083FDF8CF85EC8093BC008091D4
:1007C0004D068130E1F380914806861710F4609160
:1007D00048061092240660932306862F089585EE1E
:1007E000ECCFFC0101900020E9F73197AF01481BE5
:1007F000590BBC0182E796E00C94DC018F929F922A
:10080000AF92BF920F931F93CF93DF93CDB7DEB715
:10081000A1970FB6F894DEBF0FBECDBF19A242302C
:1008200008F44AE08E010F5D1F4F842E912CB12CED
:10083000A12CA50194010E94710CE62FB901CA01F7
:10084000EA30F4F4E05DD801EE938D01232B242BE4
:10085000252B79F790E080E0109719F0CD010E94E8
:10086000F103A1960FB6F894DEBF0FBECDBFDF91A6
:10087000CF911F910F91BF90AF909F908F9008954F
:10088000E95CE1CFCF93DF9381E080934E068BE567
:100890008093700610924F061092710688E090E0E7
:1008A0000E94A60390E080E00E94A60381E00E94DF
:1008B000CB0060E18BE50E94AE03D0E18FE097E0D2
:1008C0000E943703C82F803120F48AE291E00E9411
:1008D000F1036C2F70E090E080E040E10E94FE03A5
:1008E000D15061F7DF91CF9108954F925F926F924F
:1008F0007F928F929F92AF92BF92CF92DF92EF92B0
:10090000FF920F931F93CF936B017C01742EAC0168
:100910009B010E94AF0D882399F08CE291E0CF916A
:100920001F910F91FF90EF90DF90CF90BF90AF900D
:100930009F908F907F906F905F904F900C94F103F9
:1009400046015701E894B7F82FEF3FEF4FE75FE715
:10095000C501B4010E94AF0D81110DC02FEF3FEF13
:100960004FE75FE7C501B4010E944D0B18161CF458
:1009700080E391E0D4CF2FEF3FEF4FE75FE4C70173
:10098000B6010E94AA0D18161CF484E391E0C7CFAB
:100990002FEF3FEF4FE75FECC701B6010E944D0B11
:1009A00087FDF3CF20E030E0A901C701B6010E9426
:1009B0004D0B10E000E087FF0AC06DE282E796E091
:1009C0000E9472028C01F7FAF094F7F8F094C0E0FC
:1009D00060E070E080E09FE37C1641F020E030E0D2
:1009E00040E251E40E94090DCF5FF6CFA7019601C6
:1009F0000E949D0C2B013C010E947B0D4B015C0170
:100A00004AE00E94FE037C01E00EF11ECC23C1F1FE
:100A1000C501B4010E94520B9B01AC01C301B2019C
:100A20000E949C0C4B015C016EE282E796E00E9402
:100A30007202E80EF91EC15018F120E030E040E2E9
:100A400051E4C501B4010E94B30B2B013C010E948B
:100A50007B0D4B01B12CA12C4AE0C501B4010E94D1
:100A6000FE03E80EF91EC501B4010E94520B9B0162
:100A7000AC01C301B2010E949C0C4B015C01DBCFB5
:100A8000C701CF911F910F91FF90EF90DF90CF9012
:100A9000BF90AF909F908F907F906F905F904F909E
:100AA0000895CF93DF93EC0188819981009711F02D
:100AB0000E94500E198218821D821C821B821A828B
:100AC000DF91CF910895FC0180819181009711F011
:100AD0000C94500E08950F931F93CF93DF93EC0166
:100AE00088819981009759F02A813B812617370721
:100AF00030F081E0DF91CF911F910F9108958B012C
:100B00006F5F7F4F0E94D90E009759F099838883B9
:100B10001B830A832C813D81232B59F7FC01108212
:100B2000E8CF80E0E7CFEF92FF920F931F93CF9330
:100B3000DF936115710541F480E0DF91CF911F9142
:100B40000F91FF90EF90089541155105B1F07B0191
:100B5000EC010C811D81040F151FB8010E946B056B
:100B6000882351F3288139818C819D81B701820FBF
:100B7000931F0E94C30F1D830C8381E0DECFEF9291
:100B8000FF920F931F93CF93DF93EC017B011982A8
:100B900018821B821A821D821C82FB010190002098
:100BA000E9F731978F01061B170BB8010E946B05FF
:100BB000811109C0CE01DF91CF911F910F91FF905C
:100BC000EF900C9451051D830C83B70188819981A6
:100BD000DF91CF911F910F91FF90EF900C94C30F75
:100BE0001F920F920FB60F9211242F933F938F9362
:100BF0009F93AF93BF9380911B0690911C06A09189
:100C00001D06B0911E0630911A0626E0230F2D37DF
:100C100068F129E8230F0396A11DB11D20931A0640
:100C200080931B0690931C06A0931D06B0931E068E
:100C300080911F0690912006A0912106B091220676
:100C40000196A11DB11D80931F0690932006A093CD
:100C50002106B0932206BF91AF919F918F913F9152
:100C60002F910F900FBE0F901F9018950296A11D07
:100C7000B11DD4CF1F920F920FB60F9211240BB655
:100C80000F922F933F934F935F936F937F938F9325
:100C90009F93AF93BF93EF93FF9382E796E00E94F9
:100CA0005002FF91EF91BF91AF919F918F917F91F2
:100CB0006F915F914F913F912F910F900BBE0F90CD
:100CC0000FBE0F901F9018951F920F920FB60F92A4
:100CD00011240BB60F922F938F939F93EF93FF9353
:100CE000E0918206F09183068081E0918806F09180
:100CF000890682FD1DC0908180918B068F5F8F7366
:100D000020918C06821741F0E0918B06F0E0EE58BE
:100D1000F94F958F80938B06FF91EF919F918F9163
:100D20002F910F900BBE0F900FBE0F901F90189534
:100D30008081F2CF1F920F920FB60F9211240BB643
:100D40000F922F933F934F935F936F937F938F9364
:100D50009F93AF93BF93EF93FF938091B900887FE8
:100D6000803609F44DC008F040C0883209F4A7C0AD
:100D700028F5803109F49BC0C8F4882309F403C125
:100D8000883009F494C0FF91EF91BF91AF919F918A
:100D90008F917F916F915F914F913F912F910F9024
:100DA0000BBE0F900FBE0F901F901895883109F45D
:100DB00086C0803241F780934B0614C0803409F41A
:100DC000A3C040F48033B9F38833E9F680934B062F
:100DD00085ECBAC0803509F487C0883509F49CC019
:100DE000883489F60E94F602CECF883909F492C081
:100DF00038F5883729F050F4883611F0803719F625
:100E000083E080934D0610920C0255C0883809F497
:100E100081C0803919F0803809F0B5CF80910C027B
:100E2000803208F077C0E0910C0281E08E0F809351
:100E30000C028091BB00F0E0E451FE4F80833BC088
:100E4000803B39F0D0F4803A09F483C0883A09F045
:100E50009ACF84E080934D061092EB011092EA0144
:100E6000F0E0E0E009958091EA0181110FC081E096
:100E70008093EA011092CA0109C0803C09F4A8CF0E
:100E8000883C09F4A5CF883B09F07DCFE091EB01C8
:100E900081E08E0F8093EB01F0E0E653FE4F8081FE
:100EA0008093BB009091EB018091EA0131C0809169
:100EB00046068093BB0085EC8093BC0064CF909184
:100EC0004806809147069817B8F580914906909199
:100ED0004A06E091480621E02E0F20934806E80FCD
:100EE000F92FF11D8081E5CF2091490630914A0606
:100EF000E091480681E08E0F809348068091BB0008
:100F0000E20FF32FF11D80839091480680914706F0
:100F1000981788F285E8D0CF2091490630914A068B
:100F2000E091480681E08E0F809348068091BB00D7
:100F3000E20FF32FF11D808380914C06811152CF77
:100F400081E08093450684EA8093BC0010924D06B0
:100F50001ACF85EC8093BC0010924D0680910C0254
:100F6000803230F4E0910C02F0E0E451FE4F108248
:100F700060910C0270E08CEE91E0F0E0E0E0099509
:100F800010920C0200CF10924B062CCFE2E7F6E055
:100F90001382128288EE93E0A0E0B0E08483958310
:100FA000A683B7832AE031E03183208325EC30E04B
:100FB0003587248724EC30E03787268720EC30E023
:100FC000318B208B21EC30E0338B228B22EC30E014
:100FD000358B248B26EC30E0378B268B118E128ECE
:100FE000138E148EEFE0F7E01382128284839583D0
:100FF000A683B7838CE191E09183808368E371E0FD
:1010000081E297E00E94BF0569E671E08BE197E01D
:101010000C94BF05CF93DF93CDB7DEB72C970FB6F7
:10102000F894DEBF0FBECDBF789484B5836084BDD5
:1010300085B5836085BD80916E00816080936E0070
:1010400092E0909381008091810081608093810083
:10105000809180008160809380008091B1008460E5
:101060008093B1008091B00081608093B000809146
:1010700091008360809391008091900081608093C3
:10108000900086E880937A001092C100E091820679
:10109000F09183069083E0917E06F0917F061082A6
:1010A000E0918006F091810688E0808310928A06A4
:1010B000E0918606F091870686E08083E0918406C1
:1010C000F0918506808188698083E0918406F091A3
:1010D000850680818F7D808380E28093B8001FB772
:1010E000F89480910D02811127C0E4EAF0E0849128
:1010F000E4ECF0E09491E82FF0E0EE0FFF1FE457EE
:10110000FF4FA591B491EC91E92321F461E084E0D3
:101110000E94230161E084E00E947F018CB5806120
:101120008CBD8CB580648CBD61E087E00E947F013E
:1011300061E085E00E947F0180910D028F5F8093C6
:101140000D021FBF81E58CBD1DBC60E08BE10E94DC
:101150007F0160E080E00E947F0161E082E10E9407
:101160007F0161E08FE00E947F0161E085E10E94E4
:101170007F0161E086E10E947F0161E087E10E94DA
:101180007F0161E08FE00E94230161E082E10E9423
:1011900023018AE791E00E94F10383E891E00E9435
:1011A000F10366E871E0CE0101960E94BF0540910F
:1011B0001F075091200760911B0770911C07CE01FB
:1011C00001960E949305811104C0CE0101960E94F0
:1011D000510543E050E066E971E0CE0101960E94BE
:1011E0009305811104C0CE0101960E9451054091E2
:1011F0002507509126076091210770912207CE01A3
:1012000001960E949305811104C0CE0101960E94AF
:10121000510541E050E068E971E0CE0101960E947D
:101220009305811104C0CE0101960E9451051886D4
:101230001F821A8619861C861B8609811A81011550
:10124000110569F0ED80FE80B701CE0107960E947E
:101250006B05811112C2CE0107960E945105CE0185
:1012600001960E9463054B855C856F81788582E7D6
:1012700096E00E94DC010E9442048AE991E00E940B
:10128000F1030E94420488E991E00E94F10381E0A9
:1012900080934E0683E58093700610924F0610925D
:1012A000710690E080E00E94A60390E080E00E943A
:1012B000A60381E00E94CB0062E083E50E94AE03BA
:1012C0008FE097E00E943703182F80930F028FE082
:1012D00097E00E94370380930E02612F70E090E048
:1012E00080E040E10E94FE0360910E0270E090E019
:1012F00080E040E10E94FE0383E891E00E94F10358
:101300008EEA91E00E94F10383E891E00E94F103EC
:1013100060E085E10E94230160E086E10E942301F4
:1013200060E087E10E942301EAE1F2E080E094E0DE
:10133000DF019C011D9221503040E1F72FB7F89456
:1013400080911B0690911C06A0911D06B0911E066F
:101350002FBF8093160290931702A0931802B093A8
:1013600019022FB7F89480911B0690911C06A0914A
:101370001D06B0911E062FBF809312029093130298
:10138000A0931402B0931502CE0107960E94630544
:10139000189B1AC060E082E10E9423010E94AE0007
:1013A0009695879596958795811534E0930740F437
:1013B000FC01E65EFD4F80818F3F11F08F5F8083DF
:1013C00061E082E10E9423018FB7F894C0901B0670
:1013D000D0901C06E0901D06F0901E068FBF8091F5
:1013E000160290911702A0911802B0911902A7015C
:1013F0009601281B390B4A0B5B0BDA01C901883BAC
:101400009B40A105B10508F46EC0C0921602D092AF
:101410001702E0921802F092190261E086E10E9440
:1014200023010EE112E09AE1A92E92E0B92E412C9F
:10143000512C3201D8018D918D01480E511C611C37
:10144000711CEAE1F6E0EA17FB07A1F787EB91E0F0
:101450000E94F103609110027091110290E080E00F
:101460004AE00E94FE0388E991E00E94F1034AE00D
:10147000C301B2010E94FE0388E991E00E94F103DA
:10148000D5016D915D0170E090E080E04AE00E943E
:10149000FE030A151B0581F783E891E00E94F10322
:1014A0008091100290911102019690931102809305
:1014B0001002EAE1F2E020E034E0119221503040E5
:1014C000E1F761E08FE00E94230160E082E10E9489
:1014D00023010E94AE0061E082E10E94230160E0EE
:1014E00086E10E9423018091120290911302A09143
:1014F0001402B0911502A7019601281B390B4A0B63
:101500005B0BDA01C90180369A4EA105B10508F4DA
:10151000B1C0C0921202D0921302E0921402F09273
:10152000150281E080934E0644E4409370061092C9
:101530004F06109271066DEF8FE097E00E947703DF
:1015400081E00E94CB00811195C00E94B0012B0167
:101550003C018AE0C82ED12CE12CF12C0E94B00174
:101560006419750986099709683E734081059105DC
:10157000A8F351E0C51AD108E108F10888EE480E39
:1015800083E0581E611C711CC114D104E104F104F4
:1015900029F766E084E40E94AE03809123069091CF
:1015A0002406891B990B06970CF464C08FE097E022
:1015B0000E943703182F8FE097E00E943703912E87
:1015C000812C7401E82AF92A8FE097E00E94370302
:1015D0008FE097E00E943703182F8FE097E00E947A
:1015E0003703312E212C8101082B192B8FE097E036
:1015F0000E9437038EEB91E00E94F103B70190E067
:1016000080E00E94520B20E03FEF4FE757E40E943A
:10161000090D20E030E04FE253E40E94B30B20E0DC
:1016200030E044E352E40E949C0C42E00E947504C6
:1016300088E991E00E94F103B80190E080E00E9407
:10164000520B20E03FEF4FE757E40E94090D20E0E6
:1016500030E04AEF52E40E94B30B20E030E040EC6F
:1016600050E40E949C0C42E00E94750483E891E0E3
:101670000E94F1030E94DF028BCEFC86EB86B8014C
:101680008F8198850E94C30FEACD8BE197E00E947D
:10169000630581E297E00C9463050E948F0B08F4C8
:1016A00081E00895E89409C097FB3EF490958095F9
:1016B000709561957F4F8F4F9F4F9923A9F0F92F18
:1016C00096E9BB279395F695879577956795B79596
:1016D000F111F8CFFAF4BB0F11F460FF1BC06F5F7C
:1016E0007F4F8F4F9F4F16C0882311F096E911C08E
:1016F000772321F09EE8872F762F05C0662371F0AF
:1017000096E8862F70E060E02AF09A95660F771FC2
:10171000881FDAF7880F9695879597F90895990F9E
:101720000008550FAA0BE0E8FEEF16161706E807AB
:10173000F907C0F012161306E407F50798F0621BCC
:10174000730B840B950B39F40A2661F0232B242BA1
:10175000252B21F408950A2609F4A140A6958FEFC0
:10176000811D811D08950E94C60B0C94370C0E94A8
:10177000290C38F00E94300C20F0952311F00C94C5
:10178000200C0C94260C11240C946B0C0E94480C19
:1017900070F3959FC1F3950F50E0551F629FF001C4
:1017A000729FBB27F00DB11D639FAA27F00DB11DDD
:1017B000AA1F649F6627B00DA11D661F829F222766
:1017C000B00DA11D621F739FB00DA11D621F839FED
:1017D000A00D611D221F749F3327A00D611D231FC3
:1017E000849F600D211D822F762F6A2F11249F5711
:1017F00050409AF0F1F088234AF0EE0FFF1FBB1F14
:10180000661F771F881F91505040A9F79E3F5105D2
:1018100080F00C94200C0C946B0C5F3FE4F3983E2A
:10182000D4F3869577956795B795F795E7959F5F7C
:10183000C1F7FE2B880F911D9695879597F908950E
:1018400097F99F6780E870E060E008959FEF80EC73
:10185000089500240A941616170618060906089516
:1018600000240A9412161306140605060895092E7C
:101870000394000C11F4882352F0BB0F40F4BF2BEB
:1018800011F460FF04C06F5F7F4F8F4F9F4F08952B
:1018900057FD9058440F551F59F05F3F71F0479521
:1018A000880F97FB991F61F09F3F79F08795089506
:1018B000121613061406551FF2CF4695F1DF08C025
:1018C000161617061806991FF1CF86957105610542
:1018D00008940895E894BB2766277727CB0197F9EA
:1018E0000895A1E21A2EAA1BBB1BFD010DC0AA1F61
:1018F000BB1FEE1FFF1FA217B307E407F50720F079
:10190000A21BB30BE40BF50B661F771F881F991FF3
:101910001A9469F760957095809590959B01AC013C
:10192000BD01CF010895EE0FFF1F0024001C0BBE68
:101930000790F691E02D09945058BB27AA270E94E2
:10194000B40C0C94370C0E94290C38F00E94300C17
:1019500020F039F49F3F19F426F40C94260C0EF471
:10196000E095E7FB0C94200CE92F0E94480C58F3FB
:10197000BA17620773078407950720F079F4A6F574
:101980000C946A0C0EF4E0950B2EBA2FA02D0B01CF
:10199000B90190010C01CA01A0011124FF27591BB4
:1019A00099F0593F50F4503E68F11A16F040A22FBA
:1019B000232F342F4427585FF3CF4695379527952B
:1019C000A795F0405395C9F77EF41F16BA0B620B2A
:1019D000730B840BBAF09150A1F0FF0FBB1F661F71
:1019E000771F881FC2F70EC0BA0F621F731F841FB4
:1019F00048F4879577956795B795F7959E3F08F0DA
:101A0000B0CF9395880F08F09927EE0F979587959B
:101A100008950E941D0D0C94370C0E94300C58F054
:101A20000E94290C40F029F45F3F29F00C94200C0F
:101A300051110C946B0C0C94260C0E94480C68F30A
:101A40009923B1F3552391F3951B550BBB27AA2777
:101A500062177307840738F09F5F5F4F220F331FB1
:101A6000441FAA1FA9F335D00E2E3AF0E0E832D079
:101A700091505040E695001CCAF72BD0FE2F29D07C
:101A8000660F771F881FBB1F261737074807AB074E
:101A9000B0E809F0BB0B802DBF01FF2793585F4FC3
:101AA0003AF09E3F510578F00C94200C0C946B0C8E
:101AB0005F3FE4F3983ED4F3869577956795B795A5
:101AC000F7959F5FC9F7880F911D9695879597F9B0
:101AD0000895E1E0660F771F881FBB1F6217730729
:101AE0008407BA0720F0621B730B840BBA0BEE1F3E
:101AF00088F7E09508950E94500C88F09F5798F061
:101B0000B92F9927B751B0F0E1F0660F771F881F02
:101B1000991F1AF0BA95C9F714C0B13091F00E941C
:101B20006A0CB1E008950C946A0C672F782F88270F
:101B3000B85F39F0B93FCCF3869577956795B39543
:101B4000D9F73EF490958095709561957F4F8F4FB2
:101B50009F4F08950E948F0B08F48FEF08950E9405
:101B60008F0B880B990B08950F931F93CF93DF93DF
:101B70008230910510F482E090E0E0912907F09125
:101B80002A0730E020E0B0E0A0E0309799F421157A
:101B9000310509F44AC0281B390B24303105D8F52A
:101BA0008A819B816115710589F1FB019383828391
:101BB000FE0111C0408151810281138148175907EC
:101BC000E0F04817590799F4109761F012960C93BA
:101BD000129713961C933296CF01DF91CF911F91EC
:101BE0000F9108950093290710932A07F4CF211528
:101BF000310551F04217530738F0A901DB019A0172
:101C0000BD01DF01F801C1CFEF01F9CF90932A07A1
:101C100080932907CDCFFE01E20FF31F81939193AB
:101C20002250310939832883D7CF2091270730915B
:101C30002807232B41F420910201309103013093B6
:101C400028072093270720910001309101012115D9
:101C5000310541F42DB73EB7409104015091050183
:101C6000241B350BE0912707F0912807E217F307B3
:101C7000A0F42E1B3F0B2817390778F0AC014E5FFC
:101C80005F4F2417350748F04E0F5F1F509328070A
:101C900040932707819391939FCFF0E0E0E09CCFA2
:101CA000CF93DF930097E9F0FC0132971382128201
:101CB000A0912907B0912A07ED0130E020E01097AC
:101CC000A1F420813181820F931F20912707309149
:101CD00028072817390709F061C0F0932807E09317
:101CE0002707DF91CF910895EA01CE17DF07E8F5C6
:101CF0004A815B819E0141155105B1F7E901FB83E2
:101D0000EA8349915991C40FD51FEC17FD0761F47F
:101D1000808191810296840F951FE90199838883C0
:101D2000828193819B838A83F0E0E0E012968D911B
:101D30009C9113970097B9F52D913C911197CD0186
:101D40000296820F931F20912707309128072817AA
:101D5000390739F6309751F510922A071092290762
:101D6000B0932807A0932707BCCFD383C2834081B9
:101D70005181840F951FC817D90761F44E5F5F4FDB
:101D800088819981480F591F518340838A819B81A3
:101D9000938382832115310509F0B0CFF0932A0790
:101DA000E09329079ECFFD01DC01C0CF1382128290
:101DB000D7CF4F925F926F927F928F929F92AF9206
:101DC000BF92CF92DF92EF92FF920F931F93CF9328
:101DD000DF938C01009799F4CB01DF91CF911F9194
:101DE0000F91FF90EF90DF90CF90BF90AF909F90BA
:101DF0008F907F906F905F904F900C94B40DFC018A
:101E0000E60FF71F9C0122503109E217F30708F48F
:101E1000AEC0D901CD91DC911197C617D70720F13B
:101E2000C530D10578F0CE0104978617970750F09A
:101E3000C61BD70B2297C193D1936D937C93CF018F
:101E40000E94500EC801DF91CF911F910F91FF901A
:101E5000EF90DF90CF90BF90AF909F908F907F904A
:101E60006F905F904F9008955B01AC1ABD0A4C01D2
:101E70008C0E9D1EA0912907B0912A07512C412C50
:101E8000F12CE12C109731F58091270790912807CC
:101E90008815990509F05CC04616570608F058C029
:101EA0008091000190910101009741F48DB79EB798
:101EB0004091040150910501841B950BE817F90727
:101EC00008F055C0F0932807E0932707F9017183C4
:101ED0006083B8CF8D919C91119712966C90129758
:101EE00013967C901397A815B90559F56C0142E03B
:101EF000C40ED11CCA14DB0420F1AC014A195B09E1
:101F0000DA011296159780F06282738251834083C2
:101F1000D9016D937C93E114F10471F0D70113960C
:101F2000FC93EE9312978ECF22968C0F9D1FF90192
:101F300091838083F301EFCFF0932A07E093290781
:101F400081CF4816590608F42C017D01D3019ACFA0
:101F5000CB010E94B40D7C01009749F0AE01B8019D
:101F60000E94BA0FC8010E94500E87016BCF10E08B
:101F700000E068CFFB01DC0102C001900D924150EE
:101F80005040D8F70895FB01DC0101900D9200202C
:101F9000E1F7089510E0C1E8D0E004C0FE010E941E
:0E1FA000930C2196C238D107C9F7F894FFCFF1
:101FAE0000002B078000000000007202DC01090215
:101FBE00BF023A0218022C020000000077034A0307
:101FCE00AB032703D5013703280330006E616E0083
:101FDE00696E66006F766600653562323261643214
:101FEE006662386334656133386664323631373948
:101FFE003336616262313235366336616138353976
:10200E002C43494275696C6400312E322E302D33CB
:10201E00362D43494275696C6400234376616B2EFD
:10202E002E2E000D0A0024444F532C414952444F8A
:10203E00533033422C002C302C000D0A24414443E3
:10204E002C555354534950494E3033432C0023489A
:10205E006D6D6D2E2E2E0024484953542C002445B0
:04206E004E562C009E
:00000001FF
