:100000000C9482000C94AC000C94AC000C94AC00EA
:100010000C94AC000C94AC000C94AC000C94740CDC
:100020000C94AC000C94AC000C94AC000C94AC00A0
:100030000C94AC000C94AC000C94AC000C94AC0090
:100040000C94AC000C94AC000C943E0A0C94AC00E4
:100050000C94120B0C94E80A0C94AC000C94AC00B9
:100060000C94AC000C94AC000C94480B0C94AC00B9
:100070000C94B20A0C94880A0C94AC000C94AC005A
:100080000C94AC000C94AC000C94AC00000021006B
:10009000240027002A0000002200250028002B0051
:1000A0000202020202020202040404040404040420
:1000B0000303030303030303010101010101010120
:1000C0000102040810204080010204081020408032
:1000D0000102040810204080010204081020408022
:1000E0000000000203000A0B0000000005040908DC
:1000F0000000000000000000000000000000000000
:10010000A60C541011241FBECFEFD0E4DEBFCDBF2C
:1001100029E0A4EFB1E001C01D92A13AB207E1F7D6
:1001200011E0A0E0B1E0E4E6FAE200E00BBF02C0BB
:1001300007900D92A43FB107D9F710E0C1E8D0E0D5
:1001400004C02197FE010E94E011C038D107C9F711
:100150000E94100D0C9425150C94000090911F081E
:1001600081E0913208F043C0809128088111FCCFD2
:1001700080911E0822E02093280821E02093270880
:100180002FEF209326082EEF37E030932508209399
:10019000240810922308909322081092210890912D
:1001A0002108880F892B80932108809120088130B5
:1001B00029F510922008809121088093BB0080913E
:1001C000BC0083FDF8CF85EC8093BC0080912808AB
:1001D0008230E1F3809126088F3F91F080912608CC
:1001E000803281F080912608803371F084E0109293
:1001F000FD0710921F081092FC07089585EEE4CFCA
:1002000080E0F5CF82E0F3CF83E0F1CF90E0FC0116
:10021000E052FF4F2491FC01E054FF4F349180568F
:100220009F4FFC018491882359F12223C1F0225071
:100230002A30A8F4E22FF0E0E05EFE4F0C94E011CB
:1002400059015D012A0141012F012F0145014B0197
:100250004F015501909180009F7790938000E82F87
:10026000F0E0EE0FFF1FEA56FF4FA591B4918FB754
:10027000F894EC91611124C030953E233C938FBFDC
:100280000895909180009F7DE8CF9091B0009F7776
:100290009093B000E4CF9091B0009F7DF9CF909102
:1002A00090009F7790939000DACF909190009F7D7F
:1002B000F9CF94B59F7794BDD2CF94B59F7DFBCFF6
:1002C0003E2BDCCFCF93DF9390E0FC01E054FF4F57
:1002D000249180569F4FFC0184918823D1F090E0B7
:1002E000880F991FFC01E457FF4FA591B491FC01C1
:1002F000EA56FF4FC591D49161110EC09FB7F89493
:100300008C91E22FE0958E238C932881E223E88361
:100310009FBFDF91CF9108958FB7F894EC91E22BB6
:10032000EC938FBFF6CF2FB7F8946091F8077091D8
:10033000F9078091FA079091FB072FBF0895AF92BC
:10034000BF92CF92DF92EF92FF920F931F93CF93C2
:10035000DF936C017B018B01040F151FEB015E0124
:10036000AE18BF08C017D10759F06991D601ED91B9
:10037000FC910190F081E02DC6010995892B79F758
:10038000C501DF91CF911F910F91FF90EF90DF900A
:10039000CF90BF90AF900895FC01538D448D252FD1
:1003A00030E0842F90E0821B930B541710F0CF960F
:1003B000089501970895FC01918D828D981761F041
:1003C000A28DAE0FBF2FB11D5D968C91928D9F5F58
:1003D0009F73928F90E008958FEF9FEF0895FC0137
:1003E000918D828D981731F0828DE80FF11D858DEA
:1003F00090E008958FEF9FEF0895FC01918D228D7D
:10040000892F90E0805C9F4F821B91098F73992701
:1004100008958BE498E00E94FD0121E0892B09F406
:1004200020E0822F089588EE98E00E94FD0121E0EF
:10043000892B09F420E0822F0895FC01A48DA80FD8
:10044000B92FB11DA35ABF4F2C91848D90E0019616
:100450008F739927848FA689B7892C93A089B18936
:100460008C91837080648C93938D848D981306C0D7
:100470000288F389E02D80818F7D80830895EF923B
:10048000FF920F931F93CF93DF93EC0181E0888F4E
:100490009B8D8C8D98131AC0E889F989808185FF1E
:1004A00015C09FB7F894EE89FF896083E889F989C0
:1004B00080818370806480839FBF81E090E0DF91C2
:1004C000CF911F910F91FF90EF900895F62E0B8D15
:1004D00010E00F5F1F4F0F731127E02E8C8D8E11D0
:1004E0000CC00FB607FCFACFE889F989808185FF37
:1004F000F5CFCE010E941D02F1CFEB8DEC0FFD2F49
:10050000F11DE35AFF4FF0829FB7F8940B8FEA89F1
:10051000FB8980818062CFCF682F88EE98E00C94B1
:100520003F02CF93DF93EC01888D8823B9F0AA892D
:10053000BB89E889F9898C9185FD03C0808186FD9E
:100540000DC00FB607FCF7CF8C9185FFF2CF8081ED
:1005500085FFEDCFCE010E941D02E9CFDF91CF9143
:10056000089580E090E0892B29F00E941302811108
:100570000E94000080E090E0892B29F00E9409028F
:1005800081110C940000089585ED8093BC0080914A
:10059000BC0084FDFCCF10922808089520918E02A3
:1005A000260F3327331F21323105ECF42091280820
:1005B000FC0190E080E0243069F082E00895A09191
:1005C0008E022191AC0142595D4FA40FB52FB11D90
:1005D0002C930196861798F380918E02680F609392
:1005E0008E0280E0089581E008950895E0912A0840
:1005F00080912908E81730F4F0E0E55DF74F80813D
:1006000090E008958FEF9FEF089590912A088091D0
:1006100029082FEF3FEF981748F4E92FF0E0E55D48
:10062000F74F208130E09F5F90932A08C901089519
:100630008091290890912A08891B990B0895CF92DF
:10064000DF92EF92FF920F931F93CF93DF937C0182
:10065000CB018A012091FC07222389F0EB016B0179
:10066000C40ED51ECC15DD0569F06991D701ED9159
:10067000FC910190F081E02DC7010995F3CF642F23
:100680000E94CE02C801DF91CF911F910F91FF9080
:10069000EF90DF90CF900895CF93DF931F92CDB767
:1006A000DEB769832091FC072223F9F020911F080F
:1006B000203258F021E030E0FC013383228390E0C7
:1006C00080E00F90DF91CF9108958091FD07E82F92
:1006D000F0E0E250F84F998190838F5F8093FD079F
:1006E00080931F0881E090E0ECCF61E0CE0101969D
:1006F0000E94CE02F7CF682F85E899E00C944C0356
:1007000090E080E00895CF92DF92EF92FF920F93F6
:100710001F93CF93DF938C01EB01F894C0906A0292
:10072000D0906B02E0906C02F0906D0260918400BA
:100730007091850080916802909169027894681B9D
:10074000790B90E080E027E0660F771F881F991FE4
:100750002A95D1F720E137E240E050E00E94BE1137
:10076000243648F528838091600290916102A0911F
:100770006202B09163028C0D9D1DAE1DBF1D4091A4
:1007800064025091650260916602709167026C018B
:100790007D01C41AD50AE60AF70AF801C082D1829F
:1007A000E282F382DF91CF911F910F91FF90EF9042
:1007B000DF90CF90089583E68883D5CF189B48C0FB
:1007C000209184003091850042981EBC0DB407FE34
:1007D000FDCF8EB51EBC0DB407FEFDCF9EB5429A6F
:1007E0008927982789278034910570F4880F991FED
:1007F000FC01E159F84F808191818F3F980741F1C9
:1008000001969183808308954091BD025091BE026C
:100810004C325140A0F4E091BD02F091BE02EE0FC7
:10082000FF1FE95EFA4F31832083E091BD02F09112
:10083000BE02EE0FFF1FE154FD4F91838083809134
:10084000BD029091BE0201969093BE028093BD02BC
:100850000895909128089111FCCF91E09093280879
:10086000909327082FEF209326082BE238E030934F
:10087000250820932408109223082FEF260F209399
:1008800022089093210890912108880F892B80934A
:100890002108809120088130E9F41092200880918D
:1008A00021088093BB008091BC0083FDF8CF85ECCC
:1008B0008093BC00809128088130E1F38091230867
:1008C000861710F46091230810922A086093290873
:1008D000862F089585EEECCFFC0101900020E9F70A
:1008E0003197AF01481B590BBC0188EE98E00C947E
:1008F0009F018F929F92AF92BF920F931F93CF93BE
:10090000DF93CDB7DEB7A1970FB6F894DEBF0FBE69
:10091000CDBF19A2423008F44AE08E010F5D1F4F8F
:10092000842E912CB12CA12CA50194010E94BE1102
:10093000E62FB901CA01EA30F4F4E05DD801EE9384
:100940008D01232B242B252B79F790E080E0109745
:1009500019F0CD010E946C04A1960FB6F894DEBF89
:100960000FBECDBFDF91CF911F910F91BF90AF9080
:100970009F908F900895E95CE1CFBC0190E080E00A
:100980004AE00C947904CF93DF9381E08093FC07D5
:100990008BE580931E081092FD0710921F0888E0D7
:1009A00090E00E947B0390E080E00E947B030E9425
:1009B000AE0060E18BE50E942904D0E185E899E072
:1009C0000E940503C82F803118F480E30E948C0236
:1009D0006C2F70E090E080E040E10E947904D150FB
:1009E00069F7DF91CF910895CF93C82F8A3018F41B
:1009F00080E30E948C026C2F70E090E080E04AE07F
:100A0000CF910C94790486E391E00C946C040C94DF
:100A10006C044F925F926F927F928F929F92AF92EF
:100A2000BF92CF92DF92EF92FF920F931F93CF93DB
:100A30006B017C01742EAC019B010E94FC12882387
:100A400099F089E391E0CF911F910F91FF90EF9082
:100A5000DF90CF90BF90AF909F908F907F906F90DE
:100A60005F904F900C946C0446015701E894B7F8DE
:100A70002FEF3FEF4FE75FE7C501B4010E94FC1283
:100A800081110DC02FEF3FEF4FE75FE7C501B401C4
:100A90000E945C1018161CF48DE391E0D4CF2FEF68
:100AA0003FEF4FE75FE4C701B6010E94F712181647
:100AB0001CF481E491E0C7CF2FEF3FEF4FE75FECED
:100AC000C701B6010E945C1087FDF3CF20E030E043
:100AD000A901C701B6010E945C1010E000E087FF89
:100AE00008C08DE20E948C028C01F7FAF094F7F8AE
:100AF000F094C0E060E070E080E09FE37C1641F09D
:100B000020E030E040E251E40E945612CF5FF6CF81
:100B1000A70196010E94EA112B013C010E94C81214
:100B20004B015C014AE00E9479047C01E00EF11E59
:100B3000CC2399F1C501B4010E9461109B01AC0165
:100B4000C301B2010E94E9114B015C018EE20E94D7
:100B50008C02E80EF91EC15000F120E030E040E2C6
:100B600051E4C501B4010E94C2102B013C010E9456
:100B7000C8124B01CB010E94BD04E80EF91EB4015E
:100B800090E080E00E9461109B01AC01C301B201C2
:100B90000E94E9114B015C01DECFC701CF911F918B
:100BA0000F91FF90EF90DF90CF90BF90AF909F900C
:100BB0008F907F906F905F904F900895CF93DF93C9
:100BC000EC0188819981009711F00E949D13198290
:100BD00018821D821C821B821A82DF91CF91089598
:100BE000FC0180819181009711F00C949D13089570
:100BF0000F931F93CF93DF93EC0188819981009726
:100C000059F02A813B812617370730F081E0DF91C8
:100C1000CF911F910F9108958B016F5F7F4F0E94BD
:100C20002614009759F0998388831B830A832C81AB
:100C30003D81232B59F7FC011082E8CF80E0E7CFFC
:100C4000EF92FF920F931F93CF93DF93611571057E
:100C500041F480E0DF91CF911F910F91FF90EF90D1
:100C6000089541155105B1F07B01EC010C811D8106
:100C7000040F151FB8010E94F805882351F328813D
:100C800039818C819D81B701820F931F0E941015BD
:100C90001D830C8381E0DECFEF92FF920F931F93B1
:100CA000CF93DF93EC017B01198218821B821A8299
:100CB0001D821C82FB0101900020E9F731978F0112
:100CC000061B170BB8010E94F805811109C0CE015F
:100CD000DF91CF911F910F91FF90EF900C94DE0563
:100CE0001D830C83B70188819981DF91CF911F917A
:100CF0000F91FF90EF900C9410152F923F924F920E
:100D00005F926F927F928F929F92AF92BF92CF929B
:100D1000DF92EF92FF920F931F93CF93DF93CDB7A4
:100D2000DEB7AF970FB6F894DEBF0FBECDBF9E0102
:100D3000235F3F4F3AA329A3AE01475E5F4F5CA3F9
:100D40004BA38BE498E00E94FD01892B09F49DC21E
:100D50000E94DE038BE498E00E94DB01843231F4D0
:100D60008093FC0181E08093FB01EBCFE091FB01DC
:100D70009FEF9E0F923608F085C2EE24E394EE0EAC
:100D8000E092FB01F0E0E450FE4F80838A30C9F628
:100D9000EE2DF0E0E450FE4F108247E050E065E4B5
:100DA00071E08CEF91E00E941715892B59F047E014
:100DB00050E06DE471E08CEF91E00E941715892BF3
:100DC00009F060C28CE0A9A1BAA11D928A95E9F749
:100DD00088E0EBA1FCA111928A95E9F70CEF11E0F4
:100DE000D12CF12CE0E040E0D8018D918D01CC2494
:100DF000C394C40E8C3241F08D3031F0982F9F7D1A
:100E00009A3011F0811117C04E1BB1E0FB1285C062
:100E1000463060F04B3008F04AE050E06E2F70E052
:100E200064507E4FCE010D960E940715F394EC2D71
:100E300039E03F1518F04C2DEC14B0F641E4D41213
:100E400007C08D85882321F081E0998D911101C023
:100E500080E05090FA018093FA01882309F412C2CD
:100E60008D8580539AE02E852053922E899F900C79
:100E700011248F85805348894053899F400D112448
:100E8000898980537A8850ED750E899F700C1124E2
:100E9000898D80536A8C650E899F600C11248B8D1F
:100EA00080538C8C850E899F800C11242D8D2053AE
:100EB0008E8D8053299F800D1124E82FF0E0863419
:100EC00008F447C0E459F84F02EB17E0C12CD12CCD
:100ED000760120E931E094E6A92EB12CC801837097
:100EE00099270E171F07E9F1892B31F4C801B501C5
:100EF0000E94AA11892B31F4C801B9010E94AA11DC
:100F0000892B51F58EE691E0A0E0B0E0C80ED91E25
:100F1000EA1EFB1E0F5F1F4FE1CFF2E0FF1208C079
:100F2000442309F483CFF0E0E450FE4FD0807ECF1D
:100F300029E0F2127BCF463008F478CFF0E0E4509D
:100F4000FE4F86E0DE01599601900D928A95E1F7F9
:100F50006DCFE053F84FB8CF8DE691E0A0E0B0E060
:100F6000D5CF2CE0E6E0F1E0DE01119601900D9284
:100F70002A95E1F7892B39F4C80164E670E00E94F4
:100F8000AA11892B39F4C80160E971E00E94AA1105
:100F9000892BD9F49DE180E0A82DA150BB0BBD01A8
:100FA000282F30E026173707A0F4813081F0E1E0E8
:100FB000F0E0EC0FFD1F2E0F3F1FD9012C91C20E48
:100FC000D11CE11CF11C8F5FEBCF9CE1E4CF292FFA
:100FD000F6CFE091B402F894292D30E0A0E1BEE014
:100FE0000E948B114B015C01242F30E0ACE3B0E098
:100FF0000E948B11860E971EA81EB91E870C911C8D
:10100000A11CB11C262D2150330BC901A70196014B
:10101000280F391F411D511D60E871E581E090E006
:101020000E949A11860E971EA81EB91E8092600219
:1010300090926102A0926202B092630280916A0271
:1010400090916B02A0916C02B0916D02809364024A
:1010500090936502A0936602B093670281E080934B
:10106000B4027894EE2311F051100CC1F894409022
:101070006A0250906B0260906C0270906D028091D9
:10108000600290916102A0916202B09163028DA30F
:101090009EA3AFA3B8A78091640290916502A0912E
:1010A0006602B09167027894A3019201281B390B64
:1010B0004A0B5B0B29A73AA74BA75CA78DA09EA064
:1010C000AFA0B8A4820E931EA41EB51EC501B40124
:1010D0002CE330E040E050E00E94BE116DA7CA0151
:1010E000B9012CE330E040E050E00E94BE116EA751
:1010F000C501B40120E13EE040E050E00E94BE1195
:10110000CA01B90128E130E040E050E00E94BE1180
:101110006FA7C501B40120E831E541E050E00E942D
:10112000BE1169017A0182EB282E87E0382E00E992
:1011300011E0E4E6F0E09101237033272115310539
:1011400031F4C101BF010E94AA11892B31F4C10100
:10115000B8010E94AA11892B89F48EE691E0B0E0D3
:10116000A0E0C816D906EA06FB0658F0C81AD90A44
:10117000EA0AFB0A3FEF231A330ADDCF8DE691E03E
:10118000EECF8CE0E6E0F1E0DE01119601900D92E9
:101190008A95E1F7232B39F4C10164E670E00E94DF
:1011A000AA11892B41F4C10160E971E00E94AA11E2
:1011B0002CE1892B09F42DE111E0822F123021F06E
:1011C000FE01E10FF11D808190E0B0E0A0E0C816C3
:1011D000D906EA06FB0630F0C81AD90AEA0AFB0A61
:1011E0001F5FEBCF85E591E00E9407054AE0C30150
:1011F000B2010E9479048FEB91E00E9407054AE05A
:101200006DA17EA18FA198A50E9479048FEB91E03A
:101210000E9407054AE0C501B4010E9479048FEBE2
:1012200091E00E9407054AE069A57AA58BA59CA5D7
:101230000E9479048FEB91E00E940705C1010E9492
:10124000BD048DE20E948C02812F0E94F4048DE285
:101250000E948C0281E08C0D0E94F40480E20E94C6
:101260008C028FA50E94F4048AE30E948C028EA552
:101270000E94F4048AE30E948C028DA50E94F4046B
:101280000E9403051092FB015CCDAF960FB6F89457
:10129000DEBF0FBECDBFDF91CF911F910F91FF90A9
:1012A000EF90DF90CF90BF90AF909F908F907F9006
:1012B0006F905F904F903F902F900895CF92DF9264
:1012C000EF92FF920F931F93CF93DF9300D000D044
:1012D0001F92CDB7DEB78091B402811131C019825F
:1012E0001A821B821C821D8281E08093FC0785E4A8
:1012F00080931E081092FD0710921F0864E285E893
:1013000099E00E944C0360E085E899E00E944C035C
:101310000E94AE008111A4C00E9493016B017C0168
:101320000E9493016C197D098E099F096F30710528
:101330008105910568F40E94DE030E947D06F0CFCE
:10134000BE016B5F7F4FCE0101960E948303CCCF1D
:1013500066E085E40E9429048091290890912A087A
:10136000891B990B06970CF47BC085E899E00E94D5
:101370000503182F85E899E00E940503E12CF12E62
:10138000E82AF92A85E899E00E94050385E899E0B2
:101390000E940503182F85E899E00E94050360E08C
:1013A000712F8B01082B192B85E899E00E9405030A
:1013B0008CE591E00E9407058091B5029091B602FC
:1013C0000E94BD048FEB91E00E94070569817A813C
:1013D0008B819C814AE00E9479048BEA91E00E9413
:1013E00007056D8170E090E080E04AE00E9479049A
:1013F0008FEB91E00E940705B70190E080E00E942A
:10140000611020E03FEF4FE757E40E94561220E0C2
:1014100030E04FE253E40E94C21020E030E044E3A9
:1014200052E40E94E91141E00E9409058FEB91E02E
:101430000E940705B80190E080E00E94611020E062
:101440003FEF4FE757E40E94561220E030E048ECAF
:1014500052E40E94C21041E00E9409050E94030567
:101460000F900F900F900F900F90DF91CF911F91E1
:101470000F91FF90EF90DF90CF9008951F920F9201
:101480000FB60F9211242F933F938F939F93AF9397
:10149000BF938091F8079091F907A091FA07B09156
:1014A000FB073091F70726E0230F2D3768F129E875
:1014B000230F0396A11DB11D2093F7078093F80712
:1014C0009093F907A093FA07B093FB078091F30775
:1014D0009091F407A091F507B091F6070196A11D30
:1014E000B11D8093F3079093F407A093F507B09391
:1014F000F607BF91AF919F918F913F912F910F90E0
:101500000FBE0F901F9018950296A11DB11DD4CF4C
:101510001F920F920FB60F9211240BB60F922F93BA
:101520003F934F935F936F937F938F939F93AF936B
:10153000BF93EF93FF938BE498E00E941D02FF910D
:10154000EF91BF91AF919F918F917F916F915F913B
:101550004F913F912F910F900BBE0F900FBE0F90A8
:101560001F9018951F920F920FB60F9211240BB671
:101570000F922F938F939F93EF93FF93E0915B08CC
:10158000F0915C088081E0916108F091620882FD31
:101590001DC09081809164088F5F8F7320916508D2
:1015A000821741F0E0916408F0E0E55BF74F958F1A
:1015B00080936408FF91EF919F918F912F910F90ED
:1015C0000BBE0F900FBE0F901F9018958081F2CF29
:1015D0001F920F920FB60F9211240BB60F922F93FA
:1015E0003F934F935F936F937F938F939F93AF93AB
:1015F000BF93EF93FF9388EE98E00E941D02FF9146
:10160000EF91BF91AF919F918F917F916F915F917A
:101610004F913F912F910F900BBE0F900FBE0F90E7
:101620001F9018951F920F920FB60F9211240BB6B0
:101630000F922F938F939F93EF93FF93E091F8086E
:10164000F091F9088081E091FE08F091FF0882FD99
:101650001DC09081809101098F5F8F7320910209D5
:10166000821741F0E0910109F0E0E851F74F958FC2
:1016700080930109FF91EF919F918F912F910F908E
:101680000BBE0F900FBE0F901F9018958081F2CF68
:101690001F920F920FB60F9211240BB60F922F9339
:1016A0003F934F935F936F937F938F939F93AF93EA
:1016B000BF93EF93FF938091B900887F803609F440
:1016C0004DC008F040C0883209F4A7C028F5803129
:1016D00009F49BC0C8F4882309F403C1883009F4D5
:1016E00094C0FF91EF91BF91AF919F918F917F91A6
:1016F0006F915F914F913F912F910F900BBE0F9083
:101700000FBE0F901F901895883109F486C0803263
:1017100041F78093260814C0803409F4A3C040F434
:101720008033B9F38833E9F68093260885ECBAC094
:10173000803509F487C0883509F49CC0883489F65F
:101740000E94C402CECF883909F492C038F5883798
:1017500029F050F4883611F0803719F683E0809331
:1017600028081092B00255C0883809F481C0803929
:1017700019F0803809F0B5CF8091B002803208F0BE
:1017800077C0E091B00281E08E0F8093B00280912B
:10179000BB00F0E0E057FD4F80833BC0803B39F059
:1017A000D0F4803A09F483C0883A09F09ACF84E0F3
:1017B0008093280810928F0210928E02F0E0E0E0F1
:1017C000099580918E0281110FC081E080938E0275
:1017D00010926E0209C0803C09F4A8CF883C09F43D
:1017E000A5CF883B09F07DCFE0918F0281E08E0F7D
:1017F00080938F02F0E0E259FD4F80818093BB001F
:1018000090918F0280918E0231C080912108809347
:10181000BB0085EC8093BC0064CF9091230880913D
:1018200022089817B8F58091240890912508E09136
:10183000230821E02E0F20932308E80FF92FF11D34
:101840008081E5CF2091240830912508E09123087C
:1018500081E08E0F809323088091BB00E20FF32F6D
:10186000F11D80839091230880912208981788F2B7
:1018700085E8D0CF2091240830912508E0912308F5
:1018800081E08E0F809323088091BB00E20FF32F3D
:10189000F11D808380912708811152CF81E08093D0
:1018A000200884EA8093BC00109228081ACF85ECA7
:1018B0008093BC00109228088091B002803230F4EE
:1018C000E091B002F0E0E057FD4F10826091B0026D
:1018D00070E080E992E0F0E0E0E009951092B0025B
:1018E00000CF109226082CCF1F920F920FB60F92A6
:1018F00011248F939F93AF93BF934C9B25C08091EE
:101900008400909185009093690280936802809191
:101910006A0290916B02A0916C02B0916D020196E7
:10192000A11DB11D80936A0290936B02A0936C027B
:10193000B0936D02479ABF91AF919F918F910F9095
:101940000FBE0F901F9018954798F5CFEBE4F8E085
:101950001382128288EE93E0A0E0B0E08483958346
:10196000A683B78326E131E0318320834DEC50E03C
:10197000558744874CEC50E05787468748EC50E049
:10198000518B408B49EC50E0538B428B4AEC50E03A
:10199000558B448B4EEC50E0578B468B118E128E3C
:1019A000138E148EE8EEF8E01382128284839583FE
:1019B000A683B7833183208325EC30E035872487E5
:1019C00024EC30E03787268720EC30E0318B208B09
:1019D00021EC30E0338B228B22EC30E0358B248BF2
:1019E00026EC30E0378B268B118E128E138E148EE0
:1019F000E5E8F9E01382128284839583A683B78396
:101A000088E291E09183808362E671E087E999E062
:101A10000E944C0663E971E081E999E00C944C0660
:101A2000CF93DF93CDB7DEB72C970FB6F894DEBF18
:101A30000FBECDBF789484B5836084BD85B58360C7
:101A400085BD80916E00816080936E0082E08093FE
:101A5000810090918100916090938100909180002D
:101A60009160909380009091B10094609093B10048
:101A70009091B00091609093B0009091910093602C
:101A8000909391009091900091609093900096E8CF
:101A900090937A001092C100E091F808F091F90853
:101AA0008083E091F408F091F5081082E091F60847
:101AB000F091F70898E0908310920009E091FC08FB
:101AC000F091FD0826E02083E091FA08F091FB08F0
:101AD000908198699083E091FA08F091FB089081D9
:101AE0009F7D9083E0915B08F0915C088083E0919A
:101AF0005708F09158081082E0915908F0915A085F
:101B000089E1808310926308E0915F08F09160089A
:101B10002083E0915D08F0915E0880818869808370
:101B2000E0915D08F0915E0880818F7D808380E286
:101B30008093B8001FB7F8948091B102811127C03B
:101B4000E4EAF0E08491E4ECF0E09491E82FF0E036
:101B5000EE0FFF1FE457FF4FA591B491EC91E923DD
:101B600021F461E084E00E94060161E084E00E94CB
:101B700062018CB580618CBD8CB580648CBD61E0E8
:101B800087E00E94620161E085E00E94620180912D
:101B9000B1028F5F8093B1021FBF81E58CBD1DBC78
:101BA0001092800085E08093810010928500109251
:101BB000840060E080E00E94620160E08CE00E94AE
:101BC000620161E082E10E94620161E08FE00E94B7
:101BD000620161E085E10E94620161E086E10E94AC
:101BE000620161E087E10E94620161E08FE00E9492
:101BF000060161E082E10E94060180916800886030
:101C0000809368008091730080618093730084EA00
:101C100091E00E946C040E9403056DEA71E0CE0120
:101C200001960E944C064091950950919609609149
:101C3000910970919209CE0101960E9420068111AE
:101C400004C0CE0101960E94DE0543E050E06DEB3A
:101C500071E0CE0101960E942006811104C0CE01E0
:101C600001960E94DE0540919B0950919C0960916C
:101C7000970970919809CE0101960E942006811162
:101C800004C0CE0101960E94DE0541E050E06FEBFA
:101C900071E0CE0101960E942006811104C0CE01A0
:101CA00001960E94DE0518861F821A8619861C86F8
:101CB0001B8609811A810115110569F0ED80FE80EE
:101CC000B701CE0107960E94F805811128C1CE0107
:101CD00007960E94DE05CE0101960E94F0054B8515
:101CE0005C856F81788588EE98E00E949F010E9454
:101CF000C3040E94030581EC91E00E9407050E9445
:101D0000C3048FEB91E00E94070581E08093FC07FC
:101D100083E580931E081092FD0710921F0890E043
:101D200080E00E947B0390E080E00E947B030E94A1
:101D3000AE0062E083E50E94290485E899E00E94F4
:101D40000503182F8093B30285E899E00E940503EC
:101D50008093B202612F70E090E080E040E10E9449
:101D600079046091B20270E090E080E040E10E946E
:101D700079040E94030583ED91E00E946C040E94A7
:101D800003050E945E0960E085E10E94060160E0B3
:101D900086E10E94060160E087E10E940601EFE60D
:101DA000F7E080E8DF011D928A95E9F788E592E087
:101DB000E7E1F5E0DF019C011D9221503040E1F7A1
:101DC000EFEBF2E0DF019C011D9221503040E1F782
:101DD0001092BE021092BD020E9493016093EF0721
:101DE0007093F0078093F1079093F2070E9493019C
:101DF0006093B7027093B8028093B9029093BA02CD
:101E000080918400909185009093BC028093BB02E6
:101E1000CE0107960E94F0059FEE292E97E0392EFD
:101E200028E5822E22E0922E0E94DE030E947D068B
:101E30000E9493012B013C018091EF079091F007E4
:101E4000A091F107B091F207A3019201281B390B71
:101E50004A0B5B0BDA01C90180319742A105B1053C
:101E600008F4F4C04092EF075092F0076092F10737
:101E70007092F20761E086E10E9406018091B4024F
:101E8000811155C019821A821B821C821F82F8940C
:101E9000A0908400B0908500C090BD02D090BE029A
:101EA0000091BB021091BC0278948CED91E00E94ED
:101EB00007058091B5029091B6020E94BD048FEB98
:101EC00091E00E940705C8010E94BD040E9403051D
:101ED00010E000E0C016D10691F10C3241E0140789
:101EE00071F10E94DE0384EE91E00E940705780103
:101EF000EE0CFF1CF701E95EFA4F808191810E9490
:101F0000BD048FEB91E00E940705F701E154FD4FFE
:101F1000808191810E94BD040F5F1F4FDBCFFC8643
:101F2000EB86B8018F8198850E941015D4CEBE0132
:101F3000695F7F4FCE0101960E948303A8CF8AEE8E
:101F400091E00E9407058091B5029091B6020E942F
:101F5000BD048FEB91E00E94070569817A818B8136
:101F60009C814AE00E9479048BEA91E00E94070577
:101F70006F8170E090E080E04AE00E9479048FEB8E
:101F800091E00E940705C5010E94BD048FEB91E01E
:101F90000E940705C6010E94BD040FE617E00E94DB
:101FA000DE038FEB91E00E940705D8018D919D9192
:101FB0008D010E94BD042016310689F70E94030599
:101FC0008091B5029091B60201969093B6028093EB
:101FD000B502EFE6F7E020E811922A95E9F7A7E1CC
:101FE000B5E0F4011D923197E9F7AFEBB2E0F401EF
:101FF0001D923197E9F71092BE021092BD028091B6
:102000008400909185009093BC028093BB0261E0B4
:102010008FE00E94060160E082E10E9406010CB49C
:1020200005FC36C01EBC00000DB407FEFDCF8EB50A
:102030001EBC00000DB407FEFDCF8EB561E082E14D
:102040000E94060160E086E10E9406018091B702CD
:102050009091B802A091B902B091BA02A301920185
:10206000281B390B4A0B5B0BDA01C90180339547FA
:10207000A105B10550F04092B7025092B8026092AB
:10208000B9027092BA020E945E090E94B102CCCEDF
:102090001EBC00000DB407FEFDCF8EB51EBC0000B7
:1020A0000DB407FEFDCFC9CF81E999E00E94F0058C
:1020B00087E999E00C94F0050E949E1008F481E0F5
:1020C0000895E89409C097FB3EF49095809570952B
:1020D00061957F4F8F4F9F4F9923A9F0F92F96E974
:1020E000BB279395F695879577956795B795F111E9
:1020F000F8CFFAF4BB0F11F460FF1BC06F5F7F4F86
:102100008F4F9F4F16C0882311F096E911C0772397
:1021100021F09EE8872F762F05C0662371F096E8A0
:10212000862F70E060E02AF09A95660F771F881F6F
:10213000DAF7880F9695879597F90895990F000813
:10214000550FAA0BE0E8FEEF16161706E807F90789
:10215000C0F012161306E407F50798F0621B730B24
:10216000840B950B39F40A2661F0232B242B252BA5
:1021700021F408950A2609F4A140A6958FEF811D48
:10218000811D08950E94D5100C9446110E943811AB
:1021900038F00E943F1120F0952311F00C942F117C
:1021A0000C94351111240C947A110E94571170F37C
:1021B000959FC1F3950F50E0551F629FF001729FEC
:1021C000BB27F00DB11D639FAA27F00DB11DAA1FFB
:1021D000649F6627B00DA11D661F829F2227B00D48
:1021E000A11D621F739FB00DA11D621F839FA00DD3
:1021F000611D221F749F3327A00D611D231F849F23
:10220000600D211D822F762F6A2F11249F57504079
:102210009AF0F1F088234AF0EE0FFF1FBB1F661FF4
:10222000771F881F91505040A9F79E3F510580F0BD
:102230000C942F110C947A115F3FE4F3983ED4F381
:10224000869577956795B795F795E7959F5FC1F761
:10225000FE2B880F911D9695879597F9089597F90C
:102260009F6780E870E060E008959FEF80EC08953C
:1022700000240A9416161706180609060895002465
:102280000A9412161306140605060895092E0394DF
:10229000000C11F4882352F0BB0F40F4BF2B11F453
:1022A00060FF04C06F5F7F4F8F4F9F4F089557FDB2
:1022B0009058440F551F59F05F3F71F04795880FB4
:1022C00097FB991F61F09F3F79F08795089512164B
:1022D00013061406551FF2CF4695F1DF08C01616F7
:1022E00017061806991FF1CF8695710561050894A8
:1022F0000895E894BB2766277727CB0197F90895BF
:102300000E948B11A59F900DB49F900DA49F800DEE
:10231000911D11240895A29FB001B39FC001A39FF6
:10232000700D811D1124911DB29F700D811D11240E
:10233000911D0895DB018F939F930E948011BF919F
:10234000AF91A29F800D911DA39F900DB29F900D04
:1023500011240895AA1BBB1B51E107C0AA1FBB1F74
:10236000A617B70710F0A61BB70B881F991F5A9521
:10237000A9F780959095BC01CD010895A1E21A2E90
:10238000AA1BBB1BFD010DC0AA1FBB1FEE1FFF1F19
:10239000A217B307E407F50720F0A21BB30BE40B69
:1023A000F50B661F771F881F991F1A9469F76095B0
:1023B0007095809590959B01AC01BD01CF0108956A
:1023C000EE0FFF1F0024001C0BBE0790F691E02DBE
:1023D00009945058BB27AA270E9401120C94461159
:1023E0000E94381138F00E943F1120F039F49F3FCD
:1023F00019F426F40C9435110EF4E095E7FB0C94D7
:102400002F11E92F0E94571158F3BA17620773076B
:102410008407950720F079F4A6F50C9479110EF451
:10242000E0950B2EBA2FA02D0B01B90190010C01E4
:10243000CA01A0011124FF27591B99F0593F50F4FC
:10244000503E68F11A16F040A22F232F342F442754
:10245000585FF3CF469537952795A795F04053954C
:10246000C9F77EF41F16BA0B620B730B840BBAF01C
:102470009150A1F0FF0FBB1F661F771F881FC2F787
:102480000EC0BA0F621F731F841F48F4879577959B
:102490006795B795F7959E3F08F0B0CF9395880F55
:1024A00008F09927EE0F9795879508950E946A1274
:1024B0000C9446110E943F1158F00E94381140F0D0
:1024C00029F45F3F29F00C942F1151110C947A11CB
:1024D0000C9435110E94571168F39923B1F35523D9
:1024E00091F3951B550BBB27AA2762177307840727
:1024F00038F09F5F5F4F220F331F441FAA1FA9F3BD
:1025000035D00E2E3AF0E0E832D091505040E695AA
:10251000001CCAF72BD0FE2F29D0660F771F881F0B
:10252000BB1F261737074807AB07B0E809F0BB0BFE
:10253000802DBF01FF2793585F4F3AF09E3F510512
:1025400078F00C942F110C947A115F3FE4F3983ECD
:10255000D4F3869577956795B795F7959F5FC9F7FB
:10256000880F911D9695879597F90895E1E0660F7C
:10257000771F881FBB1F621773078407BA0720F0F5
:10258000621B730B840BBA0BEE1F88F7E09508955E
:102590000E945F1188F09F5798F0B92F9927B75183
:1025A000B0F0E1F0660F771F881F991F1AF0BA95F7
:1025B000C9F714C0B13091F00E947911B1E00895CB
:1025C0000C947911672F782F8827B85F39F0B93FBD
:1025D000CCF3869577956795B395D9F73EF49095AA
:1025E0008095709561957F4F8F4F9F4F08950E9402
:1025F0009E1008F48FEF08950E949E10880B990B8F
:1026000008950F931F93CF93DF938230910510F4B9
:1026100082E090E0E0919F09F091A00930E020E095
:10262000B0E0A0E0309799F42115310509F44AC0D3
:10263000281B390B24303105D8F58A819B8161151F
:10264000710589F1FB0193838283FE0111C04081F2
:1026500051810281138148175907E0F04817590743
:1026600099F4109761F012960C93129713961C939D
:102670003296CF01DF91CF911F910F910895009372
:102680009F091093A009F4CF2115310551F042178D
:10269000530738F0A901DB019A01BD01DF01F80100
:1026A000C1CFEF01F9CF9093A00980939F09CDCFBF
:1026B000FE01E20FF31F8193919322503109398378
:1026C0002883D7CF20919D0930919E09232B41F477
:1026D000209102013091030130939E0920939D09BE
:1026E00020910001309101012115310541F42DB7F0
:1026F0003EB74091040150910501241B350BE09138
:102700009D09F0919E09E217F307A0F42E1B3F0BE1
:102710002817390778F0AC014E5F5F4F2417350753
:1027200048F04E0F5F1F50939E0940939D0981937F
:1027300091939FCFF0E0E0E09CCFCF93DF930097A1
:10274000E9F0FC01329713821282A0919F09B091A7
:10275000A009ED0130E020E01097A1F42081318143
:10276000820F931F20919D0930919E0928173907E8
:1027700009F061C0F0939E09E0939D09DF91CF912C
:102780000895EA01CE17DF07E8F54A815B819E01D3
:1027900041155105B1F7E901FB83EA83499159914C
:1027A000C40FD51FEC17FD0761F48081918102965B
:1027B000840F951FE90199838883828193819B838C
:1027C0008A83F0E0E0E012968D919C911397009738
:1027D000B9F52D913C911197CD010296820F931F6F
:1027E00020919D0930919E092817390739F63097B5
:1027F00051F51092A00910929F09B0939E09A093E1
:102800009D09BCCFD383C28340815181840F951F22
:10281000C817D90761F44E5F5F4F88819981480FCF
:10282000591F518340838A819B8193838283211521
:10283000310509F0B0CFF093A009E0939F099ECF36
:10284000FD01DC01C0CF13821282D7CF4F925F927D
:102850006F927F928F929F92AF92BF92CF92DF92B0
:10286000EF92FF920F931F93CF93DF938C0100970A
:1028700099F4CB01DF91CF911F910F91FF90EF90D1
:10288000DF90CF90BF90AF909F908F907F906F9090
:102890005F904F900C940113FC01E60FF71F9C0111
:1028A00022503109E217F30708F4AEC0D901CD91E7
:1028B000DC911197C617D70720F1C530D10578F004
:1028C000CE0104978617970750F0C61BD70B2297A7
:1028D000C193D1936D937C93CF010E949D13C80146
:1028E000DF91CF911F910F91FF90EF90DF90CF90EC
:1028F000BF90AF909F908F907F906F905F904F9020
:1029000008955B01AC1ABD0A4C018C0E9D1EA0916E
:102910009F09B091A009512C412CF12CE12C10976A
:1029200031F580919D0990919E098815990509F0CE
:102930005CC04616570608F058C08091000190917F
:102940000101009741F48DB79EB740910401509169
:102950000501841B950BE817F90708F055C0F093A3
:102960009E09E0939D09F90171836083B8CF8D9131
:102970009C91119712966C90129713967C901397D6
:10298000A815B90559F56C0142E0C40ED11CCA1452
:10299000DB0420F1AC014A195B09DA0112961597A4
:1029A00080F06282738251834083D9016D937C935E
:1029B000E114F10471F0D7011396FC93EE93129792
:1029C0008ECF22968C0F9D1FF90191838083F30196
:1029D000EFCFF093A009E0939F0981CF48165906E5
:1029E00008F42C017D01D3019ACFCB010E94011381
:1029F0007C01009749F0AE01B8010E940715C8019B
:102A00000E949D1387016BCF10E000E068CFFB01AF
:102A1000DC0102C001900D9241505040D8F708955A
:102A2000FB01DC0101900D920020E1F70895FB010C
:102A3000DC014150504030F08D910190801919F423
:102A40000020B9F7881B990B089510E0C1E8D0E089
:102A500004C0FE010E94E0112196C238D107C9F7D7
:042A6000F894FFCF18
:102A64000000A10980001F1C1F1E1F1E1F1F1E1F08
:102A74001E1F000000003F029F01CC019102FD01D6
:102A8400DB01EF01000000004C031F038003F5028B
:102A940018030503F6020D0A006E616E00696E6686
:102AA400006F766600244750524D432C0024474E55
:102AB400524D432C002454494D452C0024454E5678
:102AC4002C006338393964396538323764366263C7
:102AD4006239393735626339393266326364306159
:102AE400383932323139396531312C52656C65618E
:102AF400736500312E332E302D35322D52656C65C1
:102B040061736500234376616B2E2E2E0024444F9F
:102B1400532C414952444F533033422C002C302C17
:102B240000244144432C555354534950494E3033A7
:102B3400432C0023486D6D6D2E2E2E0024535441DA
:102B440052542C000D0A24452C000D0A2453544FD2
:042B5400502C000001
:00000001FF
