:100000000C9482000C94AC000C94AC000C94AC00EA
:100010000C94AC000C94AC000C94AC000C94AC00B0
:100020000C94AC000C94AC000C94AC000C94AC00A0
:100030000C94AC000C94AC000C94AC000C94AC0090
:100040000C94AC000C94AC000C9451050C94AC00D6
:100050000C94C5050C949B050C94AC000C94AC005E
:100060000C94AC000C94AC000C94FB050C94AC000C
:100070000C94AC000C94AC000C94AC000C94AC0050
:100080000C94AC000C94AC000C94AC00000021006B
:10009000240027002A0000002200250028002B0051
:1000A0000202020202020202040404040404040420
:1000B0000303030303030303010101010101010120
:1000C0000102040810204080010204081020408032
:1000D0000102040810204080010204081020408022
:1000E0000000000203000A0B0000000005040908DC
:1000F0000000000000000000000000000000000000
:100100002707F90911241FBECFEFD0E4DEBFCDBF12
:100110002BE0A0EBB1E001C01D92AD30B207E1F7DA
:1001200011E0A0E0B1E0EEE9F8E100E00BBF02C0B1
:1001300007900D92A03BB107D9F710E0C1E8D0E0DD
:1001400004C02197FE010E94230AC038D107C9F7D5
:100150000E946B070C94420C0C9400000CB405FC3C
:100160000DC01EBC00000DB407FEFDCF9EB51EBC29
:1001700000000DB407FEFDCF8EB508951EBC000033
:100180000DB407FEFDCF8EB51EBC00000DB407FEFA
:10019000FDCF9EB508950000000081E090E001973A
:1001A000F1F70895982F8091530A8111FCCF81E0D7
:1001B0008093530A8093520A2FEF2093510A2BE227
:1001C0003AE03093500A20934F0A10924E0A2FEFD4
:1001D000260F20934D0A80934C0A80914C0A990F68
:1001E000982B90934C0A80914B0A8130C9F410925D
:1001F0004B0A80914C0A8093BB008091BC0083FD28
:10020000F8CF85EC8093BC008091530A8130E1F3F4
:1002100080914E0A861710F460914E0A862F089539
:1002200085EEF0CF90912A0A81E0913208F043C028
:100230008091530A8111FCCF8091290A22E02093FA
:10024000530A21E02093520A2FEF2093510A29E00C
:100250003AE03093500A20934F0A10924E0A90933E
:100260004D0A10924C0A90914C0A880F892B80936A
:100270004C0A80914B0A813029F510924B0A8091EB
:100280004C0A8093BB008091BC0083FDF8CF85ECC5
:100290008093BC008091530A8230E1F38091510A2F
:1002A0008F3F91F08091510A803281F08091510A04
:1002B000803371F084E01092080A10922A0A10929A
:1002C000070A089585EEE4CF80E0F5CF82E0F3CF12
:1002D00083E0F1CF90E0FC01E052FF4F2491FC015C
:1002E000E054FF4F349180569F4FFC018491882346
:1002F00059F12223C1F022502A30A8F4E22FF0E075
:10030000EC57FE4F0C94230ABD01C1018E01A501DB
:1003100093019301A901AF01B301B901909180004C
:100320009F7790938000E82FF0E0EE0FFF1FEA56D2
:10033000FF4FA591B4918FB7F894EC91611124C04F
:1003400030953E233C938FBF0895909180009F7D10
:10035000E8CF9091B0009F779093B000E4CF909158
:10036000B0009F7DF9CF909190009F77909390007F
:10037000DACF909190009F7DF9CF94B59F7794BD8F
:10038000D2CF94B59F7DFBCF3E2BDCCFCF93DF93B5
:1003900090E0FC01E054FF4F249180569F4FFC01F8
:1003A00084918823D1F090E0880F991FFC01E457D5
:1003B000FF4FA591B491FC01EA56FF4FC591D4912E
:1003C00061110EC09FB7F8948C91E22FE0958E23B7
:1003D0008C932881E223E8839FBFDF91CF9108951A
:1003E0008FB7F894EC91E22BEC938FBFF6CF3FB729
:1003F000F8948091010A9091020AA091030AB091A9
:10040000040A26B5A89B05C02F3F19F00196A11D2F
:10041000B11D3FBFBA2FA92F982F8827BC01CD014E
:10042000620F711D811D911D43E0660F771F881FAC
:10043000991F4A95D1F708958F929F92AF92BF92DC
:10044000CF92DF92EF92FF920E94F7014B015C0185
:1004500084EFC82EDD24D394E12CF12C0E94F70107
:10046000681979098A099B09683E734081059105DD
:10047000A8F321E0C21AD108E108F10888EE880E3D
:1004800083E0981EA11CB11CC114D104E104F10445
:1004900029F7FF90EF90DF90CF90BF90AF909F90A3
:1004A0008F900895AF92BF92CF92DF92EF92FF921A
:1004B0000F931F93CF93DF936C017B018B01040F8C
:1004C000151FEB015E01AE18BF08C017D10759F028
:1004D0006991D601ED91FC910190F081E02DC6016A
:1004E0000995892B79F7C501DF91CF911F910F9164
:1004F000FF90EF90DF90CF90BF90AF900895FC01F8
:10050000538D448D252F30E0842F90E0821B930B78
:10051000541710F0CF96089501970895FC01918D1E
:10052000828D981761F0A28DAE0FBF2FB11D5D9621
:100530008C91928D9F5F9F73928F90E008958FEFC3
:100540009FEF0895FC01918D828D981731F0828D77
:10055000E80FF11D858D90E008958FEF9FEF0895CE
:10056000FC01918D228D892F90E0805C9F4F821B32
:1005700091098F739927089584E59AE00E94B0024B
:1005800021E0892B09F420E0822F0895FC01A48D3D
:10059000A80FB92FB11DA35ABF4F2C91848D90E0A5
:1005A00001968F739927848FA689B7892C93A08988
:1005B000B1898C91837080648C93938D848D981312
:1005C00006C00288F389E02D80818F7D80830895A5
:1005D000EF92FF920F931F93CF93DF93EC0181E093
:1005E000888F9B8D8C8D98131AC0E889F98980813A
:1005F00085FF15C09FB7F894EE89FF896083E8896D
:10060000F98980818370806480839FBF81E090E05E
:10061000DF91CF911F910F91FF90EF900895F62EEB
:100620000B8D10E00F5F1F4F0F731127E02E8C8D85
:100630008E110CC00FB607FCFACFE889F9898081CA
:1006400085FFF5CFCE010E94C602F1CFEB8DEC0FF6
:10065000FD2FF11DE35AFF4FF0829FB7F8940B8FE7
:10066000EA89FB8980818062CFCFCF93DF93EC0151
:10067000888D8823B9F0AA89BB89E889F9898C918A
:1006800085FD03C0808186FD0DC00FB607FCF7CF46
:100690008C9185FFF2CF808185FFEDCFCE010E9446
:1006A000C602E9CFDF91CF91089580E090E0892BD9
:1006B00029F00E94BC0281110E94000080E090E0BD
:1006C000892B49F080E090E0892B29F00E940000FE
:1006D00081110C940000089585ED8093BC008091F9
:1006E000BC0084FDFCCF1092530A08952091D601DE
:1006F000260F3327331F21323105ECF42091530AA2
:10070000FC0190E080E0243069F082E00895A0913F
:10071000D6012191AC014A545E4FA40FB52FB11DF3
:100720002C930196861798F38091D601680F6093F9
:10073000D60180E0089581E008950895E091060AC9
:100740008091050AE81730F4F0E0E55DF54F80810F
:1007500090E008958FEF9FEF08959091060A8091A1
:10076000050A2FEF3FEF981748F4E92FF0E0E55D19
:10077000F54F208130E09F5F9093060AC9010895EC
:100780008091050A9091060A891B990B0895CF92D2
:10079000DF92EF92FF920F931F93CF93DF937C0131
:1007A000CB018A012091070A222389F0EB016B011A
:1007B000C40ED51ECC15DD0569F06991D701ED9108
:1007C000FC910190F081E02DC7010995F3CF642FD2
:1007D0000E947603C801DF91CF911F910F91FF9086
:1007E000EF90DF90CF900895CF93DF931F92CDB716
:1007F000DEB769832091070A2223F9F020912A0AA3
:10080000203258F021E030E0FC013383228390E075
:1008100080E00F90DF91CF9108958091080AE82F32
:10082000F0E0E75FF54F998190838F5F8093080A2E
:1008300080932A0A81E090E0ECCF61E0CE0101963E
:100840000E947603F7CF682F81EF9AE00C94F403AF
:1008500090E080E00895FC0101900020E9F73197D5
:10086000AF01481B590BBC0184E59AE00C9452027D
:100870008F929F92AF92BF920F931F93CF93DF936C
:10088000CDB7DEB7A1970FB6F894DEBF0FBECDBFD0
:1008900019A2423008F44AE08E010F5D1F4F842EEA
:1008A000912CB12CA12CA50194010E94010AE62FE4
:1008B000B901CA01EA30F4F4E05DD801EE938D018C
:1008C000232B242B252B79F790E080E0109719F04B
:1008D000CD010E942B04A1960FB6F894DEBF0FBE87
:1008E000CDBFDF91CF911F910F91BF90AF909F909F
:1008F0008F900895E95CE1CFCF93DF9381E08093FF
:10090000070A8BE58093290A1092080A10922A0A96
:1009100088E090E00E94230490E080E00E9423049D
:100920000E94120160E18BE50E94D2001092060A3B
:100930008093050AD0E181EF9AE00E94AD03C82FB1
:10094000803120F48AE291E00E942B046C2F70E049
:1009500090E080E040E10E943804D15061F7DF91DF
:10096000CF910895CF93DF93EC018881998100970F
:1009700011F00E94C80A198218821D821C821B82F3
:100980001A82DF91CF910895FC01808191810097B7
:1009900011F00C94C80A08950F931F93CF93DF931F
:1009A000EC0188819981009759F02A813B812617B3
:1009B000370730F081E0DF91CF911F910F910895BB
:1009C0008B016F5F7F4F0E94510B009759F0998305
:1009D00088831B830A832C813D81232B59F7FC01DB
:1009E0001082E8CF80E0E7CFEF92FF920F931F9342
:1009F000CF93DF936115710541F480E0DF91CF91D2
:100A00001F910F91FF90EF90089541155105B1F09E
:100A10007B01EC010C811D81040F151FB8010E94A0
:100A2000CC04882351F3288139818C819D81B701C1
:100A3000820F931F0E943B0C1D830C8381E0DECF4D
:100A4000EF92FF920F931F93CF93DF93EC017B0103
:100A5000198218821B821A821D821C82FB0101905E
:100A60000020E9F731978F01061B170BB8010E9490
:100A7000CC04811109C0CE01DF91CF911F910F915C
:100A8000FF90EF900C94B2041D830C83B701888112
:100A90009981DF91CF911F910F91FF90EF900C946E
:100AA0003B0C1F920F920FB60F9211242F933F937E
:100AB0008F939F93AF93BF938091FD099091FE090F
:100AC000A091FF09B091000A3091FC0926E0230FA4
:100AD0002D3768F129E8230F0396A11DB11D20933E
:100AE000FC098093FD099093FE09A093FF09B09340
:100AF000000A8091010A9091020AA091030AB09124
:100B0000040A0196A11DB11D8093010A9093020A67
:100B1000A093030AB093040ABF91AF919F918F9164
:100B20003F912F910F900FBE0F901F901895029636
:100B3000A11DB11DD4CF1F920F920FB60F92112499
:100B40000BB60F922F933F934F935F936F937F93C7
:100B50008F939F93AF93BF93EF93FF9384E59AE0B6
:100B60000E94C602FF91EF91BF91AF919F918F912B
:100B70007F916F915F914F913F912F910F900BBE9D
:100B80000F900FBE0F901F9018951F920F920FB6E7
:100B90000F9211240BB60F922F938F939F93EF9385
:100BA000FF93E091640AF091650A8081E0916A0AFE
:100BB000F0916B0A82FD1DC0908180916D0A8F5F5C
:100BC0008F7320916E0A821741F0E0916D0AF0E078
:100BD000EC5AF54F958F80936D0AFF91EF919F919D
:100BE0008F912F910F900BBE0F900FBE0F901F9003
:100BF00018958081F2CF1F920F920FB60F92112499
:100C00000BB60F922F933F934F935F936F937F9306
:100C10008F939F93AF93BF93EF93FF938091B9000E
:100C2000887F803609F44DC008F040C0883209F44E
:100C3000A7C028F5803109F49BC0C8F4882309F4C3
:100C400003C1883009F494C0FF91EF91BF91AF9137
:100C50009F918F917F916F915F914F913F912F91D4
:100C60000F900BBE0F900FBE0F901F9018958831FC
:100C700009F486C0803241F78093510A14C0803451
:100C800009F4A3C040F48033B9F38833E9F68093C4
:100C9000510A85ECBAC0803509F487C0883509F45B
:100CA0009CC0883489F60E946C03CECF883909F441
:100CB00092C038F5883729F050F4883611F0803723
:100CC00019F683E08093530A1092F80155C08838D2
:100CD00009F481C0803919F0803809F0B5CF8091CE
:100CE000F801803208F077C0E091F80181E08E0FC2
:100CF0008093F8018091BB00F0E0E852FE4F8083C2
:100D00003BC0803B39F0D0F4803A09F483C0883A84
:100D100009F09ACF84E08093530A1092D701109281
:100D2000D601F0E0E0E009958091D60181110FC075
:100D300081E08093D6011092B60109C0803C09F48D
:100D4000A8CF883C09F4A5CF883B09F07DCFE0917E
:100D5000D70181E08E0F8093D701F0E0EA54FE4F77
:100D600080818093BB009091D7018091D60131C0E2
:100D700080914C0A8093BB0085EC8093BC0064CFCB
:100D800090914E0A80914D0A9817B8F580914F0ABC
:100D90009091500AE0914E0A21E02E0F20934E0AC6
:100DA000E80FF92FF11D8081E5CF20914F0A309196
:100DB000500AE0914E0A81E08E0F80934E0A809196
:100DC000BB00E20FF32FF11D808390914E0A8091BA
:100DD0004D0A981788F285E8D0CF20914F0A3091BC
:100DE000500AE0914E0A81E08E0F80934E0A809166
:100DF000BB00E20FF32FF11D80838091520A811115
:100E000052CF81E080934B0A84EA8093BC00109219
:100E1000530A1ACF85EC8093BC001092530A80913C
:100E2000F801803230F4E091F801F0E0E852FE4F32
:100E300010826091F80170E088ED91E0F0E0E0E070
:100E400009951092F80100CF1092510A2CCFE4E5D9
:100E5000FAE01382128288EE93E0A0E0B0E084838F
:100E60009583A683B7832AE031E03183208325EC84
:100E700030E03587248724EC30E03787268720EC64
:100E800030E0318B208B21EC30E0338B228B22EC55
:100E900030E0358B248B26EC30E0378B268B118E9F
:100EA000128E138E148EE1EFFAE013821282848385
:100EB0009583A683B7838CE191E0918380836CE274
:100EC00071E083E09BE00E9420056DE571E08DEF0D
:100ED0009AE00C942005CF93DF93CDB7DEB72C9723
:100EE0000FB6F894DEBF0FBECDBF789484B5836093
:100EF00084BD85B5836085BD80916E0081608093DF
:100F00006E0092E0909381008091810081608093D7
:100F10008100809180008160809380008091B10089
:100F200084608093B1008091B00081608093B000B4
:100F30008091910083608093910080919000816006
:100F40008093900086E880937A001092C100E0912F
:100F5000640AF091650A9083E091600AF091610A59
:100F60001082E091620AF091630A88E08083109217
:100F70006C0AE091680AF091690A86E08083E0914A
:100F8000660AF091670A808188698083E091660A29
:100F9000F091670A80818F7D808380E28093B80022
:100FA0001FB7F8948091F901811127C0E4EAF0E0BD
:100FB0008491E4ECF0E09491E82FF0E0EE0FFF1F55
:100FC000E457FF4FA591B491EC91E92321F461E03E
:100FD00084E00E946A0161E084E00E94C6018CB551
:100FE00080618CBD8CB580648CBD61E087E00E941F
:100FF000C60161E085E00E94C6018091F9018F5F22
:101000008093F9011FBF80E58CBD81E08DBD60E05C
:101010008BE10E94C60160E080E00E94C60160E0B2
:1010200081E00E94C60161E082E10E94C60161E0A8
:101030008FE00E94C60161E085E10E94C60161E087
:1010400086E10E94C60161E087E10E94C60161E07D
:1010500088E10E94C60161E089E10E94C60161E069
:101060008FE00E946A0161E082E10E946A0161E012
:1010700088E10E946A0161E089E10E946A018EE6CE
:1010800091E00E942B0487E791E00E942B046AE71D
:1010900071E0CE0101960E9420054091010B509114
:1010A000020B6091FD0A7091FE0ACE0101960E942A
:1010B000F404811104C0CE0101960E94B20443E001
:1010C00050E06AE871E0CE0101960E94F4048111BB
:1010D00004C0CE0101960E94B2044091070B5091CA
:1010E000080B6091030B7091040BCE0101960E94D6
:1010F000F404811104C0CE0101960E94B20441E0C3
:1011000050E06CE871E0CE0101960E94F404811178
:1011100004C0CE0101960E94B20418861F821A866E
:1011200019861C861B8609811A810115110569F033
:10113000ED80FE80B701CE0107960E94CC0481119C
:101140004BC1CE0107960E94B204CE0101960E94C7
:10115000C4044B855C856F81788584E59AE00E94A4
:1011600052020E947C048EE891E00E942B040E94AF
:101170007C048CE891E00E942B0481E08093070AB4
:1011800083E58093290A1092080A10922A0A90E0B7
:1011900080E00E94230490E080E00E9423040E94EB
:1011A000120162E083E50E94D2001092060A809349
:1011B000050A81EF9AE00E94AD03182F8093FB0986
:1011C00081EF9AE00E94AD038093FA09612F70E0ED
:1011D00090E080E040E10E9438046091FA0970E0FC
:1011E00090E080E040E10E94380487E791E00E94AF
:1011F0002B0482EA91E00E942B0487E791E00E9491
:101200002B0460E085E10E946A0160E086E10E94B3
:101210006A0160E087E10E946A0161E085E10E9465
:101220006A010E941C0261E086E10E946A010E943C
:101230001C0261E087E10E946A010E941C0260E0DA
:1012400085E10E946A010E941C0260E086E10E9422
:101250006A010E941C0260E087E10E946A0180E04E
:1012600094E0EAEFF5E0DF019C011D92215030404F
:10127000E1F7EAEFF1E0DF019C011D9221503040DF
:10128000E1F78FB7F8944091FD095091FE09609104
:10129000FF097091000A8FBF8FB7F8944091FD0944
:1012A0005091FE096091FF097091000A8FBFCE0135
:1012B00007960E94C4048FE7782E66246A940BE197
:1012C0001FE183B18370E9F353B082B18C7F8260F8
:1012D00082B97BB86BB80E94CB0008B90E94AE00FF
:1012E0005C0118B982B18C7F816082B97BB86BB820
:1012F0000E94CB0008B90E94AE006C0118B982B1FF
:101300008C7F826082B97BB86BB80E94CB0008B931
:101310000E94AE004C0118B982B18C7F816082B905
:101320007BB86BB80E94CB0008B90E94AE007C016C
:1013300018B935E6A316B10428F485E6C816D10419
:1013400008F444C08A149B0408F040C0EC14FD0467
:1013500008F04AC061E085E10E946A018BEA91E0F1
:101360000E942B04652D637070E090E080E04AE0FD
:101370000E9438048CE891E00E942B04B50190E0B3
:1013800080E04AE00E9438048CE891E00E942B043F
:10139000B40190E080E04AE00E9438048CE891E0DB
:1013A0000E942B04B60190E080E04AE00E943804DD
:1013B0008CE891E00E942B04B70190E080E04AE0C5
:1013C0000E94380487E791E00E942B0482B18C7F51
:1013D00082B908B918B975CFFC86EB86B8018F8140
:1013E00098850E943B0CB1CE60E085E10E946A01C5
:1013F000EDCF8DEF9AE00E94C40483E09BE00C9453
:10140000C404A1E21A2EAA1BBB1BFD010DC0AA1F1A
:10141000BB1FEE1FFF1FA217B307E407F50720F05D
:10142000A21BB30BE40BF50B661F771F881F991FD8
:101430001A9469F760957095809590959B01AC0121
:10144000BD01CF010895EE0FFF1F0024001C0BBE4D
:101450000790F691E02D09940F931F93CF93DF939C
:101460008230910510F482E090E0E0910B0BF09156
:101470000C0B30E020E0B0E0A0E0309799F42115AB
:10148000310509F44AC0281B390B24303105D8F541
:101490008A819B816115710589F1FB0193838283A8
:1014A000FE0111C040815181028113814817590703
:1014B000E0F04817590799F4109761F012960C93D1
:1014C000129713961C933296CF01DF91CF911F9103
:1014D0000F91089500930B0B10930C0BF4CF211573
:1014E000310551F04217530738F0A901DB019A0189
:1014F000BD01DF01F801C1CFEF01F9CF90930C0BD3
:1015000080930B0BCDCFFE01E20FF31F81939193DC
:101510002250310939832883D7CF2091090B30918C
:101520000A0B232B41F420910201309103013093E7
:101530000A0B2093090B2091000130910101211524
:10154000310541F42DB73EB740910401509105019A
:10155000241B350BE091090BF0910A0BE217F307FE
:10156000A0F42E1B3F0B2817390778F0AC014E5F13
:101570005F4F2417350748F04E0F5F1F50930A0B3B
:101580004093090B819391939FCFF0E0E0E09CCFD3
:10159000CF93DF930097E9F0FC0132971382128218
:1015A000A0910B0BB0910C0BED0130E020E01097F7
:1015B000A1F420813181820F931F2091090B30917A
:1015C0000A0B2817390709F061C0F0930A0BE09362
:1015D000090BDF91CF910895EA01CE17DF07E8F5F7
:1015E0004A815B819E0141155105B1F7E901FB83F9
:1015F000EA8349915991C40FD51FEC17FD0761F497
:10160000808191810296840F951FE90199838883D7
:10161000828193819B838A83F0E0E0E012968D9132
:101620009C9113970097B9F52D913C911197CD019D
:101630000296820F931F2091090B30910A0B2817F5
:10164000390739F6309751F510920C0B10920B0BAD
:10165000B0930A0BA093090BBCCFD383C283408104
:101660005181840F951FC817D90761F44E5F5F4FF2
:1016700088819981480F591F518340838A819B81BA
:10168000938382832115310509F0B0CFF0930C0BC1
:10169000E0930B0B9ECFFD01DC01C0CF13821282C1
:1016A000D7CF4F925F926F927F928F929F92AF921D
:1016B000BF92CF92DF92EF92FF920F931F93CF933F
:1016C000DF938C01009799F4CB01DF91CF911F91AB
:1016D0000F91FF90EF90DF90CF90BF90AF909F90D1
:1016E0008F907F906F905F904F900C942C0AFC012C
:1016F000E60FF71F9C0122503109E217F30708F4A7
:10170000AEC0D901CD91DC911197C617D70720F152
:10171000C530D10578F0CE0104978617970750F0B1
:10172000C61BD70B2297C193D1936D937C93CF01A6
:101730000E94C80AC801DF91CF911F910F91FF90BD
:10174000EF90DF90CF90BF90AF909F908F907F9061
:101750006F905F904F9008955B01AC1ABD0A4C01E9
:101760008C0E9D1EA0910B0BB0910C0B512C412C9B
:10177000F12CE12C109731F58091090B90910A0B17
:101780008815990509F05CC04616570608F058C040
:101790008091000190910101009741F48DB79EB7AF
:1017A0004091040150910501841B950BE817F9073E
:1017B00008F055C0F0930A0BE093090BF90171830F
:1017C0006083B8CF8D919C91119712966C9012976F
:1017D00013967C901397A815B90559F56C0142E052
:1017E000C40ED11CCA14DB0420F1AC014A195B09F8
:1017F000DA011296159780F06282738251834083DA
:10180000D9016D937C93E114F10471F0D701139623
:10181000FC93EE9312978ECF22968C0F9D1FF901A9
:1018200091838083F301EFCFF0930C0BE0930B0BCC
:1018300081CF4816590608F42C017D01D3019ACFB7
:10184000CB010E942C0A7C01009749F0AE01B8013F
:101850000E94320CC8010E94C80A87016BCF10E0B9
:1018600000E068CFFB01DC0102C001900D92415005
:101870005040D8F70895FB01DC0101900D92002043
:10188000E1F7089510E0C1E8D0E004C0FE010E9435
:0E189000230A2196C238D107C9F7F894FFCF7A
:10189E0000000D0B800000000000E80252027F02E3
:1018AE003503B0028E02A20200000000F403C7034B
:1018BE0028049D03C003AD039E0330006432303410
:1018CE0039343939396662303135636430366438CB
:1018DE003434363961373836343238383631646517
:1018EE00336262312C43494275696C6400312E3289
:1018FE002E302D34302D43494275696C64002343DC
:10190E0076616B2E2E2E000D0A0024444F532C416F
:10191E004952444F533033422C002C302C000D0AC8
:10192E00244144432C555354534950494E3033436C
:10193E002C0023486D6D6D2E2E2E0024432C00009E
:00000001FF
