:100000000C9482000C94AC000C94AC000C94AC00EA
:100010000C94AC000C94AC000C94AC000C94740CDC
:100020000C94AC000C94AC000C94AC000C94AC00A0
:100030000C94AC000C94AC000C94AC000C94AC0090
:100040000C94AC000C94AC000C943E0A0C94AC00E4
:100050000C94120B0C94E80A0C94AC000C94AC00B9
:100060000C94AC000C94AC000C94480B0C94AC00B9
:100070000C94B20A0C94880A0C94AC000C94AC005A
:100080000C94AC000C94AC000C94AC00000021006B
:10009000240027002A0000002200250028002B0051
:1000A0000202020202020202040404040404040420
:1000B0000303030303030303010101010101010120
:1000C0000102040810204080010204081020408032
:1000D0000102040810204080010204081020408022
:1000E0000000000203000A0B0000000005040908DC
:1000F0000000000000000000000000000000000000
:10010000A60C5B1011241FBECFEFD0E4DEBFCDBF25
:1001100024E1A4EFB1E001C01D92A139B207E1F7DB
:1001200011E0A0E0B1E0E2E7FAE200E00BBF02C0BC
:1001300007900D92A43FB107D9F710E0C1E8D0E0D5
:1001400004C02197FE010E94E711C038D107C9F70A
:100150000E94100D0C942C150C94000090910F131C
:1001600081E0913208F043C0809118138111FCCFD7
:1001700080910E1322E02093181321E0209317138F
:100180002FEF209316132EEE32E1309315132093A8
:100190001413109213139093121310921113909141
:1001A0001113880F892B80931113809110138130C4
:1001B00029F510921013809111138093BB00809148
:1001C000BC0083FDF8CF85EC8093BC0080911813B0
:1001D0008230E1F3809116138F3F91F080911613D6
:1001E000803281F080911613803371F084E0109298
:1001F000ED1210920F131092EC12089585EEE4CFD9
:1002000080E0F5CF82E0F3CF83E0F1CF90E0FC0116
:10021000E052FF4F2491FC01E054FF4F349180568F
:100220009F4FFC018491882359F12223C1F0225071
:100230002A30A8F4E22FF0E0E05EFE4F0C94E711C4
:1002400059015D012A0141012F012F0145014B0197
:100250004F015501909180009F7790938000E82F87
:10026000F0E0EE0FFF1FEA56FF4FA591B4918FB754
:10027000F894EC91611124C030953E233C938FBFDC
:100280000895909180009F7DE8CF9091B0009F7776
:100290009093B000E4CF9091B0009F7DF9CF909102
:1002A00090009F7790939000DACF909190009F7D7F
:1002B000F9CF94B59F7794BDD2CF94B59F7DFBCFF6
:1002C0003E2BDCCFCF93DF9390E0FC01E054FF4F57
:1002D000249180569F4FFC0184918823D1F090E0B7
:1002E000880F991FFC01E457FF4FA591B491FC01C1
:1002F000EA56FF4FC591D49161110EC09FB7F89493
:100300008C91E22FE0958E238C932881E223E88361
:100310009FBFDF91CF9108958FB7F894EC91E22BB6
:10032000EC938FBFF6CF2FB7F8946091E8127091DD
:10033000E9128091EA129091EB122FBF0895AF92CB
:10034000BF92CF92DF92EF92FF920F931F93CF93C2
:10035000DF936C017B018B01040F151FEB015E0124
:10036000AE18BF08C017D10759F06991D601ED91B9
:10037000FC910190F081E02DC6010995892B79F758
:10038000C501DF91CF911F910F91FF90EF90DF900A
:10039000CF90BF90AF900895FC01538D448D252FD1
:1003A00030E0842F90E0821B930B541710F0CF960F
:1003B000089501970895FC01918D828D981761F041
:1003C000A28DAE0FBF2FB11D5D968C91928D9F5F58
:1003D0009F73928F90E008958FEF9FEF0895FC0137
:1003E000918D828D981731F0828DE80FF11D858DEA
:1003F00090E008958FEF9FEF0895FC01918D228D7D
:10040000892F90E0805C9F4F821B91098F73992701
:1004100008958BE393E10E94FD0121E0892B09F40B
:1004200020E0822F089588ED93E10E94FD0121E0F4
:10043000892B09F420E0822F0895FC01A48DA80FD8
:10044000B92FB11DA35ABF4F2C91848D90E0019616
:100450008F739927848FA689B7892C93A089B18936
:100460008C91837080648C93938D848D981306C0D7
:100470000288F389E02D80818F7D80830895EF923B
:10048000FF920F931F93CF93DF93EC0181E0888F4E
:100490009B8D8C8D98131AC0E889F989808185FF1E
:1004A00015C09FB7F894EE89FF896083E889F989C0
:1004B00080818370806480839FBF81E090E0DF91C2
:1004C000CF911F910F91FF90EF900895F62E0B8D15
:1004D00010E00F5F1F4F0F731127E02E8C8D8E11D0
:1004E0000CC00FB607FCFACFE889F989808185FF37
:1004F000F5CFCE010E941D02F1CFEB8DEC0FFD2F49
:10050000F11DE35AFF4FF0829FB7F8940B8FEA89F1
:10051000FB8980818062CFCF682F88ED93E10C94B6
:100520003F02CF93DF93EC01888D8823B9F0AA892D
:10053000BB89E889F9898C9185FD03C0808186FD9E
:100540000DC00FB607FCF7CF8C9185FFF2CF8081ED
:1005500085FFEDCFCE010E941D02E9CFDF91CF9143
:10056000089580E090E0892B29F00E941302811108
:100570000E94000080E090E0892B29F00E9409028F
:1005800081110C940000089585ED8093BC0080914A
:10059000BC0084FDFCCF10921813089520918E02A8
:1005A000260F3327331F21323105ECF42091181325
:1005B000FC0190E080E0243069F082E00895A09191
:1005C0008E022191AC0142595D4FA40FB52FB11D90
:1005D0002C930196861798F380918E02680F609392
:1005E0008E0280E0089581E008950895E0911A1345
:1005F00080911913E81730F4F0E0E55EFC4E80813D
:1006000090E008958FEF9FEF089590911A138091D5
:1006100019132FEF3FEF981748F4E92FF0E0E55E4C
:10062000FC4E208130E09F5F90931A13C90108951A
:100630008091191390911A13891B990B0895CF92E9
:10064000DF92EF92FF920F931F93CF93DF937C0182
:10065000CB018A012091EC12222389F0EB016B017E
:10066000C40ED51ECC15DD0569F06991D701ED9159
:10067000FC910190F081E02DC7010995F3CF642F23
:100680000E94CE02C801DF91CF911F910F91FF9080
:10069000EF90DF90CF900895CF93DF931F92CDB767
:1006A000DEB769832091EC122223F9F020910F1319
:1006B000203258F021E030E0FC013383228390E0C7
:1006C00080E00F90DF91CF9108958091ED12E82F97
:1006D000F0E0E251FD4E998190838F5F8093ED129F
:1006E00080930F1381E090E0ECCF61E0CE010196A2
:1006F0000E94CE02F7CF682F85E794E10C944C035B
:1007000090E080E00895CF92DF92EF92FF920F93F6
:100710001F93CF93DF938C01EB01F894C0906A0292
:10072000D0906B02E0906C02F0906D0260918400BA
:100730007091850080916802909169027894681B9D
:10074000790B90E080E027E0660F771F881F991FE4
:100750002A95D1F720E137E240E050E00E94C51130
:10076000243648F528838091600290916102A0911F
:100770006202B09163028C0D9D1DAE1DBF1D4091A4
:1007800064025091650260916602709167026C018B
:100790007D01C41AD50AE60AF70AF801C082D1829F
:1007A000E282F382DF91CF911F910F91FF90EF9042
:1007B000DF90CF90089583E68883D5CF189B48C0FB
:1007C000209184003091850042981EBC0DB407FE34
:1007D000FDCF8EB51EBC0DB407FEFDCF9EB5429A6F
:1007E0008927982789278034910570F4880F991FED
:1007F000FC01E75AFD4E808191818F3F980741F1BE
:1008000001969183808308954091DD125091DE120C
:10081000483E5340A0F4E091DD12F091DE12EE0F5D
:10082000FF1FE757F54F31832083E091DD12F091F0
:10083000DE12EE0FFF1FE754FD4F918380838091FE
:10084000DD129091DE1201969093DE128093DD12FC
:100850000895909118139111FCCF91E09093181383
:10086000909317132FEF209316132BE133E130935E
:10087000151320931413109213132FEF260F2093A8
:1008800012139093111390911113880F892B809359
:100890001113809110138130E9F41092101380919C
:1008A00011138093BB008091BC0083FDF8CF85ECD1
:1008B0008093BC00809118138130E1F38091131371
:1008C000861710F46091131310921A136093191382
:1008D000862F089585EEECCFFC0101900020E9F70A
:1008E0003197AF01481B590BBC0188ED93E10C9483
:1008F0009F018F929F92AF92BF920F931F93CF93BE
:10090000DF93CDB7DEB7A1970FB6F894DEBF0FBE69
:10091000CDBF19A2423008F44AE08E010F5D1F4F8F
:10092000842E912CB12CA12CA50194010E94C511FB
:10093000E62FB901CA01EA30F4F4E05DD801EE9384
:100940008D01232B242B252B79F790E080E0109745
:1009500019F0CD010E946C04A1960FB6F894DEBF89
:100960000FBECDBFDF91CF911F910F91BF90AF9080
:100970009F908F900895E95CE1CFBC0190E080E00A
:100980004AE00C947904CF93DF9381E08093EC12DA
:100990008BE580930E131092ED1210920F1388E0E6
:1009A00090E00E947B0390E080E00E947B030E9425
:1009B000AE0060E18BE50E942904D0E185E794E177
:1009C0000E940503C82F803118F480E30E948C0236
:1009D0006C2F70E090E080E040E10E947904D150FB
:1009E00069F7DF91CF910895CF93C82F8A3018F41B
:1009F00080E30E948C026C2F70E090E080E04AE07F
:100A0000CF910C94790486E391E00C946C040C94DF
:100A10006C044F925F926F927F928F929F92AF92EF
:100A2000BF92CF92DF92EF92FF920F931F93CF93DB
:100A30006B017C01742EAC019B010E94031388237F
:100A400099F089E391E0CF911F910F91FF90EF9082
:100A5000DF90CF90BF90AF909F908F907F906F90DE
:100A60005F904F900C946C0446015701E894B7F8DE
:100A70002FEF3FEF4FE75FE7C501B4010E9403137B
:100A800081110DC02FEF3FEF4FE75FE7C501B401C4
:100A90000E94631018161CF48DE391E0D4CF2FEF61
:100AA0003FEF4FE75FE4C701B6010E94FE12181640
:100AB0001CF481E491E0C7CF2FEF3FEF4FE75FECED
:100AC000C701B6010E94631087FDF3CF20E030E03C
:100AD000A901C701B6010E94631010E000E087FF82
:100AE00008C08DE20E948C028C01F7FAF094F7F8AE
:100AF000F094C0E060E070E080E09FE37C1641F09D
:100B000020E030E040E251E40E945D12CF5FF6CF7A
:100B1000A70196010E94F1112B013C010E94CF1206
:100B20004B015C014AE00E9479047C01E00EF11E59
:100B3000CC2399F1C501B4010E9468109B01AC015E
:100B4000C301B2010E94F0114B015C018EE20E94D0
:100B50008C02E80EF91EC15000F120E030E040E2C6
:100B600051E4C501B4010E94C9102B013C010E944F
:100B7000CF124B01CB010E94BD04E80EF91EB40157
:100B800090E080E00E9468109B01AC01C301B201BB
:100B90000E94F0114B015C01DECFC701CF911F9184
:100BA0000F91FF90EF90DF90CF90BF90AF909F900C
:100BB0008F907F906F905F904F900895CF93DF93C9
:100BC000EC0188819981009711F00E94A413198289
:100BD00018821D821C821B821A82DF91CF91089598
:100BE000FC0180819181009711F00C94A413089569
:100BF0000F931F93CF93DF93EC0188819981009726
:100C000059F02A813B812617370730F081E0DF91C8
:100C1000CF911F910F9108958B016F5F7F4F0E94BD
:100C20002D14009759F0998388831B830A832C81A4
:100C30003D81232B59F7FC011082E8CF80E0E7CFFC
:100C4000EF92FF920F931F93CF93DF93611571057E
:100C500041F480E0DF91CF911F910F91FF90EF90D1
:100C6000089541155105B1F07B01EC010C811D8106
:100C7000040F151FB8010E94F805882351F328813D
:100C800039818C819D81B701820F931F0E941715B6
:100C90001D830C8381E0DECFEF92FF920F931F93B1
:100CA000CF93DF93EC017B01198218821B821A8299
:100CB0001D821C82FB0101900020E9F731978F0112
:100CC000061B170BB8010E94F805811109C0CE015F
:100CD000DF91CF911F910F91FF90EF900C94DE0563
:100CE0001D830C83B70188819981DF91CF911F917A
:100CF0000F91FF90EF900C9417152F923F924F9207
:100D00005F926F927F928F929F92AF92BF92CF929B
:100D1000DF92EF92FF920F931F93CF93DF93CDB7A4
:100D2000DEB7AF970FB6F894DEBF0FBECDBF9E0102
:100D3000235F3F4F3AA329A3AE01475E5F4F5CA3F9
:100D40004BA38BE393E10E94FD01892B09F49DC223
:100D50000E94DE038BE393E10E94DB01843231F4D5
:100D60008093FC0181E08093FB01EBCFE091FB01DC
:100D70009FEF9E0F923608F085C2EE24E394EE0EAC
:100D8000E092FB01F0E0E450FE4F80838A30C9F628
:100D9000EE2DF0E0E450FE4F108247E050E065E4B5
:100DA00071E08CEF91E00E941E15892B59F047E00D
:100DB00050E06DE471E08CEF91E00E941E15892BEC
:100DC00009F060C28CE0A9A1BAA11D928A95E9F749
:100DD00088E0EBA1FCA111928A95E9F70CEF11E0F4
:100DE000D12CF12CE0E040E0D8018D918D01CC2494
:100DF000C394C40E8C3241F08D3031F0982F9F7D1A
:100E00009A3011F0811117C04E1BB1E0FB1285C062
:100E1000463060F04B3008F04AE050E06E2F70E052
:100E200064507E4FCE010D960E940E15F394EC2D6A
:100E300039E03F1518F04C2DEC14B0F641E4D41213
:100E400007C08D85882321F081E0998D911101C023
:100E500080E05090FA018093FA01882309F412C2CD
:100E60008D8580539AE02E852053922E899F900C79
:100E700011248F85805348894053899F400D112448
:100E8000898980537A8850ED750E899F700C1124E2
:100E9000898D80536A8C650E899F600C11248B8D1F
:100EA00080538C8C850E899F800C11242D8D2053AE
:100EB0008E8D8053299F800D1124E82FF0E0863419
:100EC00008F447C0E459F84F02EB17E0C12CD12CCD
:100ED000760120E931E094E6A92EB12CC801837097
:100EE00099270E171F07E9F1892B31F4C801B501C5
:100EF0000E94B111892B31F4C801B9010E94B111CE
:100F0000892B51F58EE691E0A0E0B0E0C80ED91E25
:100F1000EA1EFB1E0F5F1F4FE1CFF2E0FF1208C079
:100F2000442309F483CFF0E0E450FE4FD0807ECF1D
:100F300029E0F2127BCF463008F478CFF0E0E4509D
:100F4000FE4F86E0DE01599601900D928A95E1F7F9
:100F50006DCFE053F84FB8CF8DE691E0A0E0B0E060
:100F6000D5CF2CE0E6E0F1E0DE01119601900D9284
:100F70002A95E1F7892B39F4C80164E670E00E94F4
:100F8000B111892B39F4C80160E971E00E94B111F7
:100F9000892BD9F49DE180E0A82DA150BB0BBD01A8
:100FA000282F30E026173707A0F4813081F0E1E0E8
:100FB000F0E0EC0FFD1F2E0F3F1FD9012C91C20E48
:100FC000D11CE11CF11C8F5FEBCF9CE1E4CF292FFA
:100FD000F6CFE091B402F894292D30E0A0E1BEE014
:100FE0000E9492114B015C01242F30E0ACE3B0E091
:100FF0000E949211860E971EA81EB91E870C911C86
:10100000A11CB11C262D2150330BC901A70196014B
:10101000280F391F411D511D60E871E581E090E006
:101020000E94A111860E971EA81EB91E8092600212
:1010300090926102A0926202B092630280916A0271
:1010400090916B02A0916C02B0916D02809364024A
:1010500090936502A0936602B093670281E080934B
:10106000B4027894EE2311F051100CC1F894409022
:101070006A0250906B0260906C0270906D028091D9
:10108000600290916102A0916202B09163028DA30F
:101090009EA3AFA3B8A78091640290916502A0912E
:1010A0006602B09167027894A3019201281B390B64
:1010B0004A0B5B0B29A73AA74BA75CA78DA09EA064
:1010C000AFA0B8A4820E931EA41EB51EC501B40124
:1010D0002CE330E040E050E00E94C5116DA7CA014A
:1010E000B9012CE330E040E050E00E94C5116EA74A
:1010F000C501B40120E13EE040E050E00E94C5118E
:10110000CA01B90128E130E040E050E00E94C51179
:101110006FA7C501B40120E831E541E050E00E942D
:10112000C51169017A0182EB282E87E0382E00E98B
:1011300011E0E4E6F0E09101237033272115310539
:1011400031F4C101BF010E94B111892B31F4C101F9
:10115000B8010E94B111892B89F48EE691E0B0E0CC
:10116000A0E0C816D906EA06FB0658F0C81AD90A44
:10117000EA0AFB0A3FEF231A330ADDCF8DE691E03E
:10118000EECF8CE0E6E0F1E0DE01119601900D92E9
:101190008A95E1F7232B39F4C10164E670E00E94DF
:1011A000B111892B41F4C10160E971E00E94B111D4
:1011B0002CE1892B09F42DE111E0822F123021F06E
:1011C000FE01E10FF11D808190E0B0E0A0E0C816C3
:1011D000D906EA06FB0630F0C81AD90AEA0AFB0A61
:1011E0001F5FEBCF85E591E00E9407054AE0C30150
:1011F000B2010E9479048FEB91E00E9407054AE05A
:101200006DA17EA18FA198A50E9479048FEB91E03A
:101210000E9407054AE0C501B4010E9479048FEBE2
:1012200091E00E9407054AE069A57AA58BA59CA5D7
:101230000E9479048FEB91E00E940705C1010E9492
:10124000BD048DE20E948C02812F0E94F4048DE285
:101250000E948C0281E08C0D0E94F40480E20E94C6
:101260008C028FA50E94F4048AE30E948C028EA552
:101270000E94F4048AE30E948C028DA50E94F4046B
:101280000E9403051092FB015CCDAF960FB6F89457
:10129000DEBF0FBECDBFDF91CF911F910F91FF90A9
:1012A000EF90DF90CF90BF90AF909F908F907F9006
:1012B0006F905F904F903F902F900895CF92DF9264
:1012C000EF92FF920F931F93CF93DF9300D000D044
:1012D0001F92CDB7DEB78091B402811131C019825F
:1012E0001A821B821C821D8281E08093EC1285E4AD
:1012F00080930E131092ED1210920F1364E285E7A3
:1013000094E10E944C0360E085E794E10E944C0365
:101310000E94AE008111A4C00E9493016B017C0168
:101320000E9493016C197D098E099F096F30710528
:101330008105910568F40E94DE030E947D06F0CFCE
:10134000BE016B5F7F4FCE0101960E948303CCCF1D
:1013500066E085E40E9429048091191390911A1384
:10136000891B990B06970CF47BC085E794E10E94DA
:101370000503182F85E794E10E940503E12CF12E67
:10138000E82AF92A85E794E10E94050385E794E1BC
:101390000E940503182F85E794E10E94050360E091
:1013A000712F8B01082B192B85E794E10E9405030F
:1013B0008CE591E00E9407058091B5029091B602FC
:1013C0000E94BD048FEB91E00E94070569817A813C
:1013D0008B819C814AE00E9479048BEA91E00E9413
:1013E00007056D8170E090E080E04AE00E9479049A
:1013F0008FEB91E00E940705B70190E080E00E942A
:10140000681020E03FEF4FE757E40E945D1220E0B4
:1014100030E04FE253E40E94C91020E030E044E3A2
:1014200052E40E94F01141E00E9409058FEB91E027
:101430000E940705B80190E080E00E94681020E05B
:101440003FEF4FE757E40E945D1220E030E048ECA8
:1014500052E40E94C91041E00E9409050E94030560
:101460000F900F900F900F900F90DF91CF911F91E1
:101470000F91FF90EF90DF90CF9008951F920F9201
:101480000FB60F9211242F933F938F939F93AF9397
:10149000BF938091E8129091E912A091EA12B09165
:1014A000EB123091E71226E0230F2D3768F129E87F
:1014B000230F0396A11DB11D2093E7128093E8121C
:1014C0009093E912A093EA12B093EB128091E31289
:1014D0009091E412A091E512B091E6120196A11D3F
:1014E000B11D8093E3129093E412A093E512B093A0
:1014F000E612BF91AF919F918F913F912F910F90E5
:101500000FBE0F901F9018950296A11DB11DD4CF4C
:101510001F920F920FB60F9211240BB60F922F93BA
:101520003F934F935F936F937F938F939F93AF936B
:10153000BF93EF93FF938BE393E10E941D02FF9112
:10154000EF91BF91AF919F918F917F916F915F913B
:101550004F913F912F910F900BBE0F900FBE0F90A8
:101560001F9018951F920F920FB60F9211240BB671
:101570000F922F938F939F93EF93FF93E0914B13D1
:10158000F0914C138081E0915113F091521382FD40
:101590001DC09081809154138F5F8F7320915513DC
:1015A000821741F0E0915413F0E0E55CFC4E958F1A
:1015B00080935413FF91EF919F918F912F910F90F2
:1015C0000BBE0F900FBE0F901F9018958081F2CF29
:1015D0001F920F920FB60F9211240BB60F922F93FA
:1015E0003F934F935F936F937F938F939F93AF93AB
:1015F000BF93EF93FF9388ED93E10E941D02FF914B
:10160000EF91BF91AF919F918F917F916F915F917A
:101610004F913F912F910F900BBE0F900FBE0F90E7
:101620001F9018951F920F920FB60F9211240BB6B0
:101630000F922F938F939F93EF93FF93E091E81373
:10164000F091E9138081E091EE13F091EF1382FDA8
:101650001DC090818091F1138F5F8F732091F213E1
:10166000821741F0E091F113F0E0E852FC4E958FC3
:101670008093F113FF91EF919F918F912F910F9094
:101680000BBE0F900FBE0F901F9018958081F2CF68
:101690001F920F920FB60F9211240BB60F922F9339
:1016A0003F934F935F936F937F938F939F93AF93EA
:1016B000BF93EF93FF938091B900887F803609F440
:1016C0004DC008F040C0883209F4A7C028F5803129
:1016D00009F49BC0C8F4882309F403C1883009F4D5
:1016E00094C0FF91EF91BF91AF919F918F917F91A6
:1016F0006F915F914F913F912F910F900BBE0F9083
:101700000FBE0F901F901895883109F486C0803263
:1017100041F78093161314C0803409F4A3C040F439
:101720008033B9F38833E9F68093161385ECBAC099
:10173000803509F487C0883509F49CC0883489F65F
:101740000E94C402CECF883909F492C038F5883798
:1017500029F050F4883611F0803719F683E0809331
:1017600018131092B00255C0883809F481C080392E
:1017700019F0803809F0B5CF8091B002803208F0BE
:1017800077C0E091B00281E08E0F8093B00280912B
:10179000BB00F0E0E057FD4F80833BC0803B39F059
:1017A000D0F4803A09F483C0883A09F09ACF84E0F3
:1017B0008093181310928F0210928E02F0E0E0E0F6
:1017C000099580918E0281110FC081E080938E0275
:1017D00010926E0209C0803C09F4A8CF883C09F43D
:1017E000A5CF883B09F07DCFE0918F0281E08E0F7D
:1017F00080938F02F0E0E259FD4F80818093BB001F
:1018000090918F0280918E0231C08091111380934C
:10181000BB0085EC8093BC0064CF90911313809142
:1018200012139817B8F58091141390911513E09145
:10183000131321E02E0F20931313E80FF92FF11D3E
:101840008081E5CF2091141330911513E09113138B
:1018500081E08E0F809313138091BB00E20FF32F72
:10186000F11D80839091131380911213981788F2C1
:1018700085E8D0CF2091141330911513E091131304
:1018800081E08E0F809313138091BB00E20FF32F42
:10189000F11D808380911713811152CF81E08093D5
:1018A000101384EA8093BC00109218131ACF85ECB1
:1018B0008093BC00109218138091B002803230F4F3
:1018C000E091B002F0E0E057FD4F10826091B0026D
:1018D00070E080E992E0F0E0E0E009951092B0025B
:1018E00000CF109216132CCF1F920F920FB60F92AB
:1018F00011248F939F93AF93BF934C9B25C08091EE
:101900008400909185009093690280936802809191
:101910006A0290916B02A0916C02B0916D020196E7
:10192000A11DB11D80936A0290936B02A0936C027B
:10193000B0936D02479ABF91AF919F918F910F9095
:101940000FBE0F901F9018954798F5CFEBE3F3E18A
:101950001382128288EE93E0A0E0B0E08483958346
:10196000A683B78326E131E0318320834DEC50E03C
:10197000558744874CEC50E05787468748EC50E049
:10198000518B408B49EC50E0538B428B4AEC50E03A
:10199000558B448B4EEC50E0578B468B118E128E3C
:1019A000138E148EE8EDF3E1138212828483958303
:1019B000A683B7833183208325EC30E035872487E5
:1019C00024EC30E03787268720EC30E0318B208B09
:1019D00021EC30E0338B228B22EC30E0358B248BF2
:1019E00026EC30E0378B268B118E128E138E148EE0
:1019F000E5E7F4E11382128284839583A683B7839B
:101A000088E291E09183808362E671E087E894E167
:101A10000E944C0663E971E081E894E10C944C0665
:101A2000CF93DF93CDB7DEB72C970FB6F894DEBF18
:101A30000FBECDBF789484B5836084BD85B58360C7
:101A400085BD80916E00816080936E0082E08093FE
:101A5000810090918100916090938100909180002D
:101A60009160909380009091B10094609093B10048
:101A70009091B00091609093B0009091910093602C
:101A8000909391009091900091609093900096E8CF
:101A900090937A001092C100E091E813F091E9135D
:101AA0008083E091E413F091E5131082E091E61356
:101AB000F091E71398E090831092F013E091EC130B
:101AC000F091ED1326E02083E091EA13F091EB13FF
:101AD000908198699083E091EA13F091EB139081E3
:101AE0009F7D9083E0914B13F0914C138083E091A4
:101AF0004713F09148131082E0914913F0914A1373
:101B000089E1808310925313E0914F13F0915013A9
:101B10002083E0914D13F0914E138081886980837A
:101B2000E0914D13F0914E1380818F7D808380E290
:101B30008093B8001FB7F8948091B102811127C03B
:101B4000E4EAF0E08491E4ECF0E09491E82FF0E036
:101B5000EE0FFF1FE457FF4FA591B491EC91E923DD
:101B600021F461E084E00E94060161E084E00E94CB
:101B700062018CB580618CBD8CB580648CBD61E0E8
:101B800087E00E94620161E085E00E94620180912D
:101B9000B1028F5F8093B1021FBF81E58CBD1DBC78
:101BA0001092800085E08093810010928500109251
:101BB000840060E080E00E94620160E08CE00E94AE
:101BC000620161E082E10E94620161E08FE00E94B7
:101BD000620161E085E10E94620161E086E10E94AC
:101BE000620161E087E10E94620161E08FE00E9492
:101BF000060161E082E10E94060180916800886030
:101C0000809368008091730080618093730084EA00
:101C100091E00E946C040E9403056DEA71E0CE0120
:101C200001960E944C064091851450918614609153
:101C3000811470918214CE0101960E9420068111B8
:101C400004C0CE0101960E94DE0543E050E06DEB3A
:101C500071E0CE0101960E942006811104C0CE01E0
:101C600001960E94DE0540918B1450918C14609176
:101C7000871470918814CE0101960E94200681116C
:101C800004C0CE0101960E94DE0541E050E06FEBFA
:101C900071E0CE0101960E942006811104C0CE01A0
:101CA00001960E94DE0518861F821A8619861C86F8
:101CB0001B8609811A810115110569F0ED80FE80EE
:101CC000B701CE0107960E94F80581112FC1CE0100
:101CD00007960E94DE05CE0101960E94F0054B8515
:101CE0005C856F81788588ED93E10E949F010E9459
:101CF000C3040E94030581EC91E00E9407050E9445
:101D0000C3048FEB91E00E94070581E08093EC1201
:101D100083E580930E131092ED1210920F1390E052
:101D200080E00E947B0390E080E00E947B030E94A1
:101D3000AE0062E083E50E94290485E794E10E94F9
:101D40000503182F8093B30285E794E10E940503F1
:101D50008093B202612F70E090E080E040E10E9449
:101D600079046091B20270E090E080E040E10E946E
:101D700079040E94030583ED91E00E946C040E94A7
:101D800003050E945E0960E085E10E94060160E0B3
:101D900086E10E94060160E087E10E940601E9E514
:101DA000F2E180E8DF011D928A95E9F780ED97E086
:101DB000E9E8FAE0DF019C011D9221503040E1F793
:101DC000E9EBF2E0DF019C011D9221503040E1F788
:101DD0001092DE121092DD120E9493016093DF12C6
:101DE0007093E0128093E1129093E2120E949301AB
:101DF0006093D9127093DA128093DB129093DC1205
:101E000080918400909185009093B8028093B702EE
:101E1000CE0107960E94F00599ED292E92E1392E08
:101E200020ED822E27E0922E0E94DE030E947D0686
:101E30000E9493012B013C018091DF129091E012EE
:101E4000A091E112B091E212A3019201281B390B7B
:101E50004A0B5B0BDA01C90180319742A105B1053C
:101E600040F48091DD129091DE12883E934008F498
:101E7000F4C04092DF125092E0126092E112709230
:101E8000E21261E086E10E9406018091B4028111B4
:101E900055C019821A821B821C821F82F894A0905E
:101EA0008400B0908500C090DD12D090DE120091C9
:101EB000B7021091B80278948CED91E00E9407056A
:101EC0008091B5029091B6020E94BD048FEB91E023
:101ED0000E940705C8010E94BD040E94030510E08E
:101EE00000E0C016D10691F1083E53E0150771F1EC
:101EF0000E94DE0384EE91E00E9407057801EE0C5B
:101F0000FF1CF701E757F54F808191810E94BD04C6
:101F10008FEB91E00E940705F701E754FD4F8081A8
:101F200091810E94BD040F5F1F4FDBCFFC86EB86C3
:101F3000B8018F8198850E941715CDCEBE01695FCB
:101F40007F4FCE0101960E948303A8CF8AEE91E0D5
:101F50000E9407058091B5029091B6020E94BD04CF
:101F60008FEB91E00E94070569817A818B819C81CA
:101F70004AE00E9479048BEA91E00E9407056F8194
:101F800070E090E080E04AE00E9479048FEB91E0FD
:101F90000E940705C5010E94BD048FEB91E00E94DD
:101FA0000705C6010E94BD0409E512E10E94DE0397
:101FB0008FEB91E00E940705D8018D919D918D01D5
:101FC0000E94BD042016310689F70E940305809106
:101FD000B5029091B60201969093B6028093B50235
:101FE000E9E5F2E120E811922A95E9F7A9E8BAE0DB
:101FF000F4011D923197E9F7A9EBB2E0F4011D92CB
:102000003197E9F71092DE121092DD128091840070
:10201000909185009093B8028093B70261E08FE0C1
:102020000E94060160E082E10E9406010CB405FCFA
:1020300036C01EBC00000DB407FEFDCF8EB51EBC21
:1020400000000DB407FEFDCF8EB561E082E10E9475
:10205000060160E086E10E9406018091D91290910C
:10206000DA12A091DB12B091DC12A3019201281BBD
:10207000390B4A0B5B0BDA01C90180339547A10587
:10208000B10550F04092D9125092DA126092DB12F0
:102090007092DC120E945E090E94B102C5CE1EBC85
:1020A00000000DB407FEFDCF8EB51EBC00000DB4C0
:1020B00007FEFDCFC9CF81E894E10E94F00587E8D3
:1020C00094E10C94F0050E94A51008F481E00895B5
:1020D000E89409C097FB3EF49095809570956195C2
:1020E0007F4F8F4F9F4F9923A9F0F92F96E9BB2778
:1020F0009395F695879577956795B795F111F8CFF4
:10210000FAF4BB0F11F460FF1BC06F5F7F4F8F4F5E
:102110009F4F16C0882311F096E911C0772321F054
:102120009EE8872F762F05C0662371F096E8862FEC
:1021300070E060E02AF09A95660F771F881FDAF743
:10214000880F9695879597F90895990F0008550F70
:10215000AA0BE0E8FEEF16161706E807F907C0F02D
:1021600012161306E407F50798F0621B730B840B35
:10217000950B39F40A2661F0232B242B252B21F40F
:1021800008950A2609F4A140A6958FEF811D811DAF
:1021900008950E94DC100C944D110E943F1138F0FC
:1021A0000E94461120F0952311F00C9436110C94E6
:1021B0003C1111240C9481110E945E1170F3959FC3
:1021C000C1F3950F50E0551F629FF001729FBB272E
:1021D000F00DB11D639FAA27F00DB11DAA1F649FCA
:1021E0006627B00DA11D661F829F2227B00DA11D7D
:1021F000621F739FB00DA11D621F839FA00D611D03
:10220000221F749F3327A00D611D231F849F600D23
:10221000211D822F762F6A2F11249F5750409AF04C
:10222000F1F088234AF0EE0FFF1FBB1F661F771FD8
:10223000881F91505040A9F79E3F510580F00C94A3
:1022400036110C9481115F3FE4F3983ED4F38695E8
:1022500077956795B795F795E7959F5FC1F7FE2B43
:10226000880F911D9695879597F9089597F99F671F
:1022700080E870E060E008959FEF80EC089500240E
:102280000A941616170618060906089500240A94DB
:1022900012161306140605060895092E0394000C61
:1022A00011F4882352F0BB0F40F4BF2B11F460FFF0
:1022B00004C06F5F7F4F8F4F9F4F089557FD905819
:1022C000440F551F59F05F3F71F04795880F97FBFA
:1022D000991F61F09F3F79F08795089512161306B4
:1022E0001406551FF2CF4695F1DF08C016161706E3
:1022F0001806991FF1CF8695710561050894089518
:10230000E894BB2766277727CB0197F908950E94A9
:102310009211A59F900DB49F900DA49F800D911DCB
:1023200011240895A29FB001B39FC001A39F700D17
:10233000811D1124911DB29F700D811D1124911DCD
:102340000895DB018F939F930E948711BF91AF91F6
:10235000A29F800D911DA39F900DB29F900D1124FF
:102360000895AA1BBB1B51E107C0AA1FBB1FA617DC
:10237000B70710F0A61BB70B881F991F5A95A9F72E
:1023800080959095BC01CD010895A1E21A2EAA1B5B
:10239000BB1BFD010DC0AA1FBB1FEE1FFF1FA21715
:1023A000B307E407F50720F0A21BB30BE40BF50B12
:1023B000661F771F881F991F1A9469F7609570959B
:1023C000809590959B01AC01BD01CF010895EE0F62
:1023D000FF1F0024001C0BBE0790F691E02D09940E
:1023E0005058BB27AA270E9408120C944D110E9436
:1023F0003F1138F00E94461120F039F49F3F19F444
:1024000026F40C943C110EF4E095E7FB0C94361185
:10241000E92F0E945E1158F3BA1762077307840709
:10242000950720F079F4A6F50C9480110EF4E09550
:102430000B2EBA2FA02D0B01B90190010C01CA017E
:10244000A0011124FF27591B99F0593F50F4503E29
:1024500068F11A16F040A22F232F342F4427585F1B
:10246000F3CF469537952795A795F0405395C9F733
:102470007EF41F16BA0B620B730B840BBAF09150EB
:10248000A1F0FF0FBB1F661F771F881FC2F70EC08A
:10249000BA0F621F731F841F48F48795779567955D
:1024A000B795F7959E3F08F0B0CF9395880F08F049
:1024B0009927EE0F9795879508950E9471120C94B5
:1024C0004D110E94461158F00E943F1140F029F42E
:1024D0005F3F29F00C94361151110C9481110C942A
:1024E0003C110E945E1168F39923B1F3552391F3D7
:1024F000951B550BBB27AA2762177307840738F073
:102500009F5F5F4F220F331F441FAA1FA9F335D0CF
:102510000E2E3AF0E0E832D091505040E695001C83
:10252000CAF72BD0FE2F29D0660F771F881FBB1F3D
:10253000261737074807AB07B0E809F0BB0B802D1B
:10254000BF01FF2793585F4F3AF09E3F510578F047
:102550000C9436110C9481115F3FE4F3983ED4F350
:10256000869577956795B795F7959F5FC9F7880F1B
:10257000911D9695879597F90895E1E0660F771F6D
:10258000881FBB1F621773078407BA0720F0621BFE
:10259000730B840BBA0BEE1F88F7E09508950E9429
:1025A000661188F09F5798F0B92F9927B751B0F06E
:1025B000E1F0660F771F881F991F1AF0BA95C9F7C7
:1025C00014C0B13091F00E948011B1E008950C94D4
:1025D0008011672F782F8827B85F39F0B93FCCF387
:1025E000869577956795B395D9F73EF49095809544
:1025F000709561957F4F8F4F9F4F08950E94A51052
:1026000008F48FEF08950E94A510880B990B089588
:102610000F931F93CF93DF938230910510F482E0E4
:1026200090E0E0918F14F091901430E020E0B0E061
:10263000A0E0309799F42115310509F44AC0281B10
:10264000390B24303105D8F58A819B8161157105DC
:1026500089F1FB0193838283FE0111C04081518186
:102660000281138148175907E0F04817590799F478
:10267000109761F012960C93129713961C93329652
:10268000CF01DF91CF911F910F91089500938F1487
:1026900010939014F4CF2115310551F042175307D0
:1026A00038F0A901DB019A01BD01DF01F801C1CFBA
:1026B000EF01F9CF9093901480938F14CDCFFE014A
:1026C000E20FF31F819391932250310939832883BC
:1026D000D7CF20918D1430918E14232B41F420916B
:1026E00002013091030130938E1420938D142091B8
:1026F0000001309101012115310541F42DB73EB79C
:102700004091040150910501241B350BE0918D147B
:10271000F0918E14E217F307A0F42E1B3F0B28173D
:10272000390778F0AC014E5F5F4F2417350748F04A
:102730004E0F5F1F50938E1440938D14819391938D
:102740009FCFF0E0E0E09CCFCF93DF930097E9F0DC
:10275000FC01329713821282A0918F14B0919014D1
:10276000ED0130E020E01097A1F420813181820F4B
:10277000931F20918D1430918E142817390709F07A
:1027800061C0F0938E14E0938D14DF91CF91089582
:10279000EA01CE17DF07E8F54A815B819E0141150A
:1027A0005105B1F7E901FB83EA8349915991C40FBF
:1027B000D51FEC17FD0761F4808191810296840F8B
:1027C000951FE90199838883828193819B838A8302
:1027D000F0E0E0E012968D919C9113970097B9F587
:1027E0002D913C911197CD010296820F931F20915C
:1027F0008D1430918E142817390739F6309751F51A
:102800001092901410928F14B0938E14A0938D1484
:10281000BCCFD383C28340815181840F951FC817D9
:10282000D90761F44E5F5F4F88819981480F591F26
:10283000518340838A819B81938382832115310553
:1028400009F0B0CFF0939014E0938F149ECFFD0168
:10285000DC01C0CF13821282D7CF4F925F926F926A
:102860007F928F929F92AF92BF92CF92DF92EF9220
:10287000FF920F931F93CF93DF938C01009799F4EE
:10288000CB01DF91CF911F910F91FF90EF90DF90DF
:10289000CF90BF90AF909F908F907F906F905F9000
:1028A0004F900C940813FC01E60FF71F9C01225077
:1028B0003109E217F30708F4AEC0D901CD91DC91DC
:1028C0001197C617D70720F1C530D10578F0CE0192
:1028D00004978617970750F0C61BD70B2297C19312
:1028E000D1936D937C93CF010E94A413C801DF9113
:1028F000CF911F910F91FF90EF90DF90CF90BF90FD
:10290000AF909F908F907F906F905F904F900895C1
:102910005B01AC1ABD0A4C018C0E9D1EA0918F1458
:10292000B0919014512C412CF12CE12C109731F5E1
:1029300080918D1490918E148815990509F05CC0D2
:102940004616570608F058C0809100019091010189
:10295000009741F48DB79EB7409104015091050155
:10296000841B950BE817F90708F055C0F0938E14F7
:10297000E0938D14F90171836083B8CF8D919C91A0
:10298000119712966C90129713967C901397A81536
:10299000B90559F56C0142E0C40ED11CCA14DB0420
:1029A00020F1AC014A195B09DA011296159780F003
:1029B0006282738251834083D9016D937C93E114C9
:1029C000F10471F0D7011396FC93EE9312978ECF1A
:1029D00022968C0F9D1FF90191838083F301EFCF25
:1029E000F0939014E0938F1481CF4816590608F4A1
:1029F0002C017D01D3019ACFCB010E9408137C01E9
:102A0000009749F0AE01B8010E940E15C8010E945E
:102A1000A41387016BCF10E000E068CFFB01DC015D
:102A200002C001900D9241505040D8F70895FB012B
:102A3000DC0101900D920020E1F70895FB01DC011B
:102A40004150504030F08D910190801919F40020D0
:102A5000B9F7881B990B089510E0C1E8D0E004C0D5
:102A6000FE010E94E7112196C238D107C9F7F894F8
:022A7000FFCF96
:102A72000000911480001F1C1F1E1F1E1F1F1E1FFF
:102A82001E1F000000003F029F01CC019102FD01C8
:102A9200DB01EF01000000004C031F038003F5027D
:102AA20018030503F6020D0A006E616E00696E6678
:102AB200006F766600244750524D432C0024474E47
:102AC200524D432C002454494D452C0024454E566A
:102AD2002C00383335646534653338393037363451
:102AE200663965333066636432326435313161662A
:102AF200613332363934313263312C43494275699C
:102B02006C6400312E332E312D35332D43494275FD
:102B1200696C6400234376616B2E2E2E0024444F91
:102B2200532C414952444F533033422C002C302C09
:102B320000244144432C555354534950494E303399
:102B4200432C0023486D6D6D2E2E2E0024535441CC
:102B520052542C000D0A24452C000D0A2453544FC4
:042B6200502C0000F3
:00000001FF
